{
	"contracts/Zero2Hero_BNB/2_Token_Deployment/SushiToken.sol": {
		"SushiToken": {
			"abi": [
				{
					"anonymous": false,
					"inputs": [
						{
							"indexed": true,
							"internalType": "address",
							"name": "owner",
							"type": "address"
						},
						{
							"indexed": true,
							"internalType": "address",
							"name": "spender",
							"type": "address"
						},
						{
							"indexed": false,
							"internalType": "uint256",
							"name": "value",
							"type": "uint256"
						}
					],
					"name": "Approval",
					"type": "event"
				},
				{
					"anonymous": false,
					"inputs": [
						{
							"indexed": true,
							"internalType": "address",
							"name": "delegator",
							"type": "address"
						},
						{
							"indexed": true,
							"internalType": "address",
							"name": "fromDelegate",
							"type": "address"
						},
						{
							"indexed": true,
							"internalType": "address",
							"name": "toDelegate",
							"type": "address"
						}
					],
					"name": "DelegateChanged",
					"type": "event"
				},
				{
					"anonymous": false,
					"inputs": [
						{
							"indexed": true,
							"internalType": "address",
							"name": "delegate",
							"type": "address"
						},
						{
							"indexed": false,
							"internalType": "uint256",
							"name": "previousBalance",
							"type": "uint256"
						},
						{
							"indexed": false,
							"internalType": "uint256",
							"name": "newBalance",
							"type": "uint256"
						}
					],
					"name": "DelegateVotesChanged",
					"type": "event"
				},
				{
					"anonymous": false,
					"inputs": [
						{
							"indexed": true,
							"internalType": "address",
							"name": "previousOwner",
							"type": "address"
						},
						{
							"indexed": true,
							"internalType": "address",
							"name": "newOwner",
							"type": "address"
						}
					],
					"name": "OwnershipTransferred",
					"type": "event"
				},
				{
					"anonymous": false,
					"inputs": [
						{
							"indexed": true,
							"internalType": "address",
							"name": "from",
							"type": "address"
						},
						{
							"indexed": true,
							"internalType": "address",
							"name": "to",
							"type": "address"
						},
						{
							"indexed": false,
							"internalType": "uint256",
							"name": "value",
							"type": "uint256"
						}
					],
					"name": "Transfer",
					"type": "event"
				},
				{
					"inputs": [],
					"name": "DELEGATION_TYPEHASH",
					"outputs": [
						{
							"internalType": "bytes32",
							"name": "",
							"type": "bytes32"
						}
					],
					"stateMutability": "view",
					"type": "function"
				},
				{
					"inputs": [],
					"name": "DOMAIN_TYPEHASH",
					"outputs": [
						{
							"internalType": "bytes32",
							"name": "",
							"type": "bytes32"
						}
					],
					"stateMutability": "view",
					"type": "function"
				},
				{
					"inputs": [
						{
							"internalType": "address",
							"name": "owner",
							"type": "address"
						},
						{
							"internalType": "address",
							"name": "spender",
							"type": "address"
						}
					],
					"name": "allowance",
					"outputs": [
						{
							"internalType": "uint256",
							"name": "",
							"type": "uint256"
						}
					],
					"stateMutability": "view",
					"type": "function"
				},
				{
					"inputs": [
						{
							"internalType": "address",
							"name": "spender",
							"type": "address"
						},
						{
							"internalType": "uint256",
							"name": "amount",
							"type": "uint256"
						}
					],
					"name": "approve",
					"outputs": [
						{
							"internalType": "bool",
							"name": "",
							"type": "bool"
						}
					],
					"stateMutability": "nonpayable",
					"type": "function"
				},
				{
					"inputs": [
						{
							"internalType": "address",
							"name": "account",
							"type": "address"
						}
					],
					"name": "balanceOf",
					"outputs": [
						{
							"internalType": "uint256",
							"name": "",
							"type": "uint256"
						}
					],
					"stateMutability": "view",
					"type": "function"
				},
				{
					"inputs": [
						{
							"internalType": "address",
							"name": "",
							"type": "address"
						},
						{
							"internalType": "uint32",
							"name": "",
							"type": "uint32"
						}
					],
					"name": "checkpoints",
					"outputs": [
						{
							"internalType": "uint32",
							"name": "fromBlock",
							"type": "uint32"
						},
						{
							"internalType": "uint256",
							"name": "votes",
							"type": "uint256"
						}
					],
					"stateMutability": "view",
					"type": "function"
				},
				{
					"inputs": [],
					"name": "decimals",
					"outputs": [
						{
							"internalType": "uint8",
							"name": "",
							"type": "uint8"
						}
					],
					"stateMutability": "view",
					"type": "function"
				},
				{
					"inputs": [
						{
							"internalType": "address",
							"name": "spender",
							"type": "address"
						},
						{
							"internalType": "uint256",
							"name": "subtractedValue",
							"type": "uint256"
						}
					],
					"name": "decreaseAllowance",
					"outputs": [
						{
							"internalType": "bool",
							"name": "",
							"type": "bool"
						}
					],
					"stateMutability": "nonpayable",
					"type": "function"
				},
				{
					"inputs": [
						{
							"internalType": "address",
							"name": "delegatee",
							"type": "address"
						}
					],
					"name": "delegate",
					"outputs": [],
					"stateMutability": "nonpayable",
					"type": "function"
				},
				{
					"inputs": [
						{
							"internalType": "address",
							"name": "delegatee",
							"type": "address"
						},
						{
							"internalType": "uint256",
							"name": "nonce",
							"type": "uint256"
						},
						{
							"internalType": "uint256",
							"name": "expiry",
							"type": "uint256"
						},
						{
							"internalType": "uint8",
							"name": "v",
							"type": "uint8"
						},
						{
							"internalType": "bytes32",
							"name": "r",
							"type": "bytes32"
						},
						{
							"internalType": "bytes32",
							"name": "s",
							"type": "bytes32"
						}
					],
					"name": "delegateBySig",
					"outputs": [],
					"stateMutability": "nonpayable",
					"type": "function"
				},
				{
					"inputs": [
						{
							"internalType": "address",
							"name": "delegator",
							"type": "address"
						}
					],
					"name": "delegates",
					"outputs": [
						{
							"internalType": "address",
							"name": "",
							"type": "address"
						}
					],
					"stateMutability": "view",
					"type": "function"
				},
				{
					"inputs": [
						{
							"internalType": "address",
							"name": "account",
							"type": "address"
						}
					],
					"name": "getCurrentVotes",
					"outputs": [
						{
							"internalType": "uint256",
							"name": "",
							"type": "uint256"
						}
					],
					"stateMutability": "view",
					"type": "function"
				},
				{
					"inputs": [
						{
							"internalType": "address",
							"name": "account",
							"type": "address"
						},
						{
							"internalType": "uint256",
							"name": "blockNumber",
							"type": "uint256"
						}
					],
					"name": "getPriorVotes",
					"outputs": [
						{
							"internalType": "uint256",
							"name": "",
							"type": "uint256"
						}
					],
					"stateMutability": "view",
					"type": "function"
				},
				{
					"inputs": [
						{
							"internalType": "address",
							"name": "spender",
							"type": "address"
						},
						{
							"internalType": "uint256",
							"name": "addedValue",
							"type": "uint256"
						}
					],
					"name": "increaseAllowance",
					"outputs": [
						{
							"internalType": "bool",
							"name": "",
							"type": "bool"
						}
					],
					"stateMutability": "nonpayable",
					"type": "function"
				},
				{
					"inputs": [
						{
							"internalType": "address",
							"name": "_to",
							"type": "address"
						},
						{
							"internalType": "uint256",
							"name": "_amount",
							"type": "uint256"
						}
					],
					"name": "mint",
					"outputs": [],
					"stateMutability": "nonpayable",
					"type": "function"
				},
				{
					"inputs": [],
					"name": "name",
					"outputs": [
						{
							"internalType": "string",
							"name": "",
							"type": "string"
						}
					],
					"stateMutability": "view",
					"type": "function"
				},
				{
					"inputs": [
						{
							"internalType": "address",
							"name": "",
							"type": "address"
						}
					],
					"name": "nonces",
					"outputs": [
						{
							"internalType": "uint256",
							"name": "",
							"type": "uint256"
						}
					],
					"stateMutability": "view",
					"type": "function"
				},
				{
					"inputs": [
						{
							"internalType": "address",
							"name": "",
							"type": "address"
						}
					],
					"name": "numCheckpoints",
					"outputs": [
						{
							"internalType": "uint32",
							"name": "",
							"type": "uint32"
						}
					],
					"stateMutability": "view",
					"type": "function"
				},
				{
					"inputs": [],
					"name": "owner",
					"outputs": [
						{
							"internalType": "address",
							"name": "",
							"type": "address"
						}
					],
					"stateMutability": "view",
					"type": "function"
				},
				{
					"inputs": [],
					"name": "renounceOwnership",
					"outputs": [],
					"stateMutability": "nonpayable",
					"type": "function"
				},
				{
					"inputs": [],
					"name": "symbol",
					"outputs": [
						{
							"internalType": "string",
							"name": "",
							"type": "string"
						}
					],
					"stateMutability": "view",
					"type": "function"
				},
				{
					"inputs": [],
					"name": "totalSupply",
					"outputs": [
						{
							"internalType": "uint256",
							"name": "",
							"type": "uint256"
						}
					],
					"stateMutability": "view",
					"type": "function"
				},
				{
					"inputs": [
						{
							"internalType": "address",
							"name": "to",
							"type": "address"
						},
						{
							"internalType": "uint256",
							"name": "amount",
							"type": "uint256"
						}
					],
					"name": "transfer",
					"outputs": [
						{
							"internalType": "bool",
							"name": "",
							"type": "bool"
						}
					],
					"stateMutability": "nonpayable",
					"type": "function"
				},
				{
					"inputs": [
						{
							"internalType": "address",
							"name": "from",
							"type": "address"
						},
						{
							"internalType": "address",
							"name": "to",
							"type": "address"
						},
						{
							"internalType": "uint256",
							"name": "amount",
							"type": "uint256"
						}
					],
					"name": "transferFrom",
					"outputs": [
						{
							"internalType": "bool",
							"name": "",
							"type": "bool"
						}
					],
					"stateMutability": "nonpayable",
					"type": "function"
				},
				{
					"inputs": [
						{
							"internalType": "address",
							"name": "newOwner",
							"type": "address"
						}
					],
					"name": "transferOwnership",
					"outputs": [],
					"stateMutability": "nonpayable",
					"type": "function"
				}
			],
			"devdoc": {
				"events": {
					"Approval(address,address,uint256)": {
						"details": "Emitted when the allowance of a `spender` for an `owner` is set by a call to {approve}. `value` is the new allowance."
					},
					"Transfer(address,address,uint256)": {
						"details": "Emitted when `value` tokens are moved from one account (`from`) to another (`to`). Note that `value` may be zero."
					}
				},
				"kind": "dev",
				"methods": {
					"allowance(address,address)": {
						"details": "See {IERC20-allowance}."
					},
					"approve(address,uint256)": {
						"details": "See {IERC20-approve}. NOTE: If `amount` is the maximum `uint256`, the allowance is not updated on `transferFrom`. This is semantically equivalent to an infinite approval. Requirements: - `spender` cannot be the zero address."
					},
					"balanceOf(address)": {
						"details": "See {IERC20-balanceOf}."
					},
					"decimals()": {
						"details": "Returns the number of decimals used to get its user representation. For example, if `decimals` equals `2`, a balance of `505` tokens should be displayed to a user as `5.05` (`505 / 10 ** 2`). Tokens usually opt for a value of 18, imitating the relationship between Ether and Wei. This is the value {ERC20} uses, unless this function is overridden; NOTE: This information is only used for _display_ purposes: it in no way affects any of the arithmetic of the contract, including {IERC20-balanceOf} and {IERC20-transfer}."
					},
					"decreaseAllowance(address,uint256)": {
						"details": "Atomically decreases the allowance granted to `spender` by the caller. This is an alternative to {approve} that can be used as a mitigation for problems described in {IERC20-approve}. Emits an {Approval} event indicating the updated allowance. Requirements: - `spender` cannot be the zero address. - `spender` must have allowance for the caller of at least `subtractedValue`."
					},
					"delegate(address)": {
						"params": {
							"delegatee": "The address to delegate votes to"
						}
					},
					"delegateBySig(address,uint256,uint256,uint8,bytes32,bytes32)": {
						"params": {
							"delegatee": "The address to delegate votes to",
							"expiry": "The time at which to expire the signature",
							"nonce": "The contract state required to match the signature",
							"r": "Half of the ECDSA signature pair",
							"s": "Half of the ECDSA signature pair",
							"v": "The recovery byte of the signature"
						}
					},
					"delegates(address)": {
						"params": {
							"delegator": "The address to get delegatee for"
						}
					},
					"getCurrentVotes(address)": {
						"params": {
							"account": "The address to get votes balance"
						},
						"returns": {
							"_0": "The number of current votes for `account`"
						}
					},
					"getPriorVotes(address,uint256)": {
						"details": "Block number must be a finalized block or else this function will revert to prevent misinformation.",
						"params": {
							"account": "The address of the account to check",
							"blockNumber": "The block number to get the vote balance at"
						},
						"returns": {
							"_0": "The number of votes the account had as of the given block"
						}
					},
					"increaseAllowance(address,uint256)": {
						"details": "Atomically increases the allowance granted to `spender` by the caller. This is an alternative to {approve} that can be used as a mitigation for problems described in {IERC20-approve}. Emits an {Approval} event indicating the updated allowance. Requirements: - `spender` cannot be the zero address."
					},
					"name()": {
						"details": "Returns the name of the token."
					},
					"owner()": {
						"details": "Returns the address of the current owner."
					},
					"renounceOwnership()": {
						"details": "Leaves the contract without owner. It will not be possible to call `onlyOwner` functions anymore. Can only be called by the current owner. NOTE: Renouncing ownership will leave the contract without an owner, thereby removing any functionality that is only available to the owner."
					},
					"symbol()": {
						"details": "Returns the symbol of the token, usually a shorter version of the name."
					},
					"totalSupply()": {
						"details": "See {IERC20-totalSupply}."
					},
					"transfer(address,uint256)": {
						"details": "See {IERC20-transfer}. Requirements: - `to` cannot be the zero address. - the caller must have a balance of at least `amount`."
					},
					"transferFrom(address,address,uint256)": {
						"details": "See {IERC20-transferFrom}. Emits an {Approval} event indicating the updated allowance. This is not required by the EIP. See the note at the beginning of {ERC20}. NOTE: Does not update the allowance if the current allowance is the maximum `uint256`. Requirements: - `from` and `to` cannot be the zero address. - `from` must have a balance of at least `amount`. - the caller must have allowance for ``from``'s tokens of at least `amount`."
					},
					"transferOwnership(address)": {
						"details": "Transfers ownership of the contract to a new account (`newOwner`). Can only be called by the current owner."
					}
				},
				"version": 1
			},
			"evm": {
				"assembly": "    /* \"contracts/Zero2Hero_BNB/2_Token_Deployment/SushiToken.sol\":356:9056  contract SushiToken is ERC20(\"SushiToken\", \"SUSHI\"), Ownable {... */\n  mstore(0x40, 0x80)\n  callvalue\n  dup1\n  iszero\n  tag_1\n  jumpi\n  0x00\n  dup1\n  revert\ntag_1:\n  pop\n    /* \"@openzeppelin/contracts/token/ERC20/ERC20.sol\":1984:2097  constructor(string memory name_, string memory symbol_) {... */\n  mload(0x40)\n  dup1\n  0x40\n  add\n  0x40\n  mstore\n  dup1\n  0x0a\n  dup2\n  mstore\n  0x20\n  add\n  0x5375736869546f6b656e00000000000000000000000000000000000000000000\n  dup2\n  mstore\n  pop\n  mload(0x40)\n  dup1\n  0x40\n  add\n  0x40\n  mstore\n  dup1\n  0x05\n  dup2\n  mstore\n  0x20\n  add\n  0x5355534849000000000000000000000000000000000000000000000000000000\n  dup2\n  mstore\n  pop\n    /* \"@openzeppelin/contracts/token/ERC20/ERC20.sol\":2058:2063  name_ */\n  dup2\n    /* \"@openzeppelin/contracts/token/ERC20/ERC20.sol\":2050:2055  _name */\n  0x03\n    /* \"@openzeppelin/contracts/token/ERC20/ERC20.sol\":2050:2063  _name = name_ */\n  swap1\n  dup2\n  tag_5\n  swap2\n  swap1\n  tag_6\n  jump\t// in\ntag_5:\n  pop\n    /* \"@openzeppelin/contracts/token/ERC20/ERC20.sol\":2083:2090  symbol_ */\n  dup1\n    /* \"@openzeppelin/contracts/token/ERC20/ERC20.sol\":2073:2080  _symbol */\n  0x04\n    /* \"@openzeppelin/contracts/token/ERC20/ERC20.sol\":2073:2090  _symbol = symbol_ */\n  swap1\n  dup2\n  tag_7\n  swap2\n  swap1\n  tag_6\n  jump\t// in\ntag_7:\n  pop\n    /* \"@openzeppelin/contracts/token/ERC20/ERC20.sol\":1984:2097  constructor(string memory name_, string memory symbol_) {... */\n  pop\n  pop\n    /* \"@openzeppelin/contracts/access/Ownable.sol\":944:976  _transferOwnership(_msgSender()) */\n  tag_9\n    /* \"@openzeppelin/contracts/access/Ownable.sol\":963:975  _msgSender() */\n  tag_10\n    /* \"@openzeppelin/contracts/access/Ownable.sol\":963:973  _msgSender */\n  shl(0x20, tag_11)\n    /* \"@openzeppelin/contracts/access/Ownable.sol\":963:975  _msgSender() */\n  0x20\n  shr\n  jump\t// in\ntag_10:\n    /* \"@openzeppelin/contracts/access/Ownable.sol\":944:962  _transferOwnership */\n  shl(0x20, tag_12)\n    /* \"@openzeppelin/contracts/access/Ownable.sol\":944:976  _transferOwnership(_msgSender()) */\n  0x20\n  shr\n  jump\t// in\ntag_9:\n    /* \"contracts/Zero2Hero_BNB/2_Token_Deployment/SushiToken.sol\":356:9056  contract SushiToken is ERC20(\"SushiToken\", \"SUSHI\"), Ownable {... */\n  jump(tag_13)\n    /* \"@openzeppelin/contracts/utils/Context.sol\":648:744  function _msgSender() internal view virtual returns (address) {... */\ntag_11:\n    /* \"@openzeppelin/contracts/utils/Context.sol\":701:708  address */\n  0x00\n    /* \"@openzeppelin/contracts/utils/Context.sol\":727:737  msg.sender */\n  caller\n    /* \"@openzeppelin/contracts/utils/Context.sol\":720:737  return msg.sender */\n  swap1\n  pop\n    /* \"@openzeppelin/contracts/utils/Context.sol\":648:744  function _msgSender() internal view virtual returns (address) {... */\n  swap1\n  jump\t// out\n    /* \"@openzeppelin/contracts/access/Ownable.sol\":2441:2628  function _transferOwnership(address newOwner) internal virtual {... */\ntag_12:\n    /* \"@openzeppelin/contracts/access/Ownable.sol\":2514:2530  address oldOwner */\n  0x00\n    /* \"@openzeppelin/contracts/access/Ownable.sol\":2533:2539  _owner */\n  0x05\n  0x00\n  swap1\n  sload\n  swap1\n  0x0100\n  exp\n  swap1\n  div\n  0xffffffffffffffffffffffffffffffffffffffff\n  and\n    /* \"@openzeppelin/contracts/access/Ownable.sol\":2514:2539  address oldOwner = _owner */\n  swap1\n  pop\n    /* \"@openzeppelin/contracts/access/Ownable.sol\":2558:2566  newOwner */\n  dup2\n    /* \"@openzeppelin/contracts/access/Ownable.sol\":2549:2555  _owner */\n  0x05\n  0x00\n    /* \"@openzeppelin/contracts/access/Ownable.sol\":2549:2566  _owner = newOwner */\n  0x0100\n  exp\n  dup2\n  sload\n  dup2\n  0xffffffffffffffffffffffffffffffffffffffff\n  mul\n  not\n  and\n  swap1\n  dup4\n  0xffffffffffffffffffffffffffffffffffffffff\n  and\n  mul\n  or\n  swap1\n  sstore\n  pop\n    /* \"@openzeppelin/contracts/access/Ownable.sol\":2612:2620  newOwner */\n  dup2\n    /* \"@openzeppelin/contracts/access/Ownable.sol\":2581:2621  OwnershipTransferred(oldOwner, newOwner) */\n  0xffffffffffffffffffffffffffffffffffffffff\n  and\n    /* \"@openzeppelin/contracts/access/Ownable.sol\":2602:2610  oldOwner */\n  dup2\n    /* \"@openzeppelin/contracts/access/Ownable.sol\":2581:2621  OwnershipTransferred(oldOwner, newOwner) */\n  0xffffffffffffffffffffffffffffffffffffffff\n  and\n  0x8be0079c531659141344cd1fd0a4f28419497f9722a3daafe3b4186f6b6457e0\n  mload(0x40)\n  mload(0x40)\n  dup1\n  swap2\n  sub\n  swap1\n  log3\n    /* \"@openzeppelin/contracts/access/Ownable.sol\":2504:2628  {... */\n  pop\n    /* \"@openzeppelin/contracts/access/Ownable.sol\":2441:2628  function _transferOwnership(address newOwner) internal virtual {... */\n  pop\n  jump\t// out\n    /* \"#utility.yul\":7:106   */\ntag_16:\n    /* \"#utility.yul\":59:65   */\n  0x00\n    /* \"#utility.yul\":93:98   */\n  dup2\n    /* \"#utility.yul\":87:99   */\n  mload\n    /* \"#utility.yul\":77:99   */\n  swap1\n  pop\n    /* \"#utility.yul\":7:106   */\n  swap2\n  swap1\n  pop\n  jump\t// out\n    /* \"#utility.yul\":112:292   */\ntag_17:\n    /* \"#utility.yul\":160:237   */\n  0x4e487b7100000000000000000000000000000000000000000000000000000000\n    /* \"#utility.yul\":157:158   */\n  0x00\n    /* \"#utility.yul\":150:238   */\n  mstore\n    /* \"#utility.yul\":257:261   */\n  0x41\n    /* \"#utility.yul\":254:255   */\n  0x04\n    /* \"#utility.yul\":247:262   */\n  mstore\n    /* \"#utility.yul\":281:285   */\n  0x24\n    /* \"#utility.yul\":278:279   */\n  0x00\n    /* \"#utility.yul\":271:286   */\n  revert\n    /* \"#utility.yul\":298:478   */\ntag_18:\n    /* \"#utility.yul\":346:423   */\n  0x4e487b7100000000000000000000000000000000000000000000000000000000\n    /* \"#utility.yul\":343:344   */\n  0x00\n    /* \"#utility.yul\":336:424   */\n  mstore\n    /* \"#utility.yul\":443:447   */\n  0x22\n    /* \"#utility.yul\":440:441   */\n  0x04\n    /* \"#utility.yul\":433:448   */\n  mstore\n    /* \"#utility.yul\":467:471   */\n  0x24\n    /* \"#utility.yul\":464:465   */\n  0x00\n    /* \"#utility.yul\":457:472   */\n  revert\n    /* \"#utility.yul\":484:804   */\ntag_19:\n    /* \"#utility.yul\":528:534   */\n  0x00\n    /* \"#utility.yul\":565:566   */\n  0x02\n    /* \"#utility.yul\":559:563   */\n  dup3\n    /* \"#utility.yul\":555:567   */\n  div\n    /* \"#utility.yul\":545:567   */\n  swap1\n  pop\n    /* \"#utility.yul\":612:613   */\n  0x01\n    /* \"#utility.yul\":606:610   */\n  dup3\n    /* \"#utility.yul\":602:614   */\n  and\n    /* \"#utility.yul\":633:651   */\n  dup1\n    /* \"#utility.yul\":623:704   */\n  tag_41\n  jumpi\n    /* \"#utility.yul\":689:693   */\n  0x7f\n    /* \"#utility.yul\":681:687   */\n  dup3\n    /* \"#utility.yul\":677:694   */\n  and\n    /* \"#utility.yul\":667:694   */\n  swap2\n  pop\n    /* \"#utility.yul\":623:704   */\ntag_41:\n    /* \"#utility.yul\":751:753   */\n  0x20\n    /* \"#utility.yul\":743:749   */\n  dup3\n    /* \"#utility.yul\":740:754   */\n  lt\n    /* \"#utility.yul\":720:738   */\n  dup2\n    /* \"#utility.yul\":717:755   */\n  sub\n    /* \"#utility.yul\":714:798   */\n  tag_42\n  jumpi\n    /* \"#utility.yul\":770:788   */\n  tag_43\n  tag_18\n  jump\t// in\ntag_43:\n    /* \"#utility.yul\":714:798   */\ntag_42:\n    /* \"#utility.yul\":535:804   */\n  pop\n    /* \"#utility.yul\":484:804   */\n  swap2\n  swap1\n  pop\n  jump\t// out\n    /* \"#utility.yul\":810:951   */\ntag_20:\n    /* \"#utility.yul\":859:863   */\n  0x00\n    /* \"#utility.yul\":882:885   */\n  dup2\n    /* \"#utility.yul\":874:885   */\n  swap1\n  pop\n    /* \"#utility.yul\":905:908   */\n  dup2\n    /* \"#utility.yul\":902:903   */\n  0x00\n    /* \"#utility.yul\":895:909   */\n  mstore\n    /* \"#utility.yul\":939:943   */\n  0x20\n    /* \"#utility.yul\":936:937   */\n  0x00\n    /* \"#utility.yul\":926:944   */\n  keccak256\n    /* \"#utility.yul\":918:944   */\n  swap1\n  pop\n    /* \"#utility.yul\":810:951   */\n  swap2\n  swap1\n  pop\n  jump\t// out\n    /* \"#utility.yul\":957:1050   */\ntag_21:\n    /* \"#utility.yul\":994:1000   */\n  0x00\n    /* \"#utility.yul\":1041:1043   */\n  0x20\n    /* \"#utility.yul\":1036:1038   */\n  0x1f\n    /* \"#utility.yul\":1029:1034   */\n  dup4\n    /* \"#utility.yul\":1025:1039   */\n  add\n    /* \"#utility.yul\":1021:1044   */\n  div\n    /* \"#utility.yul\":1011:1044   */\n  swap1\n  pop\n    /* \"#utility.yul\":957:1050   */\n  swap2\n  swap1\n  pop\n  jump\t// out\n    /* \"#utility.yul\":1056:1163   */\ntag_22:\n    /* \"#utility.yul\":1100:1108   */\n  0x00\n    /* \"#utility.yul\":1150:1155   */\n  dup3\n    /* \"#utility.yul\":1144:1148   */\n  dup3\n    /* \"#utility.yul\":1140:1156   */\n  shl\n    /* \"#utility.yul\":1119:1156   */\n  swap1\n  pop\n    /* \"#utility.yul\":1056:1163   */\n  swap3\n  swap2\n  pop\n  pop\n  jump\t// out\n    /* \"#utility.yul\":1169:1562   */\ntag_23:\n    /* \"#utility.yul\":1238:1244   */\n  0x00\n    /* \"#utility.yul\":1288:1289   */\n  0x08\n    /* \"#utility.yul\":1276:1286   */\n  dup4\n    /* \"#utility.yul\":1272:1290   */\n  mul\n    /* \"#utility.yul\":1311:1408   */\n  tag_48\n    /* \"#utility.yul\":1341:1407   */\n  0xffffffffffffffffffffffffffffffffffffffffffffffffffffffffffffffff\n    /* \"#utility.yul\":1330:1339   */\n  dup3\n    /* \"#utility.yul\":1311:1408   */\n  tag_22\n  jump\t// in\ntag_48:\n    /* \"#utility.yul\":1429:1468   */\n  tag_49\n    /* \"#utility.yul\":1459:1467   */\n  dup7\n    /* \"#utility.yul\":1448:1457   */\n  dup4\n    /* \"#utility.yul\":1429:1468   */\n  tag_22\n  jump\t// in\ntag_49:\n    /* \"#utility.yul\":1417:1468   */\n  swap6\n  pop\n    /* \"#utility.yul\":1501:1505   */\n  dup1\n    /* \"#utility.yul\":1497:1506   */\n  not\n    /* \"#utility.yul\":1490:1495   */\n  dup5\n    /* \"#utility.yul\":1486:1507   */\n  and\n    /* \"#utility.yul\":1477:1507   */\n  swap4\n  pop\n    /* \"#utility.yul\":1550:1554   */\n  dup1\n    /* \"#utility.yul\":1540:1548   */\n  dup7\n    /* \"#utility.yul\":1536:1555   */\n  and\n    /* \"#utility.yul\":1529:1534   */\n  dup5\n    /* \"#utility.yul\":1526:1556   */\n  or\n    /* \"#utility.yul\":1516:1556   */\n  swap3\n  pop\n    /* \"#utility.yul\":1245:1562   */\n  pop\n  pop\n    /* \"#utility.yul\":1169:1562   */\n  swap4\n  swap3\n  pop\n  pop\n  pop\n  jump\t// out\n    /* \"#utility.yul\":1568:1645   */\ntag_24:\n    /* \"#utility.yul\":1605:1612   */\n  0x00\n    /* \"#utility.yul\":1634:1639   */\n  dup2\n    /* \"#utility.yul\":1623:1639   */\n  swap1\n  pop\n    /* \"#utility.yul\":1568:1645   */\n  swap2\n  swap1\n  pop\n  jump\t// out\n    /* \"#utility.yul\":1651:1711   */\ntag_25:\n    /* \"#utility.yul\":1679:1682   */\n  0x00\n    /* \"#utility.yul\":1700:1705   */\n  dup2\n    /* \"#utility.yul\":1693:1705   */\n  swap1\n  pop\n    /* \"#utility.yul\":1651:1711   */\n  swap2\n  swap1\n  pop\n  jump\t// out\n    /* \"#utility.yul\":1717:1859   */\ntag_26:\n    /* \"#utility.yul\":1767:1776   */\n  0x00\n    /* \"#utility.yul\":1800:1853   */\n  tag_53\n    /* \"#utility.yul\":1818:1852   */\n  tag_54\n    /* \"#utility.yul\":1827:1851   */\n  tag_55\n    /* \"#utility.yul\":1845:1850   */\n  dup5\n    /* \"#utility.yul\":1827:1851   */\n  tag_24\n  jump\t// in\ntag_55:\n    /* \"#utility.yul\":1818:1852   */\n  tag_25\n  jump\t// in\ntag_54:\n    /* \"#utility.yul\":1800:1853   */\n  tag_24\n  jump\t// in\ntag_53:\n    /* \"#utility.yul\":1787:1853   */\n  swap1\n  pop\n    /* \"#utility.yul\":1717:1859   */\n  swap2\n  swap1\n  pop\n  jump\t// out\n    /* \"#utility.yul\":1865:1940   */\ntag_27:\n    /* \"#utility.yul\":1908:1911   */\n  0x00\n    /* \"#utility.yul\":1929:1934   */\n  dup2\n    /* \"#utility.yul\":1922:1934   */\n  swap1\n  pop\n    /* \"#utility.yul\":1865:1940   */\n  swap2\n  swap1\n  pop\n  jump\t// out\n    /* \"#utility.yul\":1946:2215   */\ntag_28:\n    /* \"#utility.yul\":2056:2095   */\n  tag_58\n    /* \"#utility.yul\":2087:2094   */\n  dup4\n    /* \"#utility.yul\":2056:2095   */\n  tag_26\n  jump\t// in\ntag_58:\n    /* \"#utility.yul\":2117:2208   */\n  tag_59\n    /* \"#utility.yul\":2166:2207   */\n  tag_60\n    /* \"#utility.yul\":2190:2206   */\n  dup3\n    /* \"#utility.yul\":2166:2207   */\n  tag_27\n  jump\t// in\ntag_60:\n    /* \"#utility.yul\":2158:2164   */\n  dup5\n    /* \"#utility.yul\":2151:2155   */\n  dup5\n    /* \"#utility.yul\":2145:2156   */\n  sload\n    /* \"#utility.yul\":2117:2208   */\n  tag_23\n  jump\t// in\ntag_59:\n    /* \"#utility.yul\":2111:2115   */\n  dup3\n    /* \"#utility.yul\":2104:2209   */\n  sstore\n    /* \"#utility.yul\":2022:2215   */\n  pop\n    /* \"#utility.yul\":1946:2215   */\n  pop\n  pop\n  pop\n  jump\t// out\n    /* \"#utility.yul\":2221:2294   */\ntag_29:\n    /* \"#utility.yul\":2266:2269   */\n  0x00\n    /* \"#utility.yul\":2221:2294   */\n  swap1\n  jump\t// out\n    /* \"#utility.yul\":2300:2489   */\ntag_30:\n    /* \"#utility.yul\":2377:2409   */\n  tag_63\n  tag_29\n  jump\t// in\ntag_63:\n    /* \"#utility.yul\":2418:2483   */\n  tag_64\n    /* \"#utility.yul\":2476:2482   */\n  dup2\n    /* \"#utility.yul\":2468:2474   */\n  dup5\n    /* \"#utility.yul\":2462:2466   */\n  dup5\n    /* \"#utility.yul\":2418:2483   */\n  tag_28\n  jump\t// in\ntag_64:\n    /* \"#utility.yul\":2353:2489   */\n  pop\n    /* \"#utility.yul\":2300:2489   */\n  pop\n  pop\n  jump\t// out\n    /* \"#utility.yul\":2495:2681   */\ntag_31:\n    /* \"#utility.yul\":2555:2675   */\ntag_66:\n    /* \"#utility.yul\":2572:2575   */\n  dup2\n    /* \"#utility.yul\":2565:2570   */\n  dup2\n    /* \"#utility.yul\":2562:2576   */\n  lt\n    /* \"#utility.yul\":2555:2675   */\n  iszero\n  tag_68\n  jumpi\n    /* \"#utility.yul\":2626:2665   */\n  tag_69\n    /* \"#utility.yul\":2663:2664   */\n  0x00\n    /* \"#utility.yul\":2656:2661   */\n  dup3\n    /* \"#utility.yul\":2626:2665   */\n  tag_30\n  jump\t// in\ntag_69:\n    /* \"#utility.yul\":2599:2600   */\n  0x01\n    /* \"#utility.yul\":2592:2597   */\n  dup2\n    /* \"#utility.yul\":2588:2601   */\n  add\n    /* \"#utility.yul\":2579:2601   */\n  swap1\n  pop\n    /* \"#utility.yul\":2555:2675   */\n  jump(tag_66)\ntag_68:\n    /* \"#utility.yul\":2495:2681   */\n  pop\n  pop\n  jump\t// out\n    /* \"#utility.yul\":2687:3230   */\ntag_32:\n    /* \"#utility.yul\":2788:2790   */\n  0x1f\n    /* \"#utility.yul\":2783:2786   */\n  dup3\n    /* \"#utility.yul\":2780:2791   */\n  gt\n    /* \"#utility.yul\":2777:3223   */\n  iszero\n  tag_71\n  jumpi\n    /* \"#utility.yul\":2822:2860   */\n  tag_72\n    /* \"#utility.yul\":2854:2859   */\n  dup2\n    /* \"#utility.yul\":2822:2860   */\n  tag_20\n  jump\t// in\ntag_72:\n    /* \"#utility.yul\":2906:2935   */\n  tag_73\n    /* \"#utility.yul\":2924:2934   */\n  dup5\n    /* \"#utility.yul\":2906:2935   */\n  tag_21\n  jump\t// in\ntag_73:\n    /* \"#utility.yul\":2896:2904   */\n  dup2\n    /* \"#utility.yul\":2892:2936   */\n  add\n    /* \"#utility.yul\":3089:3091   */\n  0x20\n    /* \"#utility.yul\":3077:3087   */\n  dup6\n    /* \"#utility.yul\":3074:3092   */\n  lt\n    /* \"#utility.yul\":3071:3120   */\n  iszero\n  tag_74\n  jumpi\n    /* \"#utility.yul\":3110:3118   */\n  dup2\n    /* \"#utility.yul\":3095:3118   */\n  swap1\n  pop\n    /* \"#utility.yul\":3071:3120   */\ntag_74:\n    /* \"#utility.yul\":3133:3213   */\n  tag_75\n    /* \"#utility.yul\":3189:3211   */\n  tag_76\n    /* \"#utility.yul\":3207:3210   */\n  dup6\n    /* \"#utility.yul\":3189:3211   */\n  tag_21\n  jump\t// in\ntag_76:\n    /* \"#utility.yul\":3179:3187   */\n  dup4\n    /* \"#utility.yul\":3175:3212   */\n  add\n    /* \"#utility.yul\":3162:3173   */\n  dup3\n    /* \"#utility.yul\":3133:3213   */\n  tag_31\n  jump\t// in\ntag_75:\n    /* \"#utility.yul\":2792:3223   */\n  pop\n  pop\n    /* \"#utility.yul\":2777:3223   */\ntag_71:\n    /* \"#utility.yul\":2687:3230   */\n  pop\n  pop\n  pop\n  jump\t// out\n    /* \"#utility.yul\":3236:3353   */\ntag_33:\n    /* \"#utility.yul\":3290:3298   */\n  0x00\n    /* \"#utility.yul\":3340:3345   */\n  dup3\n    /* \"#utility.yul\":3334:3338   */\n  dup3\n    /* \"#utility.yul\":3330:3346   */\n  shr\n    /* \"#utility.yul\":3309:3346   */\n  swap1\n  pop\n    /* \"#utility.yul\":3236:3353   */\n  swap3\n  swap2\n  pop\n  pop\n  jump\t// out\n    /* \"#utility.yul\":3359:3528   */\ntag_34:\n    /* \"#utility.yul\":3403:3409   */\n  0x00\n    /* \"#utility.yul\":3436:3487   */\n  tag_79\n    /* \"#utility.yul\":3484:3485   */\n  0x00\n    /* \"#utility.yul\":3480:3486   */\n  not\n    /* \"#utility.yul\":3472:3477   */\n  dup5\n    /* \"#utility.yul\":3469:3470   */\n  0x08\n    /* \"#utility.yul\":3465:3478   */\n  mul\n    /* \"#utility.yul\":3436:3487   */\n  tag_33\n  jump\t// in\ntag_79:\n    /* \"#utility.yul\":3432:3488   */\n  not\n    /* \"#utility.yul\":3517:3521   */\n  dup1\n    /* \"#utility.yul\":3511:3515   */\n  dup4\n    /* \"#utility.yul\":3507:3522   */\n  and\n    /* \"#utility.yul\":3497:3522   */\n  swap2\n  pop\n    /* \"#utility.yul\":3410:3528   */\n  pop\n    /* \"#utility.yul\":3359:3528   */\n  swap3\n  swap2\n  pop\n  pop\n  jump\t// out\n    /* \"#utility.yul\":3533:3828   */\ntag_35:\n    /* \"#utility.yul\":3609:3613   */\n  0x00\n    /* \"#utility.yul\":3755:3784   */\n  tag_81\n    /* \"#utility.yul\":3780:3783   */\n  dup4\n    /* \"#utility.yul\":3774:3778   */\n  dup4\n    /* \"#utility.yul\":3755:3784   */\n  tag_34\n  jump\t// in\ntag_81:\n    /* \"#utility.yul\":3747:3784   */\n  swap2\n  pop\n    /* \"#utility.yul\":3817:3820   */\n  dup3\n    /* \"#utility.yul\":3814:3815   */\n  0x02\n    /* \"#utility.yul\":3810:3821   */\n  mul\n    /* \"#utility.yul\":3804:3808   */\n  dup3\n    /* \"#utility.yul\":3801:3822   */\n  or\n    /* \"#utility.yul\":3793:3822   */\n  swap1\n  pop\n    /* \"#utility.yul\":3533:3828   */\n  swap3\n  swap2\n  pop\n  pop\n  jump\t// out\n    /* \"#utility.yul\":3833:5228   */\ntag_6:\n    /* \"#utility.yul\":3950:3987   */\n  tag_83\n    /* \"#utility.yul\":3983:3986   */\n  dup3\n    /* \"#utility.yul\":3950:3987   */\n  tag_16\n  jump\t// in\ntag_83:\n    /* \"#utility.yul\":4052:4070   */\n  0xffffffffffffffff\n    /* \"#utility.yul\":4044:4050   */\n  dup2\n    /* \"#utility.yul\":4041:4071   */\n  gt\n    /* \"#utility.yul\":4038:4094   */\n  iszero\n  tag_84\n  jumpi\n    /* \"#utility.yul\":4074:4092   */\n  tag_85\n  tag_17\n  jump\t// in\ntag_85:\n    /* \"#utility.yul\":4038:4094   */\ntag_84:\n    /* \"#utility.yul\":4118:4156   */\n  tag_86\n    /* \"#utility.yul\":4150:4154   */\n  dup3\n    /* \"#utility.yul\":4144:4155   */\n  sload\n    /* \"#utility.yul\":4118:4156   */\n  tag_19\n  jump\t// in\ntag_86:\n    /* \"#utility.yul\":4203:4270   */\n  tag_87\n    /* \"#utility.yul\":4263:4269   */\n  dup3\n    /* \"#utility.yul\":4255:4261   */\n  dup3\n    /* \"#utility.yul\":4249:4253   */\n  dup6\n    /* \"#utility.yul\":4203:4270   */\n  tag_32\n  jump\t// in\ntag_87:\n    /* \"#utility.yul\":4297:4298   */\n  0x00\n    /* \"#utility.yul\":4321:4325   */\n  0x20\n    /* \"#utility.yul\":4308:4325   */\n  swap1\n  pop\n    /* \"#utility.yul\":4353:4355   */\n  0x1f\n    /* \"#utility.yul\":4345:4351   */\n  dup4\n    /* \"#utility.yul\":4342:4356   */\n  gt\n    /* \"#utility.yul\":4370:4371   */\n  0x01\n    /* \"#utility.yul\":4365:4983   */\n  dup2\n  eq\n  tag_89\n  jumpi\n    /* \"#utility.yul\":5027:5028   */\n  0x00\n    /* \"#utility.yul\":5044:5050   */\n  dup5\n    /* \"#utility.yul\":5041:5118   */\n  iszero\n  tag_90\n  jumpi\n    /* \"#utility.yul\":5093:5102   */\n  dup3\n    /* \"#utility.yul\":5088:5091   */\n  dup8\n    /* \"#utility.yul\":5084:5103   */\n  add\n    /* \"#utility.yul\":5078:5104   */\n  mload\n    /* \"#utility.yul\":5069:5104   */\n  swap1\n  pop\n    /* \"#utility.yul\":5041:5118   */\ntag_90:\n    /* \"#utility.yul\":5144:5211   */\n  tag_91\n    /* \"#utility.yul\":5204:5210   */\n  dup6\n    /* \"#utility.yul\":5197:5202   */\n  dup3\n    /* \"#utility.yul\":5144:5211   */\n  tag_35\n  jump\t// in\ntag_91:\n    /* \"#utility.yul\":5138:5142   */\n  dup7\n    /* \"#utility.yul\":5131:5212   */\n  sstore\n    /* \"#utility.yul\":5000:5222   */\n  pop\n    /* \"#utility.yul\":4335:5222   */\n  jump(tag_88)\n    /* \"#utility.yul\":4365:4983   */\ntag_89:\n    /* \"#utility.yul\":4417:4421   */\n  0x1f\n    /* \"#utility.yul\":4413:4422   */\n  not\n    /* \"#utility.yul\":4405:4411   */\n  dup5\n    /* \"#utility.yul\":4401:4423   */\n  and\n    /* \"#utility.yul\":4451:4488   */\n  tag_92\n    /* \"#utility.yul\":4483:4487   */\n  dup7\n    /* \"#utility.yul\":4451:4488   */\n  tag_20\n  jump\t// in\ntag_92:\n    /* \"#utility.yul\":4510:4511   */\n  0x00\n    /* \"#utility.yul\":4524:4732   */\ntag_93:\n    /* \"#utility.yul\":4538:4545   */\n  dup3\n    /* \"#utility.yul\":4535:4536   */\n  dup2\n    /* \"#utility.yul\":4532:4546   */\n  lt\n    /* \"#utility.yul\":4524:4732   */\n  iszero\n  tag_95\n  jumpi\n    /* \"#utility.yul\":4617:4626   */\n  dup5\n    /* \"#utility.yul\":4612:4615   */\n  dup10\n    /* \"#utility.yul\":4608:4627   */\n  add\n    /* \"#utility.yul\":4602:4628   */\n  mload\n    /* \"#utility.yul\":4594:4600   */\n  dup3\n    /* \"#utility.yul\":4587:4629   */\n  sstore\n    /* \"#utility.yul\":4668:4669   */\n  0x01\n    /* \"#utility.yul\":4660:4666   */\n  dup3\n    /* \"#utility.yul\":4656:4670   */\n  add\n    /* \"#utility.yul\":4646:4670   */\n  swap2\n  pop\n    /* \"#utility.yul\":4715:4717   */\n  0x20\n    /* \"#utility.yul\":4704:4713   */\n  dup6\n    /* \"#utility.yul\":4700:4718   */\n  add\n    /* \"#utility.yul\":4687:4718   */\n  swap5\n  pop\n    /* \"#utility.yul\":4561:4565   */\n  0x20\n    /* \"#utility.yul\":4558:4559   */\n  dup2\n    /* \"#utility.yul\":4554:4566   */\n  add\n    /* \"#utility.yul\":4549:4566   */\n  swap1\n  pop\n    /* \"#utility.yul\":4524:4732   */\n  jump(tag_93)\ntag_95:\n    /* \"#utility.yul\":4760:4766   */\n  dup7\n    /* \"#utility.yul\":4751:4758   */\n  dup4\n    /* \"#utility.yul\":4748:4767   */\n  lt\n    /* \"#utility.yul\":4745:4924   */\n  iszero\n  tag_96\n  jumpi\n    /* \"#utility.yul\":4818:4827   */\n  dup5\n    /* \"#utility.yul\":4813:4816   */\n  dup10\n    /* \"#utility.yul\":4809:4828   */\n  add\n    /* \"#utility.yul\":4803:4829   */\n  mload\n    /* \"#utility.yul\":4861:4909   */\n  tag_97\n    /* \"#utility.yul\":4903:4907   */\n  0x1f\n    /* \"#utility.yul\":4895:4901   */\n  dup10\n    /* \"#utility.yul\":4891:4908   */\n  and\n    /* \"#utility.yul\":4880:4889   */\n  dup3\n    /* \"#utility.yul\":4861:4909   */\n  tag_34\n  jump\t// in\ntag_97:\n    /* \"#utility.yul\":4853:4859   */\n  dup4\n    /* \"#utility.yul\":4846:4910   */\n  sstore\n    /* \"#utility.yul\":4768:4924   */\n  pop\n    /* \"#utility.yul\":4745:4924   */\ntag_96:\n    /* \"#utility.yul\":4970:4971   */\n  0x01\n    /* \"#utility.yul\":4966:4967   */\n  0x02\n    /* \"#utility.yul\":4958:4964   */\n  dup9\n    /* \"#utility.yul\":4954:4968   */\n  mul\n    /* \"#utility.yul\":4950:4972   */\n  add\n    /* \"#utility.yul\":4944:4948   */\n  dup9\n    /* \"#utility.yul\":4937:4973   */\n  sstore\n    /* \"#utility.yul\":4372:4983   */\n  pop\n  pop\n  pop\n    /* \"#utility.yul\":4335:5222   */\ntag_88:\n  pop\n    /* \"#utility.yul\":3925:5228   */\n  pop\n  pop\n  pop\n    /* \"#utility.yul\":3833:5228   */\n  pop\n  pop\n  jump\t// out\n    /* \"contracts/Zero2Hero_BNB/2_Token_Deployment/SushiToken.sol\":356:9056  contract SushiToken is ERC20(\"SushiToken\", \"SUSHI\"), Ownable {... */\ntag_13:\n  dataSize(sub_0)\n  dup1\n  dataOffset(sub_0)\n  0x00\n  codecopy\n  0x00\n  return\nstop\n\nsub_0: assembly {\n        /* \"contracts/Zero2Hero_BNB/2_Token_Deployment/SushiToken.sol\":356:9056  contract SushiToken is ERC20(\"SushiToken\", \"SUSHI\"), Ownable {... */\n      mstore(0x40, 0x80)\n      callvalue\n      dup1\n      iszero\n      tag_1\n      jumpi\n      0x00\n      dup1\n      revert\n    tag_1:\n      pop\n      jumpi(tag_2, lt(calldatasize, 0x04))\n      shr(0xe0, calldataload(0x00))\n      dup1\n      0x715018a6\n      gt\n      tag_28\n      jumpi\n      dup1\n      0xa9059cbb\n      gt\n      tag_29\n      jumpi\n      dup1\n      0xdd62ed3e\n      gt\n      tag_30\n      jumpi\n      dup1\n      0xdd62ed3e\n      eq\n      tag_24\n      jumpi\n      dup1\n      0xe7a324dc\n      eq\n      tag_25\n      jumpi\n      dup1\n      0xf1127ed8\n      eq\n      tag_26\n      jumpi\n      dup1\n      0xf2fde38b\n      eq\n      tag_27\n      jumpi\n      jump(tag_2)\n    tag_30:\n      dup1\n      0xa9059cbb\n      eq\n      tag_21\n      jumpi\n      dup1\n      0xb4b5ea57\n      eq\n      tag_22\n      jumpi\n      dup1\n      0xc3cda520\n      eq\n      tag_23\n      jumpi\n      jump(tag_2)\n    tag_29:\n      dup1\n      0x715018a6\n      eq\n      tag_15\n      jumpi\n      dup1\n      0x782d6fe1\n      eq\n      tag_16\n      jumpi\n      dup1\n      0x7ecebe00\n      eq\n      tag_17\n      jumpi\n      dup1\n      0x8da5cb5b\n      eq\n      tag_18\n      jumpi\n      dup1\n      0x95d89b41\n      eq\n      tag_19\n      jumpi\n      dup1\n      0xa457c2d7\n      eq\n      tag_20\n      jumpi\n      jump(tag_2)\n    tag_28:\n      dup1\n      0x39509351\n      gt\n      tag_31\n      jumpi\n      dup1\n      0x39509351\n      eq\n      tag_9\n      jumpi\n      dup1\n      0x40c10f19\n      eq\n      tag_10\n      jumpi\n      dup1\n      0x587cde1e\n      eq\n      tag_11\n      jumpi\n      dup1\n      0x5c19a95c\n      eq\n      tag_12\n      jumpi\n      dup1\n      0x6fcfff45\n      eq\n      tag_13\n      jumpi\n      dup1\n      0x70a08231\n      eq\n      tag_14\n      jumpi\n      jump(tag_2)\n    tag_31:\n      dup1\n      0x06fdde03\n      eq\n      tag_3\n      jumpi\n      dup1\n      0x095ea7b3\n      eq\n      tag_4\n      jumpi\n      dup1\n      0x18160ddd\n      eq\n      tag_5\n      jumpi\n      dup1\n      0x20606b70\n      eq\n      tag_6\n      jumpi\n      dup1\n      0x23b872dd\n      eq\n      tag_7\n      jumpi\n      dup1\n      0x313ce567\n      eq\n      tag_8\n      jumpi\n    tag_2:\n      0x00\n      dup1\n      revert\n        /* \"@openzeppelin/contracts/token/ERC20/ERC20.sol\":2162:2260  function name() public view virtual override returns (string memory) {... */\n    tag_3:\n      tag_32\n      tag_33\n      jump\t// in\n    tag_32:\n      mload(0x40)\n      tag_34\n      swap2\n      swap1\n      tag_35\n      jump\t// in\n    tag_34:\n      mload(0x40)\n      dup1\n      swap2\n      sub\n      swap1\n      return\n        /* \"@openzeppelin/contracts/token/ERC20/ERC20.sol\":4439:4636  function approve(address spender, uint256 amount) public virtual override returns (bool) {... */\n    tag_4:\n      tag_36\n      0x04\n      dup1\n      calldatasize\n      sub\n      dup2\n      add\n      swap1\n      tag_37\n      swap2\n      swap1\n      tag_38\n      jump\t// in\n    tag_37:\n      tag_39\n      jump\t// in\n    tag_36:\n      mload(0x40)\n      tag_40\n      swap2\n      swap1\n      tag_41\n      jump\t// in\n    tag_40:\n      mload(0x40)\n      dup1\n      swap2\n      sub\n      swap1\n      return\n        /* \"@openzeppelin/contracts/token/ERC20/ERC20.sol\":3250:3356  function totalSupply() public view virtual override returns (uint256) {... */\n    tag_5:\n      tag_42\n      tag_43\n      jump\t// in\n    tag_42:\n      mload(0x40)\n      tag_44\n      swap2\n      swap1\n      tag_45\n      jump\t// in\n    tag_44:\n      mload(0x40)\n      dup1\n      swap2\n      sub\n      swap1\n      return\n        /* \"contracts/Zero2Hero_BNB/2_Token_Deployment/SushiToken.sol\":1673:1795  bytes32 public constant DOMAIN_TYPEHASH = keccak256(\"EIP712Domain(string name,uint256 chainId,address verifyingContract)\") */\n    tag_6:\n      tag_46\n      tag_47\n      jump\t// in\n    tag_46:\n      mload(0x40)\n      tag_48\n      swap2\n      swap1\n      tag_49\n      jump\t// in\n    tag_48:\n      mload(0x40)\n      dup1\n      swap2\n      sub\n      swap1\n      return\n        /* \"@openzeppelin/contracts/token/ERC20/ERC20.sol\":5198:5484  function transferFrom(... */\n    tag_7:\n      tag_50\n      0x04\n      dup1\n      calldatasize\n      sub\n      dup2\n      add\n      swap1\n      tag_51\n      swap2\n      swap1\n      tag_52\n      jump\t// in\n    tag_51:\n      tag_53\n      jump\t// in\n    tag_50:\n      mload(0x40)\n      tag_54\n      swap2\n      swap1\n      tag_41\n      jump\t// in\n    tag_54:\n      mload(0x40)\n      dup1\n      swap2\n      sub\n      swap1\n      return\n        /* \"@openzeppelin/contracts/token/ERC20/ERC20.sol\":3099:3190  function decimals() public view virtual override returns (uint8) {... */\n    tag_8:\n      tag_55\n      tag_56\n      jump\t// in\n    tag_55:\n      mload(0x40)\n      tag_57\n      swap2\n      swap1\n      tag_58\n      jump\t// in\n    tag_57:\n      mload(0x40)\n      dup1\n      swap2\n      sub\n      swap1\n      return\n        /* \"@openzeppelin/contracts/token/ERC20/ERC20.sol\":5879:6113  function increaseAllowance(address spender, uint256 addedValue) public virtual returns (bool) {... */\n    tag_9:\n      tag_59\n      0x04\n      dup1\n      calldatasize\n      sub\n      dup2\n      add\n      swap1\n      tag_60\n      swap2\n      swap1\n      tag_38\n      jump\t// in\n    tag_60:\n      tag_61\n      jump\t// in\n    tag_59:\n      mload(0x40)\n      tag_62\n      swap2\n      swap1\n      tag_41\n      jump\t// in\n    tag_62:\n      mload(0x40)\n      dup1\n      swap2\n      sub\n      swap1\n      return\n        /* \"contracts/Zero2Hero_BNB/2_Token_Deployment/SushiToken.sol\":520:679  function mint(address _to, uint256 _amount) public onlyOwner {... */\n    tag_10:\n      tag_63\n      0x04\n      dup1\n      calldatasize\n      sub\n      dup2\n      add\n      swap1\n      tag_64\n      swap2\n      swap1\n      tag_38\n      jump\t// in\n    tag_64:\n      tag_65\n      jump\t// in\n    tag_63:\n      stop\n        /* \"contracts/Zero2Hero_BNB/2_Token_Deployment/SushiToken.sol\":2638:2781  function delegates(address delegator)... */\n    tag_11:\n      tag_66\n      0x04\n      dup1\n      calldatasize\n      sub\n      dup2\n      add\n      swap1\n      tag_67\n      swap2\n      swap1\n      tag_68\n      jump\t// in\n    tag_67:\n      tag_69\n      jump\t// in\n    tag_66:\n      mload(0x40)\n      tag_70\n      swap2\n      swap1\n      tag_71\n      jump\t// in\n    tag_70:\n      mload(0x40)\n      dup1\n      swap2\n      sub\n      swap1\n      return\n        /* \"contracts/Zero2Hero_BNB/2_Token_Deployment/SushiToken.sol\":2919:3021  function delegate(address delegatee) external {... */\n    tag_12:\n      tag_72\n      0x04\n      dup1\n      calldatasize\n      sub\n      dup2\n      add\n      swap1\n      tag_73\n      swap2\n      swap1\n      tag_68\n      jump\t// in\n    tag_73:\n      tag_74\n      jump\t// in\n    tag_72:\n      stop\n        /* \"contracts/Zero2Hero_BNB/2_Token_Deployment/SushiToken.sol\":1554:1603  mapping (address => uint32) public numCheckpoints */\n    tag_13:\n      tag_75\n      0x04\n      dup1\n      calldatasize\n      sub\n      dup2\n      add\n      swap1\n      tag_76\n      swap2\n      swap1\n      tag_68\n      jump\t// in\n    tag_76:\n      tag_77\n      jump\t// in\n    tag_75:\n      mload(0x40)\n      tag_78\n      swap2\n      swap1\n      tag_79\n      jump\t// in\n    tag_78:\n      mload(0x40)\n      dup1\n      swap2\n      sub\n      swap1\n      return\n        /* \"@openzeppelin/contracts/token/ERC20/ERC20.sol\":3414:3539  function balanceOf(address account) public view virtual override returns (uint256) {... */\n    tag_14:\n      tag_80\n      0x04\n      dup1\n      calldatasize\n      sub\n      dup2\n      add\n      swap1\n      tag_81\n      swap2\n      swap1\n      tag_68\n      jump\t// in\n    tag_81:\n      tag_82\n      jump\t// in\n    tag_80:\n      mload(0x40)\n      tag_83\n      swap2\n      swap1\n      tag_45\n      jump\t// in\n    tag_83:\n      mload(0x40)\n      dup1\n      swap2\n      sub\n      swap1\n      return\n        /* \"@openzeppelin/contracts/access/Ownable.sol\":1839:1940  function renounceOwnership() public virtual onlyOwner {... */\n    tag_15:\n      tag_84\n      tag_85\n      jump\t// in\n    tag_84:\n      stop\n        /* \"contracts/Zero2Hero_BNB/2_Token_Deployment/SushiToken.sol\":5460:6678  function getPriorVotes(address account, uint blockNumber)... */\n    tag_16:\n      tag_86\n      0x04\n      dup1\n      calldatasize\n      sub\n      dup2\n      add\n      swap1\n      tag_87\n      swap2\n      swap1\n      tag_38\n      jump\t// in\n    tag_87:\n      tag_88\n      jump\t// in\n    tag_86:\n      mload(0x40)\n      tag_89\n      swap2\n      swap1\n      tag_45\n      jump\t// in\n    tag_89:\n      mload(0x40)\n      dup1\n      swap2\n      sub\n      swap1\n      return\n        /* \"contracts/Zero2Hero_BNB/2_Token_Deployment/SushiToken.sol\":2081:2120  mapping (address => uint) public nonces */\n    tag_17:\n      tag_90\n      0x04\n      dup1\n      calldatasize\n      sub\n      dup2\n      add\n      swap1\n      tag_91\n      swap2\n      swap1\n      tag_68\n      jump\t// in\n    tag_91:\n      tag_92\n      jump\t// in\n    tag_90:\n      mload(0x40)\n      tag_93\n      swap2\n      swap1\n      tag_45\n      jump\t// in\n    tag_93:\n      mload(0x40)\n      dup1\n      swap2\n      sub\n      swap1\n      return\n        /* \"@openzeppelin/contracts/access/Ownable.sol\":1209:1294  function owner() public view virtual returns (address) {... */\n    tag_18:\n      tag_94\n      tag_95\n      jump\t// in\n    tag_94:\n      mload(0x40)\n      tag_96\n      swap2\n      swap1\n      tag_71\n      jump\t// in\n    tag_96:\n      mload(0x40)\n      dup1\n      swap2\n      sub\n      swap1\n      return\n        /* \"@openzeppelin/contracts/token/ERC20/ERC20.sol\":2373:2475  function symbol() public view virtual override returns (string memory) {... */\n    tag_19:\n      tag_97\n      tag_98\n      jump\t// in\n    tag_97:\n      mload(0x40)\n      tag_99\n      swap2\n      swap1\n      tag_35\n      jump\t// in\n    tag_99:\n      mload(0x40)\n      dup1\n      swap2\n      sub\n      swap1\n      return\n        /* \"@openzeppelin/contracts/token/ERC20/ERC20.sol\":6600:7027  function decreaseAllowance(address spender, uint256 subtractedValue) public virtual returns (bool) {... */\n    tag_20:\n      tag_100\n      0x04\n      dup1\n      calldatasize\n      sub\n      dup2\n      add\n      swap1\n      tag_101\n      swap2\n      swap1\n      tag_38\n      jump\t// in\n    tag_101:\n      tag_102\n      jump\t// in\n    tag_100:\n      mload(0x40)\n      tag_103\n      swap2\n      swap1\n      tag_41\n      jump\t// in\n    tag_103:\n      mload(0x40)\n      dup1\n      swap2\n      sub\n      swap1\n      return\n        /* \"@openzeppelin/contracts/token/ERC20/ERC20.sol\":3735:3924  function transfer(address to, uint256 amount) public virtual override returns (bool) {... */\n    tag_21:\n      tag_104\n      0x04\n      dup1\n      calldatasize\n      sub\n      dup2\n      add\n      swap1\n      tag_105\n      swap2\n      swap1\n      tag_38\n      jump\t// in\n    tag_105:\n      tag_106\n      jump\t// in\n    tag_104:\n      mload(0x40)\n      tag_107\n      swap2\n      swap1\n      tag_41\n      jump\t// in\n    tag_107:\n      mload(0x40)\n      dup1\n      swap2\n      sub\n      swap1\n      return\n        /* \"contracts/Zero2Hero_BNB/2_Token_Deployment/SushiToken.sol\":4790:5038  function getCurrentVotes(address account)... */\n    tag_22:\n      tag_108\n      0x04\n      dup1\n      calldatasize\n      sub\n      dup2\n      add\n      swap1\n      tag_109\n      swap2\n      swap1\n      tag_68\n      jump\t// in\n    tag_109:\n      tag_110\n      jump\t// in\n    tag_108:\n      mload(0x40)\n      tag_111\n      swap2\n      swap1\n      tag_45\n      jump\t// in\n    tag_111:\n      mload(0x40)\n      dup1\n      swap2\n      sub\n      swap1\n      return\n        /* \"contracts/Zero2Hero_BNB/2_Token_Deployment/SushiToken.sol\":3444:4596  function delegateBySig(... */\n    tag_23:\n      tag_112\n      0x04\n      dup1\n      calldatasize\n      sub\n      dup2\n      add\n      swap1\n      tag_113\n      swap2\n      swap1\n      tag_114\n      jump\t// in\n    tag_113:\n      tag_115\n      jump\t// in\n    tag_112:\n      stop\n        /* \"@openzeppelin/contracts/token/ERC20/ERC20.sol\":3982:4131  function allowance(address owner, address spender) public view virtual override returns (uint256) {... */\n    tag_24:\n      tag_116\n      0x04\n      dup1\n      calldatasize\n      sub\n      dup2\n      add\n      swap1\n      tag_117\n      swap2\n      swap1\n      tag_118\n      jump\t// in\n    tag_117:\n      tag_119\n      jump\t// in\n    tag_116:\n      mload(0x40)\n      tag_120\n      swap2\n      swap1\n      tag_45\n      jump\t// in\n    tag_120:\n      mload(0x40)\n      dup1\n      swap2\n      sub\n      swap1\n      return\n        /* \"contracts/Zero2Hero_BNB/2_Token_Deployment/SushiToken.sol\":1886:2003  bytes32 public constant DELEGATION_TYPEHASH = keccak256(\"Delegation(address delegatee,uint256 nonce,uint256 expiry)\") */\n    tag_25:\n      tag_121\n      tag_122\n      jump\t// in\n    tag_121:\n      mload(0x40)\n      tag_123\n      swap2\n      swap1\n      tag_49\n      jump\t// in\n    tag_123:\n      mload(0x40)\n      dup1\n      swap2\n      sub\n      swap1\n      return\n        /* \"contracts/Zero2Hero_BNB/2_Token_Deployment/SushiToken.sol\":1418:1488  mapping (address => mapping (uint32 => Checkpoint)) public checkpoints */\n    tag_26:\n      tag_124\n      0x04\n      dup1\n      calldatasize\n      sub\n      dup2\n      add\n      swap1\n      tag_125\n      swap2\n      swap1\n      tag_126\n      jump\t// in\n    tag_125:\n      tag_127\n      jump\t// in\n    tag_124:\n      mload(0x40)\n      tag_128\n      swap3\n      swap2\n      swap1\n      tag_129\n      jump\t// in\n    tag_128:\n      mload(0x40)\n      dup1\n      swap2\n      sub\n      swap1\n      return\n        /* \"@openzeppelin/contracts/access/Ownable.sol\":2089:2287  function transferOwnership(address newOwner) public virtual onlyOwner {... */\n    tag_27:\n      tag_130\n      0x04\n      dup1\n      calldatasize\n      sub\n      dup2\n      add\n      swap1\n      tag_131\n      swap2\n      swap1\n      tag_68\n      jump\t// in\n    tag_131:\n      tag_132\n      jump\t// in\n    tag_130:\n      stop\n        /* \"@openzeppelin/contracts/token/ERC20/ERC20.sol\":2162:2260  function name() public view virtual override returns (string memory) {... */\n    tag_33:\n        /* \"@openzeppelin/contracts/token/ERC20/ERC20.sol\":2216:2229  string memory */\n      0x60\n        /* \"@openzeppelin/contracts/token/ERC20/ERC20.sol\":2248:2253  _name */\n      0x03\n        /* \"@openzeppelin/contracts/token/ERC20/ERC20.sol\":2241:2253  return _name */\n      dup1\n      sload\n      tag_134\n      swap1\n      tag_135\n      jump\t// in\n    tag_134:\n      dup1\n      0x1f\n      add\n      0x20\n      dup1\n      swap2\n      div\n      mul\n      0x20\n      add\n      mload(0x40)\n      swap1\n      dup2\n      add\n      0x40\n      mstore\n      dup1\n      swap3\n      swap2\n      swap1\n      dup2\n      dup2\n      mstore\n      0x20\n      add\n      dup3\n      dup1\n      sload\n      tag_136\n      swap1\n      tag_135\n      jump\t// in\n    tag_136:\n      dup1\n      iszero\n      tag_137\n      jumpi\n      dup1\n      0x1f\n      lt\n      tag_138\n      jumpi\n      0x0100\n      dup1\n      dup4\n      sload\n      div\n      mul\n      dup4\n      mstore\n      swap2\n      0x20\n      add\n      swap2\n      jump(tag_137)\n    tag_138:\n      dup3\n      add\n      swap2\n      swap1\n      0x00\n      mstore\n      keccak256(0x00, 0x20)\n      swap1\n    tag_139:\n      dup2\n      sload\n      dup2\n      mstore\n      swap1\n      0x01\n      add\n      swap1\n      0x20\n      add\n      dup1\n      dup4\n      gt\n      tag_139\n      jumpi\n      dup3\n      swap1\n      sub\n      0x1f\n      and\n      dup3\n      add\n      swap2\n    tag_137:\n      pop\n      pop\n      pop\n      pop\n      pop\n      swap1\n      pop\n        /* \"@openzeppelin/contracts/token/ERC20/ERC20.sol\":2162:2260  function name() public view virtual override returns (string memory) {... */\n      swap1\n      jump\t// out\n        /* \"@openzeppelin/contracts/token/ERC20/ERC20.sol\":4439:4636  function approve(address spender, uint256 amount) public virtual override returns (bool) {... */\n    tag_39:\n        /* \"@openzeppelin/contracts/token/ERC20/ERC20.sol\":4522:4526  bool */\n      0x00\n        /* \"@openzeppelin/contracts/token/ERC20/ERC20.sol\":4538:4551  address owner */\n      dup1\n        /* \"@openzeppelin/contracts/token/ERC20/ERC20.sol\":4554:4566  _msgSender() */\n      tag_141\n        /* \"@openzeppelin/contracts/token/ERC20/ERC20.sol\":4554:4564  _msgSender */\n      tag_142\n        /* \"@openzeppelin/contracts/token/ERC20/ERC20.sol\":4554:4566  _msgSender() */\n      jump\t// in\n    tag_141:\n        /* \"@openzeppelin/contracts/token/ERC20/ERC20.sol\":4538:4566  address owner = _msgSender() */\n      swap1\n      pop\n        /* \"@openzeppelin/contracts/token/ERC20/ERC20.sol\":4576:4608  _approve(owner, spender, amount) */\n      tag_143\n        /* \"@openzeppelin/contracts/token/ERC20/ERC20.sol\":4585:4590  owner */\n      dup2\n        /* \"@openzeppelin/contracts/token/ERC20/ERC20.sol\":4592:4599  spender */\n      dup6\n        /* \"@openzeppelin/contracts/token/ERC20/ERC20.sol\":4601:4607  amount */\n      dup6\n        /* \"@openzeppelin/contracts/token/ERC20/ERC20.sol\":4576:4584  _approve */\n      tag_144\n        /* \"@openzeppelin/contracts/token/ERC20/ERC20.sol\":4576:4608  _approve(owner, spender, amount) */\n      jump\t// in\n    tag_143:\n        /* \"@openzeppelin/contracts/token/ERC20/ERC20.sol\":4625:4629  true */\n      0x01\n        /* \"@openzeppelin/contracts/token/ERC20/ERC20.sol\":4618:4629  return true */\n      swap2\n      pop\n      pop\n        /* \"@openzeppelin/contracts/token/ERC20/ERC20.sol\":4439:4636  function approve(address spender, uint256 amount) public virtual override returns (bool) {... */\n      swap3\n      swap2\n      pop\n      pop\n      jump\t// out\n        /* \"@openzeppelin/contracts/token/ERC20/ERC20.sol\":3250:3356  function totalSupply() public view virtual override returns (uint256) {... */\n    tag_43:\n        /* \"@openzeppelin/contracts/token/ERC20/ERC20.sol\":3311:3318  uint256 */\n      0x00\n        /* \"@openzeppelin/contracts/token/ERC20/ERC20.sol\":3337:3349  _totalSupply */\n      sload(0x02)\n        /* \"@openzeppelin/contracts/token/ERC20/ERC20.sol\":3330:3349  return _totalSupply */\n      swap1\n      pop\n        /* \"@openzeppelin/contracts/token/ERC20/ERC20.sol\":3250:3356  function totalSupply() public view virtual override returns (uint256) {... */\n      swap1\n      jump\t// out\n        /* \"contracts/Zero2Hero_BNB/2_Token_Deployment/SushiToken.sol\":1673:1795  bytes32 public constant DOMAIN_TYPEHASH = keccak256(\"EIP712Domain(string name,uint256 chainId,address verifyingContract)\") */\n    tag_47:\n        /* \"contracts/Zero2Hero_BNB/2_Token_Deployment/SushiToken.sol\":1715:1795  keccak256(\"EIP712Domain(string name,uint256 chainId,address verifyingContract)\") */\n      0x8cad95687ba82c2ce50e74f7b754645e5117c3a5bec8151c0726d5857980a866\n        /* \"contracts/Zero2Hero_BNB/2_Token_Deployment/SushiToken.sol\":1673:1795  bytes32 public constant DOMAIN_TYPEHASH = keccak256(\"EIP712Domain(string name,uint256 chainId,address verifyingContract)\") */\n      dup2\n      jump\t// out\n        /* \"@openzeppelin/contracts/token/ERC20/ERC20.sol\":5198:5484  function transferFrom(... */\n    tag_53:\n        /* \"@openzeppelin/contracts/token/ERC20/ERC20.sol\":5325:5329  bool */\n      0x00\n        /* \"@openzeppelin/contracts/token/ERC20/ERC20.sol\":5341:5356  address spender */\n      dup1\n        /* \"@openzeppelin/contracts/token/ERC20/ERC20.sol\":5359:5371  _msgSender() */\n      tag_147\n        /* \"@openzeppelin/contracts/token/ERC20/ERC20.sol\":5359:5369  _msgSender */\n      tag_142\n        /* \"@openzeppelin/contracts/token/ERC20/ERC20.sol\":5359:5371  _msgSender() */\n      jump\t// in\n    tag_147:\n        /* \"@openzeppelin/contracts/token/ERC20/ERC20.sol\":5341:5371  address spender = _msgSender() */\n      swap1\n      pop\n        /* \"@openzeppelin/contracts/token/ERC20/ERC20.sol\":5381:5419  _spendAllowance(from, spender, amount) */\n      tag_148\n        /* \"@openzeppelin/contracts/token/ERC20/ERC20.sol\":5397:5401  from */\n      dup6\n        /* \"@openzeppelin/contracts/token/ERC20/ERC20.sol\":5403:5410  spender */\n      dup3\n        /* \"@openzeppelin/contracts/token/ERC20/ERC20.sol\":5412:5418  amount */\n      dup6\n        /* \"@openzeppelin/contracts/token/ERC20/ERC20.sol\":5381:5396  _spendAllowance */\n      tag_149\n        /* \"@openzeppelin/contracts/token/ERC20/ERC20.sol\":5381:5419  _spendAllowance(from, spender, amount) */\n      jump\t// in\n    tag_148:\n        /* \"@openzeppelin/contracts/token/ERC20/ERC20.sol\":5429:5456  _transfer(from, to, amount) */\n      tag_150\n        /* \"@openzeppelin/contracts/token/ERC20/ERC20.sol\":5439:5443  from */\n      dup6\n        /* \"@openzeppelin/contracts/token/ERC20/ERC20.sol\":5445:5447  to */\n      dup6\n        /* \"@openzeppelin/contracts/token/ERC20/ERC20.sol\":5449:5455  amount */\n      dup6\n        /* \"@openzeppelin/contracts/token/ERC20/ERC20.sol\":5429:5438  _transfer */\n      tag_151\n        /* \"@openzeppelin/contracts/token/ERC20/ERC20.sol\":5429:5456  _transfer(from, to, amount) */\n      jump\t// in\n    tag_150:\n        /* \"@openzeppelin/contracts/token/ERC20/ERC20.sol\":5473:5477  true */\n      0x01\n        /* \"@openzeppelin/contracts/token/ERC20/ERC20.sol\":5466:5477  return true */\n      swap2\n      pop\n      pop\n        /* \"@openzeppelin/contracts/token/ERC20/ERC20.sol\":5198:5484  function transferFrom(... */\n      swap4\n      swap3\n      pop\n      pop\n      pop\n      jump\t// out\n        /* \"@openzeppelin/contracts/token/ERC20/ERC20.sol\":3099:3190  function decimals() public view virtual override returns (uint8) {... */\n    tag_56:\n        /* \"@openzeppelin/contracts/token/ERC20/ERC20.sol\":3157:3162  uint8 */\n      0x00\n        /* \"@openzeppelin/contracts/token/ERC20/ERC20.sol\":3181:3183  18 */\n      0x12\n        /* \"@openzeppelin/contracts/token/ERC20/ERC20.sol\":3174:3183  return 18 */\n      swap1\n      pop\n        /* \"@openzeppelin/contracts/token/ERC20/ERC20.sol\":3099:3190  function decimals() public view virtual override returns (uint8) {... */\n      swap1\n      jump\t// out\n        /* \"@openzeppelin/contracts/token/ERC20/ERC20.sol\":5879:6113  function increaseAllowance(address spender, uint256 addedValue) public virtual returns (bool) {... */\n    tag_61:\n        /* \"@openzeppelin/contracts/token/ERC20/ERC20.sol\":5967:5971  bool */\n      0x00\n        /* \"@openzeppelin/contracts/token/ERC20/ERC20.sol\":5983:5996  address owner */\n      dup1\n        /* \"@openzeppelin/contracts/token/ERC20/ERC20.sol\":5999:6011  _msgSender() */\n      tag_154\n        /* \"@openzeppelin/contracts/token/ERC20/ERC20.sol\":5999:6009  _msgSender */\n      tag_142\n        /* \"@openzeppelin/contracts/token/ERC20/ERC20.sol\":5999:6011  _msgSender() */\n      jump\t// in\n    tag_154:\n        /* \"@openzeppelin/contracts/token/ERC20/ERC20.sol\":5983:6011  address owner = _msgSender() */\n      swap1\n      pop\n        /* \"@openzeppelin/contracts/token/ERC20/ERC20.sol\":6021:6085  _approve(owner, spender, allowance(owner, spender) + addedValue) */\n      tag_155\n        /* \"@openzeppelin/contracts/token/ERC20/ERC20.sol\":6030:6035  owner */\n      dup2\n        /* \"@openzeppelin/contracts/token/ERC20/ERC20.sol\":6037:6044  spender */\n      dup6\n        /* \"@openzeppelin/contracts/token/ERC20/ERC20.sol\":6074:6084  addedValue */\n      dup6\n        /* \"@openzeppelin/contracts/token/ERC20/ERC20.sol\":6046:6071  allowance(owner, spender) */\n      tag_156\n        /* \"@openzeppelin/contracts/token/ERC20/ERC20.sol\":6056:6061  owner */\n      dup6\n        /* \"@openzeppelin/contracts/token/ERC20/ERC20.sol\":6063:6070  spender */\n      dup10\n        /* \"@openzeppelin/contracts/token/ERC20/ERC20.sol\":6046:6055  allowance */\n      tag_119\n        /* \"@openzeppelin/contracts/token/ERC20/ERC20.sol\":6046:6071  allowance(owner, spender) */\n      jump\t// in\n    tag_156:\n        /* \"@openzeppelin/contracts/token/ERC20/ERC20.sol\":6046:6084  allowance(owner, spender) + addedValue */\n      tag_157\n      swap2\n      swap1\n      tag_158\n      jump\t// in\n    tag_157:\n        /* \"@openzeppelin/contracts/token/ERC20/ERC20.sol\":6021:6029  _approve */\n      tag_144\n        /* \"@openzeppelin/contracts/token/ERC20/ERC20.sol\":6021:6085  _approve(owner, spender, allowance(owner, spender) + addedValue) */\n      jump\t// in\n    tag_155:\n        /* \"@openzeppelin/contracts/token/ERC20/ERC20.sol\":6102:6106  true */\n      0x01\n        /* \"@openzeppelin/contracts/token/ERC20/ERC20.sol\":6095:6106  return true */\n      swap2\n      pop\n      pop\n        /* \"@openzeppelin/contracts/token/ERC20/ERC20.sol\":5879:6113  function increaseAllowance(address spender, uint256 addedValue) public virtual returns (bool) {... */\n      swap3\n      swap2\n      pop\n      pop\n      jump\t// out\n        /* \"contracts/Zero2Hero_BNB/2_Token_Deployment/SushiToken.sol\":520:679  function mint(address _to, uint256 _amount) public onlyOwner {... */\n    tag_65:\n        /* \"@openzeppelin/contracts/access/Ownable.sol\":1102:1115  _checkOwner() */\n      tag_160\n        /* \"@openzeppelin/contracts/access/Ownable.sol\":1102:1113  _checkOwner */\n      tag_161\n        /* \"@openzeppelin/contracts/access/Ownable.sol\":1102:1115  _checkOwner() */\n      jump\t// in\n    tag_160:\n        /* \"contracts/Zero2Hero_BNB/2_Token_Deployment/SushiToken.sol\":591:610  _mint(_to, _amount) */\n      tag_163\n        /* \"contracts/Zero2Hero_BNB/2_Token_Deployment/SushiToken.sol\":597:600  _to */\n      dup3\n        /* \"contracts/Zero2Hero_BNB/2_Token_Deployment/SushiToken.sol\":602:609  _amount */\n      dup3\n        /* \"contracts/Zero2Hero_BNB/2_Token_Deployment/SushiToken.sol\":591:596  _mint */\n      tag_164\n        /* \"contracts/Zero2Hero_BNB/2_Token_Deployment/SushiToken.sol\":591:610  _mint(_to, _amount) */\n      jump\t// in\n    tag_163:\n        /* \"contracts/Zero2Hero_BNB/2_Token_Deployment/SushiToken.sol\":620:672  _moveDelegates(address(0), _delegates[_to], _amount) */\n      tag_165\n        /* \"contracts/Zero2Hero_BNB/2_Token_Deployment/SushiToken.sol\":643:644  0 */\n      0x00\n        /* \"contracts/Zero2Hero_BNB/2_Token_Deployment/SushiToken.sol\":647:657  _delegates */\n      0x06\n        /* \"contracts/Zero2Hero_BNB/2_Token_Deployment/SushiToken.sol\":647:662  _delegates[_to] */\n      0x00\n        /* \"contracts/Zero2Hero_BNB/2_Token_Deployment/SushiToken.sol\":658:661  _to */\n      dup6\n        /* \"contracts/Zero2Hero_BNB/2_Token_Deployment/SushiToken.sol\":647:662  _delegates[_to] */\n      0xffffffffffffffffffffffffffffffffffffffff\n      and\n      0xffffffffffffffffffffffffffffffffffffffff\n      and\n      dup2\n      mstore\n      0x20\n      add\n      swap1\n      dup2\n      mstore\n      0x20\n      add\n      0x00\n      keccak256\n      0x00\n      swap1\n      sload\n      swap1\n      0x0100\n      exp\n      swap1\n      div\n      0xffffffffffffffffffffffffffffffffffffffff\n      and\n        /* \"contracts/Zero2Hero_BNB/2_Token_Deployment/SushiToken.sol\":664:671  _amount */\n      dup4\n        /* \"contracts/Zero2Hero_BNB/2_Token_Deployment/SushiToken.sol\":620:634  _moveDelegates */\n      tag_166\n        /* \"contracts/Zero2Hero_BNB/2_Token_Deployment/SushiToken.sol\":620:672  _moveDelegates(address(0), _delegates[_to], _amount) */\n      jump\t// in\n    tag_165:\n        /* \"contracts/Zero2Hero_BNB/2_Token_Deployment/SushiToken.sol\":520:679  function mint(address _to, uint256 _amount) public onlyOwner {... */\n      pop\n      pop\n      jump\t// out\n        /* \"contracts/Zero2Hero_BNB/2_Token_Deployment/SushiToken.sol\":2638:2781  function delegates(address delegator)... */\n    tag_69:\n        /* \"contracts/Zero2Hero_BNB/2_Token_Deployment/SushiToken.sol\":2723:2730  address */\n      0x00\n        /* \"contracts/Zero2Hero_BNB/2_Token_Deployment/SushiToken.sol\":2753:2763  _delegates */\n      0x06\n        /* \"contracts/Zero2Hero_BNB/2_Token_Deployment/SushiToken.sol\":2753:2774  _delegates[delegator] */\n      0x00\n        /* \"contracts/Zero2Hero_BNB/2_Token_Deployment/SushiToken.sol\":2764:2773  delegator */\n      dup4\n        /* \"contracts/Zero2Hero_BNB/2_Token_Deployment/SushiToken.sol\":2753:2774  _delegates[delegator] */\n      0xffffffffffffffffffffffffffffffffffffffff\n      and\n      0xffffffffffffffffffffffffffffffffffffffff\n      and\n      dup2\n      mstore\n      0x20\n      add\n      swap1\n      dup2\n      mstore\n      0x20\n      add\n      0x00\n      keccak256\n      0x00\n      swap1\n      sload\n      swap1\n      0x0100\n      exp\n      swap1\n      div\n      0xffffffffffffffffffffffffffffffffffffffff\n      and\n        /* \"contracts/Zero2Hero_BNB/2_Token_Deployment/SushiToken.sol\":2746:2774  return _delegates[delegator] */\n      swap1\n      pop\n        /* \"contracts/Zero2Hero_BNB/2_Token_Deployment/SushiToken.sol\":2638:2781  function delegates(address delegator)... */\n      swap2\n      swap1\n      pop\n      jump\t// out\n        /* \"contracts/Zero2Hero_BNB/2_Token_Deployment/SushiToken.sol\":2919:3021  function delegate(address delegatee) external {... */\n    tag_74:\n        /* \"contracts/Zero2Hero_BNB/2_Token_Deployment/SushiToken.sol\":2982:3014  _delegate(msg.sender, delegatee) */\n      tag_169\n        /* \"contracts/Zero2Hero_BNB/2_Token_Deployment/SushiToken.sol\":2992:3002  msg.sender */\n      caller\n        /* \"contracts/Zero2Hero_BNB/2_Token_Deployment/SushiToken.sol\":3004:3013  delegatee */\n      dup3\n        /* \"contracts/Zero2Hero_BNB/2_Token_Deployment/SushiToken.sol\":2982:2991  _delegate */\n      tag_170\n        /* \"contracts/Zero2Hero_BNB/2_Token_Deployment/SushiToken.sol\":2982:3014  _delegate(msg.sender, delegatee) */\n      jump\t// in\n    tag_169:\n        /* \"contracts/Zero2Hero_BNB/2_Token_Deployment/SushiToken.sol\":2919:3021  function delegate(address delegatee) external {... */\n      pop\n      jump\t// out\n        /* \"contracts/Zero2Hero_BNB/2_Token_Deployment/SushiToken.sol\":1554:1603  mapping (address => uint32) public numCheckpoints */\n    tag_77:\n      mstore(0x20, 0x08)\n      dup1\n      0x00\n      mstore\n      keccak256(0x00, 0x40)\n      0x00\n      swap2\n      pop\n      sload\n      swap1\n      0x0100\n      exp\n      swap1\n      div\n      0xffffffff\n      and\n      dup2\n      jump\t// out\n        /* \"@openzeppelin/contracts/token/ERC20/ERC20.sol\":3414:3539  function balanceOf(address account) public view virtual override returns (uint256) {... */\n    tag_82:\n        /* \"@openzeppelin/contracts/token/ERC20/ERC20.sol\":3488:3495  uint256 */\n      0x00\n        /* \"@openzeppelin/contracts/token/ERC20/ERC20.sol\":3514:3523  _balances */\n      dup1\n        /* \"@openzeppelin/contracts/token/ERC20/ERC20.sol\":3514:3532  _balances[account] */\n      0x00\n        /* \"@openzeppelin/contracts/token/ERC20/ERC20.sol\":3524:3531  account */\n      dup4\n        /* \"@openzeppelin/contracts/token/ERC20/ERC20.sol\":3514:3532  _balances[account] */\n      0xffffffffffffffffffffffffffffffffffffffff\n      and\n      0xffffffffffffffffffffffffffffffffffffffff\n      and\n      dup2\n      mstore\n      0x20\n      add\n      swap1\n      dup2\n      mstore\n      0x20\n      add\n      0x00\n      keccak256\n      sload\n        /* \"@openzeppelin/contracts/token/ERC20/ERC20.sol\":3507:3532  return _balances[account] */\n      swap1\n      pop\n        /* \"@openzeppelin/contracts/token/ERC20/ERC20.sol\":3414:3539  function balanceOf(address account) public view virtual override returns (uint256) {... */\n      swap2\n      swap1\n      pop\n      jump\t// out\n        /* \"@openzeppelin/contracts/access/Ownable.sol\":1839:1940  function renounceOwnership() public virtual onlyOwner {... */\n    tag_85:\n        /* \"@openzeppelin/contracts/access/Ownable.sol\":1102:1115  _checkOwner() */\n      tag_173\n        /* \"@openzeppelin/contracts/access/Ownable.sol\":1102:1113  _checkOwner */\n      tag_161\n        /* \"@openzeppelin/contracts/access/Ownable.sol\":1102:1115  _checkOwner() */\n      jump\t// in\n    tag_173:\n        /* \"@openzeppelin/contracts/access/Ownable.sol\":1903:1933  _transferOwnership(address(0)) */\n      tag_175\n        /* \"@openzeppelin/contracts/access/Ownable.sol\":1930:1931  0 */\n      0x00\n        /* \"@openzeppelin/contracts/access/Ownable.sol\":1903:1921  _transferOwnership */\n      tag_176\n        /* \"@openzeppelin/contracts/access/Ownable.sol\":1903:1933  _transferOwnership(address(0)) */\n      jump\t// in\n    tag_175:\n        /* \"@openzeppelin/contracts/access/Ownable.sol\":1839:1940  function renounceOwnership() public virtual onlyOwner {... */\n      jump\t// out\n        /* \"contracts/Zero2Hero_BNB/2_Token_Deployment/SushiToken.sol\":5460:6678  function getPriorVotes(address account, uint blockNumber)... */\n    tag_88:\n        /* \"contracts/Zero2Hero_BNB/2_Token_Deployment/SushiToken.sol\":5565:5572  uint256 */\n      0x00\n        /* \"contracts/Zero2Hero_BNB/2_Token_Deployment/SushiToken.sol\":5610:5622  block.number */\n      number\n        /* \"contracts/Zero2Hero_BNB/2_Token_Deployment/SushiToken.sol\":5596:5607  blockNumber */\n      dup3\n        /* \"contracts/Zero2Hero_BNB/2_Token_Deployment/SushiToken.sol\":5596:5622  blockNumber < block.number */\n      lt\n        /* \"contracts/Zero2Hero_BNB/2_Token_Deployment/SushiToken.sol\":5588:5667  require(blockNumber < block.number, \"SUSHI::getPriorVotes: not yet determined\") */\n      tag_178\n      jumpi\n      mload(0x40)\n      0x08c379a000000000000000000000000000000000000000000000000000000000\n      dup2\n      mstore\n      0x04\n      add\n      tag_179\n      swap1\n      tag_180\n      jump\t// in\n    tag_179:\n      mload(0x40)\n      dup1\n      swap2\n      sub\n      swap1\n      revert\n    tag_178:\n        /* \"contracts/Zero2Hero_BNB/2_Token_Deployment/SushiToken.sol\":5678:5697  uint32 nCheckpoints */\n      0x00\n        /* \"contracts/Zero2Hero_BNB/2_Token_Deployment/SushiToken.sol\":5700:5714  numCheckpoints */\n      0x08\n        /* \"contracts/Zero2Hero_BNB/2_Token_Deployment/SushiToken.sol\":5700:5723  numCheckpoints[account] */\n      0x00\n        /* \"contracts/Zero2Hero_BNB/2_Token_Deployment/SushiToken.sol\":5715:5722  account */\n      dup6\n        /* \"contracts/Zero2Hero_BNB/2_Token_Deployment/SushiToken.sol\":5700:5723  numCheckpoints[account] */\n      0xffffffffffffffffffffffffffffffffffffffff\n      and\n      0xffffffffffffffffffffffffffffffffffffffff\n      and\n      dup2\n      mstore\n      0x20\n      add\n      swap1\n      dup2\n      mstore\n      0x20\n      add\n      0x00\n      keccak256\n      0x00\n      swap1\n      sload\n      swap1\n      0x0100\n      exp\n      swap1\n      div\n      0xffffffff\n      and\n        /* \"contracts/Zero2Hero_BNB/2_Token_Deployment/SushiToken.sol\":5678:5723  uint32 nCheckpoints = numCheckpoints[account] */\n      swap1\n      pop\n        /* \"contracts/Zero2Hero_BNB/2_Token_Deployment/SushiToken.sol\":5753:5754  0 */\n      0x00\n        /* \"contracts/Zero2Hero_BNB/2_Token_Deployment/SushiToken.sol\":5737:5749  nCheckpoints */\n      dup2\n        /* \"contracts/Zero2Hero_BNB/2_Token_Deployment/SushiToken.sol\":5737:5754  nCheckpoints == 0 */\n      0xffffffff\n      and\n      sub\n        /* \"contracts/Zero2Hero_BNB/2_Token_Deployment/SushiToken.sol\":5733:5789  if (nCheckpoints == 0) {... */\n      tag_181\n      jumpi\n        /* \"contracts/Zero2Hero_BNB/2_Token_Deployment/SushiToken.sol\":5777:5778  0 */\n      0x00\n        /* \"contracts/Zero2Hero_BNB/2_Token_Deployment/SushiToken.sol\":5770:5778  return 0 */\n      swap2\n      pop\n      pop\n      jump(tag_177)\n        /* \"contracts/Zero2Hero_BNB/2_Token_Deployment/SushiToken.sol\":5733:5789  if (nCheckpoints == 0) {... */\n    tag_181:\n        /* \"contracts/Zero2Hero_BNB/2_Token_Deployment/SushiToken.sol\":5898:5909  blockNumber */\n      dup3\n        /* \"contracts/Zero2Hero_BNB/2_Token_Deployment/SushiToken.sol\":5846:5857  checkpoints */\n      0x07\n        /* \"contracts/Zero2Hero_BNB/2_Token_Deployment/SushiToken.sol\":5846:5866  checkpoints[account] */\n      0x00\n        /* \"contracts/Zero2Hero_BNB/2_Token_Deployment/SushiToken.sol\":5858:5865  account */\n      dup7\n        /* \"contracts/Zero2Hero_BNB/2_Token_Deployment/SushiToken.sol\":5846:5866  checkpoints[account] */\n      0xffffffffffffffffffffffffffffffffffffffff\n      and\n      0xffffffffffffffffffffffffffffffffffffffff\n      and\n      dup2\n      mstore\n      0x20\n      add\n      swap1\n      dup2\n      mstore\n      0x20\n      add\n      0x00\n      keccak256\n        /* \"contracts/Zero2Hero_BNB/2_Token_Deployment/SushiToken.sol\":5846:5884  checkpoints[account][nCheckpoints - 1] */\n      0x00\n        /* \"contracts/Zero2Hero_BNB/2_Token_Deployment/SushiToken.sol\":5882:5883  1 */\n      0x01\n        /* \"contracts/Zero2Hero_BNB/2_Token_Deployment/SushiToken.sol\":5867:5879  nCheckpoints */\n      dup5\n        /* \"contracts/Zero2Hero_BNB/2_Token_Deployment/SushiToken.sol\":5867:5883  nCheckpoints - 1 */\n      tag_182\n      swap2\n      swap1\n      tag_183\n      jump\t// in\n    tag_182:\n        /* \"contracts/Zero2Hero_BNB/2_Token_Deployment/SushiToken.sol\":5846:5884  checkpoints[account][nCheckpoints - 1] */\n      0xffffffff\n      and\n      0xffffffff\n      and\n      dup2\n      mstore\n      0x20\n      add\n      swap1\n      dup2\n      mstore\n      0x20\n      add\n      0x00\n      keccak256\n        /* \"contracts/Zero2Hero_BNB/2_Token_Deployment/SushiToken.sol\":5846:5894  checkpoints[account][nCheckpoints - 1].fromBlock */\n      0x00\n      add\n      0x00\n      swap1\n      sload\n      swap1\n      0x0100\n      exp\n      swap1\n      div\n      0xffffffff\n      and\n        /* \"contracts/Zero2Hero_BNB/2_Token_Deployment/SushiToken.sol\":5846:5909  checkpoints[account][nCheckpoints - 1].fromBlock <= blockNumber */\n      0xffffffff\n      and\n      gt\n        /* \"contracts/Zero2Hero_BNB/2_Token_Deployment/SushiToken.sol\":5842:5987  if (checkpoints[account][nCheckpoints - 1].fromBlock <= blockNumber) {... */\n      tag_184\n      jumpi\n        /* \"contracts/Zero2Hero_BNB/2_Token_Deployment/SushiToken.sol\":5932:5943  checkpoints */\n      0x07\n        /* \"contracts/Zero2Hero_BNB/2_Token_Deployment/SushiToken.sol\":5932:5952  checkpoints[account] */\n      0x00\n        /* \"contracts/Zero2Hero_BNB/2_Token_Deployment/SushiToken.sol\":5944:5951  account */\n      dup6\n        /* \"contracts/Zero2Hero_BNB/2_Token_Deployment/SushiToken.sol\":5932:5952  checkpoints[account] */\n      0xffffffffffffffffffffffffffffffffffffffff\n      and\n      0xffffffffffffffffffffffffffffffffffffffff\n      and\n      dup2\n      mstore\n      0x20\n      add\n      swap1\n      dup2\n      mstore\n      0x20\n      add\n      0x00\n      keccak256\n        /* \"contracts/Zero2Hero_BNB/2_Token_Deployment/SushiToken.sol\":5932:5970  checkpoints[account][nCheckpoints - 1] */\n      0x00\n        /* \"contracts/Zero2Hero_BNB/2_Token_Deployment/SushiToken.sol\":5968:5969  1 */\n      0x01\n        /* \"contracts/Zero2Hero_BNB/2_Token_Deployment/SushiToken.sol\":5953:5965  nCheckpoints */\n      dup4\n        /* \"contracts/Zero2Hero_BNB/2_Token_Deployment/SushiToken.sol\":5953:5969  nCheckpoints - 1 */\n      tag_185\n      swap2\n      swap1\n      tag_183\n      jump\t// in\n    tag_185:\n        /* \"contracts/Zero2Hero_BNB/2_Token_Deployment/SushiToken.sol\":5932:5970  checkpoints[account][nCheckpoints - 1] */\n      0xffffffff\n      and\n      0xffffffff\n      and\n      dup2\n      mstore\n      0x20\n      add\n      swap1\n      dup2\n      mstore\n      0x20\n      add\n      0x00\n      keccak256\n        /* \"contracts/Zero2Hero_BNB/2_Token_Deployment/SushiToken.sol\":5932:5976  checkpoints[account][nCheckpoints - 1].votes */\n      0x01\n      add\n      sload\n        /* \"contracts/Zero2Hero_BNB/2_Token_Deployment/SushiToken.sol\":5925:5976  return checkpoints[account][nCheckpoints - 1].votes */\n      swap2\n      pop\n      pop\n      jump(tag_177)\n        /* \"contracts/Zero2Hero_BNB/2_Token_Deployment/SushiToken.sol\":5842:5987  if (checkpoints[account][nCheckpoints - 1].fromBlock <= blockNumber) {... */\n    tag_184:\n        /* \"contracts/Zero2Hero_BNB/2_Token_Deployment/SushiToken.sol\":6081:6092  blockNumber */\n      dup3\n        /* \"contracts/Zero2Hero_BNB/2_Token_Deployment/SushiToken.sol\":6045:6056  checkpoints */\n      0x07\n        /* \"contracts/Zero2Hero_BNB/2_Token_Deployment/SushiToken.sol\":6045:6065  checkpoints[account] */\n      0x00\n        /* \"contracts/Zero2Hero_BNB/2_Token_Deployment/SushiToken.sol\":6057:6064  account */\n      dup7\n        /* \"contracts/Zero2Hero_BNB/2_Token_Deployment/SushiToken.sol\":6045:6065  checkpoints[account] */\n      0xffffffffffffffffffffffffffffffffffffffff\n      and\n      0xffffffffffffffffffffffffffffffffffffffff\n      and\n      dup2\n      mstore\n      0x20\n      add\n      swap1\n      dup2\n      mstore\n      0x20\n      add\n      0x00\n      keccak256\n        /* \"contracts/Zero2Hero_BNB/2_Token_Deployment/SushiToken.sol\":6045:6068  checkpoints[account][0] */\n      0x00\n        /* \"contracts/Zero2Hero_BNB/2_Token_Deployment/SushiToken.sol\":6066:6067  0 */\n      dup1\n        /* \"contracts/Zero2Hero_BNB/2_Token_Deployment/SushiToken.sol\":6045:6068  checkpoints[account][0] */\n      0xffffffff\n      and\n      dup2\n      mstore\n      0x20\n      add\n      swap1\n      dup2\n      mstore\n      0x20\n      add\n      0x00\n      keccak256\n        /* \"contracts/Zero2Hero_BNB/2_Token_Deployment/SushiToken.sol\":6045:6078  checkpoints[account][0].fromBlock */\n      0x00\n      add\n      0x00\n      swap1\n      sload\n      swap1\n      0x0100\n      exp\n      swap1\n      div\n      0xffffffff\n      and\n        /* \"contracts/Zero2Hero_BNB/2_Token_Deployment/SushiToken.sol\":6045:6092  checkpoints[account][0].fromBlock > blockNumber */\n      0xffffffff\n      and\n      gt\n        /* \"contracts/Zero2Hero_BNB/2_Token_Deployment/SushiToken.sol\":6041:6127  if (checkpoints[account][0].fromBlock > blockNumber) {... */\n      iszero\n      tag_186\n      jumpi\n        /* \"contracts/Zero2Hero_BNB/2_Token_Deployment/SushiToken.sol\":6115:6116  0 */\n      0x00\n        /* \"contracts/Zero2Hero_BNB/2_Token_Deployment/SushiToken.sol\":6108:6116  return 0 */\n      swap2\n      pop\n      pop\n      jump(tag_177)\n        /* \"contracts/Zero2Hero_BNB/2_Token_Deployment/SushiToken.sol\":6041:6127  if (checkpoints[account][0].fromBlock > blockNumber) {... */\n    tag_186:\n        /* \"contracts/Zero2Hero_BNB/2_Token_Deployment/SushiToken.sol\":6137:6149  uint32 lower */\n      0x00\n        /* \"contracts/Zero2Hero_BNB/2_Token_Deployment/SushiToken.sol\":6163:6175  uint32 upper */\n      dup1\n        /* \"contracts/Zero2Hero_BNB/2_Token_Deployment/SushiToken.sol\":6193:6194  1 */\n      0x01\n        /* \"contracts/Zero2Hero_BNB/2_Token_Deployment/SushiToken.sol\":6178:6190  nCheckpoints */\n      dup4\n        /* \"contracts/Zero2Hero_BNB/2_Token_Deployment/SushiToken.sol\":6178:6194  nCheckpoints - 1 */\n      tag_187\n      swap2\n      swap1\n      tag_183\n      jump\t// in\n    tag_187:\n        /* \"contracts/Zero2Hero_BNB/2_Token_Deployment/SushiToken.sol\":6163:6194  uint32 upper = nCheckpoints - 1 */\n      swap1\n      pop\n        /* \"contracts/Zero2Hero_BNB/2_Token_Deployment/SushiToken.sol\":6204:6622  while (upper > lower) {... */\n    tag_188:\n        /* \"contracts/Zero2Hero_BNB/2_Token_Deployment/SushiToken.sol\":6219:6224  lower */\n      dup2\n        /* \"contracts/Zero2Hero_BNB/2_Token_Deployment/SushiToken.sol\":6211:6224  upper > lower */\n      0xffffffff\n      and\n        /* \"contracts/Zero2Hero_BNB/2_Token_Deployment/SushiToken.sol\":6211:6216  upper */\n      dup2\n        /* \"contracts/Zero2Hero_BNB/2_Token_Deployment/SushiToken.sol\":6211:6224  upper > lower */\n      0xffffffff\n      and\n      gt\n        /* \"contracts/Zero2Hero_BNB/2_Token_Deployment/SushiToken.sol\":6204:6622  while (upper > lower) {... */\n      iszero\n      tag_189\n      jumpi\n        /* \"contracts/Zero2Hero_BNB/2_Token_Deployment/SushiToken.sol\":6240:6253  uint32 center */\n      0x00\n        /* \"contracts/Zero2Hero_BNB/2_Token_Deployment/SushiToken.sol\":6282:6283  2 */\n      0x02\n        /* \"contracts/Zero2Hero_BNB/2_Token_Deployment/SushiToken.sol\":6273:6278  lower */\n      dup4\n        /* \"contracts/Zero2Hero_BNB/2_Token_Deployment/SushiToken.sol\":6265:6270  upper */\n      dup4\n        /* \"contracts/Zero2Hero_BNB/2_Token_Deployment/SushiToken.sol\":6265:6278  upper - lower */\n      tag_190\n      swap2\n      swap1\n      tag_183\n      jump\t// in\n    tag_190:\n        /* \"contracts/Zero2Hero_BNB/2_Token_Deployment/SushiToken.sol\":6264:6283  (upper - lower) / 2 */\n      tag_191\n      swap2\n      swap1\n      tag_192\n      jump\t// in\n    tag_191:\n        /* \"contracts/Zero2Hero_BNB/2_Token_Deployment/SushiToken.sol\":6256:6261  upper */\n      dup3\n        /* \"contracts/Zero2Hero_BNB/2_Token_Deployment/SushiToken.sol\":6256:6283  upper - (upper - lower) / 2 */\n      tag_193\n      swap2\n      swap1\n      tag_183\n      jump\t// in\n    tag_193:\n        /* \"contracts/Zero2Hero_BNB/2_Token_Deployment/SushiToken.sol\":6240:6283  uint32 center = upper - (upper - lower) / 2 */\n      swap1\n      pop\n        /* \"contracts/Zero2Hero_BNB/2_Token_Deployment/SushiToken.sol\":6324:6344  Checkpoint memory cp */\n      0x00\n        /* \"contracts/Zero2Hero_BNB/2_Token_Deployment/SushiToken.sol\":6347:6358  checkpoints */\n      0x07\n        /* \"contracts/Zero2Hero_BNB/2_Token_Deployment/SushiToken.sol\":6347:6367  checkpoints[account] */\n      0x00\n        /* \"contracts/Zero2Hero_BNB/2_Token_Deployment/SushiToken.sol\":6359:6366  account */\n      dup10\n        /* \"contracts/Zero2Hero_BNB/2_Token_Deployment/SushiToken.sol\":6347:6367  checkpoints[account] */\n      0xffffffffffffffffffffffffffffffffffffffff\n      and\n      0xffffffffffffffffffffffffffffffffffffffff\n      and\n      dup2\n      mstore\n      0x20\n      add\n      swap1\n      dup2\n      mstore\n      0x20\n      add\n      0x00\n      keccak256\n        /* \"contracts/Zero2Hero_BNB/2_Token_Deployment/SushiToken.sol\":6347:6375  checkpoints[account][center] */\n      0x00\n        /* \"contracts/Zero2Hero_BNB/2_Token_Deployment/SushiToken.sol\":6368:6374  center */\n      dup4\n        /* \"contracts/Zero2Hero_BNB/2_Token_Deployment/SushiToken.sol\":6347:6375  checkpoints[account][center] */\n      0xffffffff\n      and\n      0xffffffff\n      and\n      dup2\n      mstore\n      0x20\n      add\n      swap1\n      dup2\n      mstore\n      0x20\n      add\n      0x00\n      keccak256\n        /* \"contracts/Zero2Hero_BNB/2_Token_Deployment/SushiToken.sol\":6324:6375  Checkpoint memory cp = checkpoints[account][center] */\n      mload(0x40)\n      dup1\n      0x40\n      add\n      0x40\n      mstore\n      swap1\n      dup2\n      0x00\n      dup3\n      add\n      0x00\n      swap1\n      sload\n      swap1\n      0x0100\n      exp\n      swap1\n      div\n      0xffffffff\n      and\n      0xffffffff\n      and\n      0xffffffff\n      and\n      dup2\n      mstore\n      0x20\n      add\n      0x01\n      dup3\n      add\n      sload\n      dup2\n      mstore\n      pop\n      pop\n      swap1\n      pop\n        /* \"contracts/Zero2Hero_BNB/2_Token_Deployment/SushiToken.sol\":6409:6420  blockNumber */\n      dup7\n        /* \"contracts/Zero2Hero_BNB/2_Token_Deployment/SushiToken.sol\":6393:6395  cp */\n      dup2\n        /* \"contracts/Zero2Hero_BNB/2_Token_Deployment/SushiToken.sol\":6393:6405  cp.fromBlock */\n      0x00\n      add\n      mload\n        /* \"contracts/Zero2Hero_BNB/2_Token_Deployment/SushiToken.sol\":6393:6420  cp.fromBlock == blockNumber */\n      0xffffffff\n      and\n      sub\n        /* \"contracts/Zero2Hero_BNB/2_Token_Deployment/SushiToken.sol\":6389:6612  if (cp.fromBlock == blockNumber) {... */\n      tag_194\n      jumpi\n        /* \"contracts/Zero2Hero_BNB/2_Token_Deployment/SushiToken.sol\":6447:6449  cp */\n      dup1\n        /* \"contracts/Zero2Hero_BNB/2_Token_Deployment/SushiToken.sol\":6447:6455  cp.votes */\n      0x20\n      add\n      mload\n        /* \"contracts/Zero2Hero_BNB/2_Token_Deployment/SushiToken.sol\":6440:6455  return cp.votes */\n      swap6\n      pop\n      pop\n      pop\n      pop\n      pop\n      pop\n      jump(tag_177)\n        /* \"contracts/Zero2Hero_BNB/2_Token_Deployment/SushiToken.sol\":6389:6612  if (cp.fromBlock == blockNumber) {... */\n    tag_194:\n        /* \"contracts/Zero2Hero_BNB/2_Token_Deployment/SushiToken.sol\":6495:6506  blockNumber */\n      dup7\n        /* \"contracts/Zero2Hero_BNB/2_Token_Deployment/SushiToken.sol\":6480:6482  cp */\n      dup2\n        /* \"contracts/Zero2Hero_BNB/2_Token_Deployment/SushiToken.sol\":6480:6492  cp.fromBlock */\n      0x00\n      add\n      mload\n        /* \"contracts/Zero2Hero_BNB/2_Token_Deployment/SushiToken.sol\":6480:6506  cp.fromBlock < blockNumber */\n      0xffffffff\n      and\n      lt\n        /* \"contracts/Zero2Hero_BNB/2_Token_Deployment/SushiToken.sol\":6476:6612  if (cp.fromBlock < blockNumber) {... */\n      iszero\n      tag_196\n      jumpi\n        /* \"contracts/Zero2Hero_BNB/2_Token_Deployment/SushiToken.sol\":6534:6540  center */\n      dup2\n        /* \"contracts/Zero2Hero_BNB/2_Token_Deployment/SushiToken.sol\":6526:6540  lower = center */\n      swap4\n      pop\n        /* \"contracts/Zero2Hero_BNB/2_Token_Deployment/SushiToken.sol\":6476:6612  if (cp.fromBlock < blockNumber) {... */\n      jump(tag_197)\n    tag_196:\n        /* \"contracts/Zero2Hero_BNB/2_Token_Deployment/SushiToken.sol\":6596:6597  1 */\n      0x01\n        /* \"contracts/Zero2Hero_BNB/2_Token_Deployment/SushiToken.sol\":6587:6593  center */\n      dup3\n        /* \"contracts/Zero2Hero_BNB/2_Token_Deployment/SushiToken.sol\":6587:6597  center - 1 */\n      tag_198\n      swap2\n      swap1\n      tag_183\n      jump\t// in\n    tag_198:\n        /* \"contracts/Zero2Hero_BNB/2_Token_Deployment/SushiToken.sol\":6579:6597  upper = center - 1 */\n      swap3\n      pop\n        /* \"contracts/Zero2Hero_BNB/2_Token_Deployment/SushiToken.sol\":6476:6612  if (cp.fromBlock < blockNumber) {... */\n    tag_197:\n        /* \"contracts/Zero2Hero_BNB/2_Token_Deployment/SushiToken.sol\":6226:6622  {... */\n      pop\n      pop\n        /* \"contracts/Zero2Hero_BNB/2_Token_Deployment/SushiToken.sol\":6204:6622  while (upper > lower) {... */\n      jump(tag_188)\n    tag_189:\n        /* \"contracts/Zero2Hero_BNB/2_Token_Deployment/SushiToken.sol\":6638:6649  checkpoints */\n      0x07\n        /* \"contracts/Zero2Hero_BNB/2_Token_Deployment/SushiToken.sol\":6638:6658  checkpoints[account] */\n      0x00\n        /* \"contracts/Zero2Hero_BNB/2_Token_Deployment/SushiToken.sol\":6650:6657  account */\n      dup8\n        /* \"contracts/Zero2Hero_BNB/2_Token_Deployment/SushiToken.sol\":6638:6658  checkpoints[account] */\n      0xffffffffffffffffffffffffffffffffffffffff\n      and\n      0xffffffffffffffffffffffffffffffffffffffff\n      and\n      dup2\n      mstore\n      0x20\n      add\n      swap1\n      dup2\n      mstore\n      0x20\n      add\n      0x00\n      keccak256\n        /* \"contracts/Zero2Hero_BNB/2_Token_Deployment/SushiToken.sol\":6638:6665  checkpoints[account][lower] */\n      0x00\n        /* \"contracts/Zero2Hero_BNB/2_Token_Deployment/SushiToken.sol\":6659:6664  lower */\n      dup4\n        /* \"contracts/Zero2Hero_BNB/2_Token_Deployment/SushiToken.sol\":6638:6665  checkpoints[account][lower] */\n      0xffffffff\n      and\n      0xffffffff\n      and\n      dup2\n      mstore\n      0x20\n      add\n      swap1\n      dup2\n      mstore\n      0x20\n      add\n      0x00\n      keccak256\n        /* \"contracts/Zero2Hero_BNB/2_Token_Deployment/SushiToken.sol\":6638:6671  checkpoints[account][lower].votes */\n      0x01\n      add\n      sload\n        /* \"contracts/Zero2Hero_BNB/2_Token_Deployment/SushiToken.sol\":6631:6671  return checkpoints[account][lower].votes */\n      swap4\n      pop\n      pop\n      pop\n      pop\n        /* \"contracts/Zero2Hero_BNB/2_Token_Deployment/SushiToken.sol\":5460:6678  function getPriorVotes(address account, uint blockNumber)... */\n    tag_177:\n      swap3\n      swap2\n      pop\n      pop\n      jump\t// out\n        /* \"contracts/Zero2Hero_BNB/2_Token_Deployment/SushiToken.sol\":2081:2120  mapping (address => uint) public nonces */\n    tag_92:\n      mstore(0x20, 0x09)\n      dup1\n      0x00\n      mstore\n      keccak256(0x00, 0x40)\n      0x00\n      swap2\n      pop\n      swap1\n      pop\n      sload\n      dup2\n      jump\t// out\n        /* \"@openzeppelin/contracts/access/Ownable.sol\":1209:1294  function owner() public view virtual returns (address) {... */\n    tag_95:\n        /* \"@openzeppelin/contracts/access/Ownable.sol\":1255:1262  address */\n      0x00\n        /* \"@openzeppelin/contracts/access/Ownable.sol\":1281:1287  _owner */\n      0x05\n      0x00\n      swap1\n      sload\n      swap1\n      0x0100\n      exp\n      swap1\n      div\n      0xffffffffffffffffffffffffffffffffffffffff\n      and\n        /* \"@openzeppelin/contracts/access/Ownable.sol\":1274:1287  return _owner */\n      swap1\n      pop\n        /* \"@openzeppelin/contracts/access/Ownable.sol\":1209:1294  function owner() public view virtual returns (address) {... */\n      swap1\n      jump\t// out\n        /* \"@openzeppelin/contracts/token/ERC20/ERC20.sol\":2373:2475  function symbol() public view virtual override returns (string memory) {... */\n    tag_98:\n        /* \"@openzeppelin/contracts/token/ERC20/ERC20.sol\":2429:2442  string memory */\n      0x60\n        /* \"@openzeppelin/contracts/token/ERC20/ERC20.sol\":2461:2468  _symbol */\n      0x04\n        /* \"@openzeppelin/contracts/token/ERC20/ERC20.sol\":2454:2468  return _symbol */\n      dup1\n      sload\n      tag_201\n      swap1\n      tag_135\n      jump\t// in\n    tag_201:\n      dup1\n      0x1f\n      add\n      0x20\n      dup1\n      swap2\n      div\n      mul\n      0x20\n      add\n      mload(0x40)\n      swap1\n      dup2\n      add\n      0x40\n      mstore\n      dup1\n      swap3\n      swap2\n      swap1\n      dup2\n      dup2\n      mstore\n      0x20\n      add\n      dup3\n      dup1\n      sload\n      tag_202\n      swap1\n      tag_135\n      jump\t// in\n    tag_202:\n      dup1\n      iszero\n      tag_203\n      jumpi\n      dup1\n      0x1f\n      lt\n      tag_204\n      jumpi\n      0x0100\n      dup1\n      dup4\n      sload\n      div\n      mul\n      dup4\n      mstore\n      swap2\n      0x20\n      add\n      swap2\n      jump(tag_203)\n    tag_204:\n      dup3\n      add\n      swap2\n      swap1\n      0x00\n      mstore\n      keccak256(0x00, 0x20)\n      swap1\n    tag_205:\n      dup2\n      sload\n      dup2\n      mstore\n      swap1\n      0x01\n      add\n      swap1\n      0x20\n      add\n      dup1\n      dup4\n      gt\n      tag_205\n      jumpi\n      dup3\n      swap1\n      sub\n      0x1f\n      and\n      dup3\n      add\n      swap2\n    tag_203:\n      pop\n      pop\n      pop\n      pop\n      pop\n      swap1\n      pop\n        /* \"@openzeppelin/contracts/token/ERC20/ERC20.sol\":2373:2475  function symbol() public view virtual override returns (string memory) {... */\n      swap1\n      jump\t// out\n        /* \"@openzeppelin/contracts/token/ERC20/ERC20.sol\":6600:7027  function decreaseAllowance(address spender, uint256 subtractedValue) public virtual returns (bool) {... */\n    tag_102:\n        /* \"@openzeppelin/contracts/token/ERC20/ERC20.sol\":6693:6697  bool */\n      0x00\n        /* \"@openzeppelin/contracts/token/ERC20/ERC20.sol\":6709:6722  address owner */\n      dup1\n        /* \"@openzeppelin/contracts/token/ERC20/ERC20.sol\":6725:6737  _msgSender() */\n      tag_207\n        /* \"@openzeppelin/contracts/token/ERC20/ERC20.sol\":6725:6735  _msgSender */\n      tag_142\n        /* \"@openzeppelin/contracts/token/ERC20/ERC20.sol\":6725:6737  _msgSender() */\n      jump\t// in\n    tag_207:\n        /* \"@openzeppelin/contracts/token/ERC20/ERC20.sol\":6709:6737  address owner = _msgSender() */\n      swap1\n      pop\n        /* \"@openzeppelin/contracts/token/ERC20/ERC20.sol\":6747:6771  uint256 currentAllowance */\n      0x00\n        /* \"@openzeppelin/contracts/token/ERC20/ERC20.sol\":6774:6799  allowance(owner, spender) */\n      tag_208\n        /* \"@openzeppelin/contracts/token/ERC20/ERC20.sol\":6784:6789  owner */\n      dup3\n        /* \"@openzeppelin/contracts/token/ERC20/ERC20.sol\":6791:6798  spender */\n      dup7\n        /* \"@openzeppelin/contracts/token/ERC20/ERC20.sol\":6774:6783  allowance */\n      tag_119\n        /* \"@openzeppelin/contracts/token/ERC20/ERC20.sol\":6774:6799  allowance(owner, spender) */\n      jump\t// in\n    tag_208:\n        /* \"@openzeppelin/contracts/token/ERC20/ERC20.sol\":6747:6799  uint256 currentAllowance = allowance(owner, spender) */\n      swap1\n      pop\n        /* \"@openzeppelin/contracts/token/ERC20/ERC20.sol\":6837:6852  subtractedValue */\n      dup4\n        /* \"@openzeppelin/contracts/token/ERC20/ERC20.sol\":6817:6833  currentAllowance */\n      dup2\n        /* \"@openzeppelin/contracts/token/ERC20/ERC20.sol\":6817:6852  currentAllowance >= subtractedValue */\n      lt\n      iszero\n        /* \"@openzeppelin/contracts/token/ERC20/ERC20.sol\":6809:6894  require(currentAllowance >= subtractedValue, \"ERC20: decreased allowance below zero\") */\n      tag_209\n      jumpi\n      mload(0x40)\n      0x08c379a000000000000000000000000000000000000000000000000000000000\n      dup2\n      mstore\n      0x04\n      add\n      tag_210\n      swap1\n      tag_211\n      jump\t// in\n    tag_210:\n      mload(0x40)\n      dup1\n      swap2\n      sub\n      swap1\n      revert\n    tag_209:\n        /* \"@openzeppelin/contracts/token/ERC20/ERC20.sol\":6928:6988  _approve(owner, spender, currentAllowance - subtractedValue) */\n      tag_212\n        /* \"@openzeppelin/contracts/token/ERC20/ERC20.sol\":6937:6942  owner */\n      dup3\n        /* \"@openzeppelin/contracts/token/ERC20/ERC20.sol\":6944:6951  spender */\n      dup7\n        /* \"@openzeppelin/contracts/token/ERC20/ERC20.sol\":6972:6987  subtractedValue */\n      dup7\n        /* \"@openzeppelin/contracts/token/ERC20/ERC20.sol\":6953:6969  currentAllowance */\n      dup5\n        /* \"@openzeppelin/contracts/token/ERC20/ERC20.sol\":6953:6987  currentAllowance - subtractedValue */\n      sub\n        /* \"@openzeppelin/contracts/token/ERC20/ERC20.sol\":6928:6936  _approve */\n      tag_144\n        /* \"@openzeppelin/contracts/token/ERC20/ERC20.sol\":6928:6988  _approve(owner, spender, currentAllowance - subtractedValue) */\n      jump\t// in\n    tag_212:\n        /* \"@openzeppelin/contracts/token/ERC20/ERC20.sol\":7016:7020  true */\n      0x01\n        /* \"@openzeppelin/contracts/token/ERC20/ERC20.sol\":7009:7020  return true */\n      swap3\n      pop\n      pop\n      pop\n        /* \"@openzeppelin/contracts/token/ERC20/ERC20.sol\":6600:7027  function decreaseAllowance(address spender, uint256 subtractedValue) public virtual returns (bool) {... */\n      swap3\n      swap2\n      pop\n      pop\n      jump\t// out\n        /* \"@openzeppelin/contracts/token/ERC20/ERC20.sol\":3735:3924  function transfer(address to, uint256 amount) public virtual override returns (bool) {... */\n    tag_106:\n        /* \"@openzeppelin/contracts/token/ERC20/ERC20.sol\":3814:3818  bool */\n      0x00\n        /* \"@openzeppelin/contracts/token/ERC20/ERC20.sol\":3830:3843  address owner */\n      dup1\n        /* \"@openzeppelin/contracts/token/ERC20/ERC20.sol\":3846:3858  _msgSender() */\n      tag_214\n        /* \"@openzeppelin/contracts/token/ERC20/ERC20.sol\":3846:3856  _msgSender */\n      tag_142\n        /* \"@openzeppelin/contracts/token/ERC20/ERC20.sol\":3846:3858  _msgSender() */\n      jump\t// in\n    tag_214:\n        /* \"@openzeppelin/contracts/token/ERC20/ERC20.sol\":3830:3858  address owner = _msgSender() */\n      swap1\n      pop\n        /* \"@openzeppelin/contracts/token/ERC20/ERC20.sol\":3868:3896  _transfer(owner, to, amount) */\n      tag_215\n        /* \"@openzeppelin/contracts/token/ERC20/ERC20.sol\":3878:3883  owner */\n      dup2\n        /* \"@openzeppelin/contracts/token/ERC20/ERC20.sol\":3885:3887  to */\n      dup6\n        /* \"@openzeppelin/contracts/token/ERC20/ERC20.sol\":3889:3895  amount */\n      dup6\n        /* \"@openzeppelin/contracts/token/ERC20/ERC20.sol\":3868:3877  _transfer */\n      tag_151\n        /* \"@openzeppelin/contracts/token/ERC20/ERC20.sol\":3868:3896  _transfer(owner, to, amount) */\n      jump\t// in\n    tag_215:\n        /* \"@openzeppelin/contracts/token/ERC20/ERC20.sol\":3913:3917  true */\n      0x01\n        /* \"@openzeppelin/contracts/token/ERC20/ERC20.sol\":3906:3917  return true */\n      swap2\n      pop\n      pop\n        /* \"@openzeppelin/contracts/token/ERC20/ERC20.sol\":3735:3924  function transfer(address to, uint256 amount) public virtual override returns (bool) {... */\n      swap3\n      swap2\n      pop\n      pop\n      jump\t// out\n        /* \"contracts/Zero2Hero_BNB/2_Token_Deployment/SushiToken.sol\":4790:5038  function getCurrentVotes(address account)... */\n    tag_110:\n        /* \"contracts/Zero2Hero_BNB/2_Token_Deployment/SushiToken.sol\":4879:4886  uint256 */\n      0x00\n        /* \"contracts/Zero2Hero_BNB/2_Token_Deployment/SushiToken.sol\":4902:4921  uint32 nCheckpoints */\n      dup1\n        /* \"contracts/Zero2Hero_BNB/2_Token_Deployment/SushiToken.sol\":4924:4938  numCheckpoints */\n      0x08\n        /* \"contracts/Zero2Hero_BNB/2_Token_Deployment/SushiToken.sol\":4924:4947  numCheckpoints[account] */\n      0x00\n        /* \"contracts/Zero2Hero_BNB/2_Token_Deployment/SushiToken.sol\":4939:4946  account */\n      dup5\n        /* \"contracts/Zero2Hero_BNB/2_Token_Deployment/SushiToken.sol\":4924:4947  numCheckpoints[account] */\n      0xffffffffffffffffffffffffffffffffffffffff\n      and\n      0xffffffffffffffffffffffffffffffffffffffff\n      and\n      dup2\n      mstore\n      0x20\n      add\n      swap1\n      dup2\n      mstore\n      0x20\n      add\n      0x00\n      keccak256\n      0x00\n      swap1\n      sload\n      swap1\n      0x0100\n      exp\n      swap1\n      div\n      0xffffffff\n      and\n        /* \"contracts/Zero2Hero_BNB/2_Token_Deployment/SushiToken.sol\":4902:4947  uint32 nCheckpoints = numCheckpoints[account] */\n      swap1\n      pop\n        /* \"contracts/Zero2Hero_BNB/2_Token_Deployment/SushiToken.sol\":4979:4980  0 */\n      0x00\n        /* \"contracts/Zero2Hero_BNB/2_Token_Deployment/SushiToken.sol\":4964:4976  nCheckpoints */\n      dup2\n        /* \"contracts/Zero2Hero_BNB/2_Token_Deployment/SushiToken.sol\":4964:4980  nCheckpoints > 0 */\n      0xffffffff\n      and\n      gt\n        /* \"contracts/Zero2Hero_BNB/2_Token_Deployment/SushiToken.sol\":4964:5031  nCheckpoints > 0 ? checkpoints[account][nCheckpoints - 1].votes : 0 */\n      tag_217\n      jumpi\n        /* \"contracts/Zero2Hero_BNB/2_Token_Deployment/SushiToken.sol\":5030:5031  0 */\n      0x00\n        /* \"contracts/Zero2Hero_BNB/2_Token_Deployment/SushiToken.sol\":4964:5031  nCheckpoints > 0 ? checkpoints[account][nCheckpoints - 1].votes : 0 */\n      jump(tag_218)\n    tag_217:\n        /* \"contracts/Zero2Hero_BNB/2_Token_Deployment/SushiToken.sol\":4983:4994  checkpoints */\n      0x07\n        /* \"contracts/Zero2Hero_BNB/2_Token_Deployment/SushiToken.sol\":4983:5003  checkpoints[account] */\n      0x00\n        /* \"contracts/Zero2Hero_BNB/2_Token_Deployment/SushiToken.sol\":4995:5002  account */\n      dup5\n        /* \"contracts/Zero2Hero_BNB/2_Token_Deployment/SushiToken.sol\":4983:5003  checkpoints[account] */\n      0xffffffffffffffffffffffffffffffffffffffff\n      and\n      0xffffffffffffffffffffffffffffffffffffffff\n      and\n      dup2\n      mstore\n      0x20\n      add\n      swap1\n      dup2\n      mstore\n      0x20\n      add\n      0x00\n      keccak256\n        /* \"contracts/Zero2Hero_BNB/2_Token_Deployment/SushiToken.sol\":4983:5021  checkpoints[account][nCheckpoints - 1] */\n      0x00\n        /* \"contracts/Zero2Hero_BNB/2_Token_Deployment/SushiToken.sol\":5019:5020  1 */\n      0x01\n        /* \"contracts/Zero2Hero_BNB/2_Token_Deployment/SushiToken.sol\":5004:5016  nCheckpoints */\n      dup4\n        /* \"contracts/Zero2Hero_BNB/2_Token_Deployment/SushiToken.sol\":5004:5020  nCheckpoints - 1 */\n      tag_219\n      swap2\n      swap1\n      tag_183\n      jump\t// in\n    tag_219:\n        /* \"contracts/Zero2Hero_BNB/2_Token_Deployment/SushiToken.sol\":4983:5021  checkpoints[account][nCheckpoints - 1] */\n      0xffffffff\n      and\n      0xffffffff\n      and\n      dup2\n      mstore\n      0x20\n      add\n      swap1\n      dup2\n      mstore\n      0x20\n      add\n      0x00\n      keccak256\n        /* \"contracts/Zero2Hero_BNB/2_Token_Deployment/SushiToken.sol\":4983:5027  checkpoints[account][nCheckpoints - 1].votes */\n      0x01\n      add\n      sload\n        /* \"contracts/Zero2Hero_BNB/2_Token_Deployment/SushiToken.sol\":4964:5031  nCheckpoints > 0 ? checkpoints[account][nCheckpoints - 1].votes : 0 */\n    tag_218:\n        /* \"contracts/Zero2Hero_BNB/2_Token_Deployment/SushiToken.sol\":4957:5031  return nCheckpoints > 0 ? checkpoints[account][nCheckpoints - 1].votes : 0 */\n      swap2\n      pop\n      pop\n        /* \"contracts/Zero2Hero_BNB/2_Token_Deployment/SushiToken.sol\":4790:5038  function getCurrentVotes(address account)... */\n      swap2\n      swap1\n      pop\n      jump\t// out\n        /* \"contracts/Zero2Hero_BNB/2_Token_Deployment/SushiToken.sol\":3444:4596  function delegateBySig(... */\n    tag_115:\n        /* \"contracts/Zero2Hero_BNB/2_Token_Deployment/SushiToken.sol\":3627:3650  bytes32 domainSeparator */\n      0x00\n        /* \"contracts/Zero2Hero_BNB/2_Token_Deployment/SushiToken.sol\":1715:1795  keccak256(\"EIP712Domain(string name,uint256 chainId,address verifyingContract)\") */\n      0x8cad95687ba82c2ce50e74f7b754645e5117c3a5bec8151c0726d5857980a866\n        /* \"contracts/Zero2Hero_BNB/2_Token_Deployment/SushiToken.sol\":3753:3759  name() */\n      tag_221\n        /* \"contracts/Zero2Hero_BNB/2_Token_Deployment/SushiToken.sol\":3753:3757  name */\n      tag_33\n        /* \"contracts/Zero2Hero_BNB/2_Token_Deployment/SushiToken.sol\":3753:3759  name() */\n      jump\t// in\n    tag_221:\n        /* \"contracts/Zero2Hero_BNB/2_Token_Deployment/SushiToken.sol\":3737:3761  keccak256(bytes(name())) */\n      dup1\n      mload\n      swap1\n      0x20\n      add\n      keccak256\n        /* \"contracts/Zero2Hero_BNB/2_Token_Deployment/SushiToken.sol\":3779:3791  getChainId() */\n      tag_222\n        /* \"contracts/Zero2Hero_BNB/2_Token_Deployment/SushiToken.sol\":3779:3789  getChainId */\n      tag_223\n        /* \"contracts/Zero2Hero_BNB/2_Token_Deployment/SushiToken.sol\":3779:3791  getChainId() */\n      jump\t// in\n    tag_222:\n        /* \"contracts/Zero2Hero_BNB/2_Token_Deployment/SushiToken.sol\":3817:3821  this */\n      address\n        /* \"contracts/Zero2Hero_BNB/2_Token_Deployment/SushiToken.sol\":3676:3836  abi.encode(... */\n      add(0x20, mload(0x40))\n      tag_224\n      swap5\n      swap4\n      swap3\n      swap2\n      swap1\n      tag_225\n      jump\t// in\n    tag_224:\n      mload(0x40)\n      0x20\n      dup2\n      dup4\n      sub\n      sub\n      dup2\n      mstore\n      swap1\n      0x40\n      mstore\n        /* \"contracts/Zero2Hero_BNB/2_Token_Deployment/SushiToken.sol\":3653:3846  keccak256(... */\n      dup1\n      mload\n      swap1\n      0x20\n      add\n      keccak256\n        /* \"contracts/Zero2Hero_BNB/2_Token_Deployment/SushiToken.sol\":3627:3846  bytes32 domainSeparator = keccak256(... */\n      swap1\n      pop\n        /* \"contracts/Zero2Hero_BNB/2_Token_Deployment/SushiToken.sol\":3857:3875  bytes32 structHash */\n      0x00\n        /* \"contracts/Zero2Hero_BNB/2_Token_Deployment/SushiToken.sol\":1932:2003  keccak256(\"Delegation(address delegatee,uint256 nonce,uint256 expiry)\") */\n      0xe48329057bfd03d55e49b547132e39cffd9c1820ad7b9d4c5307691425d15adf\n        /* \"contracts/Zero2Hero_BNB/2_Token_Deployment/SushiToken.sol\":3966:3975  delegatee */\n      dup9\n        /* \"contracts/Zero2Hero_BNB/2_Token_Deployment/SushiToken.sol\":3993:3998  nonce */\n      dup9\n        /* \"contracts/Zero2Hero_BNB/2_Token_Deployment/SushiToken.sol\":4016:4022  expiry */\n      dup9\n        /* \"contracts/Zero2Hero_BNB/2_Token_Deployment/SushiToken.sol\":3901:4036  abi.encode(... */\n      add(0x20, mload(0x40))\n      tag_226\n      swap5\n      swap4\n      swap3\n      swap2\n      swap1\n      tag_227\n      jump\t// in\n    tag_226:\n      mload(0x40)\n      0x20\n      dup2\n      dup4\n      sub\n      sub\n      dup2\n      mstore\n      swap1\n      0x40\n      mstore\n        /* \"contracts/Zero2Hero_BNB/2_Token_Deployment/SushiToken.sol\":3878:4046  keccak256(... */\n      dup1\n      mload\n      swap1\n      0x20\n      add\n      keccak256\n        /* \"contracts/Zero2Hero_BNB/2_Token_Deployment/SushiToken.sol\":3857:4046  bytes32 structHash = keccak256(... */\n      swap1\n      pop\n        /* \"contracts/Zero2Hero_BNB/2_Token_Deployment/SushiToken.sol\":4057:4071  bytes32 digest */\n      0x00\n        /* \"contracts/Zero2Hero_BNB/2_Token_Deployment/SushiToken.sol\":4159:4174  domainSeparator */\n      dup3\n        /* \"contracts/Zero2Hero_BNB/2_Token_Deployment/SushiToken.sol\":4192:4202  structHash */\n      dup3\n        /* \"contracts/Zero2Hero_BNB/2_Token_Deployment/SushiToken.sol\":4097:4216  abi.encodePacked(... */\n      add(0x20, mload(0x40))\n      tag_228\n      swap3\n      swap2\n      swap1\n      tag_229\n      jump\t// in\n    tag_228:\n      mload(0x40)\n      0x20\n      dup2\n      dup4\n      sub\n      sub\n      dup2\n      mstore\n      swap1\n      0x40\n      mstore\n        /* \"contracts/Zero2Hero_BNB/2_Token_Deployment/SushiToken.sol\":4074:4226  keccak256(... */\n      dup1\n      mload\n      swap1\n      0x20\n      add\n      keccak256\n        /* \"contracts/Zero2Hero_BNB/2_Token_Deployment/SushiToken.sol\":4057:4226  bytes32 digest = keccak256(... */\n      swap1\n      pop\n        /* \"contracts/Zero2Hero_BNB/2_Token_Deployment/SushiToken.sol\":4237:4254  address signatory */\n      0x00\n        /* \"contracts/Zero2Hero_BNB/2_Token_Deployment/SushiToken.sol\":4257:4283  ecrecover(digest, v, r, s) */\n      0x01\n        /* \"contracts/Zero2Hero_BNB/2_Token_Deployment/SushiToken.sol\":4267:4273  digest */\n      dup3\n        /* \"contracts/Zero2Hero_BNB/2_Token_Deployment/SushiToken.sol\":4275:4276  v */\n      dup9\n        /* \"contracts/Zero2Hero_BNB/2_Token_Deployment/SushiToken.sol\":4278:4279  r */\n      dup9\n        /* \"contracts/Zero2Hero_BNB/2_Token_Deployment/SushiToken.sol\":4281:4282  s */\n      dup9\n        /* \"contracts/Zero2Hero_BNB/2_Token_Deployment/SushiToken.sol\":4257:4283  ecrecover(digest, v, r, s) */\n      mload(0x40)\n      0x00\n      dup2\n      mstore\n      0x20\n      add\n      0x40\n      mstore\n      mload(0x40)\n      tag_230\n      swap5\n      swap4\n      swap3\n      swap2\n      swap1\n      tag_231\n      jump\t// in\n    tag_230:\n      0x20\n      mload(0x40)\n      0x20\n      dup2\n      sub\n      swap1\n      dup1\n      dup5\n      sub\n      swap1\n      dup6\n      gas\n      staticcall\n      iszero\n      dup1\n      iszero\n      tag_233\n      jumpi\n      returndatasize\n      0x00\n      dup1\n      returndatacopy\n      revert(0x00, returndatasize)\n    tag_233:\n      pop\n      pop\n      pop\n      mload(sub(mload(0x40), 0x20))\n        /* \"contracts/Zero2Hero_BNB/2_Token_Deployment/SushiToken.sol\":4237:4283  address signatory = ecrecover(digest, v, r, s) */\n      swap1\n      pop\n        /* \"contracts/Zero2Hero_BNB/2_Token_Deployment/SushiToken.sol\":4322:4323  0 */\n      0x00\n        /* \"contracts/Zero2Hero_BNB/2_Token_Deployment/SushiToken.sol\":4301:4324  signatory != address(0) */\n      0xffffffffffffffffffffffffffffffffffffffff\n      and\n        /* \"contracts/Zero2Hero_BNB/2_Token_Deployment/SushiToken.sol\":4301:4310  signatory */\n      dup2\n        /* \"contracts/Zero2Hero_BNB/2_Token_Deployment/SushiToken.sol\":4301:4324  signatory != address(0) */\n      0xffffffffffffffffffffffffffffffffffffffff\n      and\n      sub\n        /* \"contracts/Zero2Hero_BNB/2_Token_Deployment/SushiToken.sol\":4293:4368  require(signatory != address(0), \"SUSHI::delegateBySig: invalid signature\") */\n      tag_234\n      jumpi\n      mload(0x40)\n      0x08c379a000000000000000000000000000000000000000000000000000000000\n      dup2\n      mstore\n      0x04\n      add\n      tag_235\n      swap1\n      tag_236\n      jump\t// in\n    tag_235:\n      mload(0x40)\n      dup1\n      swap2\n      sub\n      swap1\n      revert\n    tag_234:\n        /* \"contracts/Zero2Hero_BNB/2_Token_Deployment/SushiToken.sol\":4395:4401  nonces */\n      0x09\n        /* \"contracts/Zero2Hero_BNB/2_Token_Deployment/SushiToken.sol\":4395:4412  nonces[signatory] */\n      0x00\n        /* \"contracts/Zero2Hero_BNB/2_Token_Deployment/SushiToken.sol\":4402:4411  signatory */\n      dup3\n        /* \"contracts/Zero2Hero_BNB/2_Token_Deployment/SushiToken.sol\":4395:4412  nonces[signatory] */\n      0xffffffffffffffffffffffffffffffffffffffff\n      and\n      0xffffffffffffffffffffffffffffffffffffffff\n      and\n      dup2\n      mstore\n      0x20\n      add\n      swap1\n      dup2\n      mstore\n      0x20\n      add\n      0x00\n      keccak256\n      0x00\n        /* \"contracts/Zero2Hero_BNB/2_Token_Deployment/SushiToken.sol\":4395:4414  nonces[signatory]++ */\n      dup2\n      sload\n      dup1\n      swap3\n      swap2\n      swap1\n      tag_237\n      swap1\n      tag_238\n      jump\t// in\n    tag_237:\n      swap2\n      swap1\n      pop\n      sstore\n        /* \"contracts/Zero2Hero_BNB/2_Token_Deployment/SushiToken.sol\":4386:4391  nonce */\n      dup10\n        /* \"contracts/Zero2Hero_BNB/2_Token_Deployment/SushiToken.sol\":4386:4414  nonce == nonces[signatory]++ */\n      eq\n        /* \"contracts/Zero2Hero_BNB/2_Token_Deployment/SushiToken.sol\":4378:4454  require(nonce == nonces[signatory]++, \"SUSHI::delegateBySig: invalid nonce\") */\n      tag_239\n      jumpi\n      mload(0x40)\n      0x08c379a000000000000000000000000000000000000000000000000000000000\n      dup2\n      mstore\n      0x04\n      add\n      tag_240\n      swap1\n      tag_241\n      jump\t// in\n    tag_240:\n      mload(0x40)\n      dup1\n      swap2\n      sub\n      swap1\n      revert\n    tag_239:\n        /* \"contracts/Zero2Hero_BNB/2_Token_Deployment/SushiToken.sol\":4491:4497  expiry */\n      dup8\n        /* \"contracts/Zero2Hero_BNB/2_Token_Deployment/SushiToken.sol\":4472:4487  block.timestamp */\n      timestamp\n        /* \"contracts/Zero2Hero_BNB/2_Token_Deployment/SushiToken.sol\":4472:4497  block.timestamp <= expiry */\n      gt\n      iszero\n        /* \"contracts/Zero2Hero_BNB/2_Token_Deployment/SushiToken.sol\":4464:4541  require(block.timestamp <= expiry, \"SUSHI::delegateBySig: signature expired\") */\n      tag_242\n      jumpi\n      mload(0x40)\n      0x08c379a000000000000000000000000000000000000000000000000000000000\n      dup2\n      mstore\n      0x04\n      add\n      tag_243\n      swap1\n      tag_244\n      jump\t// in\n    tag_243:\n      mload(0x40)\n      dup1\n      swap2\n      sub\n      swap1\n      revert\n    tag_242:\n        /* \"contracts/Zero2Hero_BNB/2_Token_Deployment/SushiToken.sol\":4558:4589  _delegate(signatory, delegatee) */\n      tag_245\n        /* \"contracts/Zero2Hero_BNB/2_Token_Deployment/SushiToken.sol\":4568:4577  signatory */\n      dup2\n        /* \"contracts/Zero2Hero_BNB/2_Token_Deployment/SushiToken.sol\":4579:4588  delegatee */\n      dup12\n        /* \"contracts/Zero2Hero_BNB/2_Token_Deployment/SushiToken.sol\":4558:4567  _delegate */\n      tag_170\n        /* \"contracts/Zero2Hero_BNB/2_Token_Deployment/SushiToken.sol\":4558:4589  _delegate(signatory, delegatee) */\n      jump\t// in\n    tag_245:\n        /* \"contracts/Zero2Hero_BNB/2_Token_Deployment/SushiToken.sol\":4551:4589  return _delegate(signatory, delegatee) */\n      pop\n      pop\n      pop\n      pop\n        /* \"contracts/Zero2Hero_BNB/2_Token_Deployment/SushiToken.sol\":3444:4596  function delegateBySig(... */\n      pop\n      pop\n      pop\n      pop\n      pop\n      pop\n      jump\t// out\n        /* \"@openzeppelin/contracts/token/ERC20/ERC20.sol\":3982:4131  function allowance(address owner, address spender) public view virtual override returns (uint256) {... */\n    tag_119:\n        /* \"@openzeppelin/contracts/token/ERC20/ERC20.sol\":4071:4078  uint256 */\n      0x00\n        /* \"@openzeppelin/contracts/token/ERC20/ERC20.sol\":4097:4108  _allowances */\n      0x01\n        /* \"@openzeppelin/contracts/token/ERC20/ERC20.sol\":4097:4115  _allowances[owner] */\n      0x00\n        /* \"@openzeppelin/contracts/token/ERC20/ERC20.sol\":4109:4114  owner */\n      dup5\n        /* \"@openzeppelin/contracts/token/ERC20/ERC20.sol\":4097:4115  _allowances[owner] */\n      0xffffffffffffffffffffffffffffffffffffffff\n      and\n      0xffffffffffffffffffffffffffffffffffffffff\n      and\n      dup2\n      mstore\n      0x20\n      add\n      swap1\n      dup2\n      mstore\n      0x20\n      add\n      0x00\n      keccak256\n        /* \"@openzeppelin/contracts/token/ERC20/ERC20.sol\":4097:4124  _allowances[owner][spender] */\n      0x00\n        /* \"@openzeppelin/contracts/token/ERC20/ERC20.sol\":4116:4123  spender */\n      dup4\n        /* \"@openzeppelin/contracts/token/ERC20/ERC20.sol\":4097:4124  _allowances[owner][spender] */\n      0xffffffffffffffffffffffffffffffffffffffff\n      and\n      0xffffffffffffffffffffffffffffffffffffffff\n      and\n      dup2\n      mstore\n      0x20\n      add\n      swap1\n      dup2\n      mstore\n      0x20\n      add\n      0x00\n      keccak256\n      sload\n        /* \"@openzeppelin/contracts/token/ERC20/ERC20.sol\":4090:4124  return _allowances[owner][spender] */\n      swap1\n      pop\n        /* \"@openzeppelin/contracts/token/ERC20/ERC20.sol\":3982:4131  function allowance(address owner, address spender) public view virtual override returns (uint256) {... */\n      swap3\n      swap2\n      pop\n      pop\n      jump\t// out\n        /* \"contracts/Zero2Hero_BNB/2_Token_Deployment/SushiToken.sol\":1886:2003  bytes32 public constant DELEGATION_TYPEHASH = keccak256(\"Delegation(address delegatee,uint256 nonce,uint256 expiry)\") */\n    tag_122:\n        /* \"contracts/Zero2Hero_BNB/2_Token_Deployment/SushiToken.sol\":1932:2003  keccak256(\"Delegation(address delegatee,uint256 nonce,uint256 expiry)\") */\n      0xe48329057bfd03d55e49b547132e39cffd9c1820ad7b9d4c5307691425d15adf\n        /* \"contracts/Zero2Hero_BNB/2_Token_Deployment/SushiToken.sol\":1886:2003  bytes32 public constant DELEGATION_TYPEHASH = keccak256(\"Delegation(address delegatee,uint256 nonce,uint256 expiry)\") */\n      dup2\n      jump\t// out\n        /* \"contracts/Zero2Hero_BNB/2_Token_Deployment/SushiToken.sol\":1418:1488  mapping (address => mapping (uint32 => Checkpoint)) public checkpoints */\n    tag_127:\n      mstore(0x20, 0x07)\n      dup2\n      0x00\n      mstore\n      mstore(0x20, keccak256(0x00, 0x40))\n      dup1\n      0x00\n      mstore\n      keccak256(0x00, 0x40)\n      0x00\n      swap2\n      pop\n      swap2\n      pop\n      pop\n      dup1\n      0x00\n      add\n      0x00\n      swap1\n      sload\n      swap1\n      0x0100\n      exp\n      swap1\n      div\n      0xffffffff\n      and\n      swap1\n      dup1\n      0x01\n      add\n      sload\n      swap1\n      pop\n      dup3\n      jump\t// out\n        /* \"@openzeppelin/contracts/access/Ownable.sol\":2089:2287  function transferOwnership(address newOwner) public virtual onlyOwner {... */\n    tag_132:\n        /* \"@openzeppelin/contracts/access/Ownable.sol\":1102:1115  _checkOwner() */\n      tag_248\n        /* \"@openzeppelin/contracts/access/Ownable.sol\":1102:1113  _checkOwner */\n      tag_161\n        /* \"@openzeppelin/contracts/access/Ownable.sol\":1102:1115  _checkOwner() */\n      jump\t// in\n    tag_248:\n        /* \"@openzeppelin/contracts/access/Ownable.sol\":2197:2198  0 */\n      0x00\n        /* \"@openzeppelin/contracts/access/Ownable.sol\":2177:2199  newOwner != address(0) */\n      0xffffffffffffffffffffffffffffffffffffffff\n      and\n        /* \"@openzeppelin/contracts/access/Ownable.sol\":2177:2185  newOwner */\n      dup2\n        /* \"@openzeppelin/contracts/access/Ownable.sol\":2177:2199  newOwner != address(0) */\n      0xffffffffffffffffffffffffffffffffffffffff\n      and\n      sub\n        /* \"@openzeppelin/contracts/access/Ownable.sol\":2169:2242  require(newOwner != address(0), \"Ownable: new owner is the zero address\") */\n      tag_250\n      jumpi\n      mload(0x40)\n      0x08c379a000000000000000000000000000000000000000000000000000000000\n      dup2\n      mstore\n      0x04\n      add\n      tag_251\n      swap1\n      tag_252\n      jump\t// in\n    tag_251:\n      mload(0x40)\n      dup1\n      swap2\n      sub\n      swap1\n      revert\n    tag_250:\n        /* \"@openzeppelin/contracts/access/Ownable.sol\":2252:2280  _transferOwnership(newOwner) */\n      tag_253\n        /* \"@openzeppelin/contracts/access/Ownable.sol\":2271:2279  newOwner */\n      dup2\n        /* \"@openzeppelin/contracts/access/Ownable.sol\":2252:2270  _transferOwnership */\n      tag_176\n        /* \"@openzeppelin/contracts/access/Ownable.sol\":2252:2280  _transferOwnership(newOwner) */\n      jump\t// in\n    tag_253:\n        /* \"@openzeppelin/contracts/access/Ownable.sol\":2089:2287  function transferOwnership(address newOwner) public virtual onlyOwner {... */\n      pop\n      jump\t// out\n        /* \"@openzeppelin/contracts/utils/Context.sol\":648:744  function _msgSender() internal view virtual returns (address) {... */\n    tag_142:\n        /* \"@openzeppelin/contracts/utils/Context.sol\":701:708  address */\n      0x00\n        /* \"@openzeppelin/contracts/utils/Context.sol\":727:737  msg.sender */\n      caller\n        /* \"@openzeppelin/contracts/utils/Context.sol\":720:737  return msg.sender */\n      swap1\n      pop\n        /* \"@openzeppelin/contracts/utils/Context.sol\":648:744  function _msgSender() internal view virtual returns (address) {... */\n      swap1\n      jump\t// out\n        /* \"@openzeppelin/contracts/token/ERC20/ERC20.sol\":10512:10882  function _approve(... */\n    tag_144:\n        /* \"@openzeppelin/contracts/token/ERC20/ERC20.sol\":10660:10661  0 */\n      0x00\n        /* \"@openzeppelin/contracts/token/ERC20/ERC20.sol\":10643:10662  owner != address(0) */\n      0xffffffffffffffffffffffffffffffffffffffff\n      and\n        /* \"@openzeppelin/contracts/token/ERC20/ERC20.sol\":10643:10648  owner */\n      dup4\n        /* \"@openzeppelin/contracts/token/ERC20/ERC20.sol\":10643:10662  owner != address(0) */\n      0xffffffffffffffffffffffffffffffffffffffff\n      and\n      sub\n        /* \"@openzeppelin/contracts/token/ERC20/ERC20.sol\":10635:10703  require(owner != address(0), \"ERC20: approve from the zero address\") */\n      tag_256\n      jumpi\n      mload(0x40)\n      0x08c379a000000000000000000000000000000000000000000000000000000000\n      dup2\n      mstore\n      0x04\n      add\n      tag_257\n      swap1\n      tag_258\n      jump\t// in\n    tag_257:\n      mload(0x40)\n      dup1\n      swap2\n      sub\n      swap1\n      revert\n    tag_256:\n        /* \"@openzeppelin/contracts/token/ERC20/ERC20.sol\":10740:10741  0 */\n      0x00\n        /* \"@openzeppelin/contracts/token/ERC20/ERC20.sol\":10721:10742  spender != address(0) */\n      0xffffffffffffffffffffffffffffffffffffffff\n      and\n        /* \"@openzeppelin/contracts/token/ERC20/ERC20.sol\":10721:10728  spender */\n      dup3\n        /* \"@openzeppelin/contracts/token/ERC20/ERC20.sol\":10721:10742  spender != address(0) */\n      0xffffffffffffffffffffffffffffffffffffffff\n      and\n      sub\n        /* \"@openzeppelin/contracts/token/ERC20/ERC20.sol\":10713:10781  require(spender != address(0), \"ERC20: approve to the zero address\") */\n      tag_259\n      jumpi\n      mload(0x40)\n      0x08c379a000000000000000000000000000000000000000000000000000000000\n      dup2\n      mstore\n      0x04\n      add\n      tag_260\n      swap1\n      tag_261\n      jump\t// in\n    tag_260:\n      mload(0x40)\n      dup1\n      swap2\n      sub\n      swap1\n      revert\n    tag_259:\n        /* \"@openzeppelin/contracts/token/ERC20/ERC20.sol\":10822:10828  amount */\n      dup1\n        /* \"@openzeppelin/contracts/token/ERC20/ERC20.sol\":10792:10803  _allowances */\n      0x01\n        /* \"@openzeppelin/contracts/token/ERC20/ERC20.sol\":10792:10810  _allowances[owner] */\n      0x00\n        /* \"@openzeppelin/contracts/token/ERC20/ERC20.sol\":10804:10809  owner */\n      dup6\n        /* \"@openzeppelin/contracts/token/ERC20/ERC20.sol\":10792:10810  _allowances[owner] */\n      0xffffffffffffffffffffffffffffffffffffffff\n      and\n      0xffffffffffffffffffffffffffffffffffffffff\n      and\n      dup2\n      mstore\n      0x20\n      add\n      swap1\n      dup2\n      mstore\n      0x20\n      add\n      0x00\n      keccak256\n        /* \"@openzeppelin/contracts/token/ERC20/ERC20.sol\":10792:10819  _allowances[owner][spender] */\n      0x00\n        /* \"@openzeppelin/contracts/token/ERC20/ERC20.sol\":10811:10818  spender */\n      dup5\n        /* \"@openzeppelin/contracts/token/ERC20/ERC20.sol\":10792:10819  _allowances[owner][spender] */\n      0xffffffffffffffffffffffffffffffffffffffff\n      and\n      0xffffffffffffffffffffffffffffffffffffffff\n      and\n      dup2\n      mstore\n      0x20\n      add\n      swap1\n      dup2\n      mstore\n      0x20\n      add\n      0x00\n      keccak256\n        /* \"@openzeppelin/contracts/token/ERC20/ERC20.sol\":10792:10828  _allowances[owner][spender] = amount */\n      dup2\n      swap1\n      sstore\n      pop\n        /* \"@openzeppelin/contracts/token/ERC20/ERC20.sol\":10859:10866  spender */\n      dup2\n        /* \"@openzeppelin/contracts/token/ERC20/ERC20.sol\":10843:10875  Approval(owner, spender, amount) */\n      0xffffffffffffffffffffffffffffffffffffffff\n      and\n        /* \"@openzeppelin/contracts/token/ERC20/ERC20.sol\":10852:10857  owner */\n      dup4\n        /* \"@openzeppelin/contracts/token/ERC20/ERC20.sol\":10843:10875  Approval(owner, spender, amount) */\n      0xffffffffffffffffffffffffffffffffffffffff\n      and\n      0x8c5be1e5ebec7d5bd14f71427d1e84f3dd0314c0f7b2291e5b200ac8c7c3b925\n        /* \"@openzeppelin/contracts/token/ERC20/ERC20.sol\":10868:10874  amount */\n      dup4\n        /* \"@openzeppelin/contracts/token/ERC20/ERC20.sol\":10843:10875  Approval(owner, spender, amount) */\n      mload(0x40)\n      tag_262\n      swap2\n      swap1\n      tag_45\n      jump\t// in\n    tag_262:\n      mload(0x40)\n      dup1\n      swap2\n      sub\n      swap1\n      log3\n        /* \"@openzeppelin/contracts/token/ERC20/ERC20.sol\":10512:10882  function _approve(... */\n      pop\n      pop\n      pop\n      jump\t// out\n        /* \"@openzeppelin/contracts/token/ERC20/ERC20.sol\":11163:11604  function _spendAllowance(... */\n    tag_149:\n        /* \"@openzeppelin/contracts/token/ERC20/ERC20.sol\":11293:11317  uint256 currentAllowance */\n      0x00\n        /* \"@openzeppelin/contracts/token/ERC20/ERC20.sol\":11320:11345  allowance(owner, spender) */\n      tag_264\n        /* \"@openzeppelin/contracts/token/ERC20/ERC20.sol\":11330:11335  owner */\n      dup5\n        /* \"@openzeppelin/contracts/token/ERC20/ERC20.sol\":11337:11344  spender */\n      dup5\n        /* \"@openzeppelin/contracts/token/ERC20/ERC20.sol\":11320:11329  allowance */\n      tag_119\n        /* \"@openzeppelin/contracts/token/ERC20/ERC20.sol\":11320:11345  allowance(owner, spender) */\n      jump\t// in\n    tag_264:\n        /* \"@openzeppelin/contracts/token/ERC20/ERC20.sol\":11293:11345  uint256 currentAllowance = allowance(owner, spender) */\n      swap1\n      pop\n        /* \"@openzeppelin/contracts/token/ERC20/ERC20.sol\":11379:11396  type(uint256).max */\n      0xffffffffffffffffffffffffffffffffffffffffffffffffffffffffffffffff\n        /* \"@openzeppelin/contracts/token/ERC20/ERC20.sol\":11359:11375  currentAllowance */\n      dup2\n        /* \"@openzeppelin/contracts/token/ERC20/ERC20.sol\":11359:11396  currentAllowance != type(uint256).max */\n      eq\n        /* \"@openzeppelin/contracts/token/ERC20/ERC20.sol\":11355:11598  if (currentAllowance != type(uint256).max) {... */\n      tag_265\n      jumpi\n        /* \"@openzeppelin/contracts/token/ERC20/ERC20.sol\":11440:11446  amount */\n      dup2\n        /* \"@openzeppelin/contracts/token/ERC20/ERC20.sol\":11420:11436  currentAllowance */\n      dup2\n        /* \"@openzeppelin/contracts/token/ERC20/ERC20.sol\":11420:11446  currentAllowance >= amount */\n      lt\n      iszero\n        /* \"@openzeppelin/contracts/token/ERC20/ERC20.sol\":11412:11480  require(currentAllowance >= amount, \"ERC20: insufficient allowance\") */\n      tag_266\n      jumpi\n      mload(0x40)\n      0x08c379a000000000000000000000000000000000000000000000000000000000\n      dup2\n      mstore\n      0x04\n      add\n      tag_267\n      swap1\n      tag_268\n      jump\t// in\n    tag_267:\n      mload(0x40)\n      dup1\n      swap2\n      sub\n      swap1\n      revert\n    tag_266:\n        /* \"@openzeppelin/contracts/token/ERC20/ERC20.sol\":11522:11573  _approve(owner, spender, currentAllowance - amount) */\n      tag_269\n        /* \"@openzeppelin/contracts/token/ERC20/ERC20.sol\":11531:11536  owner */\n      dup5\n        /* \"@openzeppelin/contracts/token/ERC20/ERC20.sol\":11538:11545  spender */\n      dup5\n        /* \"@openzeppelin/contracts/token/ERC20/ERC20.sol\":11566:11572  amount */\n      dup5\n        /* \"@openzeppelin/contracts/token/ERC20/ERC20.sol\":11547:11563  currentAllowance */\n      dup5\n        /* \"@openzeppelin/contracts/token/ERC20/ERC20.sol\":11547:11572  currentAllowance - amount */\n      sub\n        /* \"@openzeppelin/contracts/token/ERC20/ERC20.sol\":11522:11530  _approve */\n      tag_144\n        /* \"@openzeppelin/contracts/token/ERC20/ERC20.sol\":11522:11573  _approve(owner, spender, currentAllowance - amount) */\n      jump\t// in\n    tag_269:\n        /* \"@openzeppelin/contracts/token/ERC20/ERC20.sol\":11355:11598  if (currentAllowance != type(uint256).max) {... */\n    tag_265:\n        /* \"@openzeppelin/contracts/token/ERC20/ERC20.sol\":11283:11604  {... */\n      pop\n        /* \"@openzeppelin/contracts/token/ERC20/ERC20.sol\":11163:11604  function _spendAllowance(... */\n      pop\n      pop\n      pop\n      jump\t// out\n        /* \"@openzeppelin/contracts/token/ERC20/ERC20.sol\":7481:8299  function _transfer(... */\n    tag_151:\n        /* \"@openzeppelin/contracts/token/ERC20/ERC20.sol\":7623:7624  0 */\n      0x00\n        /* \"@openzeppelin/contracts/token/ERC20/ERC20.sol\":7607:7625  from != address(0) */\n      0xffffffffffffffffffffffffffffffffffffffff\n      and\n        /* \"@openzeppelin/contracts/token/ERC20/ERC20.sol\":7607:7611  from */\n      dup4\n        /* \"@openzeppelin/contracts/token/ERC20/ERC20.sol\":7607:7625  from != address(0) */\n      0xffffffffffffffffffffffffffffffffffffffff\n      and\n      sub\n        /* \"@openzeppelin/contracts/token/ERC20/ERC20.sol\":7599:7667  require(from != address(0), \"ERC20: transfer from the zero address\") */\n      tag_271\n      jumpi\n      mload(0x40)\n      0x08c379a000000000000000000000000000000000000000000000000000000000\n      dup2\n      mstore\n      0x04\n      add\n      tag_272\n      swap1\n      tag_273\n      jump\t// in\n    tag_272:\n      mload(0x40)\n      dup1\n      swap2\n      sub\n      swap1\n      revert\n    tag_271:\n        /* \"@openzeppelin/contracts/token/ERC20/ERC20.sol\":7699:7700  0 */\n      0x00\n        /* \"@openzeppelin/contracts/token/ERC20/ERC20.sol\":7685:7701  to != address(0) */\n      0xffffffffffffffffffffffffffffffffffffffff\n      and\n        /* \"@openzeppelin/contracts/token/ERC20/ERC20.sol\":7685:7687  to */\n      dup3\n        /* \"@openzeppelin/contracts/token/ERC20/ERC20.sol\":7685:7701  to != address(0) */\n      0xffffffffffffffffffffffffffffffffffffffff\n      and\n      sub\n        /* \"@openzeppelin/contracts/token/ERC20/ERC20.sol\":7677:7741  require(to != address(0), \"ERC20: transfer to the zero address\") */\n      tag_274\n      jumpi\n      mload(0x40)\n      0x08c379a000000000000000000000000000000000000000000000000000000000\n      dup2\n      mstore\n      0x04\n      add\n      tag_275\n      swap1\n      tag_276\n      jump\t// in\n    tag_275:\n      mload(0x40)\n      dup1\n      swap2\n      sub\n      swap1\n      revert\n    tag_274:\n        /* \"@openzeppelin/contracts/token/ERC20/ERC20.sol\":7752:7790  _beforeTokenTransfer(from, to, amount) */\n      tag_277\n        /* \"@openzeppelin/contracts/token/ERC20/ERC20.sol\":7773:7777  from */\n      dup4\n        /* \"@openzeppelin/contracts/token/ERC20/ERC20.sol\":7779:7781  to */\n      dup4\n        /* \"@openzeppelin/contracts/token/ERC20/ERC20.sol\":7783:7789  amount */\n      dup4\n        /* \"@openzeppelin/contracts/token/ERC20/ERC20.sol\":7752:7772  _beforeTokenTransfer */\n      tag_278\n        /* \"@openzeppelin/contracts/token/ERC20/ERC20.sol\":7752:7790  _beforeTokenTransfer(from, to, amount) */\n      jump\t// in\n    tag_277:\n        /* \"@openzeppelin/contracts/token/ERC20/ERC20.sol\":7801:7820  uint256 fromBalance */\n      0x00\n        /* \"@openzeppelin/contracts/token/ERC20/ERC20.sol\":7823:7832  _balances */\n      dup1\n        /* \"@openzeppelin/contracts/token/ERC20/ERC20.sol\":7823:7838  _balances[from] */\n      0x00\n        /* \"@openzeppelin/contracts/token/ERC20/ERC20.sol\":7833:7837  from */\n      dup6\n        /* \"@openzeppelin/contracts/token/ERC20/ERC20.sol\":7823:7838  _balances[from] */\n      0xffffffffffffffffffffffffffffffffffffffff\n      and\n      0xffffffffffffffffffffffffffffffffffffffff\n      and\n      dup2\n      mstore\n      0x20\n      add\n      swap1\n      dup2\n      mstore\n      0x20\n      add\n      0x00\n      keccak256\n      sload\n        /* \"@openzeppelin/contracts/token/ERC20/ERC20.sol\":7801:7838  uint256 fromBalance = _balances[from] */\n      swap1\n      pop\n        /* \"@openzeppelin/contracts/token/ERC20/ERC20.sol\":7871:7877  amount */\n      dup2\n        /* \"@openzeppelin/contracts/token/ERC20/ERC20.sol\":7856:7867  fromBalance */\n      dup2\n        /* \"@openzeppelin/contracts/token/ERC20/ERC20.sol\":7856:7877  fromBalance >= amount */\n      lt\n      iszero\n        /* \"@openzeppelin/contracts/token/ERC20/ERC20.sol\":7848:7920  require(fromBalance >= amount, \"ERC20: transfer amount exceeds balance\") */\n      tag_279\n      jumpi\n      mload(0x40)\n      0x08c379a000000000000000000000000000000000000000000000000000000000\n      dup2\n      mstore\n      0x04\n      add\n      tag_280\n      swap1\n      tag_281\n      jump\t// in\n    tag_280:\n      mload(0x40)\n      dup1\n      swap2\n      sub\n      swap1\n      revert\n    tag_279:\n        /* \"@openzeppelin/contracts/token/ERC20/ERC20.sol\":7986:7992  amount */\n      dup2\n        /* \"@openzeppelin/contracts/token/ERC20/ERC20.sol\":7972:7983  fromBalance */\n      dup2\n        /* \"@openzeppelin/contracts/token/ERC20/ERC20.sol\":7972:7992  fromBalance - amount */\n      sub\n        /* \"@openzeppelin/contracts/token/ERC20/ERC20.sol\":7954:7963  _balances */\n      0x00\n        /* \"@openzeppelin/contracts/token/ERC20/ERC20.sol\":7954:7969  _balances[from] */\n      dup1\n        /* \"@openzeppelin/contracts/token/ERC20/ERC20.sol\":7964:7968  from */\n      dup7\n        /* \"@openzeppelin/contracts/token/ERC20/ERC20.sol\":7954:7969  _balances[from] */\n      0xffffffffffffffffffffffffffffffffffffffff\n      and\n      0xffffffffffffffffffffffffffffffffffffffff\n      and\n      dup2\n      mstore\n      0x20\n      add\n      swap1\n      dup2\n      mstore\n      0x20\n      add\n      0x00\n      keccak256\n        /* \"@openzeppelin/contracts/token/ERC20/ERC20.sol\":7954:7992  _balances[from] = fromBalance - amount */\n      dup2\n      swap1\n      sstore\n      pop\n        /* \"@openzeppelin/contracts/token/ERC20/ERC20.sol\":8186:8192  amount */\n      dup2\n        /* \"@openzeppelin/contracts/token/ERC20/ERC20.sol\":8169:8178  _balances */\n      0x00\n        /* \"@openzeppelin/contracts/token/ERC20/ERC20.sol\":8169:8182  _balances[to] */\n      dup1\n        /* \"@openzeppelin/contracts/token/ERC20/ERC20.sol\":8179:8181  to */\n      dup6\n        /* \"@openzeppelin/contracts/token/ERC20/ERC20.sol\":8169:8182  _balances[to] */\n      0xffffffffffffffffffffffffffffffffffffffff\n      and\n      0xffffffffffffffffffffffffffffffffffffffff\n      and\n      dup2\n      mstore\n      0x20\n      add\n      swap1\n      dup2\n      mstore\n      0x20\n      add\n      0x00\n      keccak256\n      0x00\n        /* \"@openzeppelin/contracts/token/ERC20/ERC20.sol\":8169:8192  _balances[to] += amount */\n      dup3\n      dup3\n      sload\n      add\n      swap3\n      pop\n      pop\n      dup2\n      swap1\n      sstore\n      pop\n        /* \"@openzeppelin/contracts/token/ERC20/ERC20.sol\":8233:8235  to */\n      dup3\n        /* \"@openzeppelin/contracts/token/ERC20/ERC20.sol\":8218:8244  Transfer(from, to, amount) */\n      0xffffffffffffffffffffffffffffffffffffffff\n      and\n        /* \"@openzeppelin/contracts/token/ERC20/ERC20.sol\":8227:8231  from */\n      dup5\n        /* \"@openzeppelin/contracts/token/ERC20/ERC20.sol\":8218:8244  Transfer(from, to, amount) */\n      0xffffffffffffffffffffffffffffffffffffffff\n      and\n      0xddf252ad1be2c89b69c2b068fc378daa952ba7f163c4a11628f55a4df523b3ef\n        /* \"@openzeppelin/contracts/token/ERC20/ERC20.sol\":8237:8243  amount */\n      dup5\n        /* \"@openzeppelin/contracts/token/ERC20/ERC20.sol\":8218:8244  Transfer(from, to, amount) */\n      mload(0x40)\n      tag_282\n      swap2\n      swap1\n      tag_45\n      jump\t// in\n    tag_282:\n      mload(0x40)\n      dup1\n      swap2\n      sub\n      swap1\n      log3\n        /* \"@openzeppelin/contracts/token/ERC20/ERC20.sol\":8255:8292  _afterTokenTransfer(from, to, amount) */\n      tag_283\n        /* \"@openzeppelin/contracts/token/ERC20/ERC20.sol\":8275:8279  from */\n      dup5\n        /* \"@openzeppelin/contracts/token/ERC20/ERC20.sol\":8281:8283  to */\n      dup5\n        /* \"@openzeppelin/contracts/token/ERC20/ERC20.sol\":8285:8291  amount */\n      dup5\n        /* \"@openzeppelin/contracts/token/ERC20/ERC20.sol\":8255:8274  _afterTokenTransfer */\n      tag_284\n        /* \"@openzeppelin/contracts/token/ERC20/ERC20.sol\":8255:8292  _afterTokenTransfer(from, to, amount) */\n      jump\t// in\n    tag_283:\n        /* \"@openzeppelin/contracts/token/ERC20/ERC20.sol\":7589:8299  {... */\n      pop\n        /* \"@openzeppelin/contracts/token/ERC20/ERC20.sol\":7481:8299  function _transfer(... */\n      pop\n      pop\n      pop\n      jump\t// out\n        /* \"@openzeppelin/contracts/access/Ownable.sol\":1367:1497  function _checkOwner() internal view virtual {... */\n    tag_161:\n        /* \"@openzeppelin/contracts/access/Ownable.sol\":1441:1453  _msgSender() */\n      tag_286\n        /* \"@openzeppelin/contracts/access/Ownable.sol\":1441:1451  _msgSender */\n      tag_142\n        /* \"@openzeppelin/contracts/access/Ownable.sol\":1441:1453  _msgSender() */\n      jump\t// in\n    tag_286:\n        /* \"@openzeppelin/contracts/access/Ownable.sol\":1430:1453  owner() == _msgSender() */\n      0xffffffffffffffffffffffffffffffffffffffff\n      and\n        /* \"@openzeppelin/contracts/access/Ownable.sol\":1430:1437  owner() */\n      tag_287\n        /* \"@openzeppelin/contracts/access/Ownable.sol\":1430:1435  owner */\n      tag_95\n        /* \"@openzeppelin/contracts/access/Ownable.sol\":1430:1437  owner() */\n      jump\t// in\n    tag_287:\n        /* \"@openzeppelin/contracts/access/Ownable.sol\":1430:1453  owner() == _msgSender() */\n      0xffffffffffffffffffffffffffffffffffffffff\n      and\n      eq\n        /* \"@openzeppelin/contracts/access/Ownable.sol\":1422:1490  require(owner() == _msgSender(), \"Ownable: caller is not the owner\") */\n      tag_288\n      jumpi\n      mload(0x40)\n      0x08c379a000000000000000000000000000000000000000000000000000000000\n      dup2\n      mstore\n      0x04\n      add\n      tag_289\n      swap1\n      tag_290\n      jump\t// in\n    tag_289:\n      mload(0x40)\n      dup1\n      swap2\n      sub\n      swap1\n      revert\n    tag_288:\n        /* \"@openzeppelin/contracts/access/Ownable.sol\":1367:1497  function _checkOwner() internal view virtual {... */\n      jump\t// out\n        /* \"@openzeppelin/contracts/token/ERC20/ERC20.sol\":8575:9110  function _mint(address account, uint256 amount) internal virtual {... */\n    tag_164:\n        /* \"@openzeppelin/contracts/token/ERC20/ERC20.sol\":8677:8678  0 */\n      0x00\n        /* \"@openzeppelin/contracts/token/ERC20/ERC20.sol\":8658:8679  account != address(0) */\n      0xffffffffffffffffffffffffffffffffffffffff\n      and\n        /* \"@openzeppelin/contracts/token/ERC20/ERC20.sol\":8658:8665  account */\n      dup3\n        /* \"@openzeppelin/contracts/token/ERC20/ERC20.sol\":8658:8679  account != address(0) */\n      0xffffffffffffffffffffffffffffffffffffffff\n      and\n      sub\n        /* \"@openzeppelin/contracts/token/ERC20/ERC20.sol\":8650:8715  require(account != address(0), \"ERC20: mint to the zero address\") */\n      tag_292\n      jumpi\n      mload(0x40)\n      0x08c379a000000000000000000000000000000000000000000000000000000000\n      dup2\n      mstore\n      0x04\n      add\n      tag_293\n      swap1\n      tag_294\n      jump\t// in\n    tag_293:\n      mload(0x40)\n      dup1\n      swap2\n      sub\n      swap1\n      revert\n    tag_292:\n        /* \"@openzeppelin/contracts/token/ERC20/ERC20.sol\":8726:8775  _beforeTokenTransfer(address(0), account, amount) */\n      tag_295\n        /* \"@openzeppelin/contracts/token/ERC20/ERC20.sol\":8755:8756  0 */\n      0x00\n        /* \"@openzeppelin/contracts/token/ERC20/ERC20.sol\":8759:8766  account */\n      dup4\n        /* \"@openzeppelin/contracts/token/ERC20/ERC20.sol\":8768:8774  amount */\n      dup4\n        /* \"@openzeppelin/contracts/token/ERC20/ERC20.sol\":8726:8746  _beforeTokenTransfer */\n      tag_278\n        /* \"@openzeppelin/contracts/token/ERC20/ERC20.sol\":8726:8775  _beforeTokenTransfer(address(0), account, amount) */\n      jump\t// in\n    tag_295:\n        /* \"@openzeppelin/contracts/token/ERC20/ERC20.sol\":8802:8808  amount */\n      dup1\n        /* \"@openzeppelin/contracts/token/ERC20/ERC20.sol\":8786:8798  _totalSupply */\n      0x02\n      0x00\n        /* \"@openzeppelin/contracts/token/ERC20/ERC20.sol\":8786:8808  _totalSupply += amount */\n      dup3\n      dup3\n      sload\n      tag_296\n      swap2\n      swap1\n      tag_158\n      jump\t// in\n    tag_296:\n      swap3\n      pop\n      pop\n      dup2\n      swap1\n      sstore\n      pop\n        /* \"@openzeppelin/contracts/token/ERC20/ERC20.sol\":8976:8982  amount */\n      dup1\n        /* \"@openzeppelin/contracts/token/ERC20/ERC20.sol\":8954:8963  _balances */\n      0x00\n        /* \"@openzeppelin/contracts/token/ERC20/ERC20.sol\":8954:8972  _balances[account] */\n      dup1\n        /* \"@openzeppelin/contracts/token/ERC20/ERC20.sol\":8964:8971  account */\n      dup5\n        /* \"@openzeppelin/contracts/token/ERC20/ERC20.sol\":8954:8972  _balances[account] */\n      0xffffffffffffffffffffffffffffffffffffffff\n      and\n      0xffffffffffffffffffffffffffffffffffffffff\n      and\n      dup2\n      mstore\n      0x20\n      add\n      swap1\n      dup2\n      mstore\n      0x20\n      add\n      0x00\n      keccak256\n      0x00\n        /* \"@openzeppelin/contracts/token/ERC20/ERC20.sol\":8954:8982  _balances[account] += amount */\n      dup3\n      dup3\n      sload\n      add\n      swap3\n      pop\n      pop\n      dup2\n      swap1\n      sstore\n      pop\n        /* \"@openzeppelin/contracts/token/ERC20/ERC20.sol\":9028:9035  account */\n      dup2\n        /* \"@openzeppelin/contracts/token/ERC20/ERC20.sol\":9007:9044  Transfer(address(0), account, amount) */\n      0xffffffffffffffffffffffffffffffffffffffff\n      and\n        /* \"@openzeppelin/contracts/token/ERC20/ERC20.sol\":9024:9025  0 */\n      0x00\n        /* \"@openzeppelin/contracts/token/ERC20/ERC20.sol\":9007:9044  Transfer(address(0), account, amount) */\n      0xffffffffffffffffffffffffffffffffffffffff\n      and\n      0xddf252ad1be2c89b69c2b068fc378daa952ba7f163c4a11628f55a4df523b3ef\n        /* \"@openzeppelin/contracts/token/ERC20/ERC20.sol\":9037:9043  amount */\n      dup4\n        /* \"@openzeppelin/contracts/token/ERC20/ERC20.sol\":9007:9044  Transfer(address(0), account, amount) */\n      mload(0x40)\n      tag_297\n      swap2\n      swap1\n      tag_45\n      jump\t// in\n    tag_297:\n      mload(0x40)\n      dup1\n      swap2\n      sub\n      swap1\n      log3\n        /* \"@openzeppelin/contracts/token/ERC20/ERC20.sol\":9055:9103  _afterTokenTransfer(address(0), account, amount) */\n      tag_298\n        /* \"@openzeppelin/contracts/token/ERC20/ERC20.sol\":9083:9084  0 */\n      0x00\n        /* \"@openzeppelin/contracts/token/ERC20/ERC20.sol\":9087:9094  account */\n      dup4\n        /* \"@openzeppelin/contracts/token/ERC20/ERC20.sol\":9096:9102  amount */\n      dup4\n        /* \"@openzeppelin/contracts/token/ERC20/ERC20.sol\":9055:9074  _afterTokenTransfer */\n      tag_284\n        /* \"@openzeppelin/contracts/token/ERC20/ERC20.sol\":9055:9103  _afterTokenTransfer(address(0), account, amount) */\n      jump\t// in\n    tag_298:\n        /* \"@openzeppelin/contracts/token/ERC20/ERC20.sol\":8575:9110  function _mint(address account, uint256 amount) internal virtual {... */\n      pop\n      pop\n      jump\t// out\n        /* \"contracts/Zero2Hero_BNB/2_Token_Deployment/SushiToken.sol\":7119:8042  function _moveDelegates(address srcRep, address dstRep, uint256 amount) internal {... */\n    tag_166:\n        /* \"contracts/Zero2Hero_BNB/2_Token_Deployment/SushiToken.sol\":7224:7230  dstRep */\n      dup2\n        /* \"contracts/Zero2Hero_BNB/2_Token_Deployment/SushiToken.sol\":7214:7230  srcRep != dstRep */\n      0xffffffffffffffffffffffffffffffffffffffff\n      and\n        /* \"contracts/Zero2Hero_BNB/2_Token_Deployment/SushiToken.sol\":7214:7220  srcRep */\n      dup4\n        /* \"contracts/Zero2Hero_BNB/2_Token_Deployment/SushiToken.sol\":7214:7230  srcRep != dstRep */\n      0xffffffffffffffffffffffffffffffffffffffff\n      and\n      eq\n      iszero\n        /* \"contracts/Zero2Hero_BNB/2_Token_Deployment/SushiToken.sol\":7214:7244  srcRep != dstRep && amount > 0 */\n      dup1\n      iszero\n      tag_300\n      jumpi\n      pop\n        /* \"contracts/Zero2Hero_BNB/2_Token_Deployment/SushiToken.sol\":7243:7244  0 */\n      0x00\n        /* \"contracts/Zero2Hero_BNB/2_Token_Deployment/SushiToken.sol\":7234:7240  amount */\n      dup2\n        /* \"contracts/Zero2Hero_BNB/2_Token_Deployment/SushiToken.sol\":7234:7244  amount > 0 */\n      gt\n        /* \"contracts/Zero2Hero_BNB/2_Token_Deployment/SushiToken.sol\":7214:7244  srcRep != dstRep && amount > 0 */\n    tag_300:\n        /* \"contracts/Zero2Hero_BNB/2_Token_Deployment/SushiToken.sol\":7210:8036  if (srcRep != dstRep && amount > 0) {... */\n      iszero\n      tag_301\n      jumpi\n        /* \"contracts/Zero2Hero_BNB/2_Token_Deployment/SushiToken.sol\":7282:7283  0 */\n      0x00\n        /* \"contracts/Zero2Hero_BNB/2_Token_Deployment/SushiToken.sol\":7264:7284  srcRep != address(0) */\n      0xffffffffffffffffffffffffffffffffffffffff\n      and\n        /* \"contracts/Zero2Hero_BNB/2_Token_Deployment/SushiToken.sol\":7264:7270  srcRep */\n      dup4\n        /* \"contracts/Zero2Hero_BNB/2_Token_Deployment/SushiToken.sol\":7264:7284  srcRep != address(0) */\n      0xffffffffffffffffffffffffffffffffffffffff\n      and\n      eq\n        /* \"contracts/Zero2Hero_BNB/2_Token_Deployment/SushiToken.sol\":7260:7636  if (srcRep != address(0)) {... */\n      tag_302\n      jumpi\n        /* \"contracts/Zero2Hero_BNB/2_Token_Deployment/SushiToken.sol\":7351:7367  uint32 srcRepNum */\n      0x00\n        /* \"contracts/Zero2Hero_BNB/2_Token_Deployment/SushiToken.sol\":7370:7384  numCheckpoints */\n      0x08\n        /* \"contracts/Zero2Hero_BNB/2_Token_Deployment/SushiToken.sol\":7370:7392  numCheckpoints[srcRep] */\n      0x00\n        /* \"contracts/Zero2Hero_BNB/2_Token_Deployment/SushiToken.sol\":7385:7391  srcRep */\n      dup6\n        /* \"contracts/Zero2Hero_BNB/2_Token_Deployment/SushiToken.sol\":7370:7392  numCheckpoints[srcRep] */\n      0xffffffffffffffffffffffffffffffffffffffff\n      and\n      0xffffffffffffffffffffffffffffffffffffffff\n      and\n      dup2\n      mstore\n      0x20\n      add\n      swap1\n      dup2\n      mstore\n      0x20\n      add\n      0x00\n      keccak256\n      0x00\n      swap1\n      sload\n      swap1\n      0x0100\n      exp\n      swap1\n      div\n      0xffffffff\n      and\n        /* \"contracts/Zero2Hero_BNB/2_Token_Deployment/SushiToken.sol\":7351:7392  uint32 srcRepNum = numCheckpoints[srcRep] */\n      swap1\n      pop\n        /* \"contracts/Zero2Hero_BNB/2_Token_Deployment/SushiToken.sol\":7410:7427  uint256 srcRepOld */\n      0x00\n        /* \"contracts/Zero2Hero_BNB/2_Token_Deployment/SushiToken.sol\":7442:7443  0 */\n      dup1\n        /* \"contracts/Zero2Hero_BNB/2_Token_Deployment/SushiToken.sol\":7430:7439  srcRepNum */\n      dup3\n        /* \"contracts/Zero2Hero_BNB/2_Token_Deployment/SushiToken.sol\":7430:7443  srcRepNum > 0 */\n      0xffffffff\n      and\n      gt\n        /* \"contracts/Zero2Hero_BNB/2_Token_Deployment/SushiToken.sol\":7430:7490  srcRepNum > 0 ? checkpoints[srcRep][srcRepNum - 1].votes : 0 */\n      tag_303\n      jumpi\n        /* \"contracts/Zero2Hero_BNB/2_Token_Deployment/SushiToken.sol\":7489:7490  0 */\n      0x00\n        /* \"contracts/Zero2Hero_BNB/2_Token_Deployment/SushiToken.sol\":7430:7490  srcRepNum > 0 ? checkpoints[srcRep][srcRepNum - 1].votes : 0 */\n      jump(tag_304)\n    tag_303:\n        /* \"contracts/Zero2Hero_BNB/2_Token_Deployment/SushiToken.sol\":7446:7457  checkpoints */\n      0x07\n        /* \"contracts/Zero2Hero_BNB/2_Token_Deployment/SushiToken.sol\":7446:7465  checkpoints[srcRep] */\n      0x00\n        /* \"contracts/Zero2Hero_BNB/2_Token_Deployment/SushiToken.sol\":7458:7464  srcRep */\n      dup7\n        /* \"contracts/Zero2Hero_BNB/2_Token_Deployment/SushiToken.sol\":7446:7465  checkpoints[srcRep] */\n      0xffffffffffffffffffffffffffffffffffffffff\n      and\n      0xffffffffffffffffffffffffffffffffffffffff\n      and\n      dup2\n      mstore\n      0x20\n      add\n      swap1\n      dup2\n      mstore\n      0x20\n      add\n      0x00\n      keccak256\n        /* \"contracts/Zero2Hero_BNB/2_Token_Deployment/SushiToken.sol\":7446:7480  checkpoints[srcRep][srcRepNum - 1] */\n      0x00\n        /* \"contracts/Zero2Hero_BNB/2_Token_Deployment/SushiToken.sol\":7478:7479  1 */\n      0x01\n        /* \"contracts/Zero2Hero_BNB/2_Token_Deployment/SushiToken.sol\":7466:7475  srcRepNum */\n      dup5\n        /* \"contracts/Zero2Hero_BNB/2_Token_Deployment/SushiToken.sol\":7466:7479  srcRepNum - 1 */\n      tag_305\n      swap2\n      swap1\n      tag_183\n      jump\t// in\n    tag_305:\n        /* \"contracts/Zero2Hero_BNB/2_Token_Deployment/SushiToken.sol\":7446:7480  checkpoints[srcRep][srcRepNum - 1] */\n      0xffffffff\n      and\n      0xffffffff\n      and\n      dup2\n      mstore\n      0x20\n      add\n      swap1\n      dup2\n      mstore\n      0x20\n      add\n      0x00\n      keccak256\n        /* \"contracts/Zero2Hero_BNB/2_Token_Deployment/SushiToken.sol\":7446:7486  checkpoints[srcRep][srcRepNum - 1].votes */\n      0x01\n      add\n      sload\n        /* \"contracts/Zero2Hero_BNB/2_Token_Deployment/SushiToken.sol\":7430:7490  srcRepNum > 0 ? checkpoints[srcRep][srcRepNum - 1].votes : 0 */\n    tag_304:\n        /* \"contracts/Zero2Hero_BNB/2_Token_Deployment/SushiToken.sol\":7410:7490  uint256 srcRepOld = srcRepNum > 0 ? checkpoints[srcRep][srcRepNum - 1].votes : 0 */\n      swap1\n      pop\n        /* \"contracts/Zero2Hero_BNB/2_Token_Deployment/SushiToken.sol\":7508:7525  uint256 srcRepNew */\n      0x00\n        /* \"contracts/Zero2Hero_BNB/2_Token_Deployment/SushiToken.sol\":7540:7546  amount */\n      dup4\n        /* \"contracts/Zero2Hero_BNB/2_Token_Deployment/SushiToken.sol\":7528:7537  srcRepOld */\n      dup3\n        /* \"contracts/Zero2Hero_BNB/2_Token_Deployment/SushiToken.sol\":7528:7546  srcRepOld - amount */\n      tag_306\n      swap2\n      swap1\n      tag_307\n      jump\t// in\n    tag_306:\n        /* \"contracts/Zero2Hero_BNB/2_Token_Deployment/SushiToken.sol\":7508:7546  uint256 srcRepNew = srcRepOld - amount */\n      swap1\n      pop\n        /* \"contracts/Zero2Hero_BNB/2_Token_Deployment/SushiToken.sol\":7564:7621  _writeCheckpoint(srcRep, srcRepNum, srcRepOld, srcRepNew) */\n      tag_308\n        /* \"contracts/Zero2Hero_BNB/2_Token_Deployment/SushiToken.sol\":7581:7587  srcRep */\n      dup7\n        /* \"contracts/Zero2Hero_BNB/2_Token_Deployment/SushiToken.sol\":7589:7598  srcRepNum */\n      dup5\n        /* \"contracts/Zero2Hero_BNB/2_Token_Deployment/SushiToken.sol\":7600:7609  srcRepOld */\n      dup5\n        /* \"contracts/Zero2Hero_BNB/2_Token_Deployment/SushiToken.sol\":7611:7620  srcRepNew */\n      dup5\n        /* \"contracts/Zero2Hero_BNB/2_Token_Deployment/SushiToken.sol\":7564:7580  _writeCheckpoint */\n      tag_309\n        /* \"contracts/Zero2Hero_BNB/2_Token_Deployment/SushiToken.sol\":7564:7621  _writeCheckpoint(srcRep, srcRepNum, srcRepOld, srcRepNew) */\n      jump\t// in\n    tag_308:\n        /* \"contracts/Zero2Hero_BNB/2_Token_Deployment/SushiToken.sol\":7286:7636  {... */\n      pop\n      pop\n      pop\n        /* \"contracts/Zero2Hero_BNB/2_Token_Deployment/SushiToken.sol\":7260:7636  if (srcRep != address(0)) {... */\n    tag_302:\n        /* \"contracts/Zero2Hero_BNB/2_Token_Deployment/SushiToken.sol\":7672:7673  0 */\n      0x00\n        /* \"contracts/Zero2Hero_BNB/2_Token_Deployment/SushiToken.sol\":7654:7674  dstRep != address(0) */\n      0xffffffffffffffffffffffffffffffffffffffff\n      and\n        /* \"contracts/Zero2Hero_BNB/2_Token_Deployment/SushiToken.sol\":7654:7660  dstRep */\n      dup3\n        /* \"contracts/Zero2Hero_BNB/2_Token_Deployment/SushiToken.sol\":7654:7674  dstRep != address(0) */\n      0xffffffffffffffffffffffffffffffffffffffff\n      and\n      eq\n        /* \"contracts/Zero2Hero_BNB/2_Token_Deployment/SushiToken.sol\":7650:8026  if (dstRep != address(0)) {... */\n      tag_310\n      jumpi\n        /* \"contracts/Zero2Hero_BNB/2_Token_Deployment/SushiToken.sol\":7741:7757  uint32 dstRepNum */\n      0x00\n        /* \"contracts/Zero2Hero_BNB/2_Token_Deployment/SushiToken.sol\":7760:7774  numCheckpoints */\n      0x08\n        /* \"contracts/Zero2Hero_BNB/2_Token_Deployment/SushiToken.sol\":7760:7782  numCheckpoints[dstRep] */\n      0x00\n        /* \"contracts/Zero2Hero_BNB/2_Token_Deployment/SushiToken.sol\":7775:7781  dstRep */\n      dup5\n        /* \"contracts/Zero2Hero_BNB/2_Token_Deployment/SushiToken.sol\":7760:7782  numCheckpoints[dstRep] */\n      0xffffffffffffffffffffffffffffffffffffffff\n      and\n      0xffffffffffffffffffffffffffffffffffffffff\n      and\n      dup2\n      mstore\n      0x20\n      add\n      swap1\n      dup2\n      mstore\n      0x20\n      add\n      0x00\n      keccak256\n      0x00\n      swap1\n      sload\n      swap1\n      0x0100\n      exp\n      swap1\n      div\n      0xffffffff\n      and\n        /* \"contracts/Zero2Hero_BNB/2_Token_Deployment/SushiToken.sol\":7741:7782  uint32 dstRepNum = numCheckpoints[dstRep] */\n      swap1\n      pop\n        /* \"contracts/Zero2Hero_BNB/2_Token_Deployment/SushiToken.sol\":7800:7817  uint256 dstRepOld */\n      0x00\n        /* \"contracts/Zero2Hero_BNB/2_Token_Deployment/SushiToken.sol\":7832:7833  0 */\n      dup1\n        /* \"contracts/Zero2Hero_BNB/2_Token_Deployment/SushiToken.sol\":7820:7829  dstRepNum */\n      dup3\n        /* \"contracts/Zero2Hero_BNB/2_Token_Deployment/SushiToken.sol\":7820:7833  dstRepNum > 0 */\n      0xffffffff\n      and\n      gt\n        /* \"contracts/Zero2Hero_BNB/2_Token_Deployment/SushiToken.sol\":7820:7880  dstRepNum > 0 ? checkpoints[dstRep][dstRepNum - 1].votes : 0 */\n      tag_311\n      jumpi\n        /* \"contracts/Zero2Hero_BNB/2_Token_Deployment/SushiToken.sol\":7879:7880  0 */\n      0x00\n        /* \"contracts/Zero2Hero_BNB/2_Token_Deployment/SushiToken.sol\":7820:7880  dstRepNum > 0 ? checkpoints[dstRep][dstRepNum - 1].votes : 0 */\n      jump(tag_312)\n    tag_311:\n        /* \"contracts/Zero2Hero_BNB/2_Token_Deployment/SushiToken.sol\":7836:7847  checkpoints */\n      0x07\n        /* \"contracts/Zero2Hero_BNB/2_Token_Deployment/SushiToken.sol\":7836:7855  checkpoints[dstRep] */\n      0x00\n        /* \"contracts/Zero2Hero_BNB/2_Token_Deployment/SushiToken.sol\":7848:7854  dstRep */\n      dup6\n        /* \"contracts/Zero2Hero_BNB/2_Token_Deployment/SushiToken.sol\":7836:7855  checkpoints[dstRep] */\n      0xffffffffffffffffffffffffffffffffffffffff\n      and\n      0xffffffffffffffffffffffffffffffffffffffff\n      and\n      dup2\n      mstore\n      0x20\n      add\n      swap1\n      dup2\n      mstore\n      0x20\n      add\n      0x00\n      keccak256\n        /* \"contracts/Zero2Hero_BNB/2_Token_Deployment/SushiToken.sol\":7836:7870  checkpoints[dstRep][dstRepNum - 1] */\n      0x00\n        /* \"contracts/Zero2Hero_BNB/2_Token_Deployment/SushiToken.sol\":7868:7869  1 */\n      0x01\n        /* \"contracts/Zero2Hero_BNB/2_Token_Deployment/SushiToken.sol\":7856:7865  dstRepNum */\n      dup5\n        /* \"contracts/Zero2Hero_BNB/2_Token_Deployment/SushiToken.sol\":7856:7869  dstRepNum - 1 */\n      tag_313\n      swap2\n      swap1\n      tag_183\n      jump\t// in\n    tag_313:\n        /* \"contracts/Zero2Hero_BNB/2_Token_Deployment/SushiToken.sol\":7836:7870  checkpoints[dstRep][dstRepNum - 1] */\n      0xffffffff\n      and\n      0xffffffff\n      and\n      dup2\n      mstore\n      0x20\n      add\n      swap1\n      dup2\n      mstore\n      0x20\n      add\n      0x00\n      keccak256\n        /* \"contracts/Zero2Hero_BNB/2_Token_Deployment/SushiToken.sol\":7836:7876  checkpoints[dstRep][dstRepNum - 1].votes */\n      0x01\n      add\n      sload\n        /* \"contracts/Zero2Hero_BNB/2_Token_Deployment/SushiToken.sol\":7820:7880  dstRepNum > 0 ? checkpoints[dstRep][dstRepNum - 1].votes : 0 */\n    tag_312:\n        /* \"contracts/Zero2Hero_BNB/2_Token_Deployment/SushiToken.sol\":7800:7880  uint256 dstRepOld = dstRepNum > 0 ? checkpoints[dstRep][dstRepNum - 1].votes : 0 */\n      swap1\n      pop\n        /* \"contracts/Zero2Hero_BNB/2_Token_Deployment/SushiToken.sol\":7898:7915  uint256 dstRepNew */\n      0x00\n        /* \"contracts/Zero2Hero_BNB/2_Token_Deployment/SushiToken.sol\":7930:7936  amount */\n      dup4\n        /* \"contracts/Zero2Hero_BNB/2_Token_Deployment/SushiToken.sol\":7918:7927  dstRepOld */\n      dup3\n        /* \"contracts/Zero2Hero_BNB/2_Token_Deployment/SushiToken.sol\":7918:7936  dstRepOld + amount */\n      tag_314\n      swap2\n      swap1\n      tag_158\n      jump\t// in\n    tag_314:\n        /* \"contracts/Zero2Hero_BNB/2_Token_Deployment/SushiToken.sol\":7898:7936  uint256 dstRepNew = dstRepOld + amount */\n      swap1\n      pop\n        /* \"contracts/Zero2Hero_BNB/2_Token_Deployment/SushiToken.sol\":7954:8011  _writeCheckpoint(dstRep, dstRepNum, dstRepOld, dstRepNew) */\n      tag_315\n        /* \"contracts/Zero2Hero_BNB/2_Token_Deployment/SushiToken.sol\":7971:7977  dstRep */\n      dup6\n        /* \"contracts/Zero2Hero_BNB/2_Token_Deployment/SushiToken.sol\":7979:7988  dstRepNum */\n      dup5\n        /* \"contracts/Zero2Hero_BNB/2_Token_Deployment/SushiToken.sol\":7990:7999  dstRepOld */\n      dup5\n        /* \"contracts/Zero2Hero_BNB/2_Token_Deployment/SushiToken.sol\":8001:8010  dstRepNew */\n      dup5\n        /* \"contracts/Zero2Hero_BNB/2_Token_Deployment/SushiToken.sol\":7954:7970  _writeCheckpoint */\n      tag_309\n        /* \"contracts/Zero2Hero_BNB/2_Token_Deployment/SushiToken.sol\":7954:8011  _writeCheckpoint(dstRep, dstRepNum, dstRepOld, dstRepNew) */\n      jump\t// in\n    tag_315:\n        /* \"contracts/Zero2Hero_BNB/2_Token_Deployment/SushiToken.sol\":7676:8026  {... */\n      pop\n      pop\n      pop\n        /* \"contracts/Zero2Hero_BNB/2_Token_Deployment/SushiToken.sol\":7650:8026  if (dstRep != address(0)) {... */\n    tag_310:\n        /* \"contracts/Zero2Hero_BNB/2_Token_Deployment/SushiToken.sol\":7210:8036  if (srcRep != dstRep && amount > 0) {... */\n    tag_301:\n        /* \"contracts/Zero2Hero_BNB/2_Token_Deployment/SushiToken.sol\":7119:8042  function _moveDelegates(address srcRep, address dstRep, uint256 amount) internal {... */\n      pop\n      pop\n      pop\n      jump\t// out\n        /* \"contracts/Zero2Hero_BNB/2_Token_Deployment/SushiToken.sol\":6684:7113  function _delegate(address delegator, address delegatee)... */\n    tag_170:\n        /* \"contracts/Zero2Hero_BNB/2_Token_Deployment/SushiToken.sol\":6772:6795  address currentDelegate */\n      0x00\n        /* \"contracts/Zero2Hero_BNB/2_Token_Deployment/SushiToken.sol\":6798:6808  _delegates */\n      0x06\n        /* \"contracts/Zero2Hero_BNB/2_Token_Deployment/SushiToken.sol\":6798:6819  _delegates[delegator] */\n      0x00\n        /* \"contracts/Zero2Hero_BNB/2_Token_Deployment/SushiToken.sol\":6809:6818  delegator */\n      dup5\n        /* \"contracts/Zero2Hero_BNB/2_Token_Deployment/SushiToken.sol\":6798:6819  _delegates[delegator] */\n      0xffffffffffffffffffffffffffffffffffffffff\n      and\n      0xffffffffffffffffffffffffffffffffffffffff\n      and\n      dup2\n      mstore\n      0x20\n      add\n      swap1\n      dup2\n      mstore\n      0x20\n      add\n      0x00\n      keccak256\n      0x00\n      swap1\n      sload\n      swap1\n      0x0100\n      exp\n      swap1\n      div\n      0xffffffffffffffffffffffffffffffffffffffff\n      and\n        /* \"contracts/Zero2Hero_BNB/2_Token_Deployment/SushiToken.sol\":6772:6819  address currentDelegate = _delegates[delegator] */\n      swap1\n      pop\n        /* \"contracts/Zero2Hero_BNB/2_Token_Deployment/SushiToken.sol\":6829:6853  uint256 delegatorBalance */\n      0x00\n        /* \"contracts/Zero2Hero_BNB/2_Token_Deployment/SushiToken.sol\":6856:6876  balanceOf(delegator) */\n      tag_317\n        /* \"contracts/Zero2Hero_BNB/2_Token_Deployment/SushiToken.sol\":6866:6875  delegator */\n      dup5\n        /* \"contracts/Zero2Hero_BNB/2_Token_Deployment/SushiToken.sol\":6856:6865  balanceOf */\n      tag_82\n        /* \"contracts/Zero2Hero_BNB/2_Token_Deployment/SushiToken.sol\":6856:6876  balanceOf(delegator) */\n      jump\t// in\n    tag_317:\n        /* \"contracts/Zero2Hero_BNB/2_Token_Deployment/SushiToken.sol\":6829:6876  uint256 delegatorBalance = balanceOf(delegator) */\n      swap1\n      pop\n        /* \"contracts/Zero2Hero_BNB/2_Token_Deployment/SushiToken.sol\":6956:6965  delegatee */\n      dup3\n        /* \"contracts/Zero2Hero_BNB/2_Token_Deployment/SushiToken.sol\":6932:6942  _delegates */\n      0x06\n        /* \"contracts/Zero2Hero_BNB/2_Token_Deployment/SushiToken.sol\":6932:6953  _delegates[delegator] */\n      0x00\n        /* \"contracts/Zero2Hero_BNB/2_Token_Deployment/SushiToken.sol\":6943:6952  delegator */\n      dup7\n        /* \"contracts/Zero2Hero_BNB/2_Token_Deployment/SushiToken.sol\":6932:6953  _delegates[delegator] */\n      0xffffffffffffffffffffffffffffffffffffffff\n      and\n      0xffffffffffffffffffffffffffffffffffffffff\n      and\n      dup2\n      mstore\n      0x20\n      add\n      swap1\n      dup2\n      mstore\n      0x20\n      add\n      0x00\n      keccak256\n      0x00\n        /* \"contracts/Zero2Hero_BNB/2_Token_Deployment/SushiToken.sol\":6932:6965  _delegates[delegator] = delegatee */\n      0x0100\n      exp\n      dup2\n      sload\n      dup2\n      0xffffffffffffffffffffffffffffffffffffffff\n      mul\n      not\n      and\n      swap1\n      dup4\n      0xffffffffffffffffffffffffffffffffffffffff\n      and\n      mul\n      or\n      swap1\n      sstore\n      pop\n        /* \"contracts/Zero2Hero_BNB/2_Token_Deployment/SushiToken.sol\":7025:7034  delegatee */\n      dup3\n        /* \"contracts/Zero2Hero_BNB/2_Token_Deployment/SushiToken.sol\":6981:7035  DelegateChanged(delegator, currentDelegate, delegatee) */\n      0xffffffffffffffffffffffffffffffffffffffff\n      and\n        /* \"contracts/Zero2Hero_BNB/2_Token_Deployment/SushiToken.sol\":7008:7023  currentDelegate */\n      dup3\n        /* \"contracts/Zero2Hero_BNB/2_Token_Deployment/SushiToken.sol\":6981:7035  DelegateChanged(delegator, currentDelegate, delegatee) */\n      0xffffffffffffffffffffffffffffffffffffffff\n      and\n        /* \"contracts/Zero2Hero_BNB/2_Token_Deployment/SushiToken.sol\":6997:7006  delegator */\n      dup6\n        /* \"contracts/Zero2Hero_BNB/2_Token_Deployment/SushiToken.sol\":6981:7035  DelegateChanged(delegator, currentDelegate, delegatee) */\n      0xffffffffffffffffffffffffffffffffffffffff\n      and\n      0x3134e8a2e6d97e929a7e54011ea5485d7d196dd5f0ba4d4ef95803e8e3fc257f\n      mload(0x40)\n      mload(0x40)\n      dup1\n      swap2\n      sub\n      swap1\n      log4\n        /* \"contracts/Zero2Hero_BNB/2_Token_Deployment/SushiToken.sol\":7046:7106  _moveDelegates(currentDelegate, delegatee, delegatorBalance) */\n      tag_318\n        /* \"contracts/Zero2Hero_BNB/2_Token_Deployment/SushiToken.sol\":7061:7076  currentDelegate */\n      dup3\n        /* \"contracts/Zero2Hero_BNB/2_Token_Deployment/SushiToken.sol\":7078:7087  delegatee */\n      dup5\n        /* \"contracts/Zero2Hero_BNB/2_Token_Deployment/SushiToken.sol\":7089:7105  delegatorBalance */\n      dup4\n        /* \"contracts/Zero2Hero_BNB/2_Token_Deployment/SushiToken.sol\":7046:7060  _moveDelegates */\n      tag_166\n        /* \"contracts/Zero2Hero_BNB/2_Token_Deployment/SushiToken.sol\":7046:7106  _moveDelegates(currentDelegate, delegatee, delegatorBalance) */\n      jump\t// in\n    tag_318:\n        /* \"contracts/Zero2Hero_BNB/2_Token_Deployment/SushiToken.sol\":6762:7113  {... */\n      pop\n      pop\n        /* \"contracts/Zero2Hero_BNB/2_Token_Deployment/SushiToken.sol\":6684:7113  function _delegate(address delegator, address delegatee)... */\n      pop\n      pop\n      jump\t// out\n        /* \"@openzeppelin/contracts/access/Ownable.sol\":2441:2628  function _transferOwnership(address newOwner) internal virtual {... */\n    tag_176:\n        /* \"@openzeppelin/contracts/access/Ownable.sol\":2514:2530  address oldOwner */\n      0x00\n        /* \"@openzeppelin/contracts/access/Ownable.sol\":2533:2539  _owner */\n      0x05\n      0x00\n      swap1\n      sload\n      swap1\n      0x0100\n      exp\n      swap1\n      div\n      0xffffffffffffffffffffffffffffffffffffffff\n      and\n        /* \"@openzeppelin/contracts/access/Ownable.sol\":2514:2539  address oldOwner = _owner */\n      swap1\n      pop\n        /* \"@openzeppelin/contracts/access/Ownable.sol\":2558:2566  newOwner */\n      dup2\n        /* \"@openzeppelin/contracts/access/Ownable.sol\":2549:2555  _owner */\n      0x05\n      0x00\n        /* \"@openzeppelin/contracts/access/Ownable.sol\":2549:2566  _owner = newOwner */\n      0x0100\n      exp\n      dup2\n      sload\n      dup2\n      0xffffffffffffffffffffffffffffffffffffffff\n      mul\n      not\n      and\n      swap1\n      dup4\n      0xffffffffffffffffffffffffffffffffffffffff\n      and\n      mul\n      or\n      swap1\n      sstore\n      pop\n        /* \"@openzeppelin/contracts/access/Ownable.sol\":2612:2620  newOwner */\n      dup2\n        /* \"@openzeppelin/contracts/access/Ownable.sol\":2581:2621  OwnershipTransferred(oldOwner, newOwner) */\n      0xffffffffffffffffffffffffffffffffffffffff\n      and\n        /* \"@openzeppelin/contracts/access/Ownable.sol\":2602:2610  oldOwner */\n      dup2\n        /* \"@openzeppelin/contracts/access/Ownable.sol\":2581:2621  OwnershipTransferred(oldOwner, newOwner) */\n      0xffffffffffffffffffffffffffffffffffffffff\n      and\n      0x8be0079c531659141344cd1fd0a4f28419497f9722a3daafe3b4186f6b6457e0\n      mload(0x40)\n      mload(0x40)\n      dup1\n      swap2\n      sub\n      swap1\n      log3\n        /* \"@openzeppelin/contracts/access/Ownable.sol\":2504:2628  {... */\n      pop\n        /* \"@openzeppelin/contracts/access/Ownable.sol\":2441:2628  function _transferOwnership(address newOwner) internal virtual {... */\n      pop\n      jump\t// out\n        /* \"contracts/Zero2Hero_BNB/2_Token_Deployment/SushiToken.sol\":8905:9054  function getChainId() internal view returns (uint) {... */\n    tag_223:\n        /* \"contracts/Zero2Hero_BNB/2_Token_Deployment/SushiToken.sol\":8950:8954  uint */\n      0x00\n        /* \"contracts/Zero2Hero_BNB/2_Token_Deployment/SushiToken.sol\":8966:8981  uint256 chainId */\n      dup1\n        /* \"contracts/Zero2Hero_BNB/2_Token_Deployment/SushiToken.sol\":9013:9022  chainid() */\n      chainid\n        /* \"contracts/Zero2Hero_BNB/2_Token_Deployment/SushiToken.sol\":9002:9022  chainId := chainid() */\n      swap1\n      pop\n        /* \"contracts/Zero2Hero_BNB/2_Token_Deployment/SushiToken.sol\":9040:9047  chainId */\n      dup1\n        /* \"contracts/Zero2Hero_BNB/2_Token_Deployment/SushiToken.sol\":9033:9047  return chainId */\n      swap2\n      pop\n      pop\n        /* \"contracts/Zero2Hero_BNB/2_Token_Deployment/SushiToken.sol\":8905:9054  function getChainId() internal view returns (uint) {... */\n      swap1\n      jump\t// out\n        /* \"@openzeppelin/contracts/token/ERC20/ERC20.sol\":12188:12309  function _beforeTokenTransfer(... */\n    tag_278:\n      pop\n      pop\n      pop\n      jump\t// out\n        /* \"@openzeppelin/contracts/token/ERC20/ERC20.sol\":12897:13017  function _afterTokenTransfer(... */\n    tag_284:\n      pop\n      pop\n      pop\n      jump\t// out\n        /* \"contracts/Zero2Hero_BNB/2_Token_Deployment/SushiToken.sol\":8048:8735  function _writeCheckpoint(... */\n    tag_309:\n        /* \"contracts/Zero2Hero_BNB/2_Token_Deployment/SushiToken.sol\":8219:8237  uint32 blockNumber */\n      0x00\n        /* \"contracts/Zero2Hero_BNB/2_Token_Deployment/SushiToken.sol\":8240:8317  safe32(block.number, \"SUSHI::_writeCheckpoint: block number exceeds 32 bits\") */\n      tag_324\n        /* \"contracts/Zero2Hero_BNB/2_Token_Deployment/SushiToken.sol\":8247:8259  block.number */\n      number\n        /* \"contracts/Zero2Hero_BNB/2_Token_Deployment/SushiToken.sol\":8240:8317  safe32(block.number, \"SUSHI::_writeCheckpoint: block number exceeds 32 bits\") */\n      mload(0x40)\n      dup1\n      0x60\n      add\n      0x40\n      mstore\n      dup1\n      0x35\n      dup2\n      mstore\n      0x20\n      add\n      data_80202fadc1798ad44893c1a6a1a3b4079151936a969e36fa214486a4e00f3a74\n      0x35\n      swap2\n      codecopy\n        /* \"contracts/Zero2Hero_BNB/2_Token_Deployment/SushiToken.sol\":8240:8246  safe32 */\n      tag_325\n        /* \"contracts/Zero2Hero_BNB/2_Token_Deployment/SushiToken.sol\":8240:8317  safe32(block.number, \"SUSHI::_writeCheckpoint: block number exceeds 32 bits\") */\n      jump\t// in\n    tag_324:\n        /* \"contracts/Zero2Hero_BNB/2_Token_Deployment/SushiToken.sol\":8219:8317  uint32 blockNumber = safe32(block.number, \"SUSHI::_writeCheckpoint: block number exceeds 32 bits\") */\n      swap1\n      pop\n        /* \"contracts/Zero2Hero_BNB/2_Token_Deployment/SushiToken.sol\":8347:8348  0 */\n      0x00\n        /* \"contracts/Zero2Hero_BNB/2_Token_Deployment/SushiToken.sol\":8332:8344  nCheckpoints */\n      dup5\n        /* \"contracts/Zero2Hero_BNB/2_Token_Deployment/SushiToken.sol\":8332:8348  nCheckpoints > 0 */\n      0xffffffff\n      and\n      gt\n        /* \"contracts/Zero2Hero_BNB/2_Token_Deployment/SushiToken.sol\":8332:8417  nCheckpoints > 0 && checkpoints[delegatee][nCheckpoints - 1].fromBlock == blockNumber */\n      dup1\n      iszero\n      tag_326\n      jumpi\n      pop\n        /* \"contracts/Zero2Hero_BNB/2_Token_Deployment/SushiToken.sol\":8406:8417  blockNumber */\n      dup1\n        /* \"contracts/Zero2Hero_BNB/2_Token_Deployment/SushiToken.sol\":8352:8417  checkpoints[delegatee][nCheckpoints - 1].fromBlock == blockNumber */\n      0xffffffff\n      and\n        /* \"contracts/Zero2Hero_BNB/2_Token_Deployment/SushiToken.sol\":8352:8363  checkpoints */\n      0x07\n        /* \"contracts/Zero2Hero_BNB/2_Token_Deployment/SushiToken.sol\":8352:8374  checkpoints[delegatee] */\n      0x00\n        /* \"contracts/Zero2Hero_BNB/2_Token_Deployment/SushiToken.sol\":8364:8373  delegatee */\n      dup8\n        /* \"contracts/Zero2Hero_BNB/2_Token_Deployment/SushiToken.sol\":8352:8374  checkpoints[delegatee] */\n      0xffffffffffffffffffffffffffffffffffffffff\n      and\n      0xffffffffffffffffffffffffffffffffffffffff\n      and\n      dup2\n      mstore\n      0x20\n      add\n      swap1\n      dup2\n      mstore\n      0x20\n      add\n      0x00\n      keccak256\n        /* \"contracts/Zero2Hero_BNB/2_Token_Deployment/SushiToken.sol\":8352:8392  checkpoints[delegatee][nCheckpoints - 1] */\n      0x00\n        /* \"contracts/Zero2Hero_BNB/2_Token_Deployment/SushiToken.sol\":8390:8391  1 */\n      0x01\n        /* \"contracts/Zero2Hero_BNB/2_Token_Deployment/SushiToken.sol\":8375:8387  nCheckpoints */\n      dup8\n        /* \"contracts/Zero2Hero_BNB/2_Token_Deployment/SushiToken.sol\":8375:8391  nCheckpoints - 1 */\n      tag_327\n      swap2\n      swap1\n      tag_183\n      jump\t// in\n    tag_327:\n        /* \"contracts/Zero2Hero_BNB/2_Token_Deployment/SushiToken.sol\":8352:8392  checkpoints[delegatee][nCheckpoints - 1] */\n      0xffffffff\n      and\n      0xffffffff\n      and\n      dup2\n      mstore\n      0x20\n      add\n      swap1\n      dup2\n      mstore\n      0x20\n      add\n      0x00\n      keccak256\n        /* \"contracts/Zero2Hero_BNB/2_Token_Deployment/SushiToken.sol\":8352:8402  checkpoints[delegatee][nCheckpoints - 1].fromBlock */\n      0x00\n      add\n      0x00\n      swap1\n      sload\n      swap1\n      0x0100\n      exp\n      swap1\n      div\n      0xffffffff\n      and\n        /* \"contracts/Zero2Hero_BNB/2_Token_Deployment/SushiToken.sol\":8352:8417  checkpoints[delegatee][nCheckpoints - 1].fromBlock == blockNumber */\n      0xffffffff\n      and\n      eq\n        /* \"contracts/Zero2Hero_BNB/2_Token_Deployment/SushiToken.sol\":8332:8417  nCheckpoints > 0 && checkpoints[delegatee][nCheckpoints - 1].fromBlock == blockNumber */\n    tag_326:\n        /* \"contracts/Zero2Hero_BNB/2_Token_Deployment/SushiToken.sol\":8328:8662  if (nCheckpoints > 0 && checkpoints[delegatee][nCheckpoints - 1].fromBlock == blockNumber) {... */\n      iszero\n      tag_328\n      jumpi\n        /* \"contracts/Zero2Hero_BNB/2_Token_Deployment/SushiToken.sol\":8482:8490  newVotes */\n      dup2\n        /* \"contracts/Zero2Hero_BNB/2_Token_Deployment/SushiToken.sol\":8433:8444  checkpoints */\n      0x07\n        /* \"contracts/Zero2Hero_BNB/2_Token_Deployment/SushiToken.sol\":8433:8455  checkpoints[delegatee] */\n      0x00\n        /* \"contracts/Zero2Hero_BNB/2_Token_Deployment/SushiToken.sol\":8445:8454  delegatee */\n      dup8\n        /* \"contracts/Zero2Hero_BNB/2_Token_Deployment/SushiToken.sol\":8433:8455  checkpoints[delegatee] */\n      0xffffffffffffffffffffffffffffffffffffffff\n      and\n      0xffffffffffffffffffffffffffffffffffffffff\n      and\n      dup2\n      mstore\n      0x20\n      add\n      swap1\n      dup2\n      mstore\n      0x20\n      add\n      0x00\n      keccak256\n        /* \"contracts/Zero2Hero_BNB/2_Token_Deployment/SushiToken.sol\":8433:8473  checkpoints[delegatee][nCheckpoints - 1] */\n      0x00\n        /* \"contracts/Zero2Hero_BNB/2_Token_Deployment/SushiToken.sol\":8471:8472  1 */\n      0x01\n        /* \"contracts/Zero2Hero_BNB/2_Token_Deployment/SushiToken.sol\":8456:8468  nCheckpoints */\n      dup8\n        /* \"contracts/Zero2Hero_BNB/2_Token_Deployment/SushiToken.sol\":8456:8472  nCheckpoints - 1 */\n      tag_329\n      swap2\n      swap1\n      tag_183\n      jump\t// in\n    tag_329:\n        /* \"contracts/Zero2Hero_BNB/2_Token_Deployment/SushiToken.sol\":8433:8473  checkpoints[delegatee][nCheckpoints - 1] */\n      0xffffffff\n      and\n      0xffffffff\n      and\n      dup2\n      mstore\n      0x20\n      add\n      swap1\n      dup2\n      mstore\n      0x20\n      add\n      0x00\n      keccak256\n        /* \"contracts/Zero2Hero_BNB/2_Token_Deployment/SushiToken.sol\":8433:8479  checkpoints[delegatee][nCheckpoints - 1].votes */\n      0x01\n      add\n        /* \"contracts/Zero2Hero_BNB/2_Token_Deployment/SushiToken.sol\":8433:8490  checkpoints[delegatee][nCheckpoints - 1].votes = newVotes */\n      dup2\n      swap1\n      sstore\n      pop\n        /* \"contracts/Zero2Hero_BNB/2_Token_Deployment/SushiToken.sol\":8328:8662  if (nCheckpoints > 0 && checkpoints[delegatee][nCheckpoints - 1].fromBlock == blockNumber) {... */\n      jump(tag_330)\n    tag_328:\n        /* \"contracts/Zero2Hero_BNB/2_Token_Deployment/SushiToken.sol\":8560:8593  Checkpoint(blockNumber, newVotes) */\n      mload(0x40)\n      dup1\n      0x40\n      add\n      0x40\n      mstore\n      dup1\n        /* \"contracts/Zero2Hero_BNB/2_Token_Deployment/SushiToken.sol\":8571:8582  blockNumber */\n      dup3\n        /* \"contracts/Zero2Hero_BNB/2_Token_Deployment/SushiToken.sol\":8560:8593  Checkpoint(blockNumber, newVotes) */\n      0xffffffff\n      and\n      dup2\n      mstore\n      0x20\n      add\n        /* \"contracts/Zero2Hero_BNB/2_Token_Deployment/SushiToken.sol\":8584:8592  newVotes */\n      dup4\n        /* \"contracts/Zero2Hero_BNB/2_Token_Deployment/SushiToken.sol\":8560:8593  Checkpoint(blockNumber, newVotes) */\n      dup2\n      mstore\n      pop\n        /* \"contracts/Zero2Hero_BNB/2_Token_Deployment/SushiToken.sol\":8521:8532  checkpoints */\n      0x07\n        /* \"contracts/Zero2Hero_BNB/2_Token_Deployment/SushiToken.sol\":8521:8543  checkpoints[delegatee] */\n      0x00\n        /* \"contracts/Zero2Hero_BNB/2_Token_Deployment/SushiToken.sol\":8533:8542  delegatee */\n      dup8\n        /* \"contracts/Zero2Hero_BNB/2_Token_Deployment/SushiToken.sol\":8521:8543  checkpoints[delegatee] */\n      0xffffffffffffffffffffffffffffffffffffffff\n      and\n      0xffffffffffffffffffffffffffffffffffffffff\n      and\n      dup2\n      mstore\n      0x20\n      add\n      swap1\n      dup2\n      mstore\n      0x20\n      add\n      0x00\n      keccak256\n        /* \"contracts/Zero2Hero_BNB/2_Token_Deployment/SushiToken.sol\":8521:8557  checkpoints[delegatee][nCheckpoints] */\n      0x00\n        /* \"contracts/Zero2Hero_BNB/2_Token_Deployment/SushiToken.sol\":8544:8556  nCheckpoints */\n      dup7\n        /* \"contracts/Zero2Hero_BNB/2_Token_Deployment/SushiToken.sol\":8521:8557  checkpoints[delegatee][nCheckpoints] */\n      0xffffffff\n      and\n      0xffffffff\n      and\n      dup2\n      mstore\n      0x20\n      add\n      swap1\n      dup2\n      mstore\n      0x20\n      add\n      0x00\n      keccak256\n        /* \"contracts/Zero2Hero_BNB/2_Token_Deployment/SushiToken.sol\":8521:8593  checkpoints[delegatee][nCheckpoints] = Checkpoint(blockNumber, newVotes) */\n      0x00\n      dup3\n      add\n      mload\n      dup2\n      0x00\n      add\n      exp(0x0100, 0x00)\n      dup2\n      sload\n      dup2\n      0xffffffff\n      mul\n      not\n      and\n      swap1\n      dup4\n      0xffffffff\n      and\n      mul\n      or\n      swap1\n      sstore\n      pop\n      0x20\n      dup3\n      add\n      mload\n      dup2\n      0x01\n      add\n      sstore\n      swap1\n      pop\n      pop\n        /* \"contracts/Zero2Hero_BNB/2_Token_Deployment/SushiToken.sol\":8650:8651  1 */\n      0x01\n        /* \"contracts/Zero2Hero_BNB/2_Token_Deployment/SushiToken.sol\":8635:8647  nCheckpoints */\n      dup5\n        /* \"contracts/Zero2Hero_BNB/2_Token_Deployment/SushiToken.sol\":8635:8651  nCheckpoints + 1 */\n      tag_331\n      swap2\n      swap1\n      tag_332\n      jump\t// in\n    tag_331:\n        /* \"contracts/Zero2Hero_BNB/2_Token_Deployment/SushiToken.sol\":8607:8621  numCheckpoints */\n      0x08\n        /* \"contracts/Zero2Hero_BNB/2_Token_Deployment/SushiToken.sol\":8607:8632  numCheckpoints[delegatee] */\n      0x00\n        /* \"contracts/Zero2Hero_BNB/2_Token_Deployment/SushiToken.sol\":8622:8631  delegatee */\n      dup8\n        /* \"contracts/Zero2Hero_BNB/2_Token_Deployment/SushiToken.sol\":8607:8632  numCheckpoints[delegatee] */\n      0xffffffffffffffffffffffffffffffffffffffff\n      and\n      0xffffffffffffffffffffffffffffffffffffffff\n      and\n      dup2\n      mstore\n      0x20\n      add\n      swap1\n      dup2\n      mstore\n      0x20\n      add\n      0x00\n      keccak256\n      0x00\n        /* \"contracts/Zero2Hero_BNB/2_Token_Deployment/SushiToken.sol\":8607:8651  numCheckpoints[delegatee] = nCheckpoints + 1 */\n      0x0100\n      exp\n      dup2\n      sload\n      dup2\n      0xffffffff\n      mul\n      not\n      and\n      swap1\n      dup4\n      0xffffffff\n      and\n      mul\n      or\n      swap1\n      sstore\n      pop\n        /* \"contracts/Zero2Hero_BNB/2_Token_Deployment/SushiToken.sol\":8328:8662  if (nCheckpoints > 0 && checkpoints[delegatee][nCheckpoints - 1].fromBlock == blockNumber) {... */\n    tag_330:\n        /* \"contracts/Zero2Hero_BNB/2_Token_Deployment/SushiToken.sol\":8698:8707  delegatee */\n      dup5\n        /* \"contracts/Zero2Hero_BNB/2_Token_Deployment/SushiToken.sol\":8677:8728  DelegateVotesChanged(delegatee, oldVotes, newVotes) */\n      0xffffffffffffffffffffffffffffffffffffffff\n      and\n      0xdec2bacdd2f05b59de34da9b523dff8be42e5e38e818c82fdb0bae774387a724\n        /* \"contracts/Zero2Hero_BNB/2_Token_Deployment/SushiToken.sol\":8709:8717  oldVotes */\n      dup5\n        /* \"contracts/Zero2Hero_BNB/2_Token_Deployment/SushiToken.sol\":8719:8727  newVotes */\n      dup5\n        /* \"contracts/Zero2Hero_BNB/2_Token_Deployment/SushiToken.sol\":8677:8728  DelegateVotesChanged(delegatee, oldVotes, newVotes) */\n      mload(0x40)\n      tag_333\n      swap3\n      swap2\n      swap1\n      tag_334\n      jump\t// in\n    tag_333:\n      mload(0x40)\n      dup1\n      swap2\n      sub\n      swap1\n      log2\n        /* \"contracts/Zero2Hero_BNB/2_Token_Deployment/SushiToken.sol\":8209:8735  {... */\n      pop\n        /* \"contracts/Zero2Hero_BNB/2_Token_Deployment/SushiToken.sol\":8048:8735  function _writeCheckpoint(... */\n      pop\n      pop\n      pop\n      pop\n      jump\t// out\n        /* \"contracts/Zero2Hero_BNB/2_Token_Deployment/SushiToken.sol\":8741:8899  function safe32(uint n, string memory errorMessage) internal pure returns (uint32) {... */\n    tag_325:\n        /* \"contracts/Zero2Hero_BNB/2_Token_Deployment/SushiToken.sol\":8816:8822  uint32 */\n      0x00\n        /* \"contracts/Zero2Hero_BNB/2_Token_Deployment/SushiToken.sol\":8846:8851  2**32 */\n      0x0100000000\n        /* \"contracts/Zero2Hero_BNB/2_Token_Deployment/SushiToken.sol\":8842:8843  n */\n      dup4\n        /* \"contracts/Zero2Hero_BNB/2_Token_Deployment/SushiToken.sol\":8842:8851  n < 2**32 */\n      lt\n        /* \"contracts/Zero2Hero_BNB/2_Token_Deployment/SushiToken.sol\":8853:8865  errorMessage */\n      dup3\n        /* \"contracts/Zero2Hero_BNB/2_Token_Deployment/SushiToken.sol\":8834:8866  require(n < 2**32, errorMessage) */\n      swap1\n      tag_336\n      jumpi\n      mload(0x40)\n      0x08c379a000000000000000000000000000000000000000000000000000000000\n      dup2\n      mstore\n      0x04\n      add\n      tag_337\n      swap2\n      swap1\n      tag_35\n      jump\t// in\n    tag_337:\n      mload(0x40)\n      dup1\n      swap2\n      sub\n      swap1\n      revert\n    tag_336:\n      pop\n        /* \"contracts/Zero2Hero_BNB/2_Token_Deployment/SushiToken.sol\":8890:8891  n */\n      dup3\n        /* \"contracts/Zero2Hero_BNB/2_Token_Deployment/SushiToken.sol\":8876:8892  return uint32(n) */\n      swap1\n      pop\n        /* \"contracts/Zero2Hero_BNB/2_Token_Deployment/SushiToken.sol\":8741:8899  function safe32(uint n, string memory errorMessage) internal pure returns (uint32) {... */\n      swap3\n      swap2\n      pop\n      pop\n      jump\t// out\n        /* \"#utility.yul\":7:106   */\n    tag_338:\n        /* \"#utility.yul\":59:65   */\n      0x00\n        /* \"#utility.yul\":93:98   */\n      dup2\n        /* \"#utility.yul\":87:99   */\n      mload\n        /* \"#utility.yul\":77:99   */\n      swap1\n      pop\n        /* \"#utility.yul\":7:106   */\n      swap2\n      swap1\n      pop\n      jump\t// out\n        /* \"#utility.yul\":112:281   */\n    tag_339:\n        /* \"#utility.yul\":196:207   */\n      0x00\n        /* \"#utility.yul\":230:236   */\n      dup3\n        /* \"#utility.yul\":225:228   */\n      dup3\n        /* \"#utility.yul\":218:237   */\n      mstore\n        /* \"#utility.yul\":270:274   */\n      0x20\n        /* \"#utility.yul\":265:268   */\n      dup3\n        /* \"#utility.yul\":261:275   */\n      add\n        /* \"#utility.yul\":246:275   */\n      swap1\n      pop\n        /* \"#utility.yul\":112:281   */\n      swap3\n      swap2\n      pop\n      pop\n      jump\t// out\n        /* \"#utility.yul\":287:533   */\n    tag_340:\n        /* \"#utility.yul\":368:369   */\n      0x00\n        /* \"#utility.yul\":378:491   */\n    tag_409:\n        /* \"#utility.yul\":392:398   */\n      dup4\n        /* \"#utility.yul\":389:390   */\n      dup2\n        /* \"#utility.yul\":386:399   */\n      lt\n        /* \"#utility.yul\":378:491   */\n      iszero\n      tag_411\n      jumpi\n        /* \"#utility.yul\":477:478   */\n      dup1\n        /* \"#utility.yul\":472:475   */\n      dup3\n        /* \"#utility.yul\":468:479   */\n      add\n        /* \"#utility.yul\":462:480   */\n      mload\n        /* \"#utility.yul\":458:459   */\n      dup2\n        /* \"#utility.yul\":453:456   */\n      dup5\n        /* \"#utility.yul\":449:460   */\n      add\n        /* \"#utility.yul\":442:481   */\n      mstore\n        /* \"#utility.yul\":414:416   */\n      0x20\n        /* \"#utility.yul\":411:412   */\n      dup2\n        /* \"#utility.yul\":407:417   */\n      add\n        /* \"#utility.yul\":402:417   */\n      swap1\n      pop\n        /* \"#utility.yul\":378:491   */\n      jump(tag_409)\n    tag_411:\n        /* \"#utility.yul\":525:526   */\n      0x00\n        /* \"#utility.yul\":516:522   */\n      dup5\n        /* \"#utility.yul\":511:514   */\n      dup5\n        /* \"#utility.yul\":507:523   */\n      add\n        /* \"#utility.yul\":500:527   */\n      mstore\n        /* \"#utility.yul\":349:533   */\n      pop\n        /* \"#utility.yul\":287:533   */\n      pop\n      pop\n      pop\n      jump\t// out\n        /* \"#utility.yul\":539:641   */\n    tag_341:\n        /* \"#utility.yul\":580:586   */\n      0x00\n        /* \"#utility.yul\":631:633   */\n      0x1f\n        /* \"#utility.yul\":627:634   */\n      not\n        /* \"#utility.yul\":622:624   */\n      0x1f\n        /* \"#utility.yul\":615:620   */\n      dup4\n        /* \"#utility.yul\":611:625   */\n      add\n        /* \"#utility.yul\":607:635   */\n      and\n        /* \"#utility.yul\":597:635   */\n      swap1\n      pop\n        /* \"#utility.yul\":539:641   */\n      swap2\n      swap1\n      pop\n      jump\t// out\n        /* \"#utility.yul\":647:1024   */\n    tag_342:\n        /* \"#utility.yul\":735:738   */\n      0x00\n        /* \"#utility.yul\":763:802   */\n      tag_414\n        /* \"#utility.yul\":796:801   */\n      dup3\n        /* \"#utility.yul\":763:802   */\n      tag_338\n      jump\t// in\n    tag_414:\n        /* \"#utility.yul\":818:889   */\n      tag_415\n        /* \"#utility.yul\":882:888   */\n      dup2\n        /* \"#utility.yul\":877:880   */\n      dup6\n        /* \"#utility.yul\":818:889   */\n      tag_339\n      jump\t// in\n    tag_415:\n        /* \"#utility.yul\":811:889   */\n      swap4\n      pop\n        /* \"#utility.yul\":898:963   */\n      tag_416\n        /* \"#utility.yul\":956:962   */\n      dup2\n        /* \"#utility.yul\":951:954   */\n      dup6\n        /* \"#utility.yul\":944:948   */\n      0x20\n        /* \"#utility.yul\":937:942   */\n      dup7\n        /* \"#utility.yul\":933:949   */\n      add\n        /* \"#utility.yul\":898:963   */\n      tag_340\n      jump\t// in\n    tag_416:\n        /* \"#utility.yul\":988:1017   */\n      tag_417\n        /* \"#utility.yul\":1010:1016   */\n      dup2\n        /* \"#utility.yul\":988:1017   */\n      tag_341\n      jump\t// in\n    tag_417:\n        /* \"#utility.yul\":983:986   */\n      dup5\n        /* \"#utility.yul\":979:1018   */\n      add\n        /* \"#utility.yul\":972:1018   */\n      swap2\n      pop\n        /* \"#utility.yul\":739:1024   */\n      pop\n        /* \"#utility.yul\":647:1024   */\n      swap3\n      swap2\n      pop\n      pop\n      jump\t// out\n        /* \"#utility.yul\":1030:1343   */\n    tag_35:\n        /* \"#utility.yul\":1143:1147   */\n      0x00\n        /* \"#utility.yul\":1181:1183   */\n      0x20\n        /* \"#utility.yul\":1170:1179   */\n      dup3\n        /* \"#utility.yul\":1166:1184   */\n      add\n        /* \"#utility.yul\":1158:1184   */\n      swap1\n      pop\n        /* \"#utility.yul\":1230:1239   */\n      dup2\n        /* \"#utility.yul\":1224:1228   */\n      dup2\n        /* \"#utility.yul\":1220:1240   */\n      sub\n        /* \"#utility.yul\":1216:1217   */\n      0x00\n        /* \"#utility.yul\":1205:1214   */\n      dup4\n        /* \"#utility.yul\":1201:1218   */\n      add\n        /* \"#utility.yul\":1194:1241   */\n      mstore\n        /* \"#utility.yul\":1258:1336   */\n      tag_419\n        /* \"#utility.yul\":1331:1335   */\n      dup2\n        /* \"#utility.yul\":1322:1328   */\n      dup5\n        /* \"#utility.yul\":1258:1336   */\n      tag_342\n      jump\t// in\n    tag_419:\n        /* \"#utility.yul\":1250:1336   */\n      swap1\n      pop\n        /* \"#utility.yul\":1030:1343   */\n      swap3\n      swap2\n      pop\n      pop\n      jump\t// out\n        /* \"#utility.yul\":1430:1547   */\n    tag_344:\n        /* \"#utility.yul\":1539:1540   */\n      0x00\n        /* \"#utility.yul\":1536:1537   */\n      dup1\n        /* \"#utility.yul\":1529:1541   */\n      revert\n        /* \"#utility.yul\":1676:1802   */\n    tag_346:\n        /* \"#utility.yul\":1713:1720   */\n      0x00\n        /* \"#utility.yul\":1753:1795   */\n      0xffffffffffffffffffffffffffffffffffffffff\n        /* \"#utility.yul\":1746:1751   */\n      dup3\n        /* \"#utility.yul\":1742:1796   */\n      and\n        /* \"#utility.yul\":1731:1796   */\n      swap1\n      pop\n        /* \"#utility.yul\":1676:1802   */\n      swap2\n      swap1\n      pop\n      jump\t// out\n        /* \"#utility.yul\":1808:1904   */\n    tag_347:\n        /* \"#utility.yul\":1845:1852   */\n      0x00\n        /* \"#utility.yul\":1874:1898   */\n      tag_425\n        /* \"#utility.yul\":1892:1897   */\n      dup3\n        /* \"#utility.yul\":1874:1898   */\n      tag_346\n      jump\t// in\n    tag_425:\n        /* \"#utility.yul\":1863:1898   */\n      swap1\n      pop\n        /* \"#utility.yul\":1808:1904   */\n      swap2\n      swap1\n      pop\n      jump\t// out\n        /* \"#utility.yul\":1910:2032   */\n    tag_348:\n        /* \"#utility.yul\":1983:2007   */\n      tag_427\n        /* \"#utility.yul\":2001:2006   */\n      dup2\n        /* \"#utility.yul\":1983:2007   */\n      tag_347\n      jump\t// in\n    tag_427:\n        /* \"#utility.yul\":1976:1981   */\n      dup2\n        /* \"#utility.yul\":1973:2008   */\n      eq\n        /* \"#utility.yul\":1963:2026   */\n      tag_428\n      jumpi\n        /* \"#utility.yul\":2022:2023   */\n      0x00\n        /* \"#utility.yul\":2019:2020   */\n      dup1\n        /* \"#utility.yul\":2012:2024   */\n      revert\n        /* \"#utility.yul\":1963:2026   */\n    tag_428:\n        /* \"#utility.yul\":1910:2032   */\n      pop\n      jump\t// out\n        /* \"#utility.yul\":2038:2177   */\n    tag_349:\n        /* \"#utility.yul\":2084:2089   */\n      0x00\n        /* \"#utility.yul\":2122:2128   */\n      dup2\n        /* \"#utility.yul\":2109:2129   */\n      calldataload\n        /* \"#utility.yul\":2100:2129   */\n      swap1\n      pop\n        /* \"#utility.yul\":2138:2171   */\n      tag_430\n        /* \"#utility.yul\":2165:2170   */\n      dup2\n        /* \"#utility.yul\":2138:2171   */\n      tag_348\n      jump\t// in\n    tag_430:\n        /* \"#utility.yul\":2038:2177   */\n      swap3\n      swap2\n      pop\n      pop\n      jump\t// out\n        /* \"#utility.yul\":2183:2260   */\n    tag_350:\n        /* \"#utility.yul\":2220:2227   */\n      0x00\n        /* \"#utility.yul\":2249:2254   */\n      dup2\n        /* \"#utility.yul\":2238:2254   */\n      swap1\n      pop\n        /* \"#utility.yul\":2183:2260   */\n      swap2\n      swap1\n      pop\n      jump\t// out\n        /* \"#utility.yul\":2266:2388   */\n    tag_351:\n        /* \"#utility.yul\":2339:2363   */\n      tag_433\n        /* \"#utility.yul\":2357:2362   */\n      dup2\n        /* \"#utility.yul\":2339:2363   */\n      tag_350\n      jump\t// in\n    tag_433:\n        /* \"#utility.yul\":2332:2337   */\n      dup2\n        /* \"#utility.yul\":2329:2364   */\n      eq\n        /* \"#utility.yul\":2319:2382   */\n      tag_434\n      jumpi\n        /* \"#utility.yul\":2378:2379   */\n      0x00\n        /* \"#utility.yul\":2375:2376   */\n      dup1\n        /* \"#utility.yul\":2368:2380   */\n      revert\n        /* \"#utility.yul\":2319:2382   */\n    tag_434:\n        /* \"#utility.yul\":2266:2388   */\n      pop\n      jump\t// out\n        /* \"#utility.yul\":2394:2533   */\n    tag_352:\n        /* \"#utility.yul\":2440:2445   */\n      0x00\n        /* \"#utility.yul\":2478:2484   */\n      dup2\n        /* \"#utility.yul\":2465:2485   */\n      calldataload\n        /* \"#utility.yul\":2456:2485   */\n      swap1\n      pop\n        /* \"#utility.yul\":2494:2527   */\n      tag_436\n        /* \"#utility.yul\":2521:2526   */\n      dup2\n        /* \"#utility.yul\":2494:2527   */\n      tag_351\n      jump\t// in\n    tag_436:\n        /* \"#utility.yul\":2394:2533   */\n      swap3\n      swap2\n      pop\n      pop\n      jump\t// out\n        /* \"#utility.yul\":2539:3013   */\n    tag_38:\n        /* \"#utility.yul\":2607:2613   */\n      0x00\n        /* \"#utility.yul\":2615:2621   */\n      dup1\n        /* \"#utility.yul\":2664:2666   */\n      0x40\n        /* \"#utility.yul\":2652:2661   */\n      dup4\n        /* \"#utility.yul\":2643:2650   */\n      dup6\n        /* \"#utility.yul\":2639:2662   */\n      sub\n        /* \"#utility.yul\":2635:2667   */\n      slt\n        /* \"#utility.yul\":2632:2751   */\n      iszero\n      tag_438\n      jumpi\n        /* \"#utility.yul\":2670:2749   */\n      tag_439\n      tag_344\n      jump\t// in\n    tag_439:\n        /* \"#utility.yul\":2632:2751   */\n    tag_438:\n        /* \"#utility.yul\":2790:2791   */\n      0x00\n        /* \"#utility.yul\":2815:2868   */\n      tag_440\n        /* \"#utility.yul\":2860:2867   */\n      dup6\n        /* \"#utility.yul\":2851:2857   */\n      dup3\n        /* \"#utility.yul\":2840:2849   */\n      dup7\n        /* \"#utility.yul\":2836:2858   */\n      add\n        /* \"#utility.yul\":2815:2868   */\n      tag_349\n      jump\t// in\n    tag_440:\n        /* \"#utility.yul\":2805:2868   */\n      swap3\n      pop\n        /* \"#utility.yul\":2761:2878   */\n      pop\n        /* \"#utility.yul\":2917:2919   */\n      0x20\n        /* \"#utility.yul\":2943:2996   */\n      tag_441\n        /* \"#utility.yul\":2988:2995   */\n      dup6\n        /* \"#utility.yul\":2979:2985   */\n      dup3\n        /* \"#utility.yul\":2968:2977   */\n      dup7\n        /* \"#utility.yul\":2964:2986   */\n      add\n        /* \"#utility.yul\":2943:2996   */\n      tag_352\n      jump\t// in\n    tag_441:\n        /* \"#utility.yul\":2933:2996   */\n      swap2\n      pop\n        /* \"#utility.yul\":2888:3006   */\n      pop\n        /* \"#utility.yul\":2539:3013   */\n      swap3\n      pop\n      swap3\n      swap1\n      pop\n      jump\t// out\n        /* \"#utility.yul\":3019:3109   */\n    tag_353:\n        /* \"#utility.yul\":3053:3060   */\n      0x00\n        /* \"#utility.yul\":3096:3101   */\n      dup2\n        /* \"#utility.yul\":3089:3102   */\n      iszero\n        /* \"#utility.yul\":3082:3103   */\n      iszero\n        /* \"#utility.yul\":3071:3103   */\n      swap1\n      pop\n        /* \"#utility.yul\":3019:3109   */\n      swap2\n      swap1\n      pop\n      jump\t// out\n        /* \"#utility.yul\":3115:3224   */\n    tag_354:\n        /* \"#utility.yul\":3196:3217   */\n      tag_444\n        /* \"#utility.yul\":3211:3216   */\n      dup2\n        /* \"#utility.yul\":3196:3217   */\n      tag_353\n      jump\t// in\n    tag_444:\n        /* \"#utility.yul\":3191:3194   */\n      dup3\n        /* \"#utility.yul\":3184:3218   */\n      mstore\n        /* \"#utility.yul\":3115:3224   */\n      pop\n      pop\n      jump\t// out\n        /* \"#utility.yul\":3230:3440   */\n    tag_41:\n        /* \"#utility.yul\":3317:3321   */\n      0x00\n        /* \"#utility.yul\":3355:3357   */\n      0x20\n        /* \"#utility.yul\":3344:3353   */\n      dup3\n        /* \"#utility.yul\":3340:3358   */\n      add\n        /* \"#utility.yul\":3332:3358   */\n      swap1\n      pop\n        /* \"#utility.yul\":3368:3433   */\n      tag_446\n        /* \"#utility.yul\":3430:3431   */\n      0x00\n        /* \"#utility.yul\":3419:3428   */\n      dup4\n        /* \"#utility.yul\":3415:3432   */\n      add\n        /* \"#utility.yul\":3406:3412   */\n      dup5\n        /* \"#utility.yul\":3368:3433   */\n      tag_354\n      jump\t// in\n    tag_446:\n        /* \"#utility.yul\":3230:3440   */\n      swap3\n      swap2\n      pop\n      pop\n      jump\t// out\n        /* \"#utility.yul\":3446:3564   */\n    tag_355:\n        /* \"#utility.yul\":3533:3557   */\n      tag_448\n        /* \"#utility.yul\":3551:3556   */\n      dup2\n        /* \"#utility.yul\":3533:3557   */\n      tag_350\n      jump\t// in\n    tag_448:\n        /* \"#utility.yul\":3528:3531   */\n      dup3\n        /* \"#utility.yul\":3521:3558   */\n      mstore\n        /* \"#utility.yul\":3446:3564   */\n      pop\n      pop\n      jump\t// out\n        /* \"#utility.yul\":3570:3792   */\n    tag_45:\n        /* \"#utility.yul\":3663:3667   */\n      0x00\n        /* \"#utility.yul\":3701:3703   */\n      0x20\n        /* \"#utility.yul\":3690:3699   */\n      dup3\n        /* \"#utility.yul\":3686:3704   */\n      add\n        /* \"#utility.yul\":3678:3704   */\n      swap1\n      pop\n        /* \"#utility.yul\":3714:3785   */\n      tag_450\n        /* \"#utility.yul\":3782:3783   */\n      0x00\n        /* \"#utility.yul\":3771:3780   */\n      dup4\n        /* \"#utility.yul\":3767:3784   */\n      add\n        /* \"#utility.yul\":3758:3764   */\n      dup5\n        /* \"#utility.yul\":3714:3785   */\n      tag_355\n      jump\t// in\n    tag_450:\n        /* \"#utility.yul\":3570:3792   */\n      swap3\n      swap2\n      pop\n      pop\n      jump\t// out\n        /* \"#utility.yul\":3798:3875   */\n    tag_356:\n        /* \"#utility.yul\":3835:3842   */\n      0x00\n        /* \"#utility.yul\":3864:3869   */\n      dup2\n        /* \"#utility.yul\":3853:3869   */\n      swap1\n      pop\n        /* \"#utility.yul\":3798:3875   */\n      swap2\n      swap1\n      pop\n      jump\t// out\n        /* \"#utility.yul\":3881:3999   */\n    tag_357:\n        /* \"#utility.yul\":3968:3992   */\n      tag_453\n        /* \"#utility.yul\":3986:3991   */\n      dup2\n        /* \"#utility.yul\":3968:3992   */\n      tag_356\n      jump\t// in\n    tag_453:\n        /* \"#utility.yul\":3963:3966   */\n      dup3\n        /* \"#utility.yul\":3956:3993   */\n      mstore\n        /* \"#utility.yul\":3881:3999   */\n      pop\n      pop\n      jump\t// out\n        /* \"#utility.yul\":4005:4227   */\n    tag_49:\n        /* \"#utility.yul\":4098:4102   */\n      0x00\n        /* \"#utility.yul\":4136:4138   */\n      0x20\n        /* \"#utility.yul\":4125:4134   */\n      dup3\n        /* \"#utility.yul\":4121:4139   */\n      add\n        /* \"#utility.yul\":4113:4139   */\n      swap1\n      pop\n        /* \"#utility.yul\":4149:4220   */\n      tag_455\n        /* \"#utility.yul\":4217:4218   */\n      0x00\n        /* \"#utility.yul\":4206:4215   */\n      dup4\n        /* \"#utility.yul\":4202:4219   */\n      add\n        /* \"#utility.yul\":4193:4199   */\n      dup5\n        /* \"#utility.yul\":4149:4220   */\n      tag_357\n      jump\t// in\n    tag_455:\n        /* \"#utility.yul\":4005:4227   */\n      swap3\n      swap2\n      pop\n      pop\n      jump\t// out\n        /* \"#utility.yul\":4233:4852   */\n    tag_52:\n        /* \"#utility.yul\":4310:4316   */\n      0x00\n        /* \"#utility.yul\":4318:4324   */\n      dup1\n        /* \"#utility.yul\":4326:4332   */\n      0x00\n        /* \"#utility.yul\":4375:4377   */\n      0x60\n        /* \"#utility.yul\":4363:4372   */\n      dup5\n        /* \"#utility.yul\":4354:4361   */\n      dup7\n        /* \"#utility.yul\":4350:4373   */\n      sub\n        /* \"#utility.yul\":4346:4378   */\n      slt\n        /* \"#utility.yul\":4343:4462   */\n      iszero\n      tag_457\n      jumpi\n        /* \"#utility.yul\":4381:4460   */\n      tag_458\n      tag_344\n      jump\t// in\n    tag_458:\n        /* \"#utility.yul\":4343:4462   */\n    tag_457:\n        /* \"#utility.yul\":4501:4502   */\n      0x00\n        /* \"#utility.yul\":4526:4579   */\n      tag_459\n        /* \"#utility.yul\":4571:4578   */\n      dup7\n        /* \"#utility.yul\":4562:4568   */\n      dup3\n        /* \"#utility.yul\":4551:4560   */\n      dup8\n        /* \"#utility.yul\":4547:4569   */\n      add\n        /* \"#utility.yul\":4526:4579   */\n      tag_349\n      jump\t// in\n    tag_459:\n        /* \"#utility.yul\":4516:4579   */\n      swap4\n      pop\n        /* \"#utility.yul\":4472:4589   */\n      pop\n        /* \"#utility.yul\":4628:4630   */\n      0x20\n        /* \"#utility.yul\":4654:4707   */\n      tag_460\n        /* \"#utility.yul\":4699:4706   */\n      dup7\n        /* \"#utility.yul\":4690:4696   */\n      dup3\n        /* \"#utility.yul\":4679:4688   */\n      dup8\n        /* \"#utility.yul\":4675:4697   */\n      add\n        /* \"#utility.yul\":4654:4707   */\n      tag_349\n      jump\t// in\n    tag_460:\n        /* \"#utility.yul\":4644:4707   */\n      swap3\n      pop\n        /* \"#utility.yul\":4599:4717   */\n      pop\n        /* \"#utility.yul\":4756:4758   */\n      0x40\n        /* \"#utility.yul\":4782:4835   */\n      tag_461\n        /* \"#utility.yul\":4827:4834   */\n      dup7\n        /* \"#utility.yul\":4818:4824   */\n      dup3\n        /* \"#utility.yul\":4807:4816   */\n      dup8\n        /* \"#utility.yul\":4803:4825   */\n      add\n        /* \"#utility.yul\":4782:4835   */\n      tag_352\n      jump\t// in\n    tag_461:\n        /* \"#utility.yul\":4772:4835   */\n      swap2\n      pop\n        /* \"#utility.yul\":4727:4845   */\n      pop\n        /* \"#utility.yul\":4233:4852   */\n      swap3\n      pop\n      swap3\n      pop\n      swap3\n      jump\t// out\n        /* \"#utility.yul\":4858:4944   */\n    tag_358:\n        /* \"#utility.yul\":4893:4900   */\n      0x00\n        /* \"#utility.yul\":4933:4937   */\n      0xff\n        /* \"#utility.yul\":4926:4931   */\n      dup3\n        /* \"#utility.yul\":4922:4938   */\n      and\n        /* \"#utility.yul\":4911:4938   */\n      swap1\n      pop\n        /* \"#utility.yul\":4858:4944   */\n      swap2\n      swap1\n      pop\n      jump\t// out\n        /* \"#utility.yul\":4950:5062   */\n    tag_359:\n        /* \"#utility.yul\":5033:5055   */\n      tag_464\n        /* \"#utility.yul\":5049:5054   */\n      dup2\n        /* \"#utility.yul\":5033:5055   */\n      tag_358\n      jump\t// in\n    tag_464:\n        /* \"#utility.yul\":5028:5031   */\n      dup3\n        /* \"#utility.yul\":5021:5056   */\n      mstore\n        /* \"#utility.yul\":4950:5062   */\n      pop\n      pop\n      jump\t// out\n        /* \"#utility.yul\":5068:5282   */\n    tag_58:\n        /* \"#utility.yul\":5157:5161   */\n      0x00\n        /* \"#utility.yul\":5195:5197   */\n      0x20\n        /* \"#utility.yul\":5184:5193   */\n      dup3\n        /* \"#utility.yul\":5180:5198   */\n      add\n        /* \"#utility.yul\":5172:5198   */\n      swap1\n      pop\n        /* \"#utility.yul\":5208:5275   */\n      tag_466\n        /* \"#utility.yul\":5272:5273   */\n      0x00\n        /* \"#utility.yul\":5261:5270   */\n      dup4\n        /* \"#utility.yul\":5257:5274   */\n      add\n        /* \"#utility.yul\":5248:5254   */\n      dup5\n        /* \"#utility.yul\":5208:5275   */\n      tag_359\n      jump\t// in\n    tag_466:\n        /* \"#utility.yul\":5068:5282   */\n      swap3\n      swap2\n      pop\n      pop\n      jump\t// out\n        /* \"#utility.yul\":5288:5617   */\n    tag_68:\n        /* \"#utility.yul\":5347:5353   */\n      0x00\n        /* \"#utility.yul\":5396:5398   */\n      0x20\n        /* \"#utility.yul\":5384:5393   */\n      dup3\n        /* \"#utility.yul\":5375:5382   */\n      dup5\n        /* \"#utility.yul\":5371:5394   */\n      sub\n        /* \"#utility.yul\":5367:5399   */\n      slt\n        /* \"#utility.yul\":5364:5483   */\n      iszero\n      tag_468\n      jumpi\n        /* \"#utility.yul\":5402:5481   */\n      tag_469\n      tag_344\n      jump\t// in\n    tag_469:\n        /* \"#utility.yul\":5364:5483   */\n    tag_468:\n        /* \"#utility.yul\":5522:5523   */\n      0x00\n        /* \"#utility.yul\":5547:5600   */\n      tag_470\n        /* \"#utility.yul\":5592:5599   */\n      dup5\n        /* \"#utility.yul\":5583:5589   */\n      dup3\n        /* \"#utility.yul\":5572:5581   */\n      dup6\n        /* \"#utility.yul\":5568:5590   */\n      add\n        /* \"#utility.yul\":5547:5600   */\n      tag_349\n      jump\t// in\n    tag_470:\n        /* \"#utility.yul\":5537:5600   */\n      swap2\n      pop\n        /* \"#utility.yul\":5493:5610   */\n      pop\n        /* \"#utility.yul\":5288:5617   */\n      swap3\n      swap2\n      pop\n      pop\n      jump\t// out\n        /* \"#utility.yul\":5623:5741   */\n    tag_360:\n        /* \"#utility.yul\":5710:5734   */\n      tag_472\n        /* \"#utility.yul\":5728:5733   */\n      dup2\n        /* \"#utility.yul\":5710:5734   */\n      tag_347\n      jump\t// in\n    tag_472:\n        /* \"#utility.yul\":5705:5708   */\n      dup3\n        /* \"#utility.yul\":5698:5735   */\n      mstore\n        /* \"#utility.yul\":5623:5741   */\n      pop\n      pop\n      jump\t// out\n        /* \"#utility.yul\":5747:5969   */\n    tag_71:\n        /* \"#utility.yul\":5840:5844   */\n      0x00\n        /* \"#utility.yul\":5878:5880   */\n      0x20\n        /* \"#utility.yul\":5867:5876   */\n      dup3\n        /* \"#utility.yul\":5863:5881   */\n      add\n        /* \"#utility.yul\":5855:5881   */\n      swap1\n      pop\n        /* \"#utility.yul\":5891:5962   */\n      tag_474\n        /* \"#utility.yul\":5959:5960   */\n      0x00\n        /* \"#utility.yul\":5948:5957   */\n      dup4\n        /* \"#utility.yul\":5944:5961   */\n      add\n        /* \"#utility.yul\":5935:5941   */\n      dup5\n        /* \"#utility.yul\":5891:5962   */\n      tag_360\n      jump\t// in\n    tag_474:\n        /* \"#utility.yul\":5747:5969   */\n      swap3\n      swap2\n      pop\n      pop\n      jump\t// out\n        /* \"#utility.yul\":5975:6068   */\n    tag_361:\n        /* \"#utility.yul\":6011:6018   */\n      0x00\n        /* \"#utility.yul\":6051:6061   */\n      0xffffffff\n        /* \"#utility.yul\":6044:6049   */\n      dup3\n        /* \"#utility.yul\":6040:6062   */\n      and\n        /* \"#utility.yul\":6029:6062   */\n      swap1\n      pop\n        /* \"#utility.yul\":5975:6068   */\n      swap2\n      swap1\n      pop\n      jump\t// out\n        /* \"#utility.yul\":6074:6189   */\n    tag_362:\n        /* \"#utility.yul\":6159:6182   */\n      tag_477\n        /* \"#utility.yul\":6176:6181   */\n      dup2\n        /* \"#utility.yul\":6159:6182   */\n      tag_361\n      jump\t// in\n    tag_477:\n        /* \"#utility.yul\":6154:6157   */\n      dup3\n        /* \"#utility.yul\":6147:6183   */\n      mstore\n        /* \"#utility.yul\":6074:6189   */\n      pop\n      pop\n      jump\t// out\n        /* \"#utility.yul\":6195:6413   */\n    tag_79:\n        /* \"#utility.yul\":6286:6290   */\n      0x00\n        /* \"#utility.yul\":6324:6326   */\n      0x20\n        /* \"#utility.yul\":6313:6322   */\n      dup3\n        /* \"#utility.yul\":6309:6327   */\n      add\n        /* \"#utility.yul\":6301:6327   */\n      swap1\n      pop\n        /* \"#utility.yul\":6337:6406   */\n      tag_479\n        /* \"#utility.yul\":6403:6404   */\n      0x00\n        /* \"#utility.yul\":6392:6401   */\n      dup4\n        /* \"#utility.yul\":6388:6405   */\n      add\n        /* \"#utility.yul\":6379:6385   */\n      dup5\n        /* \"#utility.yul\":6337:6406   */\n      tag_362\n      jump\t// in\n    tag_479:\n        /* \"#utility.yul\":6195:6413   */\n      swap3\n      swap2\n      pop\n      pop\n      jump\t// out\n        /* \"#utility.yul\":6419:6537   */\n    tag_363:\n        /* \"#utility.yul\":6490:6512   */\n      tag_481\n        /* \"#utility.yul\":6506:6511   */\n      dup2\n        /* \"#utility.yul\":6490:6512   */\n      tag_358\n      jump\t// in\n    tag_481:\n        /* \"#utility.yul\":6483:6488   */\n      dup2\n        /* \"#utility.yul\":6480:6513   */\n      eq\n        /* \"#utility.yul\":6470:6531   */\n      tag_482\n      jumpi\n        /* \"#utility.yul\":6527:6528   */\n      0x00\n        /* \"#utility.yul\":6524:6525   */\n      dup1\n        /* \"#utility.yul\":6517:6529   */\n      revert\n        /* \"#utility.yul\":6470:6531   */\n    tag_482:\n        /* \"#utility.yul\":6419:6537   */\n      pop\n      jump\t// out\n        /* \"#utility.yul\":6543:6678   */\n    tag_364:\n        /* \"#utility.yul\":6587:6592   */\n      0x00\n        /* \"#utility.yul\":6625:6631   */\n      dup2\n        /* \"#utility.yul\":6612:6632   */\n      calldataload\n        /* \"#utility.yul\":6603:6632   */\n      swap1\n      pop\n        /* \"#utility.yul\":6641:6672   */\n      tag_484\n        /* \"#utility.yul\":6666:6671   */\n      dup2\n        /* \"#utility.yul\":6641:6672   */\n      tag_363\n      jump\t// in\n    tag_484:\n        /* \"#utility.yul\":6543:6678   */\n      swap3\n      swap2\n      pop\n      pop\n      jump\t// out\n        /* \"#utility.yul\":6684:6806   */\n    tag_365:\n        /* \"#utility.yul\":6757:6781   */\n      tag_486\n        /* \"#utility.yul\":6775:6780   */\n      dup2\n        /* \"#utility.yul\":6757:6781   */\n      tag_356\n      jump\t// in\n    tag_486:\n        /* \"#utility.yul\":6750:6755   */\n      dup2\n        /* \"#utility.yul\":6747:6782   */\n      eq\n        /* \"#utility.yul\":6737:6800   */\n      tag_487\n      jumpi\n        /* \"#utility.yul\":6796:6797   */\n      0x00\n        /* \"#utility.yul\":6793:6794   */\n      dup1\n        /* \"#utility.yul\":6786:6798   */\n      revert\n        /* \"#utility.yul\":6737:6800   */\n    tag_487:\n        /* \"#utility.yul\":6684:6806   */\n      pop\n      jump\t// out\n        /* \"#utility.yul\":6812:6951   */\n    tag_366:\n        /* \"#utility.yul\":6858:6863   */\n      0x00\n        /* \"#utility.yul\":6896:6902   */\n      dup2\n        /* \"#utility.yul\":6883:6903   */\n      calldataload\n        /* \"#utility.yul\":6874:6903   */\n      swap1\n      pop\n        /* \"#utility.yul\":6912:6945   */\n      tag_489\n        /* \"#utility.yul\":6939:6944   */\n      dup2\n        /* \"#utility.yul\":6912:6945   */\n      tag_365\n      jump\t// in\n    tag_489:\n        /* \"#utility.yul\":6812:6951   */\n      swap3\n      swap2\n      pop\n      pop\n      jump\t// out\n        /* \"#utility.yul\":6957:8010   */\n    tag_114:\n        /* \"#utility.yul\":7059:7065   */\n      0x00\n        /* \"#utility.yul\":7067:7073   */\n      dup1\n        /* \"#utility.yul\":7075:7081   */\n      0x00\n        /* \"#utility.yul\":7083:7089   */\n      dup1\n        /* \"#utility.yul\":7091:7097   */\n      0x00\n        /* \"#utility.yul\":7099:7105   */\n      dup1\n        /* \"#utility.yul\":7148:7151   */\n      0xc0\n        /* \"#utility.yul\":7136:7145   */\n      dup8\n        /* \"#utility.yul\":7127:7134   */\n      dup10\n        /* \"#utility.yul\":7123:7146   */\n      sub\n        /* \"#utility.yul\":7119:7152   */\n      slt\n        /* \"#utility.yul\":7116:7236   */\n      iszero\n      tag_491\n      jumpi\n        /* \"#utility.yul\":7155:7234   */\n      tag_492\n      tag_344\n      jump\t// in\n    tag_492:\n        /* \"#utility.yul\":7116:7236   */\n    tag_491:\n        /* \"#utility.yul\":7275:7276   */\n      0x00\n        /* \"#utility.yul\":7300:7353   */\n      tag_493\n        /* \"#utility.yul\":7345:7352   */\n      dup10\n        /* \"#utility.yul\":7336:7342   */\n      dup3\n        /* \"#utility.yul\":7325:7334   */\n      dup11\n        /* \"#utility.yul\":7321:7343   */\n      add\n        /* \"#utility.yul\":7300:7353   */\n      tag_349\n      jump\t// in\n    tag_493:\n        /* \"#utility.yul\":7290:7353   */\n      swap7\n      pop\n        /* \"#utility.yul\":7246:7363   */\n      pop\n        /* \"#utility.yul\":7402:7404   */\n      0x20\n        /* \"#utility.yul\":7428:7481   */\n      tag_494\n        /* \"#utility.yul\":7473:7480   */\n      dup10\n        /* \"#utility.yul\":7464:7470   */\n      dup3\n        /* \"#utility.yul\":7453:7462   */\n      dup11\n        /* \"#utility.yul\":7449:7471   */\n      add\n        /* \"#utility.yul\":7428:7481   */\n      tag_352\n      jump\t// in\n    tag_494:\n        /* \"#utility.yul\":7418:7481   */\n      swap6\n      pop\n        /* \"#utility.yul\":7373:7491   */\n      pop\n        /* \"#utility.yul\":7530:7532   */\n      0x40\n        /* \"#utility.yul\":7556:7609   */\n      tag_495\n        /* \"#utility.yul\":7601:7608   */\n      dup10\n        /* \"#utility.yul\":7592:7598   */\n      dup3\n        /* \"#utility.yul\":7581:7590   */\n      dup11\n        /* \"#utility.yul\":7577:7599   */\n      add\n        /* \"#utility.yul\":7556:7609   */\n      tag_352\n      jump\t// in\n    tag_495:\n        /* \"#utility.yul\":7546:7609   */\n      swap5\n      pop\n        /* \"#utility.yul\":7501:7619   */\n      pop\n        /* \"#utility.yul\":7658:7660   */\n      0x60\n        /* \"#utility.yul\":7684:7735   */\n      tag_496\n        /* \"#utility.yul\":7727:7734   */\n      dup10\n        /* \"#utility.yul\":7718:7724   */\n      dup3\n        /* \"#utility.yul\":7707:7716   */\n      dup11\n        /* \"#utility.yul\":7703:7725   */\n      add\n        /* \"#utility.yul\":7684:7735   */\n      tag_364\n      jump\t// in\n    tag_496:\n        /* \"#utility.yul\":7674:7735   */\n      swap4\n      pop\n        /* \"#utility.yul\":7629:7745   */\n      pop\n        /* \"#utility.yul\":7784:7787   */\n      0x80\n        /* \"#utility.yul\":7811:7864   */\n      tag_497\n        /* \"#utility.yul\":7856:7863   */\n      dup10\n        /* \"#utility.yul\":7847:7853   */\n      dup3\n        /* \"#utility.yul\":7836:7845   */\n      dup11\n        /* \"#utility.yul\":7832:7854   */\n      add\n        /* \"#utility.yul\":7811:7864   */\n      tag_366\n      jump\t// in\n    tag_497:\n        /* \"#utility.yul\":7801:7864   */\n      swap3\n      pop\n        /* \"#utility.yul\":7755:7874   */\n      pop\n        /* \"#utility.yul\":7913:7916   */\n      0xa0\n        /* \"#utility.yul\":7940:7993   */\n      tag_498\n        /* \"#utility.yul\":7985:7992   */\n      dup10\n        /* \"#utility.yul\":7976:7982   */\n      dup3\n        /* \"#utility.yul\":7965:7974   */\n      dup11\n        /* \"#utility.yul\":7961:7983   */\n      add\n        /* \"#utility.yul\":7940:7993   */\n      tag_366\n      jump\t// in\n    tag_498:\n        /* \"#utility.yul\":7930:7993   */\n      swap2\n      pop\n        /* \"#utility.yul\":7884:8003   */\n      pop\n        /* \"#utility.yul\":6957:8010   */\n      swap3\n      swap6\n      pop\n      swap3\n      swap6\n      pop\n      swap3\n      swap6\n      jump\t// out\n        /* \"#utility.yul\":8016:8490   */\n    tag_118:\n        /* \"#utility.yul\":8084:8090   */\n      0x00\n        /* \"#utility.yul\":8092:8098   */\n      dup1\n        /* \"#utility.yul\":8141:8143   */\n      0x40\n        /* \"#utility.yul\":8129:8138   */\n      dup4\n        /* \"#utility.yul\":8120:8127   */\n      dup6\n        /* \"#utility.yul\":8116:8139   */\n      sub\n        /* \"#utility.yul\":8112:8144   */\n      slt\n        /* \"#utility.yul\":8109:8228   */\n      iszero\n      tag_500\n      jumpi\n        /* \"#utility.yul\":8147:8226   */\n      tag_501\n      tag_344\n      jump\t// in\n    tag_501:\n        /* \"#utility.yul\":8109:8228   */\n    tag_500:\n        /* \"#utility.yul\":8267:8268   */\n      0x00\n        /* \"#utility.yul\":8292:8345   */\n      tag_502\n        /* \"#utility.yul\":8337:8344   */\n      dup6\n        /* \"#utility.yul\":8328:8334   */\n      dup3\n        /* \"#utility.yul\":8317:8326   */\n      dup7\n        /* \"#utility.yul\":8313:8335   */\n      add\n        /* \"#utility.yul\":8292:8345   */\n      tag_349\n      jump\t// in\n    tag_502:\n        /* \"#utility.yul\":8282:8345   */\n      swap3\n      pop\n        /* \"#utility.yul\":8238:8355   */\n      pop\n        /* \"#utility.yul\":8394:8396   */\n      0x20\n        /* \"#utility.yul\":8420:8473   */\n      tag_503\n        /* \"#utility.yul\":8465:8472   */\n      dup6\n        /* \"#utility.yul\":8456:8462   */\n      dup3\n        /* \"#utility.yul\":8445:8454   */\n      dup7\n        /* \"#utility.yul\":8441:8463   */\n      add\n        /* \"#utility.yul\":8420:8473   */\n      tag_349\n      jump\t// in\n    tag_503:\n        /* \"#utility.yul\":8410:8473   */\n      swap2\n      pop\n        /* \"#utility.yul\":8365:8483   */\n      pop\n        /* \"#utility.yul\":8016:8490   */\n      swap3\n      pop\n      swap3\n      swap1\n      pop\n      jump\t// out\n        /* \"#utility.yul\":8496:8616   */\n    tag_367:\n        /* \"#utility.yul\":8568:8591   */\n      tag_505\n        /* \"#utility.yul\":8585:8590   */\n      dup2\n        /* \"#utility.yul\":8568:8591   */\n      tag_361\n      jump\t// in\n    tag_505:\n        /* \"#utility.yul\":8561:8566   */\n      dup2\n        /* \"#utility.yul\":8558:8592   */\n      eq\n        /* \"#utility.yul\":8548:8610   */\n      tag_506\n      jumpi\n        /* \"#utility.yul\":8606:8607   */\n      0x00\n        /* \"#utility.yul\":8603:8604   */\n      dup1\n        /* \"#utility.yul\":8596:8608   */\n      revert\n        /* \"#utility.yul\":8548:8610   */\n    tag_506:\n        /* \"#utility.yul\":8496:8616   */\n      pop\n      jump\t// out\n        /* \"#utility.yul\":8622:8759   */\n    tag_368:\n        /* \"#utility.yul\":8667:8672   */\n      0x00\n        /* \"#utility.yul\":8705:8711   */\n      dup2\n        /* \"#utility.yul\":8692:8712   */\n      calldataload\n        /* \"#utility.yul\":8683:8712   */\n      swap1\n      pop\n        /* \"#utility.yul\":8721:8753   */\n      tag_508\n        /* \"#utility.yul\":8747:8752   */\n      dup2\n        /* \"#utility.yul\":8721:8753   */\n      tag_367\n      jump\t// in\n    tag_508:\n        /* \"#utility.yul\":8622:8759   */\n      swap3\n      swap2\n      pop\n      pop\n      jump\t// out\n        /* \"#utility.yul\":8765:9237   */\n    tag_126:\n        /* \"#utility.yul\":8832:8838   */\n      0x00\n        /* \"#utility.yul\":8840:8846   */\n      dup1\n        /* \"#utility.yul\":8889:8891   */\n      0x40\n        /* \"#utility.yul\":8877:8886   */\n      dup4\n        /* \"#utility.yul\":8868:8875   */\n      dup6\n        /* \"#utility.yul\":8864:8887   */\n      sub\n        /* \"#utility.yul\":8860:8892   */\n      slt\n        /* \"#utility.yul\":8857:8976   */\n      iszero\n      tag_510\n      jumpi\n        /* \"#utility.yul\":8895:8974   */\n      tag_511\n      tag_344\n      jump\t// in\n    tag_511:\n        /* \"#utility.yul\":8857:8976   */\n    tag_510:\n        /* \"#utility.yul\":9015:9016   */\n      0x00\n        /* \"#utility.yul\":9040:9093   */\n      tag_512\n        /* \"#utility.yul\":9085:9092   */\n      dup6\n        /* \"#utility.yul\":9076:9082   */\n      dup3\n        /* \"#utility.yul\":9065:9074   */\n      dup7\n        /* \"#utility.yul\":9061:9083   */\n      add\n        /* \"#utility.yul\":9040:9093   */\n      tag_349\n      jump\t// in\n    tag_512:\n        /* \"#utility.yul\":9030:9093   */\n      swap3\n      pop\n        /* \"#utility.yul\":8986:9103   */\n      pop\n        /* \"#utility.yul\":9142:9144   */\n      0x20\n        /* \"#utility.yul\":9168:9220   */\n      tag_513\n        /* \"#utility.yul\":9212:9219   */\n      dup6\n        /* \"#utility.yul\":9203:9209   */\n      dup3\n        /* \"#utility.yul\":9192:9201   */\n      dup7\n        /* \"#utility.yul\":9188:9210   */\n      add\n        /* \"#utility.yul\":9168:9220   */\n      tag_368\n      jump\t// in\n    tag_513:\n        /* \"#utility.yul\":9158:9220   */\n      swap2\n      pop\n        /* \"#utility.yul\":9113:9230   */\n      pop\n        /* \"#utility.yul\":8765:9237   */\n      swap3\n      pop\n      swap3\n      swap1\n      pop\n      jump\t// out\n        /* \"#utility.yul\":9243:9571   */\n    tag_129:\n        /* \"#utility.yul\":9362:9366   */\n      0x00\n        /* \"#utility.yul\":9400:9402   */\n      0x40\n        /* \"#utility.yul\":9389:9398   */\n      dup3\n        /* \"#utility.yul\":9385:9403   */\n      add\n        /* \"#utility.yul\":9377:9403   */\n      swap1\n      pop\n        /* \"#utility.yul\":9413:9482   */\n      tag_515\n        /* \"#utility.yul\":9479:9480   */\n      0x00\n        /* \"#utility.yul\":9468:9477   */\n      dup4\n        /* \"#utility.yul\":9464:9481   */\n      add\n        /* \"#utility.yul\":9455:9461   */\n      dup6\n        /* \"#utility.yul\":9413:9482   */\n      tag_362\n      jump\t// in\n    tag_515:\n        /* \"#utility.yul\":9492:9564   */\n      tag_516\n        /* \"#utility.yul\":9560:9562   */\n      0x20\n        /* \"#utility.yul\":9549:9558   */\n      dup4\n        /* \"#utility.yul\":9545:9563   */\n      add\n        /* \"#utility.yul\":9536:9542   */\n      dup5\n        /* \"#utility.yul\":9492:9564   */\n      tag_355\n      jump\t// in\n    tag_516:\n        /* \"#utility.yul\":9243:9571   */\n      swap4\n      swap3\n      pop\n      pop\n      pop\n      jump\t// out\n        /* \"#utility.yul\":9577:9757   */\n    tag_369:\n        /* \"#utility.yul\":9625:9702   */\n      0x4e487b7100000000000000000000000000000000000000000000000000000000\n        /* \"#utility.yul\":9622:9623   */\n      0x00\n        /* \"#utility.yul\":9615:9703   */\n      mstore\n        /* \"#utility.yul\":9722:9726   */\n      0x22\n        /* \"#utility.yul\":9719:9720   */\n      0x04\n        /* \"#utility.yul\":9712:9727   */\n      mstore\n        /* \"#utility.yul\":9746:9750   */\n      0x24\n        /* \"#utility.yul\":9743:9744   */\n      0x00\n        /* \"#utility.yul\":9736:9751   */\n      revert\n        /* \"#utility.yul\":9763:10083   */\n    tag_135:\n        /* \"#utility.yul\":9807:9813   */\n      0x00\n        /* \"#utility.yul\":9844:9845   */\n      0x02\n        /* \"#utility.yul\":9838:9842   */\n      dup3\n        /* \"#utility.yul\":9834:9846   */\n      div\n        /* \"#utility.yul\":9824:9846   */\n      swap1\n      pop\n        /* \"#utility.yul\":9891:9892   */\n      0x01\n        /* \"#utility.yul\":9885:9889   */\n      dup3\n        /* \"#utility.yul\":9881:9893   */\n      and\n        /* \"#utility.yul\":9912:9930   */\n      dup1\n        /* \"#utility.yul\":9902:9983   */\n      tag_519\n      jumpi\n        /* \"#utility.yul\":9968:9972   */\n      0x7f\n        /* \"#utility.yul\":9960:9966   */\n      dup3\n        /* \"#utility.yul\":9956:9973   */\n      and\n        /* \"#utility.yul\":9946:9973   */\n      swap2\n      pop\n        /* \"#utility.yul\":9902:9983   */\n    tag_519:\n        /* \"#utility.yul\":10030:10032   */\n      0x20\n        /* \"#utility.yul\":10022:10028   */\n      dup3\n        /* \"#utility.yul\":10019:10033   */\n      lt\n        /* \"#utility.yul\":9999:10017   */\n      dup2\n        /* \"#utility.yul\":9996:10034   */\n      sub\n        /* \"#utility.yul\":9993:10077   */\n      tag_520\n      jumpi\n        /* \"#utility.yul\":10049:10067   */\n      tag_521\n      tag_369\n      jump\t// in\n    tag_521:\n        /* \"#utility.yul\":9993:10077   */\n    tag_520:\n        /* \"#utility.yul\":9814:10083   */\n      pop\n        /* \"#utility.yul\":9763:10083   */\n      swap2\n      swap1\n      pop\n      jump\t// out\n        /* \"#utility.yul\":10089:10269   */\n    tag_370:\n        /* \"#utility.yul\":10137:10214   */\n      0x4e487b7100000000000000000000000000000000000000000000000000000000\n        /* \"#utility.yul\":10134:10135   */\n      0x00\n        /* \"#utility.yul\":10127:10215   */\n      mstore\n        /* \"#utility.yul\":10234:10238   */\n      0x11\n        /* \"#utility.yul\":10231:10232   */\n      0x04\n        /* \"#utility.yul\":10224:10239   */\n      mstore\n        /* \"#utility.yul\":10258:10262   */\n      0x24\n        /* \"#utility.yul\":10255:10256   */\n      0x00\n        /* \"#utility.yul\":10248:10263   */\n      revert\n        /* \"#utility.yul\":10275:10466   */\n    tag_158:\n        /* \"#utility.yul\":10315:10318   */\n      0x00\n        /* \"#utility.yul\":10334:10354   */\n      tag_524\n        /* \"#utility.yul\":10352:10353   */\n      dup3\n        /* \"#utility.yul\":10334:10354   */\n      tag_350\n      jump\t// in\n    tag_524:\n        /* \"#utility.yul\":10329:10354   */\n      swap2\n      pop\n        /* \"#utility.yul\":10368:10388   */\n      tag_525\n        /* \"#utility.yul\":10386:10387   */\n      dup4\n        /* \"#utility.yul\":10368:10388   */\n      tag_350\n      jump\t// in\n    tag_525:\n        /* \"#utility.yul\":10363:10388   */\n      swap3\n      pop\n        /* \"#utility.yul\":10411:10412   */\n      dup3\n        /* \"#utility.yul\":10408:10409   */\n      dup3\n        /* \"#utility.yul\":10404:10413   */\n      add\n        /* \"#utility.yul\":10397:10413   */\n      swap1\n      pop\n        /* \"#utility.yul\":10432:10435   */\n      dup1\n        /* \"#utility.yul\":10429:10430   */\n      dup3\n        /* \"#utility.yul\":10426:10436   */\n      gt\n        /* \"#utility.yul\":10423:10459   */\n      iszero\n      tag_526\n      jumpi\n        /* \"#utility.yul\":10439:10457   */\n      tag_527\n      tag_370\n      jump\t// in\n    tag_527:\n        /* \"#utility.yul\":10423:10459   */\n    tag_526:\n        /* \"#utility.yul\":10275:10466   */\n      swap3\n      swap2\n      pop\n      pop\n      jump\t// out\n        /* \"#utility.yul\":10472:10699   */\n    tag_371:\n        /* \"#utility.yul\":10612:10646   */\n      0x53555348493a3a6765745072696f72566f7465733a206e6f7420796574206465\n        /* \"#utility.yul\":10608:10609   */\n      0x00\n        /* \"#utility.yul\":10600:10606   */\n      dup3\n        /* \"#utility.yul\":10596:10610   */\n      add\n        /* \"#utility.yul\":10589:10647   */\n      mstore\n        /* \"#utility.yul\":10681:10691   */\n      0x7465726d696e6564000000000000000000000000000000000000000000000000\n        /* \"#utility.yul\":10676:10678   */\n      0x20\n        /* \"#utility.yul\":10668:10674   */\n      dup3\n        /* \"#utility.yul\":10664:10679   */\n      add\n        /* \"#utility.yul\":10657:10692   */\n      mstore\n        /* \"#utility.yul\":10472:10699   */\n      pop\n      jump\t// out\n        /* \"#utility.yul\":10705:11071   */\n    tag_372:\n        /* \"#utility.yul\":10847:10850   */\n      0x00\n        /* \"#utility.yul\":10868:10935   */\n      tag_530\n        /* \"#utility.yul\":10932:10934   */\n      0x28\n        /* \"#utility.yul\":10927:10930   */\n      dup4\n        /* \"#utility.yul\":10868:10935   */\n      tag_339\n      jump\t// in\n    tag_530:\n        /* \"#utility.yul\":10861:10935   */\n      swap2\n      pop\n        /* \"#utility.yul\":10944:11037   */\n      tag_531\n        /* \"#utility.yul\":11033:11036   */\n      dup3\n        /* \"#utility.yul\":10944:11037   */\n      tag_371\n      jump\t// in\n    tag_531:\n        /* \"#utility.yul\":11062:11064   */\n      0x40\n        /* \"#utility.yul\":11057:11060   */\n      dup3\n        /* \"#utility.yul\":11053:11065   */\n      add\n        /* \"#utility.yul\":11046:11065   */\n      swap1\n      pop\n        /* \"#utility.yul\":10705:11071   */\n      swap2\n      swap1\n      pop\n      jump\t// out\n        /* \"#utility.yul\":11077:11496   */\n    tag_180:\n        /* \"#utility.yul\":11243:11247   */\n      0x00\n        /* \"#utility.yul\":11281:11283   */\n      0x20\n        /* \"#utility.yul\":11270:11279   */\n      dup3\n        /* \"#utility.yul\":11266:11284   */\n      add\n        /* \"#utility.yul\":11258:11284   */\n      swap1\n      pop\n        /* \"#utility.yul\":11330:11339   */\n      dup2\n        /* \"#utility.yul\":11324:11328   */\n      dup2\n        /* \"#utility.yul\":11320:11340   */\n      sub\n        /* \"#utility.yul\":11316:11317   */\n      0x00\n        /* \"#utility.yul\":11305:11314   */\n      dup4\n        /* \"#utility.yul\":11301:11318   */\n      add\n        /* \"#utility.yul\":11294:11341   */\n      mstore\n        /* \"#utility.yul\":11358:11489   */\n      tag_533\n        /* \"#utility.yul\":11484:11488   */\n      dup2\n        /* \"#utility.yul\":11358:11489   */\n      tag_372\n      jump\t// in\n    tag_533:\n        /* \"#utility.yul\":11350:11489   */\n      swap1\n      pop\n        /* \"#utility.yul\":11077:11496   */\n      swap2\n      swap1\n      pop\n      jump\t// out\n        /* \"#utility.yul\":11502:11702   */\n    tag_183:\n        /* \"#utility.yul\":11541:11545   */\n      0x00\n        /* \"#utility.yul\":11561:11580   */\n      tag_535\n        /* \"#utility.yul\":11578:11579   */\n      dup3\n        /* \"#utility.yul\":11561:11580   */\n      tag_361\n      jump\t// in\n    tag_535:\n        /* \"#utility.yul\":11556:11580   */\n      swap2\n      pop\n        /* \"#utility.yul\":11594:11613   */\n      tag_536\n        /* \"#utility.yul\":11611:11612   */\n      dup4\n        /* \"#utility.yul\":11594:11613   */\n      tag_361\n      jump\t// in\n    tag_536:\n        /* \"#utility.yul\":11589:11613   */\n      swap3\n      pop\n        /* \"#utility.yul\":11637:11638   */\n      dup3\n        /* \"#utility.yul\":11634:11635   */\n      dup3\n        /* \"#utility.yul\":11630:11639   */\n      sub\n        /* \"#utility.yul\":11622:11639   */\n      swap1\n      pop\n        /* \"#utility.yul\":11661:11671   */\n      0xffffffff\n        /* \"#utility.yul\":11655:11659   */\n      dup2\n        /* \"#utility.yul\":11652:11672   */\n      gt\n        /* \"#utility.yul\":11649:11695   */\n      iszero\n      tag_537\n      jumpi\n        /* \"#utility.yul\":11675:11693   */\n      tag_538\n      tag_370\n      jump\t// in\n    tag_538:\n        /* \"#utility.yul\":11649:11695   */\n    tag_537:\n        /* \"#utility.yul\":11502:11702   */\n      swap3\n      swap2\n      pop\n      pop\n      jump\t// out\n        /* \"#utility.yul\":11708:11888   */\n    tag_373:\n        /* \"#utility.yul\":11756:11833   */\n      0x4e487b7100000000000000000000000000000000000000000000000000000000\n        /* \"#utility.yul\":11753:11754   */\n      0x00\n        /* \"#utility.yul\":11746:11834   */\n      mstore\n        /* \"#utility.yul\":11853:11857   */\n      0x12\n        /* \"#utility.yul\":11850:11851   */\n      0x04\n        /* \"#utility.yul\":11843:11858   */\n      mstore\n        /* \"#utility.yul\":11877:11881   */\n      0x24\n        /* \"#utility.yul\":11874:11875   */\n      0x00\n        /* \"#utility.yul\":11867:11882   */\n      revert\n        /* \"#utility.yul\":11894:12076   */\n    tag_192:\n        /* \"#utility.yul\":11933:11934   */\n      0x00\n        /* \"#utility.yul\":11950:11969   */\n      tag_541\n        /* \"#utility.yul\":11967:11968   */\n      dup3\n        /* \"#utility.yul\":11950:11969   */\n      tag_361\n      jump\t// in\n    tag_541:\n        /* \"#utility.yul\":11945:11969   */\n      swap2\n      pop\n        /* \"#utility.yul\":11983:12002   */\n      tag_542\n        /* \"#utility.yul\":12000:12001   */\n      dup4\n        /* \"#utility.yul\":11983:12002   */\n      tag_361\n      jump\t// in\n    tag_542:\n        /* \"#utility.yul\":11978:12002   */\n      swap3\n      pop\n        /* \"#utility.yul\":12021:12022   */\n      dup3\n        /* \"#utility.yul\":12011:12046   */\n      tag_543\n      jumpi\n        /* \"#utility.yul\":12026:12044   */\n      tag_544\n      tag_373\n      jump\t// in\n    tag_544:\n        /* \"#utility.yul\":12011:12046   */\n    tag_543:\n        /* \"#utility.yul\":12068:12069   */\n      dup3\n        /* \"#utility.yul\":12065:12066   */\n      dup3\n        /* \"#utility.yul\":12061:12070   */\n      div\n        /* \"#utility.yul\":12056:12070   */\n      swap1\n      pop\n        /* \"#utility.yul\":11894:12076   */\n      swap3\n      swap2\n      pop\n      pop\n      jump\t// out\n        /* \"#utility.yul\":12082:12306   */\n    tag_374:\n        /* \"#utility.yul\":12222:12256   */\n      0x45524332303a2064656372656173656420616c6c6f77616e63652062656c6f77\n        /* \"#utility.yul\":12218:12219   */\n      0x00\n        /* \"#utility.yul\":12210:12216   */\n      dup3\n        /* \"#utility.yul\":12206:12220   */\n      add\n        /* \"#utility.yul\":12199:12257   */\n      mstore\n        /* \"#utility.yul\":12291:12298   */\n      0x207a65726f000000000000000000000000000000000000000000000000000000\n        /* \"#utility.yul\":12286:12288   */\n      0x20\n        /* \"#utility.yul\":12278:12284   */\n      dup3\n        /* \"#utility.yul\":12274:12289   */\n      add\n        /* \"#utility.yul\":12267:12299   */\n      mstore\n        /* \"#utility.yul\":12082:12306   */\n      pop\n      jump\t// out\n        /* \"#utility.yul\":12312:12678   */\n    tag_375:\n        /* \"#utility.yul\":12454:12457   */\n      0x00\n        /* \"#utility.yul\":12475:12542   */\n      tag_547\n        /* \"#utility.yul\":12539:12541   */\n      0x25\n        /* \"#utility.yul\":12534:12537   */\n      dup4\n        /* \"#utility.yul\":12475:12542   */\n      tag_339\n      jump\t// in\n    tag_547:\n        /* \"#utility.yul\":12468:12542   */\n      swap2\n      pop\n        /* \"#utility.yul\":12551:12644   */\n      tag_548\n        /* \"#utility.yul\":12640:12643   */\n      dup3\n        /* \"#utility.yul\":12551:12644   */\n      tag_374\n      jump\t// in\n    tag_548:\n        /* \"#utility.yul\":12669:12671   */\n      0x40\n        /* \"#utility.yul\":12664:12667   */\n      dup3\n        /* \"#utility.yul\":12660:12672   */\n      add\n        /* \"#utility.yul\":12653:12672   */\n      swap1\n      pop\n        /* \"#utility.yul\":12312:12678   */\n      swap2\n      swap1\n      pop\n      jump\t// out\n        /* \"#utility.yul\":12684:13103   */\n    tag_211:\n        /* \"#utility.yul\":12850:12854   */\n      0x00\n        /* \"#utility.yul\":12888:12890   */\n      0x20\n        /* \"#utility.yul\":12877:12886   */\n      dup3\n        /* \"#utility.yul\":12873:12891   */\n      add\n        /* \"#utility.yul\":12865:12891   */\n      swap1\n      pop\n        /* \"#utility.yul\":12937:12946   */\n      dup2\n        /* \"#utility.yul\":12931:12935   */\n      dup2\n        /* \"#utility.yul\":12927:12947   */\n      sub\n        /* \"#utility.yul\":12923:12924   */\n      0x00\n        /* \"#utility.yul\":12912:12921   */\n      dup4\n        /* \"#utility.yul\":12908:12925   */\n      add\n        /* \"#utility.yul\":12901:12948   */\n      mstore\n        /* \"#utility.yul\":12965:13096   */\n      tag_550\n        /* \"#utility.yul\":13091:13095   */\n      dup2\n        /* \"#utility.yul\":12965:13096   */\n      tag_375\n      jump\t// in\n    tag_550:\n        /* \"#utility.yul\":12957:13096   */\n      swap1\n      pop\n        /* \"#utility.yul\":12684:13103   */\n      swap2\n      swap1\n      pop\n      jump\t// out\n        /* \"#utility.yul\":13109:13662   */\n    tag_225:\n        /* \"#utility.yul\":13286:13290   */\n      0x00\n        /* \"#utility.yul\":13324:13327   */\n      0x80\n        /* \"#utility.yul\":13313:13322   */\n      dup3\n        /* \"#utility.yul\":13309:13328   */\n      add\n        /* \"#utility.yul\":13301:13328   */\n      swap1\n      pop\n        /* \"#utility.yul\":13338:13409   */\n      tag_552\n        /* \"#utility.yul\":13406:13407   */\n      0x00\n        /* \"#utility.yul\":13395:13404   */\n      dup4\n        /* \"#utility.yul\":13391:13408   */\n      add\n        /* \"#utility.yul\":13382:13388   */\n      dup8\n        /* \"#utility.yul\":13338:13409   */\n      tag_357\n      jump\t// in\n    tag_552:\n        /* \"#utility.yul\":13419:13491   */\n      tag_553\n        /* \"#utility.yul\":13487:13489   */\n      0x20\n        /* \"#utility.yul\":13476:13485   */\n      dup4\n        /* \"#utility.yul\":13472:13490   */\n      add\n        /* \"#utility.yul\":13463:13469   */\n      dup7\n        /* \"#utility.yul\":13419:13491   */\n      tag_357\n      jump\t// in\n    tag_553:\n        /* \"#utility.yul\":13501:13573   */\n      tag_554\n        /* \"#utility.yul\":13569:13571   */\n      0x40\n        /* \"#utility.yul\":13558:13567   */\n      dup4\n        /* \"#utility.yul\":13554:13572   */\n      add\n        /* \"#utility.yul\":13545:13551   */\n      dup6\n        /* \"#utility.yul\":13501:13573   */\n      tag_355\n      jump\t// in\n    tag_554:\n        /* \"#utility.yul\":13583:13655   */\n      tag_555\n        /* \"#utility.yul\":13651:13653   */\n      0x60\n        /* \"#utility.yul\":13640:13649   */\n      dup4\n        /* \"#utility.yul\":13636:13654   */\n      add\n        /* \"#utility.yul\":13627:13633   */\n      dup5\n        /* \"#utility.yul\":13583:13655   */\n      tag_360\n      jump\t// in\n    tag_555:\n        /* \"#utility.yul\":13109:13662   */\n      swap6\n      swap5\n      pop\n      pop\n      pop\n      pop\n      pop\n      jump\t// out\n        /* \"#utility.yul\":13668:14221   */\n    tag_227:\n        /* \"#utility.yul\":13845:13849   */\n      0x00\n        /* \"#utility.yul\":13883:13886   */\n      0x80\n        /* \"#utility.yul\":13872:13881   */\n      dup3\n        /* \"#utility.yul\":13868:13887   */\n      add\n        /* \"#utility.yul\":13860:13887   */\n      swap1\n      pop\n        /* \"#utility.yul\":13897:13968   */\n      tag_557\n        /* \"#utility.yul\":13965:13966   */\n      0x00\n        /* \"#utility.yul\":13954:13963   */\n      dup4\n        /* \"#utility.yul\":13950:13967   */\n      add\n        /* \"#utility.yul\":13941:13947   */\n      dup8\n        /* \"#utility.yul\":13897:13968   */\n      tag_357\n      jump\t// in\n    tag_557:\n        /* \"#utility.yul\":13978:14050   */\n      tag_558\n        /* \"#utility.yul\":14046:14048   */\n      0x20\n        /* \"#utility.yul\":14035:14044   */\n      dup4\n        /* \"#utility.yul\":14031:14049   */\n      add\n        /* \"#utility.yul\":14022:14028   */\n      dup7\n        /* \"#utility.yul\":13978:14050   */\n      tag_360\n      jump\t// in\n    tag_558:\n        /* \"#utility.yul\":14060:14132   */\n      tag_559\n        /* \"#utility.yul\":14128:14130   */\n      0x40\n        /* \"#utility.yul\":14117:14126   */\n      dup4\n        /* \"#utility.yul\":14113:14131   */\n      add\n        /* \"#utility.yul\":14104:14110   */\n      dup6\n        /* \"#utility.yul\":14060:14132   */\n      tag_355\n      jump\t// in\n    tag_559:\n        /* \"#utility.yul\":14142:14214   */\n      tag_560\n        /* \"#utility.yul\":14210:14212   */\n      0x60\n        /* \"#utility.yul\":14199:14208   */\n      dup4\n        /* \"#utility.yul\":14195:14213   */\n      add\n        /* \"#utility.yul\":14186:14192   */\n      dup5\n        /* \"#utility.yul\":14142:14214   */\n      tag_355\n      jump\t// in\n    tag_560:\n        /* \"#utility.yul\":13668:14221   */\n      swap6\n      swap5\n      pop\n      pop\n      pop\n      pop\n      pop\n      jump\t// out\n        /* \"#utility.yul\":14227:14375   */\n    tag_376:\n        /* \"#utility.yul\":14329:14340   */\n      0x00\n        /* \"#utility.yul\":14366:14369   */\n      dup2\n        /* \"#utility.yul\":14351:14369   */\n      swap1\n      pop\n        /* \"#utility.yul\":14227:14375   */\n      swap3\n      swap2\n      pop\n      pop\n      jump\t// out\n        /* \"#utility.yul\":14381:14595   */\n    tag_377:\n        /* \"#utility.yul\":14521:14587   */\n      0x1901000000000000000000000000000000000000000000000000000000000000\n        /* \"#utility.yul\":14517:14518   */\n      0x00\n        /* \"#utility.yul\":14509:14515   */\n      dup3\n        /* \"#utility.yul\":14505:14519   */\n      add\n        /* \"#utility.yul\":14498:14588   */\n      mstore\n        /* \"#utility.yul\":14381:14595   */\n      pop\n      jump\t// out\n        /* \"#utility.yul\":14601:15001   */\n    tag_378:\n        /* \"#utility.yul\":14761:14764   */\n      0x00\n        /* \"#utility.yul\":14782:14866   */\n      tag_564\n        /* \"#utility.yul\":14864:14865   */\n      0x02\n        /* \"#utility.yul\":14859:14862   */\n      dup4\n        /* \"#utility.yul\":14782:14866   */\n      tag_376\n      jump\t// in\n    tag_564:\n        /* \"#utility.yul\":14775:14866   */\n      swap2\n      pop\n        /* \"#utility.yul\":14875:14968   */\n      tag_565\n        /* \"#utility.yul\":14964:14967   */\n      dup3\n        /* \"#utility.yul\":14875:14968   */\n      tag_377\n      jump\t// in\n    tag_565:\n        /* \"#utility.yul\":14993:14994   */\n      0x02\n        /* \"#utility.yul\":14988:14991   */\n      dup3\n        /* \"#utility.yul\":14984:14995   */\n      add\n        /* \"#utility.yul\":14977:14995   */\n      swap1\n      pop\n        /* \"#utility.yul\":14601:15001   */\n      swap2\n      swap1\n      pop\n      jump\t// out\n        /* \"#utility.yul\":15007:15086   */\n    tag_379:\n        /* \"#utility.yul\":15046:15053   */\n      0x00\n        /* \"#utility.yul\":15075:15080   */\n      dup2\n        /* \"#utility.yul\":15064:15080   */\n      swap1\n      pop\n        /* \"#utility.yul\":15007:15086   */\n      swap2\n      swap1\n      pop\n      jump\t// out\n        /* \"#utility.yul\":15092:15249   */\n    tag_380:\n        /* \"#utility.yul\":15197:15242   */\n      tag_568\n        /* \"#utility.yul\":15217:15241   */\n      tag_569\n        /* \"#utility.yul\":15235:15240   */\n      dup3\n        /* \"#utility.yul\":15217:15241   */\n      tag_356\n      jump\t// in\n    tag_569:\n        /* \"#utility.yul\":15197:15242   */\n      tag_379\n      jump\t// in\n    tag_568:\n        /* \"#utility.yul\":15192:15195   */\n      dup3\n        /* \"#utility.yul\":15185:15243   */\n      mstore\n        /* \"#utility.yul\":15092:15249   */\n      pop\n      pop\n      jump\t// out\n        /* \"#utility.yul\":15255:15918   */\n    tag_229:\n        /* \"#utility.yul\":15496:15499   */\n      0x00\n        /* \"#utility.yul\":15518:15666   */\n      tag_571\n        /* \"#utility.yul\":15662:15665   */\n      dup3\n        /* \"#utility.yul\":15518:15666   */\n      tag_378\n      jump\t// in\n    tag_571:\n        /* \"#utility.yul\":15511:15666   */\n      swap2\n      pop\n        /* \"#utility.yul\":15676:15751   */\n      tag_572\n        /* \"#utility.yul\":15747:15750   */\n      dup3\n        /* \"#utility.yul\":15738:15744   */\n      dup6\n        /* \"#utility.yul\":15676:15751   */\n      tag_380\n      jump\t// in\n    tag_572:\n        /* \"#utility.yul\":15776:15778   */\n      0x20\n        /* \"#utility.yul\":15771:15774   */\n      dup3\n        /* \"#utility.yul\":15767:15779   */\n      add\n        /* \"#utility.yul\":15760:15779   */\n      swap2\n      pop\n        /* \"#utility.yul\":15789:15864   */\n      tag_573\n        /* \"#utility.yul\":15860:15863   */\n      dup3\n        /* \"#utility.yul\":15851:15857   */\n      dup5\n        /* \"#utility.yul\":15789:15864   */\n      tag_380\n      jump\t// in\n    tag_573:\n        /* \"#utility.yul\":15889:15891   */\n      0x20\n        /* \"#utility.yul\":15884:15887   */\n      dup3\n        /* \"#utility.yul\":15880:15892   */\n      add\n        /* \"#utility.yul\":15873:15892   */\n      swap2\n      pop\n        /* \"#utility.yul\":15909:15912   */\n      dup2\n        /* \"#utility.yul\":15902:15912   */\n      swap1\n      pop\n        /* \"#utility.yul\":15255:15918   */\n      swap4\n      swap3\n      pop\n      pop\n      pop\n      jump\t// out\n        /* \"#utility.yul\":15924:16469   */\n    tag_231:\n        /* \"#utility.yul\":16097:16101   */\n      0x00\n        /* \"#utility.yul\":16135:16138   */\n      0x80\n        /* \"#utility.yul\":16124:16133   */\n      dup3\n        /* \"#utility.yul\":16120:16139   */\n      add\n        /* \"#utility.yul\":16112:16139   */\n      swap1\n      pop\n        /* \"#utility.yul\":16149:16220   */\n      tag_575\n        /* \"#utility.yul\":16217:16218   */\n      0x00\n        /* \"#utility.yul\":16206:16215   */\n      dup4\n        /* \"#utility.yul\":16202:16219   */\n      add\n        /* \"#utility.yul\":16193:16199   */\n      dup8\n        /* \"#utility.yul\":16149:16220   */\n      tag_357\n      jump\t// in\n    tag_575:\n        /* \"#utility.yul\":16230:16298   */\n      tag_576\n        /* \"#utility.yul\":16294:16296   */\n      0x20\n        /* \"#utility.yul\":16283:16292   */\n      dup4\n        /* \"#utility.yul\":16279:16297   */\n      add\n        /* \"#utility.yul\":16270:16276   */\n      dup7\n        /* \"#utility.yul\":16230:16298   */\n      tag_359\n      jump\t// in\n    tag_576:\n        /* \"#utility.yul\":16308:16380   */\n      tag_577\n        /* \"#utility.yul\":16376:16378   */\n      0x40\n        /* \"#utility.yul\":16365:16374   */\n      dup4\n        /* \"#utility.yul\":16361:16379   */\n      add\n        /* \"#utility.yul\":16352:16358   */\n      dup6\n        /* \"#utility.yul\":16308:16380   */\n      tag_357\n      jump\t// in\n    tag_577:\n        /* \"#utility.yul\":16390:16462   */\n      tag_578\n        /* \"#utility.yul\":16458:16460   */\n      0x60\n        /* \"#utility.yul\":16447:16456   */\n      dup4\n        /* \"#utility.yul\":16443:16461   */\n      add\n        /* \"#utility.yul\":16434:16440   */\n      dup5\n        /* \"#utility.yul\":16390:16462   */\n      tag_357\n      jump\t// in\n    tag_578:\n        /* \"#utility.yul\":15924:16469   */\n      swap6\n      swap5\n      pop\n      pop\n      pop\n      pop\n      pop\n      jump\t// out\n        /* \"#utility.yul\":16475:16701   */\n    tag_381:\n        /* \"#utility.yul\":16615:16649   */\n      0x53555348493a3a64656c656761746542795369673a20696e76616c6964207369\n        /* \"#utility.yul\":16611:16612   */\n      0x00\n        /* \"#utility.yul\":16603:16609   */\n      dup3\n        /* \"#utility.yul\":16599:16613   */\n      add\n        /* \"#utility.yul\":16592:16650   */\n      mstore\n        /* \"#utility.yul\":16684:16693   */\n      0x676e617475726500000000000000000000000000000000000000000000000000\n        /* \"#utility.yul\":16679:16681   */\n      0x20\n        /* \"#utility.yul\":16671:16677   */\n      dup3\n        /* \"#utility.yul\":16667:16682   */\n      add\n        /* \"#utility.yul\":16660:16694   */\n      mstore\n        /* \"#utility.yul\":16475:16701   */\n      pop\n      jump\t// out\n        /* \"#utility.yul\":16707:17073   */\n    tag_382:\n        /* \"#utility.yul\":16849:16852   */\n      0x00\n        /* \"#utility.yul\":16870:16937   */\n      tag_581\n        /* \"#utility.yul\":16934:16936   */\n      0x27\n        /* \"#utility.yul\":16929:16932   */\n      dup4\n        /* \"#utility.yul\":16870:16937   */\n      tag_339\n      jump\t// in\n    tag_581:\n        /* \"#utility.yul\":16863:16937   */\n      swap2\n      pop\n        /* \"#utility.yul\":16946:17039   */\n      tag_582\n        /* \"#utility.yul\":17035:17038   */\n      dup3\n        /* \"#utility.yul\":16946:17039   */\n      tag_381\n      jump\t// in\n    tag_582:\n        /* \"#utility.yul\":17064:17066   */\n      0x40\n        /* \"#utility.yul\":17059:17062   */\n      dup3\n        /* \"#utility.yul\":17055:17067   */\n      add\n        /* \"#utility.yul\":17048:17067   */\n      swap1\n      pop\n        /* \"#utility.yul\":16707:17073   */\n      swap2\n      swap1\n      pop\n      jump\t// out\n        /* \"#utility.yul\":17079:17498   */\n    tag_236:\n        /* \"#utility.yul\":17245:17249   */\n      0x00\n        /* \"#utility.yul\":17283:17285   */\n      0x20\n        /* \"#utility.yul\":17272:17281   */\n      dup3\n        /* \"#utility.yul\":17268:17286   */\n      add\n        /* \"#utility.yul\":17260:17286   */\n      swap1\n      pop\n        /* \"#utility.yul\":17332:17341   */\n      dup2\n        /* \"#utility.yul\":17326:17330   */\n      dup2\n        /* \"#utility.yul\":17322:17342   */\n      sub\n        /* \"#utility.yul\":17318:17319   */\n      0x00\n        /* \"#utility.yul\":17307:17316   */\n      dup4\n        /* \"#utility.yul\":17303:17320   */\n      add\n        /* \"#utility.yul\":17296:17343   */\n      mstore\n        /* \"#utility.yul\":17360:17491   */\n      tag_584\n        /* \"#utility.yul\":17486:17490   */\n      dup2\n        /* \"#utility.yul\":17360:17491   */\n      tag_382\n      jump\t// in\n    tag_584:\n        /* \"#utility.yul\":17352:17491   */\n      swap1\n      pop\n        /* \"#utility.yul\":17079:17498   */\n      swap2\n      swap1\n      pop\n      jump\t// out\n        /* \"#utility.yul\":17504:17737   */\n    tag_238:\n        /* \"#utility.yul\":17543:17546   */\n      0x00\n        /* \"#utility.yul\":17566:17590   */\n      tag_586\n        /* \"#utility.yul\":17584:17589   */\n      dup3\n        /* \"#utility.yul\":17566:17590   */\n      tag_350\n      jump\t// in\n    tag_586:\n        /* \"#utility.yul\":17557:17590   */\n      swap2\n      pop\n        /* \"#utility.yul\":17612:17678   */\n      0xffffffffffffffffffffffffffffffffffffffffffffffffffffffffffffffff\n        /* \"#utility.yul\":17605:17610   */\n      dup3\n        /* \"#utility.yul\":17602:17679   */\n      sub\n        /* \"#utility.yul\":17599:17702   */\n      tag_587\n      jumpi\n        /* \"#utility.yul\":17682:17700   */\n      tag_588\n      tag_370\n      jump\t// in\n    tag_588:\n        /* \"#utility.yul\":17599:17702   */\n    tag_587:\n        /* \"#utility.yul\":17729:17730   */\n      0x01\n        /* \"#utility.yul\":17722:17727   */\n      dup3\n        /* \"#utility.yul\":17718:17731   */\n      add\n        /* \"#utility.yul\":17711:17731   */\n      swap1\n      pop\n        /* \"#utility.yul\":17504:17737   */\n      swap2\n      swap1\n      pop\n      jump\t// out\n        /* \"#utility.yul\":17743:17965   */\n    tag_383:\n        /* \"#utility.yul\":17883:17917   */\n      0x53555348493a3a64656c656761746542795369673a20696e76616c6964206e6f\n        /* \"#utility.yul\":17879:17880   */\n      0x00\n        /* \"#utility.yul\":17871:17877   */\n      dup3\n        /* \"#utility.yul\":17867:17881   */\n      add\n        /* \"#utility.yul\":17860:17918   */\n      mstore\n        /* \"#utility.yul\":17952:17957   */\n      0x6e63650000000000000000000000000000000000000000000000000000000000\n        /* \"#utility.yul\":17947:17949   */\n      0x20\n        /* \"#utility.yul\":17939:17945   */\n      dup3\n        /* \"#utility.yul\":17935:17950   */\n      add\n        /* \"#utility.yul\":17928:17958   */\n      mstore\n        /* \"#utility.yul\":17743:17965   */\n      pop\n      jump\t// out\n        /* \"#utility.yul\":17971:18337   */\n    tag_384:\n        /* \"#utility.yul\":18113:18116   */\n      0x00\n        /* \"#utility.yul\":18134:18201   */\n      tag_591\n        /* \"#utility.yul\":18198:18200   */\n      0x23\n        /* \"#utility.yul\":18193:18196   */\n      dup4\n        /* \"#utility.yul\":18134:18201   */\n      tag_339\n      jump\t// in\n    tag_591:\n        /* \"#utility.yul\":18127:18201   */\n      swap2\n      pop\n        /* \"#utility.yul\":18210:18303   */\n      tag_592\n        /* \"#utility.yul\":18299:18302   */\n      dup3\n        /* \"#utility.yul\":18210:18303   */\n      tag_383\n      jump\t// in\n    tag_592:\n        /* \"#utility.yul\":18328:18330   */\n      0x40\n        /* \"#utility.yul\":18323:18326   */\n      dup3\n        /* \"#utility.yul\":18319:18331   */\n      add\n        /* \"#utility.yul\":18312:18331   */\n      swap1\n      pop\n        /* \"#utility.yul\":17971:18337   */\n      swap2\n      swap1\n      pop\n      jump\t// out\n        /* \"#utility.yul\":18343:18762   */\n    tag_241:\n        /* \"#utility.yul\":18509:18513   */\n      0x00\n        /* \"#utility.yul\":18547:18549   */\n      0x20\n        /* \"#utility.yul\":18536:18545   */\n      dup3\n        /* \"#utility.yul\":18532:18550   */\n      add\n        /* \"#utility.yul\":18524:18550   */\n      swap1\n      pop\n        /* \"#utility.yul\":18596:18605   */\n      dup2\n        /* \"#utility.yul\":18590:18594   */\n      dup2\n        /* \"#utility.yul\":18586:18606   */\n      sub\n        /* \"#utility.yul\":18582:18583   */\n      0x00\n        /* \"#utility.yul\":18571:18580   */\n      dup4\n        /* \"#utility.yul\":18567:18584   */\n      add\n        /* \"#utility.yul\":18560:18607   */\n      mstore\n        /* \"#utility.yul\":18624:18755   */\n      tag_594\n        /* \"#utility.yul\":18750:18754   */\n      dup2\n        /* \"#utility.yul\":18624:18755   */\n      tag_384\n      jump\t// in\n    tag_594:\n        /* \"#utility.yul\":18616:18755   */\n      swap1\n      pop\n        /* \"#utility.yul\":18343:18762   */\n      swap2\n      swap1\n      pop\n      jump\t// out\n        /* \"#utility.yul\":18768:18994   */\n    tag_385:\n        /* \"#utility.yul\":18908:18942   */\n      0x53555348493a3a64656c656761746542795369673a207369676e617475726520\n        /* \"#utility.yul\":18904:18905   */\n      0x00\n        /* \"#utility.yul\":18896:18902   */\n      dup3\n        /* \"#utility.yul\":18892:18906   */\n      add\n        /* \"#utility.yul\":18885:18943   */\n      mstore\n        /* \"#utility.yul\":18977:18986   */\n      0x6578706972656400000000000000000000000000000000000000000000000000\n        /* \"#utility.yul\":18972:18974   */\n      0x20\n        /* \"#utility.yul\":18964:18970   */\n      dup3\n        /* \"#utility.yul\":18960:18975   */\n      add\n        /* \"#utility.yul\":18953:18987   */\n      mstore\n        /* \"#utility.yul\":18768:18994   */\n      pop\n      jump\t// out\n        /* \"#utility.yul\":19000:19366   */\n    tag_386:\n        /* \"#utility.yul\":19142:19145   */\n      0x00\n        /* \"#utility.yul\":19163:19230   */\n      tag_597\n        /* \"#utility.yul\":19227:19229   */\n      0x27\n        /* \"#utility.yul\":19222:19225   */\n      dup4\n        /* \"#utility.yul\":19163:19230   */\n      tag_339\n      jump\t// in\n    tag_597:\n        /* \"#utility.yul\":19156:19230   */\n      swap2\n      pop\n        /* \"#utility.yul\":19239:19332   */\n      tag_598\n        /* \"#utility.yul\":19328:19331   */\n      dup3\n        /* \"#utility.yul\":19239:19332   */\n      tag_385\n      jump\t// in\n    tag_598:\n        /* \"#utility.yul\":19357:19359   */\n      0x40\n        /* \"#utility.yul\":19352:19355   */\n      dup3\n        /* \"#utility.yul\":19348:19360   */\n      add\n        /* \"#utility.yul\":19341:19360   */\n      swap1\n      pop\n        /* \"#utility.yul\":19000:19366   */\n      swap2\n      swap1\n      pop\n      jump\t// out\n        /* \"#utility.yul\":19372:19791   */\n    tag_244:\n        /* \"#utility.yul\":19538:19542   */\n      0x00\n        /* \"#utility.yul\":19576:19578   */\n      0x20\n        /* \"#utility.yul\":19565:19574   */\n      dup3\n        /* \"#utility.yul\":19561:19579   */\n      add\n        /* \"#utility.yul\":19553:19579   */\n      swap1\n      pop\n        /* \"#utility.yul\":19625:19634   */\n      dup2\n        /* \"#utility.yul\":19619:19623   */\n      dup2\n        /* \"#utility.yul\":19615:19635   */\n      sub\n        /* \"#utility.yul\":19611:19612   */\n      0x00\n        /* \"#utility.yul\":19600:19609   */\n      dup4\n        /* \"#utility.yul\":19596:19613   */\n      add\n        /* \"#utility.yul\":19589:19636   */\n      mstore\n        /* \"#utility.yul\":19653:19784   */\n      tag_600\n        /* \"#utility.yul\":19779:19783   */\n      dup2\n        /* \"#utility.yul\":19653:19784   */\n      tag_386\n      jump\t// in\n    tag_600:\n        /* \"#utility.yul\":19645:19784   */\n      swap1\n      pop\n        /* \"#utility.yul\":19372:19791   */\n      swap2\n      swap1\n      pop\n      jump\t// out\n        /* \"#utility.yul\":19797:20022   */\n    tag_387:\n        /* \"#utility.yul\":19937:19971   */\n      0x4f776e61626c653a206e6577206f776e657220697320746865207a65726f2061\n        /* \"#utility.yul\":19933:19934   */\n      0x00\n        /* \"#utility.yul\":19925:19931   */\n      dup3\n        /* \"#utility.yul\":19921:19935   */\n      add\n        /* \"#utility.yul\":19914:19972   */\n      mstore\n        /* \"#utility.yul\":20006:20014   */\n      0x6464726573730000000000000000000000000000000000000000000000000000\n        /* \"#utility.yul\":20001:20003   */\n      0x20\n        /* \"#utility.yul\":19993:19999   */\n      dup3\n        /* \"#utility.yul\":19989:20004   */\n      add\n        /* \"#utility.yul\":19982:20015   */\n      mstore\n        /* \"#utility.yul\":19797:20022   */\n      pop\n      jump\t// out\n        /* \"#utility.yul\":20028:20394   */\n    tag_388:\n        /* \"#utility.yul\":20170:20173   */\n      0x00\n        /* \"#utility.yul\":20191:20258   */\n      tag_603\n        /* \"#utility.yul\":20255:20257   */\n      0x26\n        /* \"#utility.yul\":20250:20253   */\n      dup4\n        /* \"#utility.yul\":20191:20258   */\n      tag_339\n      jump\t// in\n    tag_603:\n        /* \"#utility.yul\":20184:20258   */\n      swap2\n      pop\n        /* \"#utility.yul\":20267:20360   */\n      tag_604\n        /* \"#utility.yul\":20356:20359   */\n      dup3\n        /* \"#utility.yul\":20267:20360   */\n      tag_387\n      jump\t// in\n    tag_604:\n        /* \"#utility.yul\":20385:20387   */\n      0x40\n        /* \"#utility.yul\":20380:20383   */\n      dup3\n        /* \"#utility.yul\":20376:20388   */\n      add\n        /* \"#utility.yul\":20369:20388   */\n      swap1\n      pop\n        /* \"#utility.yul\":20028:20394   */\n      swap2\n      swap1\n      pop\n      jump\t// out\n        /* \"#utility.yul\":20400:20819   */\n    tag_252:\n        /* \"#utility.yul\":20566:20570   */\n      0x00\n        /* \"#utility.yul\":20604:20606   */\n      0x20\n        /* \"#utility.yul\":20593:20602   */\n      dup3\n        /* \"#utility.yul\":20589:20607   */\n      add\n        /* \"#utility.yul\":20581:20607   */\n      swap1\n      pop\n        /* \"#utility.yul\":20653:20662   */\n      dup2\n        /* \"#utility.yul\":20647:20651   */\n      dup2\n        /* \"#utility.yul\":20643:20663   */\n      sub\n        /* \"#utility.yul\":20639:20640   */\n      0x00\n        /* \"#utility.yul\":20628:20637   */\n      dup4\n        /* \"#utility.yul\":20624:20641   */\n      add\n        /* \"#utility.yul\":20617:20664   */\n      mstore\n        /* \"#utility.yul\":20681:20812   */\n      tag_606\n        /* \"#utility.yul\":20807:20811   */\n      dup2\n        /* \"#utility.yul\":20681:20812   */\n      tag_388\n      jump\t// in\n    tag_606:\n        /* \"#utility.yul\":20673:20812   */\n      swap1\n      pop\n        /* \"#utility.yul\":20400:20819   */\n      swap2\n      swap1\n      pop\n      jump\t// out\n        /* \"#utility.yul\":20825:21048   */\n    tag_389:\n        /* \"#utility.yul\":20965:20999   */\n      0x45524332303a20617070726f76652066726f6d20746865207a65726f20616464\n        /* \"#utility.yul\":20961:20962   */\n      0x00\n        /* \"#utility.yul\":20953:20959   */\n      dup3\n        /* \"#utility.yul\":20949:20963   */\n      add\n        /* \"#utility.yul\":20942:21000   */\n      mstore\n        /* \"#utility.yul\":21034:21040   */\n      0x7265737300000000000000000000000000000000000000000000000000000000\n        /* \"#utility.yul\":21029:21031   */\n      0x20\n        /* \"#utility.yul\":21021:21027   */\n      dup3\n        /* \"#utility.yul\":21017:21032   */\n      add\n        /* \"#utility.yul\":21010:21041   */\n      mstore\n        /* \"#utility.yul\":20825:21048   */\n      pop\n      jump\t// out\n        /* \"#utility.yul\":21054:21420   */\n    tag_390:\n        /* \"#utility.yul\":21196:21199   */\n      0x00\n        /* \"#utility.yul\":21217:21284   */\n      tag_609\n        /* \"#utility.yul\":21281:21283   */\n      0x24\n        /* \"#utility.yul\":21276:21279   */\n      dup4\n        /* \"#utility.yul\":21217:21284   */\n      tag_339\n      jump\t// in\n    tag_609:\n        /* \"#utility.yul\":21210:21284   */\n      swap2\n      pop\n        /* \"#utility.yul\":21293:21386   */\n      tag_610\n        /* \"#utility.yul\":21382:21385   */\n      dup3\n        /* \"#utility.yul\":21293:21386   */\n      tag_389\n      jump\t// in\n    tag_610:\n        /* \"#utility.yul\":21411:21413   */\n      0x40\n        /* \"#utility.yul\":21406:21409   */\n      dup3\n        /* \"#utility.yul\":21402:21414   */\n      add\n        /* \"#utility.yul\":21395:21414   */\n      swap1\n      pop\n        /* \"#utility.yul\":21054:21420   */\n      swap2\n      swap1\n      pop\n      jump\t// out\n        /* \"#utility.yul\":21426:21845   */\n    tag_258:\n        /* \"#utility.yul\":21592:21596   */\n      0x00\n        /* \"#utility.yul\":21630:21632   */\n      0x20\n        /* \"#utility.yul\":21619:21628   */\n      dup3\n        /* \"#utility.yul\":21615:21633   */\n      add\n        /* \"#utility.yul\":21607:21633   */\n      swap1\n      pop\n        /* \"#utility.yul\":21679:21688   */\n      dup2\n        /* \"#utility.yul\":21673:21677   */\n      dup2\n        /* \"#utility.yul\":21669:21689   */\n      sub\n        /* \"#utility.yul\":21665:21666   */\n      0x00\n        /* \"#utility.yul\":21654:21663   */\n      dup4\n        /* \"#utility.yul\":21650:21667   */\n      add\n        /* \"#utility.yul\":21643:21690   */\n      mstore\n        /* \"#utility.yul\":21707:21838   */\n      tag_612\n        /* \"#utility.yul\":21833:21837   */\n      dup2\n        /* \"#utility.yul\":21707:21838   */\n      tag_390\n      jump\t// in\n    tag_612:\n        /* \"#utility.yul\":21699:21838   */\n      swap1\n      pop\n        /* \"#utility.yul\":21426:21845   */\n      swap2\n      swap1\n      pop\n      jump\t// out\n        /* \"#utility.yul\":21851:22072   */\n    tag_391:\n        /* \"#utility.yul\":21991:22025   */\n      0x45524332303a20617070726f766520746f20746865207a65726f206164647265\n        /* \"#utility.yul\":21987:21988   */\n      0x00\n        /* \"#utility.yul\":21979:21985   */\n      dup3\n        /* \"#utility.yul\":21975:21989   */\n      add\n        /* \"#utility.yul\":21968:22026   */\n      mstore\n        /* \"#utility.yul\":22060:22064   */\n      0x7373000000000000000000000000000000000000000000000000000000000000\n        /* \"#utility.yul\":22055:22057   */\n      0x20\n        /* \"#utility.yul\":22047:22053   */\n      dup3\n        /* \"#utility.yul\":22043:22058   */\n      add\n        /* \"#utility.yul\":22036:22065   */\n      mstore\n        /* \"#utility.yul\":21851:22072   */\n      pop\n      jump\t// out\n        /* \"#utility.yul\":22078:22444   */\n    tag_392:\n        /* \"#utility.yul\":22220:22223   */\n      0x00\n        /* \"#utility.yul\":22241:22308   */\n      tag_615\n        /* \"#utility.yul\":22305:22307   */\n      0x22\n        /* \"#utility.yul\":22300:22303   */\n      dup4\n        /* \"#utility.yul\":22241:22308   */\n      tag_339\n      jump\t// in\n    tag_615:\n        /* \"#utility.yul\":22234:22308   */\n      swap2\n      pop\n        /* \"#utility.yul\":22317:22410   */\n      tag_616\n        /* \"#utility.yul\":22406:22409   */\n      dup3\n        /* \"#utility.yul\":22317:22410   */\n      tag_391\n      jump\t// in\n    tag_616:\n        /* \"#utility.yul\":22435:22437   */\n      0x40\n        /* \"#utility.yul\":22430:22433   */\n      dup3\n        /* \"#utility.yul\":22426:22438   */\n      add\n        /* \"#utility.yul\":22419:22438   */\n      swap1\n      pop\n        /* \"#utility.yul\":22078:22444   */\n      swap2\n      swap1\n      pop\n      jump\t// out\n        /* \"#utility.yul\":22450:22869   */\n    tag_261:\n        /* \"#utility.yul\":22616:22620   */\n      0x00\n        /* \"#utility.yul\":22654:22656   */\n      0x20\n        /* \"#utility.yul\":22643:22652   */\n      dup3\n        /* \"#utility.yul\":22639:22657   */\n      add\n        /* \"#utility.yul\":22631:22657   */\n      swap1\n      pop\n        /* \"#utility.yul\":22703:22712   */\n      dup2\n        /* \"#utility.yul\":22697:22701   */\n      dup2\n        /* \"#utility.yul\":22693:22713   */\n      sub\n        /* \"#utility.yul\":22689:22690   */\n      0x00\n        /* \"#utility.yul\":22678:22687   */\n      dup4\n        /* \"#utility.yul\":22674:22691   */\n      add\n        /* \"#utility.yul\":22667:22714   */\n      mstore\n        /* \"#utility.yul\":22731:22862   */\n      tag_618\n        /* \"#utility.yul\":22857:22861   */\n      dup2\n        /* \"#utility.yul\":22731:22862   */\n      tag_392\n      jump\t// in\n    tag_618:\n        /* \"#utility.yul\":22723:22862   */\n      swap1\n      pop\n        /* \"#utility.yul\":22450:22869   */\n      swap2\n      swap1\n      pop\n      jump\t// out\n        /* \"#utility.yul\":22875:23054   */\n    tag_393:\n        /* \"#utility.yul\":23015:23046   */\n      0x45524332303a20696e73756666696369656e7420616c6c6f77616e6365000000\n        /* \"#utility.yul\":23011:23012   */\n      0x00\n        /* \"#utility.yul\":23003:23009   */\n      dup3\n        /* \"#utility.yul\":22999:23013   */\n      add\n        /* \"#utility.yul\":22992:23047   */\n      mstore\n        /* \"#utility.yul\":22875:23054   */\n      pop\n      jump\t// out\n        /* \"#utility.yul\":23060:23426   */\n    tag_394:\n        /* \"#utility.yul\":23202:23205   */\n      0x00\n        /* \"#utility.yul\":23223:23290   */\n      tag_621\n        /* \"#utility.yul\":23287:23289   */\n      0x1d\n        /* \"#utility.yul\":23282:23285   */\n      dup4\n        /* \"#utility.yul\":23223:23290   */\n      tag_339\n      jump\t// in\n    tag_621:\n        /* \"#utility.yul\":23216:23290   */\n      swap2\n      pop\n        /* \"#utility.yul\":23299:23392   */\n      tag_622\n        /* \"#utility.yul\":23388:23391   */\n      dup3\n        /* \"#utility.yul\":23299:23392   */\n      tag_393\n      jump\t// in\n    tag_622:\n        /* \"#utility.yul\":23417:23419   */\n      0x20\n        /* \"#utility.yul\":23412:23415   */\n      dup3\n        /* \"#utility.yul\":23408:23420   */\n      add\n        /* \"#utility.yul\":23401:23420   */\n      swap1\n      pop\n        /* \"#utility.yul\":23060:23426   */\n      swap2\n      swap1\n      pop\n      jump\t// out\n        /* \"#utility.yul\":23432:23851   */\n    tag_268:\n        /* \"#utility.yul\":23598:23602   */\n      0x00\n        /* \"#utility.yul\":23636:23638   */\n      0x20\n        /* \"#utility.yul\":23625:23634   */\n      dup3\n        /* \"#utility.yul\":23621:23639   */\n      add\n        /* \"#utility.yul\":23613:23639   */\n      swap1\n      pop\n        /* \"#utility.yul\":23685:23694   */\n      dup2\n        /* \"#utility.yul\":23679:23683   */\n      dup2\n        /* \"#utility.yul\":23675:23695   */\n      sub\n        /* \"#utility.yul\":23671:23672   */\n      0x00\n        /* \"#utility.yul\":23660:23669   */\n      dup4\n        /* \"#utility.yul\":23656:23673   */\n      add\n        /* \"#utility.yul\":23649:23696   */\n      mstore\n        /* \"#utility.yul\":23713:23844   */\n      tag_624\n        /* \"#utility.yul\":23839:23843   */\n      dup2\n        /* \"#utility.yul\":23713:23844   */\n      tag_394\n      jump\t// in\n    tag_624:\n        /* \"#utility.yul\":23705:23844   */\n      swap1\n      pop\n        /* \"#utility.yul\":23432:23851   */\n      swap2\n      swap1\n      pop\n      jump\t// out\n        /* \"#utility.yul\":23857:24081   */\n    tag_395:\n        /* \"#utility.yul\":23997:24031   */\n      0x45524332303a207472616e736665722066726f6d20746865207a65726f206164\n        /* \"#utility.yul\":23993:23994   */\n      0x00\n        /* \"#utility.yul\":23985:23991   */\n      dup3\n        /* \"#utility.yul\":23981:23995   */\n      add\n        /* \"#utility.yul\":23974:24032   */\n      mstore\n        /* \"#utility.yul\":24066:24073   */\n      0x6472657373000000000000000000000000000000000000000000000000000000\n        /* \"#utility.yul\":24061:24063   */\n      0x20\n        /* \"#utility.yul\":24053:24059   */\n      dup3\n        /* \"#utility.yul\":24049:24064   */\n      add\n        /* \"#utility.yul\":24042:24074   */\n      mstore\n        /* \"#utility.yul\":23857:24081   */\n      pop\n      jump\t// out\n        /* \"#utility.yul\":24087:24453   */\n    tag_396:\n        /* \"#utility.yul\":24229:24232   */\n      0x00\n        /* \"#utility.yul\":24250:24317   */\n      tag_627\n        /* \"#utility.yul\":24314:24316   */\n      0x25\n        /* \"#utility.yul\":24309:24312   */\n      dup4\n        /* \"#utility.yul\":24250:24317   */\n      tag_339\n      jump\t// in\n    tag_627:\n        /* \"#utility.yul\":24243:24317   */\n      swap2\n      pop\n        /* \"#utility.yul\":24326:24419   */\n      tag_628\n        /* \"#utility.yul\":24415:24418   */\n      dup3\n        /* \"#utility.yul\":24326:24419   */\n      tag_395\n      jump\t// in\n    tag_628:\n        /* \"#utility.yul\":24444:24446   */\n      0x40\n        /* \"#utility.yul\":24439:24442   */\n      dup3\n        /* \"#utility.yul\":24435:24447   */\n      add\n        /* \"#utility.yul\":24428:24447   */\n      swap1\n      pop\n        /* \"#utility.yul\":24087:24453   */\n      swap2\n      swap1\n      pop\n      jump\t// out\n        /* \"#utility.yul\":24459:24878   */\n    tag_273:\n        /* \"#utility.yul\":24625:24629   */\n      0x00\n        /* \"#utility.yul\":24663:24665   */\n      0x20\n        /* \"#utility.yul\":24652:24661   */\n      dup3\n        /* \"#utility.yul\":24648:24666   */\n      add\n        /* \"#utility.yul\":24640:24666   */\n      swap1\n      pop\n        /* \"#utility.yul\":24712:24721   */\n      dup2\n        /* \"#utility.yul\":24706:24710   */\n      dup2\n        /* \"#utility.yul\":24702:24722   */\n      sub\n        /* \"#utility.yul\":24698:24699   */\n      0x00\n        /* \"#utility.yul\":24687:24696   */\n      dup4\n        /* \"#utility.yul\":24683:24700   */\n      add\n        /* \"#utility.yul\":24676:24723   */\n      mstore\n        /* \"#utility.yul\":24740:24871   */\n      tag_630\n        /* \"#utility.yul\":24866:24870   */\n      dup2\n        /* \"#utility.yul\":24740:24871   */\n      tag_396\n      jump\t// in\n    tag_630:\n        /* \"#utility.yul\":24732:24871   */\n      swap1\n      pop\n        /* \"#utility.yul\":24459:24878   */\n      swap2\n      swap1\n      pop\n      jump\t// out\n        /* \"#utility.yul\":24884:25106   */\n    tag_397:\n        /* \"#utility.yul\":25024:25058   */\n      0x45524332303a207472616e7366657220746f20746865207a65726f2061646472\n        /* \"#utility.yul\":25020:25021   */\n      0x00\n        /* \"#utility.yul\":25012:25018   */\n      dup3\n        /* \"#utility.yul\":25008:25022   */\n      add\n        /* \"#utility.yul\":25001:25059   */\n      mstore\n        /* \"#utility.yul\":25093:25098   */\n      0x6573730000000000000000000000000000000000000000000000000000000000\n        /* \"#utility.yul\":25088:25090   */\n      0x20\n        /* \"#utility.yul\":25080:25086   */\n      dup3\n        /* \"#utility.yul\":25076:25091   */\n      add\n        /* \"#utility.yul\":25069:25099   */\n      mstore\n        /* \"#utility.yul\":24884:25106   */\n      pop\n      jump\t// out\n        /* \"#utility.yul\":25112:25478   */\n    tag_398:\n        /* \"#utility.yul\":25254:25257   */\n      0x00\n        /* \"#utility.yul\":25275:25342   */\n      tag_633\n        /* \"#utility.yul\":25339:25341   */\n      0x23\n        /* \"#utility.yul\":25334:25337   */\n      dup4\n        /* \"#utility.yul\":25275:25342   */\n      tag_339\n      jump\t// in\n    tag_633:\n        /* \"#utility.yul\":25268:25342   */\n      swap2\n      pop\n        /* \"#utility.yul\":25351:25444   */\n      tag_634\n        /* \"#utility.yul\":25440:25443   */\n      dup3\n        /* \"#utility.yul\":25351:25444   */\n      tag_397\n      jump\t// in\n    tag_634:\n        /* \"#utility.yul\":25469:25471   */\n      0x40\n        /* \"#utility.yul\":25464:25467   */\n      dup3\n        /* \"#utility.yul\":25460:25472   */\n      add\n        /* \"#utility.yul\":25453:25472   */\n      swap1\n      pop\n        /* \"#utility.yul\":25112:25478   */\n      swap2\n      swap1\n      pop\n      jump\t// out\n        /* \"#utility.yul\":25484:25903   */\n    tag_276:\n        /* \"#utility.yul\":25650:25654   */\n      0x00\n        /* \"#utility.yul\":25688:25690   */\n      0x20\n        /* \"#utility.yul\":25677:25686   */\n      dup3\n        /* \"#utility.yul\":25673:25691   */\n      add\n        /* \"#utility.yul\":25665:25691   */\n      swap1\n      pop\n        /* \"#utility.yul\":25737:25746   */\n      dup2\n        /* \"#utility.yul\":25731:25735   */\n      dup2\n        /* \"#utility.yul\":25727:25747   */\n      sub\n        /* \"#utility.yul\":25723:25724   */\n      0x00\n        /* \"#utility.yul\":25712:25721   */\n      dup4\n        /* \"#utility.yul\":25708:25725   */\n      add\n        /* \"#utility.yul\":25701:25748   */\n      mstore\n        /* \"#utility.yul\":25765:25896   */\n      tag_636\n        /* \"#utility.yul\":25891:25895   */\n      dup2\n        /* \"#utility.yul\":25765:25896   */\n      tag_398\n      jump\t// in\n    tag_636:\n        /* \"#utility.yul\":25757:25896   */\n      swap1\n      pop\n        /* \"#utility.yul\":25484:25903   */\n      swap2\n      swap1\n      pop\n      jump\t// out\n        /* \"#utility.yul\":25909:26134   */\n    tag_399:\n        /* \"#utility.yul\":26049:26083   */\n      0x45524332303a207472616e7366657220616d6f756e7420657863656564732062\n        /* \"#utility.yul\":26045:26046   */\n      0x00\n        /* \"#utility.yul\":26037:26043   */\n      dup3\n        /* \"#utility.yul\":26033:26047   */\n      add\n        /* \"#utility.yul\":26026:26084   */\n      mstore\n        /* \"#utility.yul\":26118:26126   */\n      0x616c616e63650000000000000000000000000000000000000000000000000000\n        /* \"#utility.yul\":26113:26115   */\n      0x20\n        /* \"#utility.yul\":26105:26111   */\n      dup3\n        /* \"#utility.yul\":26101:26116   */\n      add\n        /* \"#utility.yul\":26094:26127   */\n      mstore\n        /* \"#utility.yul\":25909:26134   */\n      pop\n      jump\t// out\n        /* \"#utility.yul\":26140:26506   */\n    tag_400:\n        /* \"#utility.yul\":26282:26285   */\n      0x00\n        /* \"#utility.yul\":26303:26370   */\n      tag_639\n        /* \"#utility.yul\":26367:26369   */\n      0x26\n        /* \"#utility.yul\":26362:26365   */\n      dup4\n        /* \"#utility.yul\":26303:26370   */\n      tag_339\n      jump\t// in\n    tag_639:\n        /* \"#utility.yul\":26296:26370   */\n      swap2\n      pop\n        /* \"#utility.yul\":26379:26472   */\n      tag_640\n        /* \"#utility.yul\":26468:26471   */\n      dup3\n        /* \"#utility.yul\":26379:26472   */\n      tag_399\n      jump\t// in\n    tag_640:\n        /* \"#utility.yul\":26497:26499   */\n      0x40\n        /* \"#utility.yul\":26492:26495   */\n      dup3\n        /* \"#utility.yul\":26488:26500   */\n      add\n        /* \"#utility.yul\":26481:26500   */\n      swap1\n      pop\n        /* \"#utility.yul\":26140:26506   */\n      swap2\n      swap1\n      pop\n      jump\t// out\n        /* \"#utility.yul\":26512:26931   */\n    tag_281:\n        /* \"#utility.yul\":26678:26682   */\n      0x00\n        /* \"#utility.yul\":26716:26718   */\n      0x20\n        /* \"#utility.yul\":26705:26714   */\n      dup3\n        /* \"#utility.yul\":26701:26719   */\n      add\n        /* \"#utility.yul\":26693:26719   */\n      swap1\n      pop\n        /* \"#utility.yul\":26765:26774   */\n      dup2\n        /* \"#utility.yul\":26759:26763   */\n      dup2\n        /* \"#utility.yul\":26755:26775   */\n      sub\n        /* \"#utility.yul\":26751:26752   */\n      0x00\n        /* \"#utility.yul\":26740:26749   */\n      dup4\n        /* \"#utility.yul\":26736:26753   */\n      add\n        /* \"#utility.yul\":26729:26776   */\n      mstore\n        /* \"#utility.yul\":26793:26924   */\n      tag_642\n        /* \"#utility.yul\":26919:26923   */\n      dup2\n        /* \"#utility.yul\":26793:26924   */\n      tag_400\n      jump\t// in\n    tag_642:\n        /* \"#utility.yul\":26785:26924   */\n      swap1\n      pop\n        /* \"#utility.yul\":26512:26931   */\n      swap2\n      swap1\n      pop\n      jump\t// out\n        /* \"#utility.yul\":26937:27119   */\n    tag_401:\n        /* \"#utility.yul\":27077:27111   */\n      0x4f776e61626c653a2063616c6c6572206973206e6f7420746865206f776e6572\n        /* \"#utility.yul\":27073:27074   */\n      0x00\n        /* \"#utility.yul\":27065:27071   */\n      dup3\n        /* \"#utility.yul\":27061:27075   */\n      add\n        /* \"#utility.yul\":27054:27112   */\n      mstore\n        /* \"#utility.yul\":26937:27119   */\n      pop\n      jump\t// out\n        /* \"#utility.yul\":27125:27491   */\n    tag_402:\n        /* \"#utility.yul\":27267:27270   */\n      0x00\n        /* \"#utility.yul\":27288:27355   */\n      tag_645\n        /* \"#utility.yul\":27352:27354   */\n      0x20\n        /* \"#utility.yul\":27347:27350   */\n      dup4\n        /* \"#utility.yul\":27288:27355   */\n      tag_339\n      jump\t// in\n    tag_645:\n        /* \"#utility.yul\":27281:27355   */\n      swap2\n      pop\n        /* \"#utility.yul\":27364:27457   */\n      tag_646\n        /* \"#utility.yul\":27453:27456   */\n      dup3\n        /* \"#utility.yul\":27364:27457   */\n      tag_401\n      jump\t// in\n    tag_646:\n        /* \"#utility.yul\":27482:27484   */\n      0x20\n        /* \"#utility.yul\":27477:27480   */\n      dup3\n        /* \"#utility.yul\":27473:27485   */\n      add\n        /* \"#utility.yul\":27466:27485   */\n      swap1\n      pop\n        /* \"#utility.yul\":27125:27491   */\n      swap2\n      swap1\n      pop\n      jump\t// out\n        /* \"#utility.yul\":27497:27916   */\n    tag_290:\n        /* \"#utility.yul\":27663:27667   */\n      0x00\n        /* \"#utility.yul\":27701:27703   */\n      0x20\n        /* \"#utility.yul\":27690:27699   */\n      dup3\n        /* \"#utility.yul\":27686:27704   */\n      add\n        /* \"#utility.yul\":27678:27704   */\n      swap1\n      pop\n        /* \"#utility.yul\":27750:27759   */\n      dup2\n        /* \"#utility.yul\":27744:27748   */\n      dup2\n        /* \"#utility.yul\":27740:27760   */\n      sub\n        /* \"#utility.yul\":27736:27737   */\n      0x00\n        /* \"#utility.yul\":27725:27734   */\n      dup4\n        /* \"#utility.yul\":27721:27738   */\n      add\n        /* \"#utility.yul\":27714:27761   */\n      mstore\n        /* \"#utility.yul\":27778:27909   */\n      tag_648\n        /* \"#utility.yul\":27904:27908   */\n      dup2\n        /* \"#utility.yul\":27778:27909   */\n      tag_402\n      jump\t// in\n    tag_648:\n        /* \"#utility.yul\":27770:27909   */\n      swap1\n      pop\n        /* \"#utility.yul\":27497:27916   */\n      swap2\n      swap1\n      pop\n      jump\t// out\n        /* \"#utility.yul\":27922:28103   */\n    tag_403:\n        /* \"#utility.yul\":28062:28095   */\n      0x45524332303a206d696e7420746f20746865207a65726f206164647265737300\n        /* \"#utility.yul\":28058:28059   */\n      0x00\n        /* \"#utility.yul\":28050:28056   */\n      dup3\n        /* \"#utility.yul\":28046:28060   */\n      add\n        /* \"#utility.yul\":28039:28096   */\n      mstore\n        /* \"#utility.yul\":27922:28103   */\n      pop\n      jump\t// out\n        /* \"#utility.yul\":28109:28475   */\n    tag_404:\n        /* \"#utility.yul\":28251:28254   */\n      0x00\n        /* \"#utility.yul\":28272:28339   */\n      tag_651\n        /* \"#utility.yul\":28336:28338   */\n      0x1f\n        /* \"#utility.yul\":28331:28334   */\n      dup4\n        /* \"#utility.yul\":28272:28339   */\n      tag_339\n      jump\t// in\n    tag_651:\n        /* \"#utility.yul\":28265:28339   */\n      swap2\n      pop\n        /* \"#utility.yul\":28348:28441   */\n      tag_652\n        /* \"#utility.yul\":28437:28440   */\n      dup3\n        /* \"#utility.yul\":28348:28441   */\n      tag_403\n      jump\t// in\n    tag_652:\n        /* \"#utility.yul\":28466:28468   */\n      0x20\n        /* \"#utility.yul\":28461:28464   */\n      dup3\n        /* \"#utility.yul\":28457:28469   */\n      add\n        /* \"#utility.yul\":28450:28469   */\n      swap1\n      pop\n        /* \"#utility.yul\":28109:28475   */\n      swap2\n      swap1\n      pop\n      jump\t// out\n        /* \"#utility.yul\":28481:28900   */\n    tag_294:\n        /* \"#utility.yul\":28647:28651   */\n      0x00\n        /* \"#utility.yul\":28685:28687   */\n      0x20\n        /* \"#utility.yul\":28674:28683   */\n      dup3\n        /* \"#utility.yul\":28670:28688   */\n      add\n        /* \"#utility.yul\":28662:28688   */\n      swap1\n      pop\n        /* \"#utility.yul\":28734:28743   */\n      dup2\n        /* \"#utility.yul\":28728:28732   */\n      dup2\n        /* \"#utility.yul\":28724:28744   */\n      sub\n        /* \"#utility.yul\":28720:28721   */\n      0x00\n        /* \"#utility.yul\":28709:28718   */\n      dup4\n        /* \"#utility.yul\":28705:28722   */\n      add\n        /* \"#utility.yul\":28698:28745   */\n      mstore\n        /* \"#utility.yul\":28762:28893   */\n      tag_654\n        /* \"#utility.yul\":28888:28892   */\n      dup2\n        /* \"#utility.yul\":28762:28893   */\n      tag_404\n      jump\t// in\n    tag_654:\n        /* \"#utility.yul\":28754:28893   */\n      swap1\n      pop\n        /* \"#utility.yul\":28481:28900   */\n      swap2\n      swap1\n      pop\n      jump\t// out\n        /* \"#utility.yul\":28906:29100   */\n    tag_307:\n        /* \"#utility.yul\":28946:28950   */\n      0x00\n        /* \"#utility.yul\":28966:28986   */\n      tag_656\n        /* \"#utility.yul\":28984:28985   */\n      dup3\n        /* \"#utility.yul\":28966:28986   */\n      tag_350\n      jump\t// in\n    tag_656:\n        /* \"#utility.yul\":28961:28986   */\n      swap2\n      pop\n        /* \"#utility.yul\":29000:29020   */\n      tag_657\n        /* \"#utility.yul\":29018:29019   */\n      dup4\n        /* \"#utility.yul\":29000:29020   */\n      tag_350\n      jump\t// in\n    tag_657:\n        /* \"#utility.yul\":28995:29020   */\n      swap3\n      pop\n        /* \"#utility.yul\":29044:29045   */\n      dup3\n        /* \"#utility.yul\":29041:29042   */\n      dup3\n        /* \"#utility.yul\":29037:29046   */\n      sub\n        /* \"#utility.yul\":29029:29046   */\n      swap1\n      pop\n        /* \"#utility.yul\":29068:29069   */\n      dup2\n        /* \"#utility.yul\":29062:29066   */\n      dup2\n        /* \"#utility.yul\":29059:29070   */\n      gt\n        /* \"#utility.yul\":29056:29093   */\n      iszero\n      tag_658\n      jumpi\n        /* \"#utility.yul\":29073:29091   */\n      tag_659\n      tag_370\n      jump\t// in\n    tag_659:\n        /* \"#utility.yul\":29056:29093   */\n    tag_658:\n        /* \"#utility.yul\":28906:29100   */\n      swap3\n      swap2\n      pop\n      pop\n      jump\t// out\n        /* \"#utility.yul\":29106:29303   */\n    tag_332:\n        /* \"#utility.yul\":29145:29148   */\n      0x00\n        /* \"#utility.yul\":29164:29183   */\n      tag_661\n        /* \"#utility.yul\":29181:29182   */\n      dup3\n        /* \"#utility.yul\":29164:29183   */\n      tag_361\n      jump\t// in\n    tag_661:\n        /* \"#utility.yul\":29159:29183   */\n      swap2\n      pop\n        /* \"#utility.yul\":29197:29216   */\n      tag_662\n        /* \"#utility.yul\":29214:29215   */\n      dup4\n        /* \"#utility.yul\":29197:29216   */\n      tag_361\n      jump\t// in\n    tag_662:\n        /* \"#utility.yul\":29192:29216   */\n      swap3\n      pop\n        /* \"#utility.yul\":29239:29240   */\n      dup3\n        /* \"#utility.yul\":29236:29237   */\n      dup3\n        /* \"#utility.yul\":29232:29241   */\n      add\n        /* \"#utility.yul\":29225:29241   */\n      swap1\n      pop\n        /* \"#utility.yul\":29262:29272   */\n      0xffffffff\n        /* \"#utility.yul\":29257:29260   */\n      dup2\n        /* \"#utility.yul\":29254:29273   */\n      gt\n        /* \"#utility.yul\":29251:29296   */\n      iszero\n      tag_663\n      jumpi\n        /* \"#utility.yul\":29276:29294   */\n      tag_664\n      tag_370\n      jump\t// in\n    tag_664:\n        /* \"#utility.yul\":29251:29296   */\n    tag_663:\n        /* \"#utility.yul\":29106:29303   */\n      swap3\n      swap2\n      pop\n      pop\n      jump\t// out\n        /* \"#utility.yul\":29309:29641   */\n    tag_334:\n        /* \"#utility.yul\":29430:29434   */\n      0x00\n        /* \"#utility.yul\":29468:29470   */\n      0x40\n        /* \"#utility.yul\":29457:29466   */\n      dup3\n        /* \"#utility.yul\":29453:29471   */\n      add\n        /* \"#utility.yul\":29445:29471   */\n      swap1\n      pop\n        /* \"#utility.yul\":29481:29552   */\n      tag_666\n        /* \"#utility.yul\":29549:29550   */\n      0x00\n        /* \"#utility.yul\":29538:29547   */\n      dup4\n        /* \"#utility.yul\":29534:29551   */\n      add\n        /* \"#utility.yul\":29525:29531   */\n      dup6\n        /* \"#utility.yul\":29481:29552   */\n      tag_355\n      jump\t// in\n    tag_666:\n        /* \"#utility.yul\":29562:29634   */\n      tag_667\n        /* \"#utility.yul\":29630:29632   */\n      0x20\n        /* \"#utility.yul\":29619:29628   */\n      dup4\n        /* \"#utility.yul\":29615:29633   */\n      add\n        /* \"#utility.yul\":29606:29612   */\n      dup5\n        /* \"#utility.yul\":29562:29634   */\n      tag_355\n      jump\t// in\n    tag_667:\n        /* \"#utility.yul\":29309:29641   */\n      swap4\n      swap3\n      pop\n      pop\n      pop\n      jump\t// out\n    stop\n    data_80202fadc1798ad44893c1a6a1a3b4079151936a969e36fa214486a4e00f3a74 53555348493a3a5f7772697465436865636b706f696e743a20626c6f636b206e756d62657220657863656564732033322062697473\n\n    auxdata: 0xa2646970667358221220b85d10d921ef5ab21afa97512d68d7cd7cde3429e48f992b94f91a8dfe5a88ca64736f6c63430008130033\n}\n",
				"bytecode": {
					"linkReferences": {},
					"object": "60806040523480156200001157600080fd5b506040518060400160405280600a81526020017f5375736869546f6b656e000000000000000000000000000000000000000000008152506040518060400160405280600581526020017f535553484900000000000000000000000000000000000000000000000000000081525081600390816200008f919062000412565b508060049081620000a1919062000412565b505050620000c4620000b8620000ca60201b60201c565b620000d260201b60201c565b620004f9565b600033905090565b6000600560009054906101000a900473ffffffffffffffffffffffffffffffffffffffff16905081600560006101000a81548173ffffffffffffffffffffffffffffffffffffffff021916908373ffffffffffffffffffffffffffffffffffffffff1602179055508173ffffffffffffffffffffffffffffffffffffffff168173ffffffffffffffffffffffffffffffffffffffff167f8be0079c531659141344cd1fd0a4f28419497f9722a3daafe3b4186f6b6457e060405160405180910390a35050565b600081519050919050565b7f4e487b7100000000000000000000000000000000000000000000000000000000600052604160045260246000fd5b7f4e487b7100000000000000000000000000000000000000000000000000000000600052602260045260246000fd5b600060028204905060018216806200021a57607f821691505b60208210810362000230576200022f620001d2565b5b50919050565b60008190508160005260206000209050919050565b60006020601f8301049050919050565b600082821b905092915050565b6000600883026200029a7fffffffffffffffffffffffffffffffffffffffffffffffffffffffffffffffff826200025b565b620002a686836200025b565b95508019841693508086168417925050509392505050565b6000819050919050565b6000819050919050565b6000620002f3620002ed620002e784620002be565b620002c8565b620002be565b9050919050565b6000819050919050565b6200030f83620002d2565b620003276200031e82620002fa565b84845462000268565b825550505050565b600090565b6200033e6200032f565b6200034b81848462000304565b505050565b5b8181101562000373576200036760008262000334565b60018101905062000351565b5050565b601f821115620003c2576200038c8162000236565b62000397846200024b565b81016020851015620003a7578190505b620003bf620003b6856200024b565b83018262000350565b50505b505050565b600082821c905092915050565b6000620003e760001984600802620003c7565b1980831691505092915050565b6000620004028383620003d4565b9150826002028217905092915050565b6200041d8262000198565b67ffffffffffffffff811115620004395762000438620001a3565b5b62000445825462000201565b6200045282828562000377565b600060209050601f8311600181146200048a576000841562000475578287015190505b620004818582620003f4565b865550620004f1565b601f1984166200049a8662000236565b60005b82811015620004c4578489015182556001820191506020850194506020810190506200049d565b86831015620004e45784890151620004e0601f891682620003d4565b8355505b6001600288020188555050505b505050505050565b61315680620005096000396000f3fe608060405234801561001057600080fd5b50600436106101735760003560e01c8063715018a6116100de578063a9059cbb11610097578063dd62ed3e11610071578063dd62ed3e1461049a578063e7a324dc146104ca578063f1127ed8146104e8578063f2fde38b1461051957610173565b8063a9059cbb1461041e578063b4b5ea571461044e578063c3cda5201461047e57610173565b8063715018a614610348578063782d6fe1146103525780637ecebe00146103825780638da5cb5b146103b257806395d89b41146103d0578063a457c2d7146103ee57610173565b80633950935111610130578063395093511461025057806340c10f1914610280578063587cde1e1461029c5780635c19a95c146102cc5780636fcfff45146102e857806370a082311461031857610173565b806306fdde0314610178578063095ea7b31461019657806318160ddd146101c657806320606b70146101e457806323b872dd14610202578063313ce56714610232575b600080fd5b610180610535565b60405161018d9190612147565b60405180910390f35b6101b060048036038101906101ab9190612202565b6105c7565b6040516101bd919061225d565b60405180910390f35b6101ce6105ea565b6040516101db9190612287565b60405180910390f35b6101ec6105f4565b6040516101f991906122bb565b60405180910390f35b61021c600480360381019061021791906122d6565b610618565b604051610229919061225d565b60405180910390f35b61023a610647565b6040516102479190612345565b60405180910390f35b61026a60048036038101906102659190612202565b610650565b604051610277919061225d565b60405180910390f35b61029a60048036038101906102959190612202565b610687565b005b6102b660048036038101906102b19190612360565b610708565b6040516102c3919061239c565b60405180910390f35b6102e660048036038101906102e19190612360565b610771565b005b61030260048036038101906102fd9190612360565b61077e565b60405161030f91906123d6565b60405180910390f35b610332600480360381019061032d9190612360565b6107a1565b60405161033f9190612287565b60405180910390f35b6103506107e9565b005b61036c60048036038101906103679190612202565b6107fd565b6040516103799190612287565b60405180910390f35b61039c60048036038101906103979190612360565b610bd2565b6040516103a99190612287565b60405180910390f35b6103ba610bea565b6040516103c7919061239c565b60405180910390f35b6103d8610c14565b6040516103e59190612147565b60405180910390f35b61040860048036038101906104039190612202565b610ca6565b604051610415919061225d565b60405180910390f35b61043860048036038101906104339190612202565b610d1d565b604051610445919061225d565b60405180910390f35b61046860048036038101906104639190612360565b610d40565b6040516104759190612287565b60405180910390f35b61049860048036038101906104939190612449565b610e1f565b005b6104b460048036038101906104af91906124d6565b6110b3565b6040516104c19190612287565b60405180910390f35b6104d261113a565b6040516104df91906122bb565b60405180910390f35b61050260048036038101906104fd9190612542565b61115e565b604051610510929190612582565b60405180910390f35b610533600480360381019061052e9190612360565b61119f565b005b606060038054610544906125da565b80601f0160208091040260200160405190810160405280929190818152602001828054610570906125da565b80156105bd5780601f10610592576101008083540402835291602001916105bd565b820191906000526020600020905b8154815290600101906020018083116105a057829003601f168201915b5050505050905090565b6000806105d2611222565b90506105df81858561122a565b600191505092915050565b6000600254905090565b7f8cad95687ba82c2ce50e74f7b754645e5117c3a5bec8151c0726d5857980a86681565b600080610623611222565b90506106308582856113f3565b61063b85858561147f565b60019150509392505050565b60006012905090565b60008061065b611222565b905061067c81858561066d85896110b3565b610677919061263a565b61122a565b600191505092915050565b61068f6116f5565b6106998282611773565b6107046000600660008573ffffffffffffffffffffffffffffffffffffffff1673ffffffffffffffffffffffffffffffffffffffff16815260200190815260200160002060009054906101000a900473ffffffffffffffffffffffffffffffffffffffff16836118c9565b5050565b6000600660008373ffffffffffffffffffffffffffffffffffffffff1673ffffffffffffffffffffffffffffffffffffffff16815260200190815260200160002060009054906101000a900473ffffffffffffffffffffffffffffffffffffffff169050919050565b61077b3382611b6a565b50565b60086020528060005260406000206000915054906101000a900463ffffffff1681565b60008060008373ffffffffffffffffffffffffffffffffffffffff1673ffffffffffffffffffffffffffffffffffffffff168152602001908152602001600020549050919050565b6107f16116f5565b6107fb6000611cdb565b565b6000438210610841576040517f08c379a0000000000000000000000000000000000000000000000000000000008152600401610838906126e0565b60405180910390fd5b6000600860008573ffffffffffffffffffffffffffffffffffffffff1673ffffffffffffffffffffffffffffffffffffffff16815260200190815260200160002060009054906101000a900463ffffffff16905060008163ffffffff16036108ad576000915050610bcc565b82600760008673ffffffffffffffffffffffffffffffffffffffff1673ffffffffffffffffffffffffffffffffffffffff16815260200190815260200160002060006001846108fc9190612700565b63ffffffff1663ffffffff16815260200190815260200160002060000160009054906101000a900463ffffffff1663ffffffff16116109a957600760008573ffffffffffffffffffffffffffffffffffffffff1673ffffffffffffffffffffffffffffffffffffffff16815260200190815260200160002060006001836109839190612700565b63ffffffff1663ffffffff16815260200190815260200160002060010154915050610bcc565b82600760008673ffffffffffffffffffffffffffffffffffffffff1673ffffffffffffffffffffffffffffffffffffffff16815260200190815260200160002060008063ffffffff16815260200190815260200160002060000160009054906101000a900463ffffffff1663ffffffff161115610a2a576000915050610bcc565b600080600183610a3a9190612700565b90505b8163ffffffff168163ffffffff161115610b6657600060028383610a619190612700565b610a6b9190612767565b82610a769190612700565b90506000600760008973ffffffffffffffffffffffffffffffffffffffff1673ffffffffffffffffffffffffffffffffffffffff16815260200190815260200160002060008363ffffffff1663ffffffff1681526020019081526020016000206040518060400160405290816000820160009054906101000a900463ffffffff1663ffffffff1663ffffffff168152602001600182015481525050905086816000015163ffffffff1603610b3557806020015195505050505050610bcc565b86816000015163ffffffff161015610b4f57819350610b5f565b600182610b5c9190612700565b92505b5050610a3d565b600760008773ffffffffffffffffffffffffffffffffffffffff1673ffffffffffffffffffffffffffffffffffffffff16815260200190815260200160002060008363ffffffff1663ffffffff1681526020019081526020016000206001015493505050505b92915050565b60096020528060005260406000206000915090505481565b6000600560009054906101000a900473ffffffffffffffffffffffffffffffffffffffff16905090565b606060048054610c23906125da565b80601f0160208091040260200160405190810160405280929190818152602001828054610c4f906125da565b8015610c9c5780601f10610c7157610100808354040283529160200191610c9c565b820191906000526020600020905b815481529060010190602001808311610c7f57829003601f168201915b5050505050905090565b600080610cb1611222565b90506000610cbf82866110b3565b905083811015610d04576040517f08c379a0000000000000000000000000000000000000000000000000000000008152600401610cfb9061280a565b60405180910390fd5b610d11828686840361122a565b60019250505092915050565b600080610d28611222565b9050610d3581858561147f565b600191505092915050565b600080600860008473ffffffffffffffffffffffffffffffffffffffff1673ffffffffffffffffffffffffffffffffffffffff16815260200190815260200160002060009054906101000a900463ffffffff16905060008163ffffffff1611610daa576000610e17565b600760008473ffffffffffffffffffffffffffffffffffffffff1673ffffffffffffffffffffffffffffffffffffffff1681526020019081526020016000206000600183610df89190612700565b63ffffffff1663ffffffff168152602001908152602001600020600101545b915050919050565b60007f8cad95687ba82c2ce50e74f7b754645e5117c3a5bec8151c0726d5857980a866610e4a610535565b80519060200120610e59611da1565b30604051602001610e6d949392919061282a565b60405160208183030381529060405280519060200120905060007fe48329057bfd03d55e49b547132e39cffd9c1820ad7b9d4c5307691425d15adf888888604051602001610ebe949392919061286f565b60405160208183030381529060405280519060200120905060008282604051602001610eeb92919061292c565b604051602081830303815290604052805190602001209050600060018288888860405160008152602001604052604051610f289493929190612963565b6020604051602081039080840390855afa158015610f4a573d6000803e3d6000fd5b505050602060405103519050600073ffffffffffffffffffffffffffffffffffffffff168173ffffffffffffffffffffffffffffffffffffffff1603610fc5576040517f08c379a0000000000000000000000000000000000000000000000000000000008152600401610fbc90612a1a565b60405180910390fd5b600960008273ffffffffffffffffffffffffffffffffffffffff1673ffffffffffffffffffffffffffffffffffffffff168152602001908152602001600020600081548092919061101590612a3a565b91905055891461105a576040517f08c379a000000000000000000000000000000000000000000000000000000000815260040161105190612af4565b60405180910390fd5b8742111561109d576040517f08c379a000000000000000000000000000000000000000000000000000000000815260040161109490612b86565b60405180910390fd5b6110a7818b611b6a565b50505050505050505050565b6000600160008473ffffffffffffffffffffffffffffffffffffffff1673ffffffffffffffffffffffffffffffffffffffff16815260200190815260200160002060008373ffffffffffffffffffffffffffffffffffffffff1673ffffffffffffffffffffffffffffffffffffffff16815260200190815260200160002054905092915050565b7fe48329057bfd03d55e49b547132e39cffd9c1820ad7b9d4c5307691425d15adf81565b6007602052816000526040600020602052806000526040600020600091509150508060000160009054906101000a900463ffffffff16908060010154905082565b6111a76116f5565b600073ffffffffffffffffffffffffffffffffffffffff168173ffffffffffffffffffffffffffffffffffffffff1603611216576040517f08c379a000000000000000000000000000000000000000000000000000000000815260040161120d90612c18565b60405180910390fd5b61121f81611cdb565b50565b600033905090565b600073ffffffffffffffffffffffffffffffffffffffff168373ffffffffffffffffffffffffffffffffffffffff1603611299576040517f08c379a000000000000000000000000000000000000000000000000000000000815260040161129090612caa565b60405180910390fd5b600073ffffffffffffffffffffffffffffffffffffffff168273ffffffffffffffffffffffffffffffffffffffff1603611308576040517f08c379a00000000000000000000000000000000000000000000000000000000081526004016112ff90612d3c565b60405180910390fd5b80600160008573ffffffffffffffffffffffffffffffffffffffff1673ffffffffffffffffffffffffffffffffffffffff16815260200190815260200160002060008473ffffffffffffffffffffffffffffffffffffffff1673ffffffffffffffffffffffffffffffffffffffff168152602001908152602001600020819055508173ffffffffffffffffffffffffffffffffffffffff168373ffffffffffffffffffffffffffffffffffffffff167f8c5be1e5ebec7d5bd14f71427d1e84f3dd0314c0f7b2291e5b200ac8c7c3b925836040516113e69190612287565b60405180910390a3505050565b60006113ff84846110b3565b90507fffffffffffffffffffffffffffffffffffffffffffffffffffffffffffffffff8114611479578181101561146b576040517f08c379a000000000000000000000000000000000000000000000000000000000815260040161146290612da8565b60405180910390fd5b611478848484840361122a565b5b50505050565b600073ffffffffffffffffffffffffffffffffffffffff168373ffffffffffffffffffffffffffffffffffffffff16036114ee576040517f08c379a00000000000000000000000000000000000000000000000000000000081526004016114e590612e3a565b60405180910390fd5b600073ffffffffffffffffffffffffffffffffffffffff168273ffffffffffffffffffffffffffffffffffffffff160361155d576040517f08c379a000000000000000000000000000000000000000000000000000000000815260040161155490612ecc565b60405180910390fd5b611568838383611dae565b60008060008573ffffffffffffffffffffffffffffffffffffffff1673ffffffffffffffffffffffffffffffffffffffff168152602001908152602001600020549050818110156115ee576040517f08c379a00000000000000000000000000000000000000000000000000000000081526004016115e590612f5e565b60405180910390fd5b8181036000808673ffffffffffffffffffffffffffffffffffffffff1673ffffffffffffffffffffffffffffffffffffffff16815260200190815260200160002081905550816000808573ffffffffffffffffffffffffffffffffffffffff1673ffffffffffffffffffffffffffffffffffffffff168152602001908152602001600020600082825401925050819055508273ffffffffffffffffffffffffffffffffffffffff168473ffffffffffffffffffffffffffffffffffffffff167fddf252ad1be2c89b69c2b068fc378daa952ba7f163c4a11628f55a4df523b3ef846040516116dc9190612287565b60405180910390a36116ef848484611db3565b50505050565b6116fd611222565b73ffffffffffffffffffffffffffffffffffffffff1661171b610bea565b73ffffffffffffffffffffffffffffffffffffffff1614611771576040517f08c379a000000000000000000000000000000000000000000000000000000000815260040161176890612fca565b60405180910390fd5b565b600073ffffffffffffffffffffffffffffffffffffffff168273ffffffffffffffffffffffffffffffffffffffff16036117e2576040517f08c379a00000000000000000000000000000000000000000000000000000000081526004016117d990613036565b60405180910390fd5b6117ee60008383611dae565b8060026000828254611800919061263a565b92505081905550806000808473ffffffffffffffffffffffffffffffffffffffff1673ffffffffffffffffffffffffffffffffffffffff168152602001908152602001600020600082825401925050819055508173ffffffffffffffffffffffffffffffffffffffff16600073ffffffffffffffffffffffffffffffffffffffff167fddf252ad1be2c89b69c2b068fc378daa952ba7f163c4a11628f55a4df523b3ef836040516118b19190612287565b60405180910390a36118c560008383611db3565b5050565b8173ffffffffffffffffffffffffffffffffffffffff168373ffffffffffffffffffffffffffffffffffffffff16141580156119055750600081115b15611b6557600073ffffffffffffffffffffffffffffffffffffffff168373ffffffffffffffffffffffffffffffffffffffff1614611a37576000600860008573ffffffffffffffffffffffffffffffffffffffff1673ffffffffffffffffffffffffffffffffffffffff16815260200190815260200160002060009054906101000a900463ffffffff1690506000808263ffffffff16116119a8576000611a15565b600760008673ffffffffffffffffffffffffffffffffffffffff1673ffffffffffffffffffffffffffffffffffffffff16815260200190815260200160002060006001846119f69190612700565b63ffffffff1663ffffffff168152602001908152602001600020600101545b905060008382611a259190613056565b9050611a3386848484611db8565b5050505b600073ffffffffffffffffffffffffffffffffffffffff168273ffffffffffffffffffffffffffffffffffffffff1614611b64576000600860008473ffffffffffffffffffffffffffffffffffffffff1673ffffffffffffffffffffffffffffffffffffffff16815260200190815260200160002060009054906101000a900463ffffffff1690506000808263ffffffff1611611ad5576000611b42565b600760008573ffffffffffffffffffffffffffffffffffffffff1673ffffffffffffffffffffffffffffffffffffffff1681526020019081526020016000206000600184611b239190612700565b63ffffffff1663ffffffff168152602001908152602001600020600101545b905060008382611b52919061263a565b9050611b6085848484611db8565b5050505b5b505050565b6000600660008473ffffffffffffffffffffffffffffffffffffffff1673ffffffffffffffffffffffffffffffffffffffff16815260200190815260200160002060009054906101000a900473ffffffffffffffffffffffffffffffffffffffff1690506000611bd9846107a1565b905082600660008673ffffffffffffffffffffffffffffffffffffffff1673ffffffffffffffffffffffffffffffffffffffff16815260200190815260200160002060006101000a81548173ffffffffffffffffffffffffffffffffffffffff021916908373ffffffffffffffffffffffffffffffffffffffff1602179055508273ffffffffffffffffffffffffffffffffffffffff168273ffffffffffffffffffffffffffffffffffffffff168573ffffffffffffffffffffffffffffffffffffffff167f3134e8a2e6d97e929a7e54011ea5485d7d196dd5f0ba4d4ef95803e8e3fc257f60405160405180910390a4611cd58284836118c9565b50505050565b6000600560009054906101000a900473ffffffffffffffffffffffffffffffffffffffff16905081600560006101000a81548173ffffffffffffffffffffffffffffffffffffffff021916908373ffffffffffffffffffffffffffffffffffffffff1602179055508173ffffffffffffffffffffffffffffffffffffffff168173ffffffffffffffffffffffffffffffffffffffff167f8be0079c531659141344cd1fd0a4f28419497f9722a3daafe3b4186f6b6457e060405160405180910390a35050565b6000804690508091505090565b505050565b505050565b6000611ddc436040518060600160405280603581526020016130ec60359139612061565b905060008463ffffffff16118015611e7a57508063ffffffff16600760008773ffffffffffffffffffffffffffffffffffffffff1673ffffffffffffffffffffffffffffffffffffffff1681526020019081526020016000206000600187611e449190612700565b63ffffffff1663ffffffff16815260200190815260200160002060000160009054906101000a900463ffffffff1663ffffffff16145b15611ef45781600760008773ffffffffffffffffffffffffffffffffffffffff1673ffffffffffffffffffffffffffffffffffffffff1681526020019081526020016000206000600187611ece9190612700565b63ffffffff1663ffffffff1681526020019081526020016000206001018190555061200a565b60405180604001604052808263ffffffff16815260200183815250600760008773ffffffffffffffffffffffffffffffffffffffff1673ffffffffffffffffffffffffffffffffffffffff16815260200190815260200160002060008663ffffffff1663ffffffff16815260200190815260200160002060008201518160000160006101000a81548163ffffffff021916908363ffffffff16021790555060208201518160010155905050600184611fac919061308a565b600860008773ffffffffffffffffffffffffffffffffffffffff1673ffffffffffffffffffffffffffffffffffffffff16815260200190815260200160002060006101000a81548163ffffffff021916908363ffffffff1602179055505b8473ffffffffffffffffffffffffffffffffffffffff167fdec2bacdd2f05b59de34da9b523dff8be42e5e38e818c82fdb0bae774387a72484846040516120529291906130c2565b60405180910390a25050505050565b6000640100000000831082906120ad576040517f08c379a00000000000000000000000000000000000000000000000000000000081526004016120a49190612147565b60405180910390fd5b5082905092915050565b600081519050919050565b600082825260208201905092915050565b60005b838110156120f15780820151818401526020810190506120d6565b60008484015250505050565b6000601f19601f8301169050919050565b6000612119826120b7565b61212381856120c2565b93506121338185602086016120d3565b61213c816120fd565b840191505092915050565b60006020820190508181036000830152612161818461210e565b905092915050565b600080fd5b600073ffffffffffffffffffffffffffffffffffffffff82169050919050565b60006121998261216e565b9050919050565b6121a98161218e565b81146121b457600080fd5b50565b6000813590506121c6816121a0565b92915050565b6000819050919050565b6121df816121cc565b81146121ea57600080fd5b50565b6000813590506121fc816121d6565b92915050565b6000806040838503121561221957612218612169565b5b6000612227858286016121b7565b9250506020612238858286016121ed565b9150509250929050565b60008115159050919050565b61225781612242565b82525050565b6000602082019050612272600083018461224e565b92915050565b612281816121cc565b82525050565b600060208201905061229c6000830184612278565b92915050565b6000819050919050565b6122b5816122a2565b82525050565b60006020820190506122d060008301846122ac565b92915050565b6000806000606084860312156122ef576122ee612169565b5b60006122fd868287016121b7565b935050602061230e868287016121b7565b925050604061231f868287016121ed565b9150509250925092565b600060ff82169050919050565b61233f81612329565b82525050565b600060208201905061235a6000830184612336565b92915050565b60006020828403121561237657612375612169565b5b6000612384848285016121b7565b91505092915050565b6123968161218e565b82525050565b60006020820190506123b1600083018461238d565b92915050565b600063ffffffff82169050919050565b6123d0816123b7565b82525050565b60006020820190506123eb60008301846123c7565b92915050565b6123fa81612329565b811461240557600080fd5b50565b600081359050612417816123f1565b92915050565b612426816122a2565b811461243157600080fd5b50565b6000813590506124438161241d565b92915050565b60008060008060008060c0878903121561246657612465612169565b5b600061247489828a016121b7565b965050602061248589828a016121ed565b955050604061249689828a016121ed565b94505060606124a789828a01612408565b93505060806124b889828a01612434565b92505060a06124c989828a01612434565b9150509295509295509295565b600080604083850312156124ed576124ec612169565b5b60006124fb858286016121b7565b925050602061250c858286016121b7565b9150509250929050565b61251f816123b7565b811461252a57600080fd5b50565b60008135905061253c81612516565b92915050565b6000806040838503121561255957612558612169565b5b6000612567858286016121b7565b92505060206125788582860161252d565b9150509250929050565b600060408201905061259760008301856123c7565b6125a46020830184612278565b9392505050565b7f4e487b7100000000000000000000000000000000000000000000000000000000600052602260045260246000fd5b600060028204905060018216806125f257607f821691505b602082108103612605576126046125ab565b5b50919050565b7f4e487b7100000000000000000000000000000000000000000000000000000000600052601160045260246000fd5b6000612645826121cc565b9150612650836121cc565b92508282019050808211156126685761266761260b565b5b92915050565b7f53555348493a3a6765745072696f72566f7465733a206e6f742079657420646560008201527f7465726d696e6564000000000000000000000000000000000000000000000000602082015250565b60006126ca6028836120c2565b91506126d58261266e565b604082019050919050565b600060208201905081810360008301526126f9816126bd565b9050919050565b600061270b826123b7565b9150612716836123b7565b9250828203905063ffffffff8111156127325761273161260b565b5b92915050565b7f4e487b7100000000000000000000000000000000000000000000000000000000600052601260045260246000fd5b6000612772826123b7565b915061277d836123b7565b92508261278d5761278c612738565b5b828204905092915050565b7f45524332303a2064656372656173656420616c6c6f77616e63652062656c6f7760008201527f207a65726f000000000000000000000000000000000000000000000000000000602082015250565b60006127f46025836120c2565b91506127ff82612798565b604082019050919050565b60006020820190508181036000830152612823816127e7565b9050919050565b600060808201905061283f60008301876122ac565b61284c60208301866122ac565b6128596040830185612278565b612866606083018461238d565b95945050505050565b600060808201905061288460008301876122ac565b612891602083018661238d565b61289e6040830185612278565b6128ab6060830184612278565b95945050505050565b600081905092915050565b7f1901000000000000000000000000000000000000000000000000000000000000600082015250565b60006128f56002836128b4565b9150612900826128bf565b600282019050919050565b6000819050919050565b612926612921826122a2565b61290b565b82525050565b6000612937826128e8565b91506129438285612915565b6020820191506129538284612915565b6020820191508190509392505050565b600060808201905061297860008301876122ac565b6129856020830186612336565b61299260408301856122ac565b61299f60608301846122ac565b95945050505050565b7f53555348493a3a64656c656761746542795369673a20696e76616c696420736960008201527f676e617475726500000000000000000000000000000000000000000000000000602082015250565b6000612a046027836120c2565b9150612a0f826129a8565b604082019050919050565b60006020820190508181036000830152612a33816129f7565b9050919050565b6000612a45826121cc565b91507fffffffffffffffffffffffffffffffffffffffffffffffffffffffffffffffff8203612a7757612a7661260b565b5b600182019050919050565b7f53555348493a3a64656c656761746542795369673a20696e76616c6964206e6f60008201527f6e63650000000000000000000000000000000000000000000000000000000000602082015250565b6000612ade6023836120c2565b9150612ae982612a82565b604082019050919050565b60006020820190508181036000830152612b0d81612ad1565b9050919050565b7f53555348493a3a64656c656761746542795369673a207369676e61747572652060008201527f6578706972656400000000000000000000000000000000000000000000000000602082015250565b6000612b706027836120c2565b9150612b7b82612b14565b604082019050919050565b60006020820190508181036000830152612b9f81612b63565b9050919050565b7f4f776e61626c653a206e6577206f776e657220697320746865207a65726f206160008201527f6464726573730000000000000000000000000000000000000000000000000000602082015250565b6000612c026026836120c2565b9150612c0d82612ba6565b604082019050919050565b60006020820190508181036000830152612c3181612bf5565b9050919050565b7f45524332303a20617070726f76652066726f6d20746865207a65726f2061646460008201527f7265737300000000000000000000000000000000000000000000000000000000602082015250565b6000612c946024836120c2565b9150612c9f82612c38565b604082019050919050565b60006020820190508181036000830152612cc381612c87565b9050919050565b7f45524332303a20617070726f766520746f20746865207a65726f20616464726560008201527f7373000000000000000000000000000000000000000000000000000000000000602082015250565b6000612d266022836120c2565b9150612d3182612cca565b604082019050919050565b60006020820190508181036000830152612d5581612d19565b9050919050565b7f45524332303a20696e73756666696369656e7420616c6c6f77616e6365000000600082015250565b6000612d92601d836120c2565b9150612d9d82612d5c565b602082019050919050565b60006020820190508181036000830152612dc181612d85565b9050919050565b7f45524332303a207472616e736665722066726f6d20746865207a65726f20616460008201527f6472657373000000000000000000000000000000000000000000000000000000602082015250565b6000612e246025836120c2565b9150612e2f82612dc8565b604082019050919050565b60006020820190508181036000830152612e5381612e17565b9050919050565b7f45524332303a207472616e7366657220746f20746865207a65726f206164647260008201527f6573730000000000000000000000000000000000000000000000000000000000602082015250565b6000612eb66023836120c2565b9150612ec182612e5a565b604082019050919050565b60006020820190508181036000830152612ee581612ea9565b9050919050565b7f45524332303a207472616e7366657220616d6f756e742065786365656473206260008201527f616c616e63650000000000000000000000000000000000000000000000000000602082015250565b6000612f486026836120c2565b9150612f5382612eec565b604082019050919050565b60006020820190508181036000830152612f7781612f3b565b9050919050565b7f4f776e61626c653a2063616c6c6572206973206e6f7420746865206f776e6572600082015250565b6000612fb46020836120c2565b9150612fbf82612f7e565b602082019050919050565b60006020820190508181036000830152612fe381612fa7565b9050919050565b7f45524332303a206d696e7420746f20746865207a65726f206164647265737300600082015250565b6000613020601f836120c2565b915061302b82612fea565b602082019050919050565b6000602082019050818103600083015261304f81613013565b9050919050565b6000613061826121cc565b915061306c836121cc565b92508282039050818111156130845761308361260b565b5b92915050565b6000613095826123b7565b91506130a0836123b7565b9250828201905063ffffffff8111156130bc576130bb61260b565b5b92915050565b60006040820190506130d76000830185612278565b6130e46020830184612278565b939250505056fe53555348493a3a5f7772697465436865636b706f696e743a20626c6f636b206e756d62657220657863656564732033322062697473a2646970667358221220b85d10d921ef5ab21afa97512d68d7cd7cde3429e48f992b94f91a8dfe5a88ca64736f6c63430008130033",
					"opcodes": "PUSH1 0x80 PUSH1 0x40 MSTORE CALLVALUE DUP1 ISZERO PUSH3 0x11 JUMPI PUSH1 0x0 DUP1 REVERT JUMPDEST POP PUSH1 0x40 MLOAD DUP1 PUSH1 0x40 ADD PUSH1 0x40 MSTORE DUP1 PUSH1 0xA DUP2 MSTORE PUSH1 0x20 ADD PUSH32 0x5375736869546F6B656E00000000000000000000000000000000000000000000 DUP2 MSTORE POP PUSH1 0x40 MLOAD DUP1 PUSH1 0x40 ADD PUSH1 0x40 MSTORE DUP1 PUSH1 0x5 DUP2 MSTORE PUSH1 0x20 ADD PUSH32 0x5355534849000000000000000000000000000000000000000000000000000000 DUP2 MSTORE POP DUP2 PUSH1 0x3 SWAP1 DUP2 PUSH3 0x8F SWAP2 SWAP1 PUSH3 0x412 JUMP JUMPDEST POP DUP1 PUSH1 0x4 SWAP1 DUP2 PUSH3 0xA1 SWAP2 SWAP1 PUSH3 0x412 JUMP JUMPDEST POP POP POP PUSH3 0xC4 PUSH3 0xB8 PUSH3 0xCA PUSH1 0x20 SHL PUSH1 0x20 SHR JUMP JUMPDEST PUSH3 0xD2 PUSH1 0x20 SHL PUSH1 0x20 SHR JUMP JUMPDEST PUSH3 0x4F9 JUMP JUMPDEST PUSH1 0x0 CALLER SWAP1 POP SWAP1 JUMP JUMPDEST PUSH1 0x0 PUSH1 0x5 PUSH1 0x0 SWAP1 SLOAD SWAP1 PUSH2 0x100 EXP SWAP1 DIV PUSH20 0xFFFFFFFFFFFFFFFFFFFFFFFFFFFFFFFFFFFFFFFF AND SWAP1 POP DUP2 PUSH1 0x5 PUSH1 0x0 PUSH2 0x100 EXP DUP2 SLOAD DUP2 PUSH20 0xFFFFFFFFFFFFFFFFFFFFFFFFFFFFFFFFFFFFFFFF MUL NOT AND SWAP1 DUP4 PUSH20 0xFFFFFFFFFFFFFFFFFFFFFFFFFFFFFFFFFFFFFFFF AND MUL OR SWAP1 SSTORE POP DUP2 PUSH20 0xFFFFFFFFFFFFFFFFFFFFFFFFFFFFFFFFFFFFFFFF AND DUP2 PUSH20 0xFFFFFFFFFFFFFFFFFFFFFFFFFFFFFFFFFFFFFFFF AND PUSH32 0x8BE0079C531659141344CD1FD0A4F28419497F9722A3DAAFE3B4186F6B6457E0 PUSH1 0x40 MLOAD PUSH1 0x40 MLOAD DUP1 SWAP2 SUB SWAP1 LOG3 POP POP JUMP JUMPDEST PUSH1 0x0 DUP2 MLOAD SWAP1 POP SWAP2 SWAP1 POP JUMP JUMPDEST PUSH32 0x4E487B7100000000000000000000000000000000000000000000000000000000 PUSH1 0x0 MSTORE PUSH1 0x41 PUSH1 0x4 MSTORE PUSH1 0x24 PUSH1 0x0 REVERT JUMPDEST PUSH32 0x4E487B7100000000000000000000000000000000000000000000000000000000 PUSH1 0x0 MSTORE PUSH1 0x22 PUSH1 0x4 MSTORE PUSH1 0x24 PUSH1 0x0 REVERT JUMPDEST PUSH1 0x0 PUSH1 0x2 DUP3 DIV SWAP1 POP PUSH1 0x1 DUP3 AND DUP1 PUSH3 0x21A JUMPI PUSH1 0x7F DUP3 AND SWAP2 POP JUMPDEST PUSH1 0x20 DUP3 LT DUP2 SUB PUSH3 0x230 JUMPI PUSH3 0x22F PUSH3 0x1D2 JUMP JUMPDEST JUMPDEST POP SWAP2 SWAP1 POP JUMP JUMPDEST PUSH1 0x0 DUP2 SWAP1 POP DUP2 PUSH1 0x0 MSTORE PUSH1 0x20 PUSH1 0x0 KECCAK256 SWAP1 POP SWAP2 SWAP1 POP JUMP JUMPDEST PUSH1 0x0 PUSH1 0x20 PUSH1 0x1F DUP4 ADD DIV SWAP1 POP SWAP2 SWAP1 POP JUMP JUMPDEST PUSH1 0x0 DUP3 DUP3 SHL SWAP1 POP SWAP3 SWAP2 POP POP JUMP JUMPDEST PUSH1 0x0 PUSH1 0x8 DUP4 MUL PUSH3 0x29A PUSH32 0xFFFFFFFFFFFFFFFFFFFFFFFFFFFFFFFFFFFFFFFFFFFFFFFFFFFFFFFFFFFFFFFF DUP3 PUSH3 0x25B JUMP JUMPDEST PUSH3 0x2A6 DUP7 DUP4 PUSH3 0x25B JUMP JUMPDEST SWAP6 POP DUP1 NOT DUP5 AND SWAP4 POP DUP1 DUP7 AND DUP5 OR SWAP3 POP POP POP SWAP4 SWAP3 POP POP POP JUMP JUMPDEST PUSH1 0x0 DUP2 SWAP1 POP SWAP2 SWAP1 POP JUMP JUMPDEST PUSH1 0x0 DUP2 SWAP1 POP SWAP2 SWAP1 POP JUMP JUMPDEST PUSH1 0x0 PUSH3 0x2F3 PUSH3 0x2ED PUSH3 0x2E7 DUP5 PUSH3 0x2BE JUMP JUMPDEST PUSH3 0x2C8 JUMP JUMPDEST PUSH3 0x2BE JUMP JUMPDEST SWAP1 POP SWAP2 SWAP1 POP JUMP JUMPDEST PUSH1 0x0 DUP2 SWAP1 POP SWAP2 SWAP1 POP JUMP JUMPDEST PUSH3 0x30F DUP4 PUSH3 0x2D2 JUMP JUMPDEST PUSH3 0x327 PUSH3 0x31E DUP3 PUSH3 0x2FA JUMP JUMPDEST DUP5 DUP5 SLOAD PUSH3 0x268 JUMP JUMPDEST DUP3 SSTORE POP POP POP POP JUMP JUMPDEST PUSH1 0x0 SWAP1 JUMP JUMPDEST PUSH3 0x33E PUSH3 0x32F JUMP JUMPDEST PUSH3 0x34B DUP2 DUP5 DUP5 PUSH3 0x304 JUMP JUMPDEST POP POP POP JUMP JUMPDEST JUMPDEST DUP2 DUP2 LT ISZERO PUSH3 0x373 JUMPI PUSH3 0x367 PUSH1 0x0 DUP3 PUSH3 0x334 JUMP JUMPDEST PUSH1 0x1 DUP2 ADD SWAP1 POP PUSH3 0x351 JUMP JUMPDEST POP POP JUMP JUMPDEST PUSH1 0x1F DUP3 GT ISZERO PUSH3 0x3C2 JUMPI PUSH3 0x38C DUP2 PUSH3 0x236 JUMP JUMPDEST PUSH3 0x397 DUP5 PUSH3 0x24B JUMP JUMPDEST DUP2 ADD PUSH1 0x20 DUP6 LT ISZERO PUSH3 0x3A7 JUMPI DUP2 SWAP1 POP JUMPDEST PUSH3 0x3BF PUSH3 0x3B6 DUP6 PUSH3 0x24B JUMP JUMPDEST DUP4 ADD DUP3 PUSH3 0x350 JUMP JUMPDEST POP POP JUMPDEST POP POP POP JUMP JUMPDEST PUSH1 0x0 DUP3 DUP3 SHR SWAP1 POP SWAP3 SWAP2 POP POP JUMP JUMPDEST PUSH1 0x0 PUSH3 0x3E7 PUSH1 0x0 NOT DUP5 PUSH1 0x8 MUL PUSH3 0x3C7 JUMP JUMPDEST NOT DUP1 DUP4 AND SWAP2 POP POP SWAP3 SWAP2 POP POP JUMP JUMPDEST PUSH1 0x0 PUSH3 0x402 DUP4 DUP4 PUSH3 0x3D4 JUMP JUMPDEST SWAP2 POP DUP3 PUSH1 0x2 MUL DUP3 OR SWAP1 POP SWAP3 SWAP2 POP POP JUMP JUMPDEST PUSH3 0x41D DUP3 PUSH3 0x198 JUMP JUMPDEST PUSH8 0xFFFFFFFFFFFFFFFF DUP2 GT ISZERO PUSH3 0x439 JUMPI PUSH3 0x438 PUSH3 0x1A3 JUMP JUMPDEST JUMPDEST PUSH3 0x445 DUP3 SLOAD PUSH3 0x201 JUMP JUMPDEST PUSH3 0x452 DUP3 DUP3 DUP6 PUSH3 0x377 JUMP JUMPDEST PUSH1 0x0 PUSH1 0x20 SWAP1 POP PUSH1 0x1F DUP4 GT PUSH1 0x1 DUP2 EQ PUSH3 0x48A JUMPI PUSH1 0x0 DUP5 ISZERO PUSH3 0x475 JUMPI DUP3 DUP8 ADD MLOAD SWAP1 POP JUMPDEST PUSH3 0x481 DUP6 DUP3 PUSH3 0x3F4 JUMP JUMPDEST DUP7 SSTORE POP PUSH3 0x4F1 JUMP JUMPDEST PUSH1 0x1F NOT DUP5 AND PUSH3 0x49A DUP7 PUSH3 0x236 JUMP JUMPDEST PUSH1 0x0 JUMPDEST DUP3 DUP2 LT ISZERO PUSH3 0x4C4 JUMPI DUP5 DUP10 ADD MLOAD DUP3 SSTORE PUSH1 0x1 DUP3 ADD SWAP2 POP PUSH1 0x20 DUP6 ADD SWAP5 POP PUSH1 0x20 DUP2 ADD SWAP1 POP PUSH3 0x49D JUMP JUMPDEST DUP7 DUP4 LT ISZERO PUSH3 0x4E4 JUMPI DUP5 DUP10 ADD MLOAD PUSH3 0x4E0 PUSH1 0x1F DUP10 AND DUP3 PUSH3 0x3D4 JUMP JUMPDEST DUP4 SSTORE POP JUMPDEST PUSH1 0x1 PUSH1 0x2 DUP9 MUL ADD DUP9 SSTORE POP POP POP JUMPDEST POP POP POP POP POP POP JUMP JUMPDEST PUSH2 0x3156 DUP1 PUSH3 0x509 PUSH1 0x0 CODECOPY PUSH1 0x0 RETURN INVALID PUSH1 0x80 PUSH1 0x40 MSTORE CALLVALUE DUP1 ISZERO PUSH2 0x10 JUMPI PUSH1 0x0 DUP1 REVERT JUMPDEST POP PUSH1 0x4 CALLDATASIZE LT PUSH2 0x173 JUMPI PUSH1 0x0 CALLDATALOAD PUSH1 0xE0 SHR DUP1 PUSH4 0x715018A6 GT PUSH2 0xDE JUMPI DUP1 PUSH4 0xA9059CBB GT PUSH2 0x97 JUMPI DUP1 PUSH4 0xDD62ED3E GT PUSH2 0x71 JUMPI DUP1 PUSH4 0xDD62ED3E EQ PUSH2 0x49A JUMPI DUP1 PUSH4 0xE7A324DC EQ PUSH2 0x4CA JUMPI DUP1 PUSH4 0xF1127ED8 EQ PUSH2 0x4E8 JUMPI DUP1 PUSH4 0xF2FDE38B EQ PUSH2 0x519 JUMPI PUSH2 0x173 JUMP JUMPDEST DUP1 PUSH4 0xA9059CBB EQ PUSH2 0x41E JUMPI DUP1 PUSH4 0xB4B5EA57 EQ PUSH2 0x44E JUMPI DUP1 PUSH4 0xC3CDA520 EQ PUSH2 0x47E JUMPI PUSH2 0x173 JUMP JUMPDEST DUP1 PUSH4 0x715018A6 EQ PUSH2 0x348 JUMPI DUP1 PUSH4 0x782D6FE1 EQ PUSH2 0x352 JUMPI DUP1 PUSH4 0x7ECEBE00 EQ PUSH2 0x382 JUMPI DUP1 PUSH4 0x8DA5CB5B EQ PUSH2 0x3B2 JUMPI DUP1 PUSH4 0x95D89B41 EQ PUSH2 0x3D0 JUMPI DUP1 PUSH4 0xA457C2D7 EQ PUSH2 0x3EE JUMPI PUSH2 0x173 JUMP JUMPDEST DUP1 PUSH4 0x39509351 GT PUSH2 0x130 JUMPI DUP1 PUSH4 0x39509351 EQ PUSH2 0x250 JUMPI DUP1 PUSH4 0x40C10F19 EQ PUSH2 0x280 JUMPI DUP1 PUSH4 0x587CDE1E EQ PUSH2 0x29C JUMPI DUP1 PUSH4 0x5C19A95C EQ PUSH2 0x2CC JUMPI DUP1 PUSH4 0x6FCFFF45 EQ PUSH2 0x2E8 JUMPI DUP1 PUSH4 0x70A08231 EQ PUSH2 0x318 JUMPI PUSH2 0x173 JUMP JUMPDEST DUP1 PUSH4 0x6FDDE03 EQ PUSH2 0x178 JUMPI DUP1 PUSH4 0x95EA7B3 EQ PUSH2 0x196 JUMPI DUP1 PUSH4 0x18160DDD EQ PUSH2 0x1C6 JUMPI DUP1 PUSH4 0x20606B70 EQ PUSH2 0x1E4 JUMPI DUP1 PUSH4 0x23B872DD EQ PUSH2 0x202 JUMPI DUP1 PUSH4 0x313CE567 EQ PUSH2 0x232 JUMPI JUMPDEST PUSH1 0x0 DUP1 REVERT JUMPDEST PUSH2 0x180 PUSH2 0x535 JUMP JUMPDEST PUSH1 0x40 MLOAD PUSH2 0x18D SWAP2 SWAP1 PUSH2 0x2147 JUMP JUMPDEST PUSH1 0x40 MLOAD DUP1 SWAP2 SUB SWAP1 RETURN JUMPDEST PUSH2 0x1B0 PUSH1 0x4 DUP1 CALLDATASIZE SUB DUP2 ADD SWAP1 PUSH2 0x1AB SWAP2 SWAP1 PUSH2 0x2202 JUMP JUMPDEST PUSH2 0x5C7 JUMP JUMPDEST PUSH1 0x40 MLOAD PUSH2 0x1BD SWAP2 SWAP1 PUSH2 0x225D JUMP JUMPDEST PUSH1 0x40 MLOAD DUP1 SWAP2 SUB SWAP1 RETURN JUMPDEST PUSH2 0x1CE PUSH2 0x5EA JUMP JUMPDEST PUSH1 0x40 MLOAD PUSH2 0x1DB SWAP2 SWAP1 PUSH2 0x2287 JUMP JUMPDEST PUSH1 0x40 MLOAD DUP1 SWAP2 SUB SWAP1 RETURN JUMPDEST PUSH2 0x1EC PUSH2 0x5F4 JUMP JUMPDEST PUSH1 0x40 MLOAD PUSH2 0x1F9 SWAP2 SWAP1 PUSH2 0x22BB JUMP JUMPDEST PUSH1 0x40 MLOAD DUP1 SWAP2 SUB SWAP1 RETURN JUMPDEST PUSH2 0x21C PUSH1 0x4 DUP1 CALLDATASIZE SUB DUP2 ADD SWAP1 PUSH2 0x217 SWAP2 SWAP1 PUSH2 0x22D6 JUMP JUMPDEST PUSH2 0x618 JUMP JUMPDEST PUSH1 0x40 MLOAD PUSH2 0x229 SWAP2 SWAP1 PUSH2 0x225D JUMP JUMPDEST PUSH1 0x40 MLOAD DUP1 SWAP2 SUB SWAP1 RETURN JUMPDEST PUSH2 0x23A PUSH2 0x647 JUMP JUMPDEST PUSH1 0x40 MLOAD PUSH2 0x247 SWAP2 SWAP1 PUSH2 0x2345 JUMP JUMPDEST PUSH1 0x40 MLOAD DUP1 SWAP2 SUB SWAP1 RETURN JUMPDEST PUSH2 0x26A PUSH1 0x4 DUP1 CALLDATASIZE SUB DUP2 ADD SWAP1 PUSH2 0x265 SWAP2 SWAP1 PUSH2 0x2202 JUMP JUMPDEST PUSH2 0x650 JUMP JUMPDEST PUSH1 0x40 MLOAD PUSH2 0x277 SWAP2 SWAP1 PUSH2 0x225D JUMP JUMPDEST PUSH1 0x40 MLOAD DUP1 SWAP2 SUB SWAP1 RETURN JUMPDEST PUSH2 0x29A PUSH1 0x4 DUP1 CALLDATASIZE SUB DUP2 ADD SWAP1 PUSH2 0x295 SWAP2 SWAP1 PUSH2 0x2202 JUMP JUMPDEST PUSH2 0x687 JUMP JUMPDEST STOP JUMPDEST PUSH2 0x2B6 PUSH1 0x4 DUP1 CALLDATASIZE SUB DUP2 ADD SWAP1 PUSH2 0x2B1 SWAP2 SWAP1 PUSH2 0x2360 JUMP JUMPDEST PUSH2 0x708 JUMP JUMPDEST PUSH1 0x40 MLOAD PUSH2 0x2C3 SWAP2 SWAP1 PUSH2 0x239C JUMP JUMPDEST PUSH1 0x40 MLOAD DUP1 SWAP2 SUB SWAP1 RETURN JUMPDEST PUSH2 0x2E6 PUSH1 0x4 DUP1 CALLDATASIZE SUB DUP2 ADD SWAP1 PUSH2 0x2E1 SWAP2 SWAP1 PUSH2 0x2360 JUMP JUMPDEST PUSH2 0x771 JUMP JUMPDEST STOP JUMPDEST PUSH2 0x302 PUSH1 0x4 DUP1 CALLDATASIZE SUB DUP2 ADD SWAP1 PUSH2 0x2FD SWAP2 SWAP1 PUSH2 0x2360 JUMP JUMPDEST PUSH2 0x77E JUMP JUMPDEST PUSH1 0x40 MLOAD PUSH2 0x30F SWAP2 SWAP1 PUSH2 0x23D6 JUMP JUMPDEST PUSH1 0x40 MLOAD DUP1 SWAP2 SUB SWAP1 RETURN JUMPDEST PUSH2 0x332 PUSH1 0x4 DUP1 CALLDATASIZE SUB DUP2 ADD SWAP1 PUSH2 0x32D SWAP2 SWAP1 PUSH2 0x2360 JUMP JUMPDEST PUSH2 0x7A1 JUMP JUMPDEST PUSH1 0x40 MLOAD PUSH2 0x33F SWAP2 SWAP1 PUSH2 0x2287 JUMP JUMPDEST PUSH1 0x40 MLOAD DUP1 SWAP2 SUB SWAP1 RETURN JUMPDEST PUSH2 0x350 PUSH2 0x7E9 JUMP JUMPDEST STOP JUMPDEST PUSH2 0x36C PUSH1 0x4 DUP1 CALLDATASIZE SUB DUP2 ADD SWAP1 PUSH2 0x367 SWAP2 SWAP1 PUSH2 0x2202 JUMP JUMPDEST PUSH2 0x7FD JUMP JUMPDEST PUSH1 0x40 MLOAD PUSH2 0x379 SWAP2 SWAP1 PUSH2 0x2287 JUMP JUMPDEST PUSH1 0x40 MLOAD DUP1 SWAP2 SUB SWAP1 RETURN JUMPDEST PUSH2 0x39C PUSH1 0x4 DUP1 CALLDATASIZE SUB DUP2 ADD SWAP1 PUSH2 0x397 SWAP2 SWAP1 PUSH2 0x2360 JUMP JUMPDEST PUSH2 0xBD2 JUMP JUMPDEST PUSH1 0x40 MLOAD PUSH2 0x3A9 SWAP2 SWAP1 PUSH2 0x2287 JUMP JUMPDEST PUSH1 0x40 MLOAD DUP1 SWAP2 SUB SWAP1 RETURN JUMPDEST PUSH2 0x3BA PUSH2 0xBEA JUMP JUMPDEST PUSH1 0x40 MLOAD PUSH2 0x3C7 SWAP2 SWAP1 PUSH2 0x239C JUMP JUMPDEST PUSH1 0x40 MLOAD DUP1 SWAP2 SUB SWAP1 RETURN JUMPDEST PUSH2 0x3D8 PUSH2 0xC14 JUMP JUMPDEST PUSH1 0x40 MLOAD PUSH2 0x3E5 SWAP2 SWAP1 PUSH2 0x2147 JUMP JUMPDEST PUSH1 0x40 MLOAD DUP1 SWAP2 SUB SWAP1 RETURN JUMPDEST PUSH2 0x408 PUSH1 0x4 DUP1 CALLDATASIZE SUB DUP2 ADD SWAP1 PUSH2 0x403 SWAP2 SWAP1 PUSH2 0x2202 JUMP JUMPDEST PUSH2 0xCA6 JUMP JUMPDEST PUSH1 0x40 MLOAD PUSH2 0x415 SWAP2 SWAP1 PUSH2 0x225D JUMP JUMPDEST PUSH1 0x40 MLOAD DUP1 SWAP2 SUB SWAP1 RETURN JUMPDEST PUSH2 0x438 PUSH1 0x4 DUP1 CALLDATASIZE SUB DUP2 ADD SWAP1 PUSH2 0x433 SWAP2 SWAP1 PUSH2 0x2202 JUMP JUMPDEST PUSH2 0xD1D JUMP JUMPDEST PUSH1 0x40 MLOAD PUSH2 0x445 SWAP2 SWAP1 PUSH2 0x225D JUMP JUMPDEST PUSH1 0x40 MLOAD DUP1 SWAP2 SUB SWAP1 RETURN JUMPDEST PUSH2 0x468 PUSH1 0x4 DUP1 CALLDATASIZE SUB DUP2 ADD SWAP1 PUSH2 0x463 SWAP2 SWAP1 PUSH2 0x2360 JUMP JUMPDEST PUSH2 0xD40 JUMP JUMPDEST PUSH1 0x40 MLOAD PUSH2 0x475 SWAP2 SWAP1 PUSH2 0x2287 JUMP JUMPDEST PUSH1 0x40 MLOAD DUP1 SWAP2 SUB SWAP1 RETURN JUMPDEST PUSH2 0x498 PUSH1 0x4 DUP1 CALLDATASIZE SUB DUP2 ADD SWAP1 PUSH2 0x493 SWAP2 SWAP1 PUSH2 0x2449 JUMP JUMPDEST PUSH2 0xE1F JUMP JUMPDEST STOP JUMPDEST PUSH2 0x4B4 PUSH1 0x4 DUP1 CALLDATASIZE SUB DUP2 ADD SWAP1 PUSH2 0x4AF SWAP2 SWAP1 PUSH2 0x24D6 JUMP JUMPDEST PUSH2 0x10B3 JUMP JUMPDEST PUSH1 0x40 MLOAD PUSH2 0x4C1 SWAP2 SWAP1 PUSH2 0x2287 JUMP JUMPDEST PUSH1 0x40 MLOAD DUP1 SWAP2 SUB SWAP1 RETURN JUMPDEST PUSH2 0x4D2 PUSH2 0x113A JUMP JUMPDEST PUSH1 0x40 MLOAD PUSH2 0x4DF SWAP2 SWAP1 PUSH2 0x22BB JUMP JUMPDEST PUSH1 0x40 MLOAD DUP1 SWAP2 SUB SWAP1 RETURN JUMPDEST PUSH2 0x502 PUSH1 0x4 DUP1 CALLDATASIZE SUB DUP2 ADD SWAP1 PUSH2 0x4FD SWAP2 SWAP1 PUSH2 0x2542 JUMP JUMPDEST PUSH2 0x115E JUMP JUMPDEST PUSH1 0x40 MLOAD PUSH2 0x510 SWAP3 SWAP2 SWAP1 PUSH2 0x2582 JUMP JUMPDEST PUSH1 0x40 MLOAD DUP1 SWAP2 SUB SWAP1 RETURN JUMPDEST PUSH2 0x533 PUSH1 0x4 DUP1 CALLDATASIZE SUB DUP2 ADD SWAP1 PUSH2 0x52E SWAP2 SWAP1 PUSH2 0x2360 JUMP JUMPDEST PUSH2 0x119F JUMP JUMPDEST STOP JUMPDEST PUSH1 0x60 PUSH1 0x3 DUP1 SLOAD PUSH2 0x544 SWAP1 PUSH2 0x25DA JUMP JUMPDEST DUP1 PUSH1 0x1F ADD PUSH1 0x20 DUP1 SWAP2 DIV MUL PUSH1 0x20 ADD PUSH1 0x40 MLOAD SWAP1 DUP2 ADD PUSH1 0x40 MSTORE DUP1 SWAP3 SWAP2 SWAP1 DUP2 DUP2 MSTORE PUSH1 0x20 ADD DUP3 DUP1 SLOAD PUSH2 0x570 SWAP1 PUSH2 0x25DA JUMP JUMPDEST DUP1 ISZERO PUSH2 0x5BD JUMPI DUP1 PUSH1 0x1F LT PUSH2 0x592 JUMPI PUSH2 0x100 DUP1 DUP4 SLOAD DIV MUL DUP4 MSTORE SWAP2 PUSH1 0x20 ADD SWAP2 PUSH2 0x5BD JUMP JUMPDEST DUP3 ADD SWAP2 SWAP1 PUSH1 0x0 MSTORE PUSH1 0x20 PUSH1 0x0 KECCAK256 SWAP1 JUMPDEST DUP2 SLOAD DUP2 MSTORE SWAP1 PUSH1 0x1 ADD SWAP1 PUSH1 0x20 ADD DUP1 DUP4 GT PUSH2 0x5A0 JUMPI DUP3 SWAP1 SUB PUSH1 0x1F AND DUP3 ADD SWAP2 JUMPDEST POP POP POP POP POP SWAP1 POP SWAP1 JUMP JUMPDEST PUSH1 0x0 DUP1 PUSH2 0x5D2 PUSH2 0x1222 JUMP JUMPDEST SWAP1 POP PUSH2 0x5DF DUP2 DUP6 DUP6 PUSH2 0x122A JUMP JUMPDEST PUSH1 0x1 SWAP2 POP POP SWAP3 SWAP2 POP POP JUMP JUMPDEST PUSH1 0x0 PUSH1 0x2 SLOAD SWAP1 POP SWAP1 JUMP JUMPDEST PUSH32 0x8CAD95687BA82C2CE50E74F7B754645E5117C3A5BEC8151C0726D5857980A866 DUP2 JUMP JUMPDEST PUSH1 0x0 DUP1 PUSH2 0x623 PUSH2 0x1222 JUMP JUMPDEST SWAP1 POP PUSH2 0x630 DUP6 DUP3 DUP6 PUSH2 0x13F3 JUMP JUMPDEST PUSH2 0x63B DUP6 DUP6 DUP6 PUSH2 0x147F JUMP JUMPDEST PUSH1 0x1 SWAP2 POP POP SWAP4 SWAP3 POP POP POP JUMP JUMPDEST PUSH1 0x0 PUSH1 0x12 SWAP1 POP SWAP1 JUMP JUMPDEST PUSH1 0x0 DUP1 PUSH2 0x65B PUSH2 0x1222 JUMP JUMPDEST SWAP1 POP PUSH2 0x67C DUP2 DUP6 DUP6 PUSH2 0x66D DUP6 DUP10 PUSH2 0x10B3 JUMP JUMPDEST PUSH2 0x677 SWAP2 SWAP1 PUSH2 0x263A JUMP JUMPDEST PUSH2 0x122A JUMP JUMPDEST PUSH1 0x1 SWAP2 POP POP SWAP3 SWAP2 POP POP JUMP JUMPDEST PUSH2 0x68F PUSH2 0x16F5 JUMP JUMPDEST PUSH2 0x699 DUP3 DUP3 PUSH2 0x1773 JUMP JUMPDEST PUSH2 0x704 PUSH1 0x0 PUSH1 0x6 PUSH1 0x0 DUP6 PUSH20 0xFFFFFFFFFFFFFFFFFFFFFFFFFFFFFFFFFFFFFFFF AND PUSH20 0xFFFFFFFFFFFFFFFFFFFFFFFFFFFFFFFFFFFFFFFF AND DUP2 MSTORE PUSH1 0x20 ADD SWAP1 DUP2 MSTORE PUSH1 0x20 ADD PUSH1 0x0 KECCAK256 PUSH1 0x0 SWAP1 SLOAD SWAP1 PUSH2 0x100 EXP SWAP1 DIV PUSH20 0xFFFFFFFFFFFFFFFFFFFFFFFFFFFFFFFFFFFFFFFF AND DUP4 PUSH2 0x18C9 JUMP JUMPDEST POP POP JUMP JUMPDEST PUSH1 0x0 PUSH1 0x6 PUSH1 0x0 DUP4 PUSH20 0xFFFFFFFFFFFFFFFFFFFFFFFFFFFFFFFFFFFFFFFF AND PUSH20 0xFFFFFFFFFFFFFFFFFFFFFFFFFFFFFFFFFFFFFFFF AND DUP2 MSTORE PUSH1 0x20 ADD SWAP1 DUP2 MSTORE PUSH1 0x20 ADD PUSH1 0x0 KECCAK256 PUSH1 0x0 SWAP1 SLOAD SWAP1 PUSH2 0x100 EXP SWAP1 DIV PUSH20 0xFFFFFFFFFFFFFFFFFFFFFFFFFFFFFFFFFFFFFFFF AND SWAP1 POP SWAP2 SWAP1 POP JUMP JUMPDEST PUSH2 0x77B CALLER DUP3 PUSH2 0x1B6A JUMP JUMPDEST POP JUMP JUMPDEST PUSH1 0x8 PUSH1 0x20 MSTORE DUP1 PUSH1 0x0 MSTORE PUSH1 0x40 PUSH1 0x0 KECCAK256 PUSH1 0x0 SWAP2 POP SLOAD SWAP1 PUSH2 0x100 EXP SWAP1 DIV PUSH4 0xFFFFFFFF AND DUP2 JUMP JUMPDEST PUSH1 0x0 DUP1 PUSH1 0x0 DUP4 PUSH20 0xFFFFFFFFFFFFFFFFFFFFFFFFFFFFFFFFFFFFFFFF AND PUSH20 0xFFFFFFFFFFFFFFFFFFFFFFFFFFFFFFFFFFFFFFFF AND DUP2 MSTORE PUSH1 0x20 ADD SWAP1 DUP2 MSTORE PUSH1 0x20 ADD PUSH1 0x0 KECCAK256 SLOAD SWAP1 POP SWAP2 SWAP1 POP JUMP JUMPDEST PUSH2 0x7F1 PUSH2 0x16F5 JUMP JUMPDEST PUSH2 0x7FB PUSH1 0x0 PUSH2 0x1CDB JUMP JUMPDEST JUMP JUMPDEST PUSH1 0x0 NUMBER DUP3 LT PUSH2 0x841 JUMPI PUSH1 0x40 MLOAD PUSH32 0x8C379A000000000000000000000000000000000000000000000000000000000 DUP2 MSTORE PUSH1 0x4 ADD PUSH2 0x838 SWAP1 PUSH2 0x26E0 JUMP JUMPDEST PUSH1 0x40 MLOAD DUP1 SWAP2 SUB SWAP1 REVERT JUMPDEST PUSH1 0x0 PUSH1 0x8 PUSH1 0x0 DUP6 PUSH20 0xFFFFFFFFFFFFFFFFFFFFFFFFFFFFFFFFFFFFFFFF AND PUSH20 0xFFFFFFFFFFFFFFFFFFFFFFFFFFFFFFFFFFFFFFFF AND DUP2 MSTORE PUSH1 0x20 ADD SWAP1 DUP2 MSTORE PUSH1 0x20 ADD PUSH1 0x0 KECCAK256 PUSH1 0x0 SWAP1 SLOAD SWAP1 PUSH2 0x100 EXP SWAP1 DIV PUSH4 0xFFFFFFFF AND SWAP1 POP PUSH1 0x0 DUP2 PUSH4 0xFFFFFFFF AND SUB PUSH2 0x8AD JUMPI PUSH1 0x0 SWAP2 POP POP PUSH2 0xBCC JUMP JUMPDEST DUP3 PUSH1 0x7 PUSH1 0x0 DUP7 PUSH20 0xFFFFFFFFFFFFFFFFFFFFFFFFFFFFFFFFFFFFFFFF AND PUSH20 0xFFFFFFFFFFFFFFFFFFFFFFFFFFFFFFFFFFFFFFFF AND DUP2 MSTORE PUSH1 0x20 ADD SWAP1 DUP2 MSTORE PUSH1 0x20 ADD PUSH1 0x0 KECCAK256 PUSH1 0x0 PUSH1 0x1 DUP5 PUSH2 0x8FC SWAP2 SWAP1 PUSH2 0x2700 JUMP JUMPDEST PUSH4 0xFFFFFFFF AND PUSH4 0xFFFFFFFF AND DUP2 MSTORE PUSH1 0x20 ADD SWAP1 DUP2 MSTORE PUSH1 0x20 ADD PUSH1 0x0 KECCAK256 PUSH1 0x0 ADD PUSH1 0x0 SWAP1 SLOAD SWAP1 PUSH2 0x100 EXP SWAP1 DIV PUSH4 0xFFFFFFFF AND PUSH4 0xFFFFFFFF AND GT PUSH2 0x9A9 JUMPI PUSH1 0x7 PUSH1 0x0 DUP6 PUSH20 0xFFFFFFFFFFFFFFFFFFFFFFFFFFFFFFFFFFFFFFFF AND PUSH20 0xFFFFFFFFFFFFFFFFFFFFFFFFFFFFFFFFFFFFFFFF AND DUP2 MSTORE PUSH1 0x20 ADD SWAP1 DUP2 MSTORE PUSH1 0x20 ADD PUSH1 0x0 KECCAK256 PUSH1 0x0 PUSH1 0x1 DUP4 PUSH2 0x983 SWAP2 SWAP1 PUSH2 0x2700 JUMP JUMPDEST PUSH4 0xFFFFFFFF AND PUSH4 0xFFFFFFFF AND DUP2 MSTORE PUSH1 0x20 ADD SWAP1 DUP2 MSTORE PUSH1 0x20 ADD PUSH1 0x0 KECCAK256 PUSH1 0x1 ADD SLOAD SWAP2 POP POP PUSH2 0xBCC JUMP JUMPDEST DUP3 PUSH1 0x7 PUSH1 0x0 DUP7 PUSH20 0xFFFFFFFFFFFFFFFFFFFFFFFFFFFFFFFFFFFFFFFF AND PUSH20 0xFFFFFFFFFFFFFFFFFFFFFFFFFFFFFFFFFFFFFFFF AND DUP2 MSTORE PUSH1 0x20 ADD SWAP1 DUP2 MSTORE PUSH1 0x20 ADD PUSH1 0x0 KECCAK256 PUSH1 0x0 DUP1 PUSH4 0xFFFFFFFF AND DUP2 MSTORE PUSH1 0x20 ADD SWAP1 DUP2 MSTORE PUSH1 0x20 ADD PUSH1 0x0 KECCAK256 PUSH1 0x0 ADD PUSH1 0x0 SWAP1 SLOAD SWAP1 PUSH2 0x100 EXP SWAP1 DIV PUSH4 0xFFFFFFFF AND PUSH4 0xFFFFFFFF AND GT ISZERO PUSH2 0xA2A JUMPI PUSH1 0x0 SWAP2 POP POP PUSH2 0xBCC JUMP JUMPDEST PUSH1 0x0 DUP1 PUSH1 0x1 DUP4 PUSH2 0xA3A SWAP2 SWAP1 PUSH2 0x2700 JUMP JUMPDEST SWAP1 POP JUMPDEST DUP2 PUSH4 0xFFFFFFFF AND DUP2 PUSH4 0xFFFFFFFF AND GT ISZERO PUSH2 0xB66 JUMPI PUSH1 0x0 PUSH1 0x2 DUP4 DUP4 PUSH2 0xA61 SWAP2 SWAP1 PUSH2 0x2700 JUMP JUMPDEST PUSH2 0xA6B SWAP2 SWAP1 PUSH2 0x2767 JUMP JUMPDEST DUP3 PUSH2 0xA76 SWAP2 SWAP1 PUSH2 0x2700 JUMP JUMPDEST SWAP1 POP PUSH1 0x0 PUSH1 0x7 PUSH1 0x0 DUP10 PUSH20 0xFFFFFFFFFFFFFFFFFFFFFFFFFFFFFFFFFFFFFFFF AND PUSH20 0xFFFFFFFFFFFFFFFFFFFFFFFFFFFFFFFFFFFFFFFF AND DUP2 MSTORE PUSH1 0x20 ADD SWAP1 DUP2 MSTORE PUSH1 0x20 ADD PUSH1 0x0 KECCAK256 PUSH1 0x0 DUP4 PUSH4 0xFFFFFFFF AND PUSH4 0xFFFFFFFF AND DUP2 MSTORE PUSH1 0x20 ADD SWAP1 DUP2 MSTORE PUSH1 0x20 ADD PUSH1 0x0 KECCAK256 PUSH1 0x40 MLOAD DUP1 PUSH1 0x40 ADD PUSH1 0x40 MSTORE SWAP1 DUP2 PUSH1 0x0 DUP3 ADD PUSH1 0x0 SWAP1 SLOAD SWAP1 PUSH2 0x100 EXP SWAP1 DIV PUSH4 0xFFFFFFFF AND PUSH4 0xFFFFFFFF AND PUSH4 0xFFFFFFFF AND DUP2 MSTORE PUSH1 0x20 ADD PUSH1 0x1 DUP3 ADD SLOAD DUP2 MSTORE POP POP SWAP1 POP DUP7 DUP2 PUSH1 0x0 ADD MLOAD PUSH4 0xFFFFFFFF AND SUB PUSH2 0xB35 JUMPI DUP1 PUSH1 0x20 ADD MLOAD SWAP6 POP POP POP POP POP POP PUSH2 0xBCC JUMP JUMPDEST DUP7 DUP2 PUSH1 0x0 ADD MLOAD PUSH4 0xFFFFFFFF AND LT ISZERO PUSH2 0xB4F JUMPI DUP2 SWAP4 POP PUSH2 0xB5F JUMP JUMPDEST PUSH1 0x1 DUP3 PUSH2 0xB5C SWAP2 SWAP1 PUSH2 0x2700 JUMP JUMPDEST SWAP3 POP JUMPDEST POP POP PUSH2 0xA3D JUMP JUMPDEST PUSH1 0x7 PUSH1 0x0 DUP8 PUSH20 0xFFFFFFFFFFFFFFFFFFFFFFFFFFFFFFFFFFFFFFFF AND PUSH20 0xFFFFFFFFFFFFFFFFFFFFFFFFFFFFFFFFFFFFFFFF AND DUP2 MSTORE PUSH1 0x20 ADD SWAP1 DUP2 MSTORE PUSH1 0x20 ADD PUSH1 0x0 KECCAK256 PUSH1 0x0 DUP4 PUSH4 0xFFFFFFFF AND PUSH4 0xFFFFFFFF AND DUP2 MSTORE PUSH1 0x20 ADD SWAP1 DUP2 MSTORE PUSH1 0x20 ADD PUSH1 0x0 KECCAK256 PUSH1 0x1 ADD SLOAD SWAP4 POP POP POP POP JUMPDEST SWAP3 SWAP2 POP POP JUMP JUMPDEST PUSH1 0x9 PUSH1 0x20 MSTORE DUP1 PUSH1 0x0 MSTORE PUSH1 0x40 PUSH1 0x0 KECCAK256 PUSH1 0x0 SWAP2 POP SWAP1 POP SLOAD DUP2 JUMP JUMPDEST PUSH1 0x0 PUSH1 0x5 PUSH1 0x0 SWAP1 SLOAD SWAP1 PUSH2 0x100 EXP SWAP1 DIV PUSH20 0xFFFFFFFFFFFFFFFFFFFFFFFFFFFFFFFFFFFFFFFF AND SWAP1 POP SWAP1 JUMP JUMPDEST PUSH1 0x60 PUSH1 0x4 DUP1 SLOAD PUSH2 0xC23 SWAP1 PUSH2 0x25DA JUMP JUMPDEST DUP1 PUSH1 0x1F ADD PUSH1 0x20 DUP1 SWAP2 DIV MUL PUSH1 0x20 ADD PUSH1 0x40 MLOAD SWAP1 DUP2 ADD PUSH1 0x40 MSTORE DUP1 SWAP3 SWAP2 SWAP1 DUP2 DUP2 MSTORE PUSH1 0x20 ADD DUP3 DUP1 SLOAD PUSH2 0xC4F SWAP1 PUSH2 0x25DA JUMP JUMPDEST DUP1 ISZERO PUSH2 0xC9C JUMPI DUP1 PUSH1 0x1F LT PUSH2 0xC71 JUMPI PUSH2 0x100 DUP1 DUP4 SLOAD DIV MUL DUP4 MSTORE SWAP2 PUSH1 0x20 ADD SWAP2 PUSH2 0xC9C JUMP JUMPDEST DUP3 ADD SWAP2 SWAP1 PUSH1 0x0 MSTORE PUSH1 0x20 PUSH1 0x0 KECCAK256 SWAP1 JUMPDEST DUP2 SLOAD DUP2 MSTORE SWAP1 PUSH1 0x1 ADD SWAP1 PUSH1 0x20 ADD DUP1 DUP4 GT PUSH2 0xC7F JUMPI DUP3 SWAP1 SUB PUSH1 0x1F AND DUP3 ADD SWAP2 JUMPDEST POP POP POP POP POP SWAP1 POP SWAP1 JUMP JUMPDEST PUSH1 0x0 DUP1 PUSH2 0xCB1 PUSH2 0x1222 JUMP JUMPDEST SWAP1 POP PUSH1 0x0 PUSH2 0xCBF DUP3 DUP7 PUSH2 0x10B3 JUMP JUMPDEST SWAP1 POP DUP4 DUP2 LT ISZERO PUSH2 0xD04 JUMPI PUSH1 0x40 MLOAD PUSH32 0x8C379A000000000000000000000000000000000000000000000000000000000 DUP2 MSTORE PUSH1 0x4 ADD PUSH2 0xCFB SWAP1 PUSH2 0x280A JUMP JUMPDEST PUSH1 0x40 MLOAD DUP1 SWAP2 SUB SWAP1 REVERT JUMPDEST PUSH2 0xD11 DUP3 DUP7 DUP7 DUP5 SUB PUSH2 0x122A JUMP JUMPDEST PUSH1 0x1 SWAP3 POP POP POP SWAP3 SWAP2 POP POP JUMP JUMPDEST PUSH1 0x0 DUP1 PUSH2 0xD28 PUSH2 0x1222 JUMP JUMPDEST SWAP1 POP PUSH2 0xD35 DUP2 DUP6 DUP6 PUSH2 0x147F JUMP JUMPDEST PUSH1 0x1 SWAP2 POP POP SWAP3 SWAP2 POP POP JUMP JUMPDEST PUSH1 0x0 DUP1 PUSH1 0x8 PUSH1 0x0 DUP5 PUSH20 0xFFFFFFFFFFFFFFFFFFFFFFFFFFFFFFFFFFFFFFFF AND PUSH20 0xFFFFFFFFFFFFFFFFFFFFFFFFFFFFFFFFFFFFFFFF AND DUP2 MSTORE PUSH1 0x20 ADD SWAP1 DUP2 MSTORE PUSH1 0x20 ADD PUSH1 0x0 KECCAK256 PUSH1 0x0 SWAP1 SLOAD SWAP1 PUSH2 0x100 EXP SWAP1 DIV PUSH4 0xFFFFFFFF AND SWAP1 POP PUSH1 0x0 DUP2 PUSH4 0xFFFFFFFF AND GT PUSH2 0xDAA JUMPI PUSH1 0x0 PUSH2 0xE17 JUMP JUMPDEST PUSH1 0x7 PUSH1 0x0 DUP5 PUSH20 0xFFFFFFFFFFFFFFFFFFFFFFFFFFFFFFFFFFFFFFFF AND PUSH20 0xFFFFFFFFFFFFFFFFFFFFFFFFFFFFFFFFFFFFFFFF AND DUP2 MSTORE PUSH1 0x20 ADD SWAP1 DUP2 MSTORE PUSH1 0x20 ADD PUSH1 0x0 KECCAK256 PUSH1 0x0 PUSH1 0x1 DUP4 PUSH2 0xDF8 SWAP2 SWAP1 PUSH2 0x2700 JUMP JUMPDEST PUSH4 0xFFFFFFFF AND PUSH4 0xFFFFFFFF AND DUP2 MSTORE PUSH1 0x20 ADD SWAP1 DUP2 MSTORE PUSH1 0x20 ADD PUSH1 0x0 KECCAK256 PUSH1 0x1 ADD SLOAD JUMPDEST SWAP2 POP POP SWAP2 SWAP1 POP JUMP JUMPDEST PUSH1 0x0 PUSH32 0x8CAD95687BA82C2CE50E74F7B754645E5117C3A5BEC8151C0726D5857980A866 PUSH2 0xE4A PUSH2 0x535 JUMP JUMPDEST DUP1 MLOAD SWAP1 PUSH1 0x20 ADD KECCAK256 PUSH2 0xE59 PUSH2 0x1DA1 JUMP JUMPDEST ADDRESS PUSH1 0x40 MLOAD PUSH1 0x20 ADD PUSH2 0xE6D SWAP5 SWAP4 SWAP3 SWAP2 SWAP1 PUSH2 0x282A JUMP JUMPDEST PUSH1 0x40 MLOAD PUSH1 0x20 DUP2 DUP4 SUB SUB DUP2 MSTORE SWAP1 PUSH1 0x40 MSTORE DUP1 MLOAD SWAP1 PUSH1 0x20 ADD KECCAK256 SWAP1 POP PUSH1 0x0 PUSH32 0xE48329057BFD03D55E49B547132E39CFFD9C1820AD7B9D4C5307691425D15ADF DUP9 DUP9 DUP9 PUSH1 0x40 MLOAD PUSH1 0x20 ADD PUSH2 0xEBE SWAP5 SWAP4 SWAP3 SWAP2 SWAP1 PUSH2 0x286F JUMP JUMPDEST PUSH1 0x40 MLOAD PUSH1 0x20 DUP2 DUP4 SUB SUB DUP2 MSTORE SWAP1 PUSH1 0x40 MSTORE DUP1 MLOAD SWAP1 PUSH1 0x20 ADD KECCAK256 SWAP1 POP PUSH1 0x0 DUP3 DUP3 PUSH1 0x40 MLOAD PUSH1 0x20 ADD PUSH2 0xEEB SWAP3 SWAP2 SWAP1 PUSH2 0x292C JUMP JUMPDEST PUSH1 0x40 MLOAD PUSH1 0x20 DUP2 DUP4 SUB SUB DUP2 MSTORE SWAP1 PUSH1 0x40 MSTORE DUP1 MLOAD SWAP1 PUSH1 0x20 ADD KECCAK256 SWAP1 POP PUSH1 0x0 PUSH1 0x1 DUP3 DUP9 DUP9 DUP9 PUSH1 0x40 MLOAD PUSH1 0x0 DUP2 MSTORE PUSH1 0x20 ADD PUSH1 0x40 MSTORE PUSH1 0x40 MLOAD PUSH2 0xF28 SWAP5 SWAP4 SWAP3 SWAP2 SWAP1 PUSH2 0x2963 JUMP JUMPDEST PUSH1 0x20 PUSH1 0x40 MLOAD PUSH1 0x20 DUP2 SUB SWAP1 DUP1 DUP5 SUB SWAP1 DUP6 GAS STATICCALL ISZERO DUP1 ISZERO PUSH2 0xF4A JUMPI RETURNDATASIZE PUSH1 0x0 DUP1 RETURNDATACOPY RETURNDATASIZE PUSH1 0x0 REVERT JUMPDEST POP POP POP PUSH1 0x20 PUSH1 0x40 MLOAD SUB MLOAD SWAP1 POP PUSH1 0x0 PUSH20 0xFFFFFFFFFFFFFFFFFFFFFFFFFFFFFFFFFFFFFFFF AND DUP2 PUSH20 0xFFFFFFFFFFFFFFFFFFFFFFFFFFFFFFFFFFFFFFFF AND SUB PUSH2 0xFC5 JUMPI PUSH1 0x40 MLOAD PUSH32 0x8C379A000000000000000000000000000000000000000000000000000000000 DUP2 MSTORE PUSH1 0x4 ADD PUSH2 0xFBC SWAP1 PUSH2 0x2A1A JUMP JUMPDEST PUSH1 0x40 MLOAD DUP1 SWAP2 SUB SWAP1 REVERT JUMPDEST PUSH1 0x9 PUSH1 0x0 DUP3 PUSH20 0xFFFFFFFFFFFFFFFFFFFFFFFFFFFFFFFFFFFFFFFF AND PUSH20 0xFFFFFFFFFFFFFFFFFFFFFFFFFFFFFFFFFFFFFFFF AND DUP2 MSTORE PUSH1 0x20 ADD SWAP1 DUP2 MSTORE PUSH1 0x20 ADD PUSH1 0x0 KECCAK256 PUSH1 0x0 DUP2 SLOAD DUP1 SWAP3 SWAP2 SWAP1 PUSH2 0x1015 SWAP1 PUSH2 0x2A3A JUMP JUMPDEST SWAP2 SWAP1 POP SSTORE DUP10 EQ PUSH2 0x105A JUMPI PUSH1 0x40 MLOAD PUSH32 0x8C379A000000000000000000000000000000000000000000000000000000000 DUP2 MSTORE PUSH1 0x4 ADD PUSH2 0x1051 SWAP1 PUSH2 0x2AF4 JUMP JUMPDEST PUSH1 0x40 MLOAD DUP1 SWAP2 SUB SWAP1 REVERT JUMPDEST DUP8 TIMESTAMP GT ISZERO PUSH2 0x109D JUMPI PUSH1 0x40 MLOAD PUSH32 0x8C379A000000000000000000000000000000000000000000000000000000000 DUP2 MSTORE PUSH1 0x4 ADD PUSH2 0x1094 SWAP1 PUSH2 0x2B86 JUMP JUMPDEST PUSH1 0x40 MLOAD DUP1 SWAP2 SUB SWAP1 REVERT JUMPDEST PUSH2 0x10A7 DUP2 DUP12 PUSH2 0x1B6A JUMP JUMPDEST POP POP POP POP POP POP POP POP POP POP JUMP JUMPDEST PUSH1 0x0 PUSH1 0x1 PUSH1 0x0 DUP5 PUSH20 0xFFFFFFFFFFFFFFFFFFFFFFFFFFFFFFFFFFFFFFFF AND PUSH20 0xFFFFFFFFFFFFFFFFFFFFFFFFFFFFFFFFFFFFFFFF AND DUP2 MSTORE PUSH1 0x20 ADD SWAP1 DUP2 MSTORE PUSH1 0x20 ADD PUSH1 0x0 KECCAK256 PUSH1 0x0 DUP4 PUSH20 0xFFFFFFFFFFFFFFFFFFFFFFFFFFFFFFFFFFFFFFFF AND PUSH20 0xFFFFFFFFFFFFFFFFFFFFFFFFFFFFFFFFFFFFFFFF AND DUP2 MSTORE PUSH1 0x20 ADD SWAP1 DUP2 MSTORE PUSH1 0x20 ADD PUSH1 0x0 KECCAK256 SLOAD SWAP1 POP SWAP3 SWAP2 POP POP JUMP JUMPDEST PUSH32 0xE48329057BFD03D55E49B547132E39CFFD9C1820AD7B9D4C5307691425D15ADF DUP2 JUMP JUMPDEST PUSH1 0x7 PUSH1 0x20 MSTORE DUP2 PUSH1 0x0 MSTORE PUSH1 0x40 PUSH1 0x0 KECCAK256 PUSH1 0x20 MSTORE DUP1 PUSH1 0x0 MSTORE PUSH1 0x40 PUSH1 0x0 KECCAK256 PUSH1 0x0 SWAP2 POP SWAP2 POP POP DUP1 PUSH1 0x0 ADD PUSH1 0x0 SWAP1 SLOAD SWAP1 PUSH2 0x100 EXP SWAP1 DIV PUSH4 0xFFFFFFFF AND SWAP1 DUP1 PUSH1 0x1 ADD SLOAD SWAP1 POP DUP3 JUMP JUMPDEST PUSH2 0x11A7 PUSH2 0x16F5 JUMP JUMPDEST PUSH1 0x0 PUSH20 0xFFFFFFFFFFFFFFFFFFFFFFFFFFFFFFFFFFFFFFFF AND DUP2 PUSH20 0xFFFFFFFFFFFFFFFFFFFFFFFFFFFFFFFFFFFFFFFF AND SUB PUSH2 0x1216 JUMPI PUSH1 0x40 MLOAD PUSH32 0x8C379A000000000000000000000000000000000000000000000000000000000 DUP2 MSTORE PUSH1 0x4 ADD PUSH2 0x120D SWAP1 PUSH2 0x2C18 JUMP JUMPDEST PUSH1 0x40 MLOAD DUP1 SWAP2 SUB SWAP1 REVERT JUMPDEST PUSH2 0x121F DUP2 PUSH2 0x1CDB JUMP JUMPDEST POP JUMP JUMPDEST PUSH1 0x0 CALLER SWAP1 POP SWAP1 JUMP JUMPDEST PUSH1 0x0 PUSH20 0xFFFFFFFFFFFFFFFFFFFFFFFFFFFFFFFFFFFFFFFF AND DUP4 PUSH20 0xFFFFFFFFFFFFFFFFFFFFFFFFFFFFFFFFFFFFFFFF AND SUB PUSH2 0x1299 JUMPI PUSH1 0x40 MLOAD PUSH32 0x8C379A000000000000000000000000000000000000000000000000000000000 DUP2 MSTORE PUSH1 0x4 ADD PUSH2 0x1290 SWAP1 PUSH2 0x2CAA JUMP JUMPDEST PUSH1 0x40 MLOAD DUP1 SWAP2 SUB SWAP1 REVERT JUMPDEST PUSH1 0x0 PUSH20 0xFFFFFFFFFFFFFFFFFFFFFFFFFFFFFFFFFFFFFFFF AND DUP3 PUSH20 0xFFFFFFFFFFFFFFFFFFFFFFFFFFFFFFFFFFFFFFFF AND SUB PUSH2 0x1308 JUMPI PUSH1 0x40 MLOAD PUSH32 0x8C379A000000000000000000000000000000000000000000000000000000000 DUP2 MSTORE PUSH1 0x4 ADD PUSH2 0x12FF SWAP1 PUSH2 0x2D3C JUMP JUMPDEST PUSH1 0x40 MLOAD DUP1 SWAP2 SUB SWAP1 REVERT JUMPDEST DUP1 PUSH1 0x1 PUSH1 0x0 DUP6 PUSH20 0xFFFFFFFFFFFFFFFFFFFFFFFFFFFFFFFFFFFFFFFF AND PUSH20 0xFFFFFFFFFFFFFFFFFFFFFFFFFFFFFFFFFFFFFFFF AND DUP2 MSTORE PUSH1 0x20 ADD SWAP1 DUP2 MSTORE PUSH1 0x20 ADD PUSH1 0x0 KECCAK256 PUSH1 0x0 DUP5 PUSH20 0xFFFFFFFFFFFFFFFFFFFFFFFFFFFFFFFFFFFFFFFF AND PUSH20 0xFFFFFFFFFFFFFFFFFFFFFFFFFFFFFFFFFFFFFFFF AND DUP2 MSTORE PUSH1 0x20 ADD SWAP1 DUP2 MSTORE PUSH1 0x20 ADD PUSH1 0x0 KECCAK256 DUP2 SWAP1 SSTORE POP DUP2 PUSH20 0xFFFFFFFFFFFFFFFFFFFFFFFFFFFFFFFFFFFFFFFF AND DUP4 PUSH20 0xFFFFFFFFFFFFFFFFFFFFFFFFFFFFFFFFFFFFFFFF AND PUSH32 0x8C5BE1E5EBEC7D5BD14F71427D1E84F3DD0314C0F7B2291E5B200AC8C7C3B925 DUP4 PUSH1 0x40 MLOAD PUSH2 0x13E6 SWAP2 SWAP1 PUSH2 0x2287 JUMP JUMPDEST PUSH1 0x40 MLOAD DUP1 SWAP2 SUB SWAP1 LOG3 POP POP POP JUMP JUMPDEST PUSH1 0x0 PUSH2 0x13FF DUP5 DUP5 PUSH2 0x10B3 JUMP JUMPDEST SWAP1 POP PUSH32 0xFFFFFFFFFFFFFFFFFFFFFFFFFFFFFFFFFFFFFFFFFFFFFFFFFFFFFFFFFFFFFFFF DUP2 EQ PUSH2 0x1479 JUMPI DUP2 DUP2 LT ISZERO PUSH2 0x146B JUMPI PUSH1 0x40 MLOAD PUSH32 0x8C379A000000000000000000000000000000000000000000000000000000000 DUP2 MSTORE PUSH1 0x4 ADD PUSH2 0x1462 SWAP1 PUSH2 0x2DA8 JUMP JUMPDEST PUSH1 0x40 MLOAD DUP1 SWAP2 SUB SWAP1 REVERT JUMPDEST PUSH2 0x1478 DUP5 DUP5 DUP5 DUP5 SUB PUSH2 0x122A JUMP JUMPDEST JUMPDEST POP POP POP POP JUMP JUMPDEST PUSH1 0x0 PUSH20 0xFFFFFFFFFFFFFFFFFFFFFFFFFFFFFFFFFFFFFFFF AND DUP4 PUSH20 0xFFFFFFFFFFFFFFFFFFFFFFFFFFFFFFFFFFFFFFFF AND SUB PUSH2 0x14EE JUMPI PUSH1 0x40 MLOAD PUSH32 0x8C379A000000000000000000000000000000000000000000000000000000000 DUP2 MSTORE PUSH1 0x4 ADD PUSH2 0x14E5 SWAP1 PUSH2 0x2E3A JUMP JUMPDEST PUSH1 0x40 MLOAD DUP1 SWAP2 SUB SWAP1 REVERT JUMPDEST PUSH1 0x0 PUSH20 0xFFFFFFFFFFFFFFFFFFFFFFFFFFFFFFFFFFFFFFFF AND DUP3 PUSH20 0xFFFFFFFFFFFFFFFFFFFFFFFFFFFFFFFFFFFFFFFF AND SUB PUSH2 0x155D JUMPI PUSH1 0x40 MLOAD PUSH32 0x8C379A000000000000000000000000000000000000000000000000000000000 DUP2 MSTORE PUSH1 0x4 ADD PUSH2 0x1554 SWAP1 PUSH2 0x2ECC JUMP JUMPDEST PUSH1 0x40 MLOAD DUP1 SWAP2 SUB SWAP1 REVERT JUMPDEST PUSH2 0x1568 DUP4 DUP4 DUP4 PUSH2 0x1DAE JUMP JUMPDEST PUSH1 0x0 DUP1 PUSH1 0x0 DUP6 PUSH20 0xFFFFFFFFFFFFFFFFFFFFFFFFFFFFFFFFFFFFFFFF AND PUSH20 0xFFFFFFFFFFFFFFFFFFFFFFFFFFFFFFFFFFFFFFFF AND DUP2 MSTORE PUSH1 0x20 ADD SWAP1 DUP2 MSTORE PUSH1 0x20 ADD PUSH1 0x0 KECCAK256 SLOAD SWAP1 POP DUP2 DUP2 LT ISZERO PUSH2 0x15EE JUMPI PUSH1 0x40 MLOAD PUSH32 0x8C379A000000000000000000000000000000000000000000000000000000000 DUP2 MSTORE PUSH1 0x4 ADD PUSH2 0x15E5 SWAP1 PUSH2 0x2F5E JUMP JUMPDEST PUSH1 0x40 MLOAD DUP1 SWAP2 SUB SWAP1 REVERT JUMPDEST DUP2 DUP2 SUB PUSH1 0x0 DUP1 DUP7 PUSH20 0xFFFFFFFFFFFFFFFFFFFFFFFFFFFFFFFFFFFFFFFF AND PUSH20 0xFFFFFFFFFFFFFFFFFFFFFFFFFFFFFFFFFFFFFFFF AND DUP2 MSTORE PUSH1 0x20 ADD SWAP1 DUP2 MSTORE PUSH1 0x20 ADD PUSH1 0x0 KECCAK256 DUP2 SWAP1 SSTORE POP DUP2 PUSH1 0x0 DUP1 DUP6 PUSH20 0xFFFFFFFFFFFFFFFFFFFFFFFFFFFFFFFFFFFFFFFF AND PUSH20 0xFFFFFFFFFFFFFFFFFFFFFFFFFFFFFFFFFFFFFFFF AND DUP2 MSTORE PUSH1 0x20 ADD SWAP1 DUP2 MSTORE PUSH1 0x20 ADD PUSH1 0x0 KECCAK256 PUSH1 0x0 DUP3 DUP3 SLOAD ADD SWAP3 POP POP DUP2 SWAP1 SSTORE POP DUP3 PUSH20 0xFFFFFFFFFFFFFFFFFFFFFFFFFFFFFFFFFFFFFFFF AND DUP5 PUSH20 0xFFFFFFFFFFFFFFFFFFFFFFFFFFFFFFFFFFFFFFFF AND PUSH32 0xDDF252AD1BE2C89B69C2B068FC378DAA952BA7F163C4A11628F55A4DF523B3EF DUP5 PUSH1 0x40 MLOAD PUSH2 0x16DC SWAP2 SWAP1 PUSH2 0x2287 JUMP JUMPDEST PUSH1 0x40 MLOAD DUP1 SWAP2 SUB SWAP1 LOG3 PUSH2 0x16EF DUP5 DUP5 DUP5 PUSH2 0x1DB3 JUMP JUMPDEST POP POP POP POP JUMP JUMPDEST PUSH2 0x16FD PUSH2 0x1222 JUMP JUMPDEST PUSH20 0xFFFFFFFFFFFFFFFFFFFFFFFFFFFFFFFFFFFFFFFF AND PUSH2 0x171B PUSH2 0xBEA JUMP JUMPDEST PUSH20 0xFFFFFFFFFFFFFFFFFFFFFFFFFFFFFFFFFFFFFFFF AND EQ PUSH2 0x1771 JUMPI PUSH1 0x40 MLOAD PUSH32 0x8C379A000000000000000000000000000000000000000000000000000000000 DUP2 MSTORE PUSH1 0x4 ADD PUSH2 0x1768 SWAP1 PUSH2 0x2FCA JUMP JUMPDEST PUSH1 0x40 MLOAD DUP1 SWAP2 SUB SWAP1 REVERT JUMPDEST JUMP JUMPDEST PUSH1 0x0 PUSH20 0xFFFFFFFFFFFFFFFFFFFFFFFFFFFFFFFFFFFFFFFF AND DUP3 PUSH20 0xFFFFFFFFFFFFFFFFFFFFFFFFFFFFFFFFFFFFFFFF AND SUB PUSH2 0x17E2 JUMPI PUSH1 0x40 MLOAD PUSH32 0x8C379A000000000000000000000000000000000000000000000000000000000 DUP2 MSTORE PUSH1 0x4 ADD PUSH2 0x17D9 SWAP1 PUSH2 0x3036 JUMP JUMPDEST PUSH1 0x40 MLOAD DUP1 SWAP2 SUB SWAP1 REVERT JUMPDEST PUSH2 0x17EE PUSH1 0x0 DUP4 DUP4 PUSH2 0x1DAE JUMP JUMPDEST DUP1 PUSH1 0x2 PUSH1 0x0 DUP3 DUP3 SLOAD PUSH2 0x1800 SWAP2 SWAP1 PUSH2 0x263A JUMP JUMPDEST SWAP3 POP POP DUP2 SWAP1 SSTORE POP DUP1 PUSH1 0x0 DUP1 DUP5 PUSH20 0xFFFFFFFFFFFFFFFFFFFFFFFFFFFFFFFFFFFFFFFF AND PUSH20 0xFFFFFFFFFFFFFFFFFFFFFFFFFFFFFFFFFFFFFFFF AND DUP2 MSTORE PUSH1 0x20 ADD SWAP1 DUP2 MSTORE PUSH1 0x20 ADD PUSH1 0x0 KECCAK256 PUSH1 0x0 DUP3 DUP3 SLOAD ADD SWAP3 POP POP DUP2 SWAP1 SSTORE POP DUP2 PUSH20 0xFFFFFFFFFFFFFFFFFFFFFFFFFFFFFFFFFFFFFFFF AND PUSH1 0x0 PUSH20 0xFFFFFFFFFFFFFFFFFFFFFFFFFFFFFFFFFFFFFFFF AND PUSH32 0xDDF252AD1BE2C89B69C2B068FC378DAA952BA7F163C4A11628F55A4DF523B3EF DUP4 PUSH1 0x40 MLOAD PUSH2 0x18B1 SWAP2 SWAP1 PUSH2 0x2287 JUMP JUMPDEST PUSH1 0x40 MLOAD DUP1 SWAP2 SUB SWAP1 LOG3 PUSH2 0x18C5 PUSH1 0x0 DUP4 DUP4 PUSH2 0x1DB3 JUMP JUMPDEST POP POP JUMP JUMPDEST DUP2 PUSH20 0xFFFFFFFFFFFFFFFFFFFFFFFFFFFFFFFFFFFFFFFF AND DUP4 PUSH20 0xFFFFFFFFFFFFFFFFFFFFFFFFFFFFFFFFFFFFFFFF AND EQ ISZERO DUP1 ISZERO PUSH2 0x1905 JUMPI POP PUSH1 0x0 DUP2 GT JUMPDEST ISZERO PUSH2 0x1B65 JUMPI PUSH1 0x0 PUSH20 0xFFFFFFFFFFFFFFFFFFFFFFFFFFFFFFFFFFFFFFFF AND DUP4 PUSH20 0xFFFFFFFFFFFFFFFFFFFFFFFFFFFFFFFFFFFFFFFF AND EQ PUSH2 0x1A37 JUMPI PUSH1 0x0 PUSH1 0x8 PUSH1 0x0 DUP6 PUSH20 0xFFFFFFFFFFFFFFFFFFFFFFFFFFFFFFFFFFFFFFFF AND PUSH20 0xFFFFFFFFFFFFFFFFFFFFFFFFFFFFFFFFFFFFFFFF AND DUP2 MSTORE PUSH1 0x20 ADD SWAP1 DUP2 MSTORE PUSH1 0x20 ADD PUSH1 0x0 KECCAK256 PUSH1 0x0 SWAP1 SLOAD SWAP1 PUSH2 0x100 EXP SWAP1 DIV PUSH4 0xFFFFFFFF AND SWAP1 POP PUSH1 0x0 DUP1 DUP3 PUSH4 0xFFFFFFFF AND GT PUSH2 0x19A8 JUMPI PUSH1 0x0 PUSH2 0x1A15 JUMP JUMPDEST PUSH1 0x7 PUSH1 0x0 DUP7 PUSH20 0xFFFFFFFFFFFFFFFFFFFFFFFFFFFFFFFFFFFFFFFF AND PUSH20 0xFFFFFFFFFFFFFFFFFFFFFFFFFFFFFFFFFFFFFFFF AND DUP2 MSTORE PUSH1 0x20 ADD SWAP1 DUP2 MSTORE PUSH1 0x20 ADD PUSH1 0x0 KECCAK256 PUSH1 0x0 PUSH1 0x1 DUP5 PUSH2 0x19F6 SWAP2 SWAP1 PUSH2 0x2700 JUMP JUMPDEST PUSH4 0xFFFFFFFF AND PUSH4 0xFFFFFFFF AND DUP2 MSTORE PUSH1 0x20 ADD SWAP1 DUP2 MSTORE PUSH1 0x20 ADD PUSH1 0x0 KECCAK256 PUSH1 0x1 ADD SLOAD JUMPDEST SWAP1 POP PUSH1 0x0 DUP4 DUP3 PUSH2 0x1A25 SWAP2 SWAP1 PUSH2 0x3056 JUMP JUMPDEST SWAP1 POP PUSH2 0x1A33 DUP7 DUP5 DUP5 DUP5 PUSH2 0x1DB8 JUMP JUMPDEST POP POP POP JUMPDEST PUSH1 0x0 PUSH20 0xFFFFFFFFFFFFFFFFFFFFFFFFFFFFFFFFFFFFFFFF AND DUP3 PUSH20 0xFFFFFFFFFFFFFFFFFFFFFFFFFFFFFFFFFFFFFFFF AND EQ PUSH2 0x1B64 JUMPI PUSH1 0x0 PUSH1 0x8 PUSH1 0x0 DUP5 PUSH20 0xFFFFFFFFFFFFFFFFFFFFFFFFFFFFFFFFFFFFFFFF AND PUSH20 0xFFFFFFFFFFFFFFFFFFFFFFFFFFFFFFFFFFFFFFFF AND DUP2 MSTORE PUSH1 0x20 ADD SWAP1 DUP2 MSTORE PUSH1 0x20 ADD PUSH1 0x0 KECCAK256 PUSH1 0x0 SWAP1 SLOAD SWAP1 PUSH2 0x100 EXP SWAP1 DIV PUSH4 0xFFFFFFFF AND SWAP1 POP PUSH1 0x0 DUP1 DUP3 PUSH4 0xFFFFFFFF AND GT PUSH2 0x1AD5 JUMPI PUSH1 0x0 PUSH2 0x1B42 JUMP JUMPDEST PUSH1 0x7 PUSH1 0x0 DUP6 PUSH20 0xFFFFFFFFFFFFFFFFFFFFFFFFFFFFFFFFFFFFFFFF AND PUSH20 0xFFFFFFFFFFFFFFFFFFFFFFFFFFFFFFFFFFFFFFFF AND DUP2 MSTORE PUSH1 0x20 ADD SWAP1 DUP2 MSTORE PUSH1 0x20 ADD PUSH1 0x0 KECCAK256 PUSH1 0x0 PUSH1 0x1 DUP5 PUSH2 0x1B23 SWAP2 SWAP1 PUSH2 0x2700 JUMP JUMPDEST PUSH4 0xFFFFFFFF AND PUSH4 0xFFFFFFFF AND DUP2 MSTORE PUSH1 0x20 ADD SWAP1 DUP2 MSTORE PUSH1 0x20 ADD PUSH1 0x0 KECCAK256 PUSH1 0x1 ADD SLOAD JUMPDEST SWAP1 POP PUSH1 0x0 DUP4 DUP3 PUSH2 0x1B52 SWAP2 SWAP1 PUSH2 0x263A JUMP JUMPDEST SWAP1 POP PUSH2 0x1B60 DUP6 DUP5 DUP5 DUP5 PUSH2 0x1DB8 JUMP JUMPDEST POP POP POP JUMPDEST JUMPDEST POP POP POP JUMP JUMPDEST PUSH1 0x0 PUSH1 0x6 PUSH1 0x0 DUP5 PUSH20 0xFFFFFFFFFFFFFFFFFFFFFFFFFFFFFFFFFFFFFFFF AND PUSH20 0xFFFFFFFFFFFFFFFFFFFFFFFFFFFFFFFFFFFFFFFF AND DUP2 MSTORE PUSH1 0x20 ADD SWAP1 DUP2 MSTORE PUSH1 0x20 ADD PUSH1 0x0 KECCAK256 PUSH1 0x0 SWAP1 SLOAD SWAP1 PUSH2 0x100 EXP SWAP1 DIV PUSH20 0xFFFFFFFFFFFFFFFFFFFFFFFFFFFFFFFFFFFFFFFF AND SWAP1 POP PUSH1 0x0 PUSH2 0x1BD9 DUP5 PUSH2 0x7A1 JUMP JUMPDEST SWAP1 POP DUP3 PUSH1 0x6 PUSH1 0x0 DUP7 PUSH20 0xFFFFFFFFFFFFFFFFFFFFFFFFFFFFFFFFFFFFFFFF AND PUSH20 0xFFFFFFFFFFFFFFFFFFFFFFFFFFFFFFFFFFFFFFFF AND DUP2 MSTORE PUSH1 0x20 ADD SWAP1 DUP2 MSTORE PUSH1 0x20 ADD PUSH1 0x0 KECCAK256 PUSH1 0x0 PUSH2 0x100 EXP DUP2 SLOAD DUP2 PUSH20 0xFFFFFFFFFFFFFFFFFFFFFFFFFFFFFFFFFFFFFFFF MUL NOT AND SWAP1 DUP4 PUSH20 0xFFFFFFFFFFFFFFFFFFFFFFFFFFFFFFFFFFFFFFFF AND MUL OR SWAP1 SSTORE POP DUP3 PUSH20 0xFFFFFFFFFFFFFFFFFFFFFFFFFFFFFFFFFFFFFFFF AND DUP3 PUSH20 0xFFFFFFFFFFFFFFFFFFFFFFFFFFFFFFFFFFFFFFFF AND DUP6 PUSH20 0xFFFFFFFFFFFFFFFFFFFFFFFFFFFFFFFFFFFFFFFF AND PUSH32 0x3134E8A2E6D97E929A7E54011EA5485D7D196DD5F0BA4D4EF95803E8E3FC257F PUSH1 0x40 MLOAD PUSH1 0x40 MLOAD DUP1 SWAP2 SUB SWAP1 LOG4 PUSH2 0x1CD5 DUP3 DUP5 DUP4 PUSH2 0x18C9 JUMP JUMPDEST POP POP POP POP JUMP JUMPDEST PUSH1 0x0 PUSH1 0x5 PUSH1 0x0 SWAP1 SLOAD SWAP1 PUSH2 0x100 EXP SWAP1 DIV PUSH20 0xFFFFFFFFFFFFFFFFFFFFFFFFFFFFFFFFFFFFFFFF AND SWAP1 POP DUP2 PUSH1 0x5 PUSH1 0x0 PUSH2 0x100 EXP DUP2 SLOAD DUP2 PUSH20 0xFFFFFFFFFFFFFFFFFFFFFFFFFFFFFFFFFFFFFFFF MUL NOT AND SWAP1 DUP4 PUSH20 0xFFFFFFFFFFFFFFFFFFFFFFFFFFFFFFFFFFFFFFFF AND MUL OR SWAP1 SSTORE POP DUP2 PUSH20 0xFFFFFFFFFFFFFFFFFFFFFFFFFFFFFFFFFFFFFFFF AND DUP2 PUSH20 0xFFFFFFFFFFFFFFFFFFFFFFFFFFFFFFFFFFFFFFFF AND PUSH32 0x8BE0079C531659141344CD1FD0A4F28419497F9722A3DAAFE3B4186F6B6457E0 PUSH1 0x40 MLOAD PUSH1 0x40 MLOAD DUP1 SWAP2 SUB SWAP1 LOG3 POP POP JUMP JUMPDEST PUSH1 0x0 DUP1 CHAINID SWAP1 POP DUP1 SWAP2 POP POP SWAP1 JUMP JUMPDEST POP POP POP JUMP JUMPDEST POP POP POP JUMP JUMPDEST PUSH1 0x0 PUSH2 0x1DDC NUMBER PUSH1 0x40 MLOAD DUP1 PUSH1 0x60 ADD PUSH1 0x40 MSTORE DUP1 PUSH1 0x35 DUP2 MSTORE PUSH1 0x20 ADD PUSH2 0x30EC PUSH1 0x35 SWAP2 CODECOPY PUSH2 0x2061 JUMP JUMPDEST SWAP1 POP PUSH1 0x0 DUP5 PUSH4 0xFFFFFFFF AND GT DUP1 ISZERO PUSH2 0x1E7A JUMPI POP DUP1 PUSH4 0xFFFFFFFF AND PUSH1 0x7 PUSH1 0x0 DUP8 PUSH20 0xFFFFFFFFFFFFFFFFFFFFFFFFFFFFFFFFFFFFFFFF AND PUSH20 0xFFFFFFFFFFFFFFFFFFFFFFFFFFFFFFFFFFFFFFFF AND DUP2 MSTORE PUSH1 0x20 ADD SWAP1 DUP2 MSTORE PUSH1 0x20 ADD PUSH1 0x0 KECCAK256 PUSH1 0x0 PUSH1 0x1 DUP8 PUSH2 0x1E44 SWAP2 SWAP1 PUSH2 0x2700 JUMP JUMPDEST PUSH4 0xFFFFFFFF AND PUSH4 0xFFFFFFFF AND DUP2 MSTORE PUSH1 0x20 ADD SWAP1 DUP2 MSTORE PUSH1 0x20 ADD PUSH1 0x0 KECCAK256 PUSH1 0x0 ADD PUSH1 0x0 SWAP1 SLOAD SWAP1 PUSH2 0x100 EXP SWAP1 DIV PUSH4 0xFFFFFFFF AND PUSH4 0xFFFFFFFF AND EQ JUMPDEST ISZERO PUSH2 0x1EF4 JUMPI DUP2 PUSH1 0x7 PUSH1 0x0 DUP8 PUSH20 0xFFFFFFFFFFFFFFFFFFFFFFFFFFFFFFFFFFFFFFFF AND PUSH20 0xFFFFFFFFFFFFFFFFFFFFFFFFFFFFFFFFFFFFFFFF AND DUP2 MSTORE PUSH1 0x20 ADD SWAP1 DUP2 MSTORE PUSH1 0x20 ADD PUSH1 0x0 KECCAK256 PUSH1 0x0 PUSH1 0x1 DUP8 PUSH2 0x1ECE SWAP2 SWAP1 PUSH2 0x2700 JUMP JUMPDEST PUSH4 0xFFFFFFFF AND PUSH4 0xFFFFFFFF AND DUP2 MSTORE PUSH1 0x20 ADD SWAP1 DUP2 MSTORE PUSH1 0x20 ADD PUSH1 0x0 KECCAK256 PUSH1 0x1 ADD DUP2 SWAP1 SSTORE POP PUSH2 0x200A JUMP JUMPDEST PUSH1 0x40 MLOAD DUP1 PUSH1 0x40 ADD PUSH1 0x40 MSTORE DUP1 DUP3 PUSH4 0xFFFFFFFF AND DUP2 MSTORE PUSH1 0x20 ADD DUP4 DUP2 MSTORE POP PUSH1 0x7 PUSH1 0x0 DUP8 PUSH20 0xFFFFFFFFFFFFFFFFFFFFFFFFFFFFFFFFFFFFFFFF AND PUSH20 0xFFFFFFFFFFFFFFFFFFFFFFFFFFFFFFFFFFFFFFFF AND DUP2 MSTORE PUSH1 0x20 ADD SWAP1 DUP2 MSTORE PUSH1 0x20 ADD PUSH1 0x0 KECCAK256 PUSH1 0x0 DUP7 PUSH4 0xFFFFFFFF AND PUSH4 0xFFFFFFFF AND DUP2 MSTORE PUSH1 0x20 ADD SWAP1 DUP2 MSTORE PUSH1 0x20 ADD PUSH1 0x0 KECCAK256 PUSH1 0x0 DUP3 ADD MLOAD DUP2 PUSH1 0x0 ADD PUSH1 0x0 PUSH2 0x100 EXP DUP2 SLOAD DUP2 PUSH4 0xFFFFFFFF MUL NOT AND SWAP1 DUP4 PUSH4 0xFFFFFFFF AND MUL OR SWAP1 SSTORE POP PUSH1 0x20 DUP3 ADD MLOAD DUP2 PUSH1 0x1 ADD SSTORE SWAP1 POP POP PUSH1 0x1 DUP5 PUSH2 0x1FAC SWAP2 SWAP1 PUSH2 0x308A JUMP JUMPDEST PUSH1 0x8 PUSH1 0x0 DUP8 PUSH20 0xFFFFFFFFFFFFFFFFFFFFFFFFFFFFFFFFFFFFFFFF AND PUSH20 0xFFFFFFFFFFFFFFFFFFFFFFFFFFFFFFFFFFFFFFFF AND DUP2 MSTORE PUSH1 0x20 ADD SWAP1 DUP2 MSTORE PUSH1 0x20 ADD PUSH1 0x0 KECCAK256 PUSH1 0x0 PUSH2 0x100 EXP DUP2 SLOAD DUP2 PUSH4 0xFFFFFFFF MUL NOT AND SWAP1 DUP4 PUSH4 0xFFFFFFFF AND MUL OR SWAP1 SSTORE POP JUMPDEST DUP5 PUSH20 0xFFFFFFFFFFFFFFFFFFFFFFFFFFFFFFFFFFFFFFFF AND PUSH32 0xDEC2BACDD2F05B59DE34DA9B523DFF8BE42E5E38E818C82FDB0BAE774387A724 DUP5 DUP5 PUSH1 0x40 MLOAD PUSH2 0x2052 SWAP3 SWAP2 SWAP1 PUSH2 0x30C2 JUMP JUMPDEST PUSH1 0x40 MLOAD DUP1 SWAP2 SUB SWAP1 LOG2 POP POP POP POP POP JUMP JUMPDEST PUSH1 0x0 PUSH5 0x100000000 DUP4 LT DUP3 SWAP1 PUSH2 0x20AD JUMPI PUSH1 0x40 MLOAD PUSH32 0x8C379A000000000000000000000000000000000000000000000000000000000 DUP2 MSTORE PUSH1 0x4 ADD PUSH2 0x20A4 SWAP2 SWAP1 PUSH2 0x2147 JUMP JUMPDEST PUSH1 0x40 MLOAD DUP1 SWAP2 SUB SWAP1 REVERT JUMPDEST POP DUP3 SWAP1 POP SWAP3 SWAP2 POP POP JUMP JUMPDEST PUSH1 0x0 DUP2 MLOAD SWAP1 POP SWAP2 SWAP1 POP JUMP JUMPDEST PUSH1 0x0 DUP3 DUP3 MSTORE PUSH1 0x20 DUP3 ADD SWAP1 POP SWAP3 SWAP2 POP POP JUMP JUMPDEST PUSH1 0x0 JUMPDEST DUP4 DUP2 LT ISZERO PUSH2 0x20F1 JUMPI DUP1 DUP3 ADD MLOAD DUP2 DUP5 ADD MSTORE PUSH1 0x20 DUP2 ADD SWAP1 POP PUSH2 0x20D6 JUMP JUMPDEST PUSH1 0x0 DUP5 DUP5 ADD MSTORE POP POP POP POP JUMP JUMPDEST PUSH1 0x0 PUSH1 0x1F NOT PUSH1 0x1F DUP4 ADD AND SWAP1 POP SWAP2 SWAP1 POP JUMP JUMPDEST PUSH1 0x0 PUSH2 0x2119 DUP3 PUSH2 0x20B7 JUMP JUMPDEST PUSH2 0x2123 DUP2 DUP6 PUSH2 0x20C2 JUMP JUMPDEST SWAP4 POP PUSH2 0x2133 DUP2 DUP6 PUSH1 0x20 DUP7 ADD PUSH2 0x20D3 JUMP JUMPDEST PUSH2 0x213C DUP2 PUSH2 0x20FD JUMP JUMPDEST DUP5 ADD SWAP2 POP POP SWAP3 SWAP2 POP POP JUMP JUMPDEST PUSH1 0x0 PUSH1 0x20 DUP3 ADD SWAP1 POP DUP2 DUP2 SUB PUSH1 0x0 DUP4 ADD MSTORE PUSH2 0x2161 DUP2 DUP5 PUSH2 0x210E JUMP JUMPDEST SWAP1 POP SWAP3 SWAP2 POP POP JUMP JUMPDEST PUSH1 0x0 DUP1 REVERT JUMPDEST PUSH1 0x0 PUSH20 0xFFFFFFFFFFFFFFFFFFFFFFFFFFFFFFFFFFFFFFFF DUP3 AND SWAP1 POP SWAP2 SWAP1 POP JUMP JUMPDEST PUSH1 0x0 PUSH2 0x2199 DUP3 PUSH2 0x216E JUMP JUMPDEST SWAP1 POP SWAP2 SWAP1 POP JUMP JUMPDEST PUSH2 0x21A9 DUP2 PUSH2 0x218E JUMP JUMPDEST DUP2 EQ PUSH2 0x21B4 JUMPI PUSH1 0x0 DUP1 REVERT JUMPDEST POP JUMP JUMPDEST PUSH1 0x0 DUP2 CALLDATALOAD SWAP1 POP PUSH2 0x21C6 DUP2 PUSH2 0x21A0 JUMP JUMPDEST SWAP3 SWAP2 POP POP JUMP JUMPDEST PUSH1 0x0 DUP2 SWAP1 POP SWAP2 SWAP1 POP JUMP JUMPDEST PUSH2 0x21DF DUP2 PUSH2 0x21CC JUMP JUMPDEST DUP2 EQ PUSH2 0x21EA JUMPI PUSH1 0x0 DUP1 REVERT JUMPDEST POP JUMP JUMPDEST PUSH1 0x0 DUP2 CALLDATALOAD SWAP1 POP PUSH2 0x21FC DUP2 PUSH2 0x21D6 JUMP JUMPDEST SWAP3 SWAP2 POP POP JUMP JUMPDEST PUSH1 0x0 DUP1 PUSH1 0x40 DUP4 DUP6 SUB SLT ISZERO PUSH2 0x2219 JUMPI PUSH2 0x2218 PUSH2 0x2169 JUMP JUMPDEST JUMPDEST PUSH1 0x0 PUSH2 0x2227 DUP6 DUP3 DUP7 ADD PUSH2 0x21B7 JUMP JUMPDEST SWAP3 POP POP PUSH1 0x20 PUSH2 0x2238 DUP6 DUP3 DUP7 ADD PUSH2 0x21ED JUMP JUMPDEST SWAP2 POP POP SWAP3 POP SWAP3 SWAP1 POP JUMP JUMPDEST PUSH1 0x0 DUP2 ISZERO ISZERO SWAP1 POP SWAP2 SWAP1 POP JUMP JUMPDEST PUSH2 0x2257 DUP2 PUSH2 0x2242 JUMP JUMPDEST DUP3 MSTORE POP POP JUMP JUMPDEST PUSH1 0x0 PUSH1 0x20 DUP3 ADD SWAP1 POP PUSH2 0x2272 PUSH1 0x0 DUP4 ADD DUP5 PUSH2 0x224E JUMP JUMPDEST SWAP3 SWAP2 POP POP JUMP JUMPDEST PUSH2 0x2281 DUP2 PUSH2 0x21CC JUMP JUMPDEST DUP3 MSTORE POP POP JUMP JUMPDEST PUSH1 0x0 PUSH1 0x20 DUP3 ADD SWAP1 POP PUSH2 0x229C PUSH1 0x0 DUP4 ADD DUP5 PUSH2 0x2278 JUMP JUMPDEST SWAP3 SWAP2 POP POP JUMP JUMPDEST PUSH1 0x0 DUP2 SWAP1 POP SWAP2 SWAP1 POP JUMP JUMPDEST PUSH2 0x22B5 DUP2 PUSH2 0x22A2 JUMP JUMPDEST DUP3 MSTORE POP POP JUMP JUMPDEST PUSH1 0x0 PUSH1 0x20 DUP3 ADD SWAP1 POP PUSH2 0x22D0 PUSH1 0x0 DUP4 ADD DUP5 PUSH2 0x22AC JUMP JUMPDEST SWAP3 SWAP2 POP POP JUMP JUMPDEST PUSH1 0x0 DUP1 PUSH1 0x0 PUSH1 0x60 DUP5 DUP7 SUB SLT ISZERO PUSH2 0x22EF JUMPI PUSH2 0x22EE PUSH2 0x2169 JUMP JUMPDEST JUMPDEST PUSH1 0x0 PUSH2 0x22FD DUP7 DUP3 DUP8 ADD PUSH2 0x21B7 JUMP JUMPDEST SWAP4 POP POP PUSH1 0x20 PUSH2 0x230E DUP7 DUP3 DUP8 ADD PUSH2 0x21B7 JUMP JUMPDEST SWAP3 POP POP PUSH1 0x40 PUSH2 0x231F DUP7 DUP3 DUP8 ADD PUSH2 0x21ED JUMP JUMPDEST SWAP2 POP POP SWAP3 POP SWAP3 POP SWAP3 JUMP JUMPDEST PUSH1 0x0 PUSH1 0xFF DUP3 AND SWAP1 POP SWAP2 SWAP1 POP JUMP JUMPDEST PUSH2 0x233F DUP2 PUSH2 0x2329 JUMP JUMPDEST DUP3 MSTORE POP POP JUMP JUMPDEST PUSH1 0x0 PUSH1 0x20 DUP3 ADD SWAP1 POP PUSH2 0x235A PUSH1 0x0 DUP4 ADD DUP5 PUSH2 0x2336 JUMP JUMPDEST SWAP3 SWAP2 POP POP JUMP JUMPDEST PUSH1 0x0 PUSH1 0x20 DUP3 DUP5 SUB SLT ISZERO PUSH2 0x2376 JUMPI PUSH2 0x2375 PUSH2 0x2169 JUMP JUMPDEST JUMPDEST PUSH1 0x0 PUSH2 0x2384 DUP5 DUP3 DUP6 ADD PUSH2 0x21B7 JUMP JUMPDEST SWAP2 POP POP SWAP3 SWAP2 POP POP JUMP JUMPDEST PUSH2 0x2396 DUP2 PUSH2 0x218E JUMP JUMPDEST DUP3 MSTORE POP POP JUMP JUMPDEST PUSH1 0x0 PUSH1 0x20 DUP3 ADD SWAP1 POP PUSH2 0x23B1 PUSH1 0x0 DUP4 ADD DUP5 PUSH2 0x238D JUMP JUMPDEST SWAP3 SWAP2 POP POP JUMP JUMPDEST PUSH1 0x0 PUSH4 0xFFFFFFFF DUP3 AND SWAP1 POP SWAP2 SWAP1 POP JUMP JUMPDEST PUSH2 0x23D0 DUP2 PUSH2 0x23B7 JUMP JUMPDEST DUP3 MSTORE POP POP JUMP JUMPDEST PUSH1 0x0 PUSH1 0x20 DUP3 ADD SWAP1 POP PUSH2 0x23EB PUSH1 0x0 DUP4 ADD DUP5 PUSH2 0x23C7 JUMP JUMPDEST SWAP3 SWAP2 POP POP JUMP JUMPDEST PUSH2 0x23FA DUP2 PUSH2 0x2329 JUMP JUMPDEST DUP2 EQ PUSH2 0x2405 JUMPI PUSH1 0x0 DUP1 REVERT JUMPDEST POP JUMP JUMPDEST PUSH1 0x0 DUP2 CALLDATALOAD SWAP1 POP PUSH2 0x2417 DUP2 PUSH2 0x23F1 JUMP JUMPDEST SWAP3 SWAP2 POP POP JUMP JUMPDEST PUSH2 0x2426 DUP2 PUSH2 0x22A2 JUMP JUMPDEST DUP2 EQ PUSH2 0x2431 JUMPI PUSH1 0x0 DUP1 REVERT JUMPDEST POP JUMP JUMPDEST PUSH1 0x0 DUP2 CALLDATALOAD SWAP1 POP PUSH2 0x2443 DUP2 PUSH2 0x241D JUMP JUMPDEST SWAP3 SWAP2 POP POP JUMP JUMPDEST PUSH1 0x0 DUP1 PUSH1 0x0 DUP1 PUSH1 0x0 DUP1 PUSH1 0xC0 DUP8 DUP10 SUB SLT ISZERO PUSH2 0x2466 JUMPI PUSH2 0x2465 PUSH2 0x2169 JUMP JUMPDEST JUMPDEST PUSH1 0x0 PUSH2 0x2474 DUP10 DUP3 DUP11 ADD PUSH2 0x21B7 JUMP JUMPDEST SWAP7 POP POP PUSH1 0x20 PUSH2 0x2485 DUP10 DUP3 DUP11 ADD PUSH2 0x21ED JUMP JUMPDEST SWAP6 POP POP PUSH1 0x40 PUSH2 0x2496 DUP10 DUP3 DUP11 ADD PUSH2 0x21ED JUMP JUMPDEST SWAP5 POP POP PUSH1 0x60 PUSH2 0x24A7 DUP10 DUP3 DUP11 ADD PUSH2 0x2408 JUMP JUMPDEST SWAP4 POP POP PUSH1 0x80 PUSH2 0x24B8 DUP10 DUP3 DUP11 ADD PUSH2 0x2434 JUMP JUMPDEST SWAP3 POP POP PUSH1 0xA0 PUSH2 0x24C9 DUP10 DUP3 DUP11 ADD PUSH2 0x2434 JUMP JUMPDEST SWAP2 POP POP SWAP3 SWAP6 POP SWAP3 SWAP6 POP SWAP3 SWAP6 JUMP JUMPDEST PUSH1 0x0 DUP1 PUSH1 0x40 DUP4 DUP6 SUB SLT ISZERO PUSH2 0x24ED JUMPI PUSH2 0x24EC PUSH2 0x2169 JUMP JUMPDEST JUMPDEST PUSH1 0x0 PUSH2 0x24FB DUP6 DUP3 DUP7 ADD PUSH2 0x21B7 JUMP JUMPDEST SWAP3 POP POP PUSH1 0x20 PUSH2 0x250C DUP6 DUP3 DUP7 ADD PUSH2 0x21B7 JUMP JUMPDEST SWAP2 POP POP SWAP3 POP SWAP3 SWAP1 POP JUMP JUMPDEST PUSH2 0x251F DUP2 PUSH2 0x23B7 JUMP JUMPDEST DUP2 EQ PUSH2 0x252A JUMPI PUSH1 0x0 DUP1 REVERT JUMPDEST POP JUMP JUMPDEST PUSH1 0x0 DUP2 CALLDATALOAD SWAP1 POP PUSH2 0x253C DUP2 PUSH2 0x2516 JUMP JUMPDEST SWAP3 SWAP2 POP POP JUMP JUMPDEST PUSH1 0x0 DUP1 PUSH1 0x40 DUP4 DUP6 SUB SLT ISZERO PUSH2 0x2559 JUMPI PUSH2 0x2558 PUSH2 0x2169 JUMP JUMPDEST JUMPDEST PUSH1 0x0 PUSH2 0x2567 DUP6 DUP3 DUP7 ADD PUSH2 0x21B7 JUMP JUMPDEST SWAP3 POP POP PUSH1 0x20 PUSH2 0x2578 DUP6 DUP3 DUP7 ADD PUSH2 0x252D JUMP JUMPDEST SWAP2 POP POP SWAP3 POP SWAP3 SWAP1 POP JUMP JUMPDEST PUSH1 0x0 PUSH1 0x40 DUP3 ADD SWAP1 POP PUSH2 0x2597 PUSH1 0x0 DUP4 ADD DUP6 PUSH2 0x23C7 JUMP JUMPDEST PUSH2 0x25A4 PUSH1 0x20 DUP4 ADD DUP5 PUSH2 0x2278 JUMP JUMPDEST SWAP4 SWAP3 POP POP POP JUMP JUMPDEST PUSH32 0x4E487B7100000000000000000000000000000000000000000000000000000000 PUSH1 0x0 MSTORE PUSH1 0x22 PUSH1 0x4 MSTORE PUSH1 0x24 PUSH1 0x0 REVERT JUMPDEST PUSH1 0x0 PUSH1 0x2 DUP3 DIV SWAP1 POP PUSH1 0x1 DUP3 AND DUP1 PUSH2 0x25F2 JUMPI PUSH1 0x7F DUP3 AND SWAP2 POP JUMPDEST PUSH1 0x20 DUP3 LT DUP2 SUB PUSH2 0x2605 JUMPI PUSH2 0x2604 PUSH2 0x25AB JUMP JUMPDEST JUMPDEST POP SWAP2 SWAP1 POP JUMP JUMPDEST PUSH32 0x4E487B7100000000000000000000000000000000000000000000000000000000 PUSH1 0x0 MSTORE PUSH1 0x11 PUSH1 0x4 MSTORE PUSH1 0x24 PUSH1 0x0 REVERT JUMPDEST PUSH1 0x0 PUSH2 0x2645 DUP3 PUSH2 0x21CC JUMP JUMPDEST SWAP2 POP PUSH2 0x2650 DUP4 PUSH2 0x21CC JUMP JUMPDEST SWAP3 POP DUP3 DUP3 ADD SWAP1 POP DUP1 DUP3 GT ISZERO PUSH2 0x2668 JUMPI PUSH2 0x2667 PUSH2 0x260B JUMP JUMPDEST JUMPDEST SWAP3 SWAP2 POP POP JUMP JUMPDEST PUSH32 0x53555348493A3A6765745072696F72566F7465733A206E6F7420796574206465 PUSH1 0x0 DUP3 ADD MSTORE PUSH32 0x7465726D696E6564000000000000000000000000000000000000000000000000 PUSH1 0x20 DUP3 ADD MSTORE POP JUMP JUMPDEST PUSH1 0x0 PUSH2 0x26CA PUSH1 0x28 DUP4 PUSH2 0x20C2 JUMP JUMPDEST SWAP2 POP PUSH2 0x26D5 DUP3 PUSH2 0x266E JUMP JUMPDEST PUSH1 0x40 DUP3 ADD SWAP1 POP SWAP2 SWAP1 POP JUMP JUMPDEST PUSH1 0x0 PUSH1 0x20 DUP3 ADD SWAP1 POP DUP2 DUP2 SUB PUSH1 0x0 DUP4 ADD MSTORE PUSH2 0x26F9 DUP2 PUSH2 0x26BD JUMP JUMPDEST SWAP1 POP SWAP2 SWAP1 POP JUMP JUMPDEST PUSH1 0x0 PUSH2 0x270B DUP3 PUSH2 0x23B7 JUMP JUMPDEST SWAP2 POP PUSH2 0x2716 DUP4 PUSH2 0x23B7 JUMP JUMPDEST SWAP3 POP DUP3 DUP3 SUB SWAP1 POP PUSH4 0xFFFFFFFF DUP2 GT ISZERO PUSH2 0x2732 JUMPI PUSH2 0x2731 PUSH2 0x260B JUMP JUMPDEST JUMPDEST SWAP3 SWAP2 POP POP JUMP JUMPDEST PUSH32 0x4E487B7100000000000000000000000000000000000000000000000000000000 PUSH1 0x0 MSTORE PUSH1 0x12 PUSH1 0x4 MSTORE PUSH1 0x24 PUSH1 0x0 REVERT JUMPDEST PUSH1 0x0 PUSH2 0x2772 DUP3 PUSH2 0x23B7 JUMP JUMPDEST SWAP2 POP PUSH2 0x277D DUP4 PUSH2 0x23B7 JUMP JUMPDEST SWAP3 POP DUP3 PUSH2 0x278D JUMPI PUSH2 0x278C PUSH2 0x2738 JUMP JUMPDEST JUMPDEST DUP3 DUP3 DIV SWAP1 POP SWAP3 SWAP2 POP POP JUMP JUMPDEST PUSH32 0x45524332303A2064656372656173656420616C6C6F77616E63652062656C6F77 PUSH1 0x0 DUP3 ADD MSTORE PUSH32 0x207A65726F000000000000000000000000000000000000000000000000000000 PUSH1 0x20 DUP3 ADD MSTORE POP JUMP JUMPDEST PUSH1 0x0 PUSH2 0x27F4 PUSH1 0x25 DUP4 PUSH2 0x20C2 JUMP JUMPDEST SWAP2 POP PUSH2 0x27FF DUP3 PUSH2 0x2798 JUMP JUMPDEST PUSH1 0x40 DUP3 ADD SWAP1 POP SWAP2 SWAP1 POP JUMP JUMPDEST PUSH1 0x0 PUSH1 0x20 DUP3 ADD SWAP1 POP DUP2 DUP2 SUB PUSH1 0x0 DUP4 ADD MSTORE PUSH2 0x2823 DUP2 PUSH2 0x27E7 JUMP JUMPDEST SWAP1 POP SWAP2 SWAP1 POP JUMP JUMPDEST PUSH1 0x0 PUSH1 0x80 DUP3 ADD SWAP1 POP PUSH2 0x283F PUSH1 0x0 DUP4 ADD DUP8 PUSH2 0x22AC JUMP JUMPDEST PUSH2 0x284C PUSH1 0x20 DUP4 ADD DUP7 PUSH2 0x22AC JUMP JUMPDEST PUSH2 0x2859 PUSH1 0x40 DUP4 ADD DUP6 PUSH2 0x2278 JUMP JUMPDEST PUSH2 0x2866 PUSH1 0x60 DUP4 ADD DUP5 PUSH2 0x238D JUMP JUMPDEST SWAP6 SWAP5 POP POP POP POP POP JUMP JUMPDEST PUSH1 0x0 PUSH1 0x80 DUP3 ADD SWAP1 POP PUSH2 0x2884 PUSH1 0x0 DUP4 ADD DUP8 PUSH2 0x22AC JUMP JUMPDEST PUSH2 0x2891 PUSH1 0x20 DUP4 ADD DUP7 PUSH2 0x238D JUMP JUMPDEST PUSH2 0x289E PUSH1 0x40 DUP4 ADD DUP6 PUSH2 0x2278 JUMP JUMPDEST PUSH2 0x28AB PUSH1 0x60 DUP4 ADD DUP5 PUSH2 0x2278 JUMP JUMPDEST SWAP6 SWAP5 POP POP POP POP POP JUMP JUMPDEST PUSH1 0x0 DUP2 SWAP1 POP SWAP3 SWAP2 POP POP JUMP JUMPDEST PUSH32 0x1901000000000000000000000000000000000000000000000000000000000000 PUSH1 0x0 DUP3 ADD MSTORE POP JUMP JUMPDEST PUSH1 0x0 PUSH2 0x28F5 PUSH1 0x2 DUP4 PUSH2 0x28B4 JUMP JUMPDEST SWAP2 POP PUSH2 0x2900 DUP3 PUSH2 0x28BF JUMP JUMPDEST PUSH1 0x2 DUP3 ADD SWAP1 POP SWAP2 SWAP1 POP JUMP JUMPDEST PUSH1 0x0 DUP2 SWAP1 POP SWAP2 SWAP1 POP JUMP JUMPDEST PUSH2 0x2926 PUSH2 0x2921 DUP3 PUSH2 0x22A2 JUMP JUMPDEST PUSH2 0x290B JUMP JUMPDEST DUP3 MSTORE POP POP JUMP JUMPDEST PUSH1 0x0 PUSH2 0x2937 DUP3 PUSH2 0x28E8 JUMP JUMPDEST SWAP2 POP PUSH2 0x2943 DUP3 DUP6 PUSH2 0x2915 JUMP JUMPDEST PUSH1 0x20 DUP3 ADD SWAP2 POP PUSH2 0x2953 DUP3 DUP5 PUSH2 0x2915 JUMP JUMPDEST PUSH1 0x20 DUP3 ADD SWAP2 POP DUP2 SWAP1 POP SWAP4 SWAP3 POP POP POP JUMP JUMPDEST PUSH1 0x0 PUSH1 0x80 DUP3 ADD SWAP1 POP PUSH2 0x2978 PUSH1 0x0 DUP4 ADD DUP8 PUSH2 0x22AC JUMP JUMPDEST PUSH2 0x2985 PUSH1 0x20 DUP4 ADD DUP7 PUSH2 0x2336 JUMP JUMPDEST PUSH2 0x2992 PUSH1 0x40 DUP4 ADD DUP6 PUSH2 0x22AC JUMP JUMPDEST PUSH2 0x299F PUSH1 0x60 DUP4 ADD DUP5 PUSH2 0x22AC JUMP JUMPDEST SWAP6 SWAP5 POP POP POP POP POP JUMP JUMPDEST PUSH32 0x53555348493A3A64656C656761746542795369673A20696E76616C6964207369 PUSH1 0x0 DUP3 ADD MSTORE PUSH32 0x676E617475726500000000000000000000000000000000000000000000000000 PUSH1 0x20 DUP3 ADD MSTORE POP JUMP JUMPDEST PUSH1 0x0 PUSH2 0x2A04 PUSH1 0x27 DUP4 PUSH2 0x20C2 JUMP JUMPDEST SWAP2 POP PUSH2 0x2A0F DUP3 PUSH2 0x29A8 JUMP JUMPDEST PUSH1 0x40 DUP3 ADD SWAP1 POP SWAP2 SWAP1 POP JUMP JUMPDEST PUSH1 0x0 PUSH1 0x20 DUP3 ADD SWAP1 POP DUP2 DUP2 SUB PUSH1 0x0 DUP4 ADD MSTORE PUSH2 0x2A33 DUP2 PUSH2 0x29F7 JUMP JUMPDEST SWAP1 POP SWAP2 SWAP1 POP JUMP JUMPDEST PUSH1 0x0 PUSH2 0x2A45 DUP3 PUSH2 0x21CC JUMP JUMPDEST SWAP2 POP PUSH32 0xFFFFFFFFFFFFFFFFFFFFFFFFFFFFFFFFFFFFFFFFFFFFFFFFFFFFFFFFFFFFFFFF DUP3 SUB PUSH2 0x2A77 JUMPI PUSH2 0x2A76 PUSH2 0x260B JUMP JUMPDEST JUMPDEST PUSH1 0x1 DUP3 ADD SWAP1 POP SWAP2 SWAP1 POP JUMP JUMPDEST PUSH32 0x53555348493A3A64656C656761746542795369673A20696E76616C6964206E6F PUSH1 0x0 DUP3 ADD MSTORE PUSH32 0x6E63650000000000000000000000000000000000000000000000000000000000 PUSH1 0x20 DUP3 ADD MSTORE POP JUMP JUMPDEST PUSH1 0x0 PUSH2 0x2ADE PUSH1 0x23 DUP4 PUSH2 0x20C2 JUMP JUMPDEST SWAP2 POP PUSH2 0x2AE9 DUP3 PUSH2 0x2A82 JUMP JUMPDEST PUSH1 0x40 DUP3 ADD SWAP1 POP SWAP2 SWAP1 POP JUMP JUMPDEST PUSH1 0x0 PUSH1 0x20 DUP3 ADD SWAP1 POP DUP2 DUP2 SUB PUSH1 0x0 DUP4 ADD MSTORE PUSH2 0x2B0D DUP2 PUSH2 0x2AD1 JUMP JUMPDEST SWAP1 POP SWAP2 SWAP1 POP JUMP JUMPDEST PUSH32 0x53555348493A3A64656C656761746542795369673A207369676E617475726520 PUSH1 0x0 DUP3 ADD MSTORE PUSH32 0x6578706972656400000000000000000000000000000000000000000000000000 PUSH1 0x20 DUP3 ADD MSTORE POP JUMP JUMPDEST PUSH1 0x0 PUSH2 0x2B70 PUSH1 0x27 DUP4 PUSH2 0x20C2 JUMP JUMPDEST SWAP2 POP PUSH2 0x2B7B DUP3 PUSH2 0x2B14 JUMP JUMPDEST PUSH1 0x40 DUP3 ADD SWAP1 POP SWAP2 SWAP1 POP JUMP JUMPDEST PUSH1 0x0 PUSH1 0x20 DUP3 ADD SWAP1 POP DUP2 DUP2 SUB PUSH1 0x0 DUP4 ADD MSTORE PUSH2 0x2B9F DUP2 PUSH2 0x2B63 JUMP JUMPDEST SWAP1 POP SWAP2 SWAP1 POP JUMP JUMPDEST PUSH32 0x4F776E61626C653A206E6577206F776E657220697320746865207A65726F2061 PUSH1 0x0 DUP3 ADD MSTORE PUSH32 0x6464726573730000000000000000000000000000000000000000000000000000 PUSH1 0x20 DUP3 ADD MSTORE POP JUMP JUMPDEST PUSH1 0x0 PUSH2 0x2C02 PUSH1 0x26 DUP4 PUSH2 0x20C2 JUMP JUMPDEST SWAP2 POP PUSH2 0x2C0D DUP3 PUSH2 0x2BA6 JUMP JUMPDEST PUSH1 0x40 DUP3 ADD SWAP1 POP SWAP2 SWAP1 POP JUMP JUMPDEST PUSH1 0x0 PUSH1 0x20 DUP3 ADD SWAP1 POP DUP2 DUP2 SUB PUSH1 0x0 DUP4 ADD MSTORE PUSH2 0x2C31 DUP2 PUSH2 0x2BF5 JUMP JUMPDEST SWAP1 POP SWAP2 SWAP1 POP JUMP JUMPDEST PUSH32 0x45524332303A20617070726F76652066726F6D20746865207A65726F20616464 PUSH1 0x0 DUP3 ADD MSTORE PUSH32 0x7265737300000000000000000000000000000000000000000000000000000000 PUSH1 0x20 DUP3 ADD MSTORE POP JUMP JUMPDEST PUSH1 0x0 PUSH2 0x2C94 PUSH1 0x24 DUP4 PUSH2 0x20C2 JUMP JUMPDEST SWAP2 POP PUSH2 0x2C9F DUP3 PUSH2 0x2C38 JUMP JUMPDEST PUSH1 0x40 DUP3 ADD SWAP1 POP SWAP2 SWAP1 POP JUMP JUMPDEST PUSH1 0x0 PUSH1 0x20 DUP3 ADD SWAP1 POP DUP2 DUP2 SUB PUSH1 0x0 DUP4 ADD MSTORE PUSH2 0x2CC3 DUP2 PUSH2 0x2C87 JUMP JUMPDEST SWAP1 POP SWAP2 SWAP1 POP JUMP JUMPDEST PUSH32 0x45524332303A20617070726F766520746F20746865207A65726F206164647265 PUSH1 0x0 DUP3 ADD MSTORE PUSH32 0x7373000000000000000000000000000000000000000000000000000000000000 PUSH1 0x20 DUP3 ADD MSTORE POP JUMP JUMPDEST PUSH1 0x0 PUSH2 0x2D26 PUSH1 0x22 DUP4 PUSH2 0x20C2 JUMP JUMPDEST SWAP2 POP PUSH2 0x2D31 DUP3 PUSH2 0x2CCA JUMP JUMPDEST PUSH1 0x40 DUP3 ADD SWAP1 POP SWAP2 SWAP1 POP JUMP JUMPDEST PUSH1 0x0 PUSH1 0x20 DUP3 ADD SWAP1 POP DUP2 DUP2 SUB PUSH1 0x0 DUP4 ADD MSTORE PUSH2 0x2D55 DUP2 PUSH2 0x2D19 JUMP JUMPDEST SWAP1 POP SWAP2 SWAP1 POP JUMP JUMPDEST PUSH32 0x45524332303A20696E73756666696369656E7420616C6C6F77616E6365000000 PUSH1 0x0 DUP3 ADD MSTORE POP JUMP JUMPDEST PUSH1 0x0 PUSH2 0x2D92 PUSH1 0x1D DUP4 PUSH2 0x20C2 JUMP JUMPDEST SWAP2 POP PUSH2 0x2D9D DUP3 PUSH2 0x2D5C JUMP JUMPDEST PUSH1 0x20 DUP3 ADD SWAP1 POP SWAP2 SWAP1 POP JUMP JUMPDEST PUSH1 0x0 PUSH1 0x20 DUP3 ADD SWAP1 POP DUP2 DUP2 SUB PUSH1 0x0 DUP4 ADD MSTORE PUSH2 0x2DC1 DUP2 PUSH2 0x2D85 JUMP JUMPDEST SWAP1 POP SWAP2 SWAP1 POP JUMP JUMPDEST PUSH32 0x45524332303A207472616E736665722066726F6D20746865207A65726F206164 PUSH1 0x0 DUP3 ADD MSTORE PUSH32 0x6472657373000000000000000000000000000000000000000000000000000000 PUSH1 0x20 DUP3 ADD MSTORE POP JUMP JUMPDEST PUSH1 0x0 PUSH2 0x2E24 PUSH1 0x25 DUP4 PUSH2 0x20C2 JUMP JUMPDEST SWAP2 POP PUSH2 0x2E2F DUP3 PUSH2 0x2DC8 JUMP JUMPDEST PUSH1 0x40 DUP3 ADD SWAP1 POP SWAP2 SWAP1 POP JUMP JUMPDEST PUSH1 0x0 PUSH1 0x20 DUP3 ADD SWAP1 POP DUP2 DUP2 SUB PUSH1 0x0 DUP4 ADD MSTORE PUSH2 0x2E53 DUP2 PUSH2 0x2E17 JUMP JUMPDEST SWAP1 POP SWAP2 SWAP1 POP JUMP JUMPDEST PUSH32 0x45524332303A207472616E7366657220746F20746865207A65726F2061646472 PUSH1 0x0 DUP3 ADD MSTORE PUSH32 0x6573730000000000000000000000000000000000000000000000000000000000 PUSH1 0x20 DUP3 ADD MSTORE POP JUMP JUMPDEST PUSH1 0x0 PUSH2 0x2EB6 PUSH1 0x23 DUP4 PUSH2 0x20C2 JUMP JUMPDEST SWAP2 POP PUSH2 0x2EC1 DUP3 PUSH2 0x2E5A JUMP JUMPDEST PUSH1 0x40 DUP3 ADD SWAP1 POP SWAP2 SWAP1 POP JUMP JUMPDEST PUSH1 0x0 PUSH1 0x20 DUP3 ADD SWAP1 POP DUP2 DUP2 SUB PUSH1 0x0 DUP4 ADD MSTORE PUSH2 0x2EE5 DUP2 PUSH2 0x2EA9 JUMP JUMPDEST SWAP1 POP SWAP2 SWAP1 POP JUMP JUMPDEST PUSH32 0x45524332303A207472616E7366657220616D6F756E7420657863656564732062 PUSH1 0x0 DUP3 ADD MSTORE PUSH32 0x616C616E63650000000000000000000000000000000000000000000000000000 PUSH1 0x20 DUP3 ADD MSTORE POP JUMP JUMPDEST PUSH1 0x0 PUSH2 0x2F48 PUSH1 0x26 DUP4 PUSH2 0x20C2 JUMP JUMPDEST SWAP2 POP PUSH2 0x2F53 DUP3 PUSH2 0x2EEC JUMP JUMPDEST PUSH1 0x40 DUP3 ADD SWAP1 POP SWAP2 SWAP1 POP JUMP JUMPDEST PUSH1 0x0 PUSH1 0x20 DUP3 ADD SWAP1 POP DUP2 DUP2 SUB PUSH1 0x0 DUP4 ADD MSTORE PUSH2 0x2F77 DUP2 PUSH2 0x2F3B JUMP JUMPDEST SWAP1 POP SWAP2 SWAP1 POP JUMP JUMPDEST PUSH32 0x4F776E61626C653A2063616C6C6572206973206E6F7420746865206F776E6572 PUSH1 0x0 DUP3 ADD MSTORE POP JUMP JUMPDEST PUSH1 0x0 PUSH2 0x2FB4 PUSH1 0x20 DUP4 PUSH2 0x20C2 JUMP JUMPDEST SWAP2 POP PUSH2 0x2FBF DUP3 PUSH2 0x2F7E JUMP JUMPDEST PUSH1 0x20 DUP3 ADD SWAP1 POP SWAP2 SWAP1 POP JUMP JUMPDEST PUSH1 0x0 PUSH1 0x20 DUP3 ADD SWAP1 POP DUP2 DUP2 SUB PUSH1 0x0 DUP4 ADD MSTORE PUSH2 0x2FE3 DUP2 PUSH2 0x2FA7 JUMP JUMPDEST SWAP1 POP SWAP2 SWAP1 POP JUMP JUMPDEST PUSH32 0x45524332303A206D696E7420746F20746865207A65726F206164647265737300 PUSH1 0x0 DUP3 ADD MSTORE POP JUMP JUMPDEST PUSH1 0x0 PUSH2 0x3020 PUSH1 0x1F DUP4 PUSH2 0x20C2 JUMP JUMPDEST SWAP2 POP PUSH2 0x302B DUP3 PUSH2 0x2FEA JUMP JUMPDEST PUSH1 0x20 DUP3 ADD SWAP1 POP SWAP2 SWAP1 POP JUMP JUMPDEST PUSH1 0x0 PUSH1 0x20 DUP3 ADD SWAP1 POP DUP2 DUP2 SUB PUSH1 0x0 DUP4 ADD MSTORE PUSH2 0x304F DUP2 PUSH2 0x3013 JUMP JUMPDEST SWAP1 POP SWAP2 SWAP1 POP JUMP JUMPDEST PUSH1 0x0 PUSH2 0x3061 DUP3 PUSH2 0x21CC JUMP JUMPDEST SWAP2 POP PUSH2 0x306C DUP4 PUSH2 0x21CC JUMP JUMPDEST SWAP3 POP DUP3 DUP3 SUB SWAP1 POP DUP2 DUP2 GT ISZERO PUSH2 0x3084 JUMPI PUSH2 0x3083 PUSH2 0x260B JUMP JUMPDEST JUMPDEST SWAP3 SWAP2 POP POP JUMP JUMPDEST PUSH1 0x0 PUSH2 0x3095 DUP3 PUSH2 0x23B7 JUMP JUMPDEST SWAP2 POP PUSH2 0x30A0 DUP4 PUSH2 0x23B7 JUMP JUMPDEST SWAP3 POP DUP3 DUP3 ADD SWAP1 POP PUSH4 0xFFFFFFFF DUP2 GT ISZERO PUSH2 0x30BC JUMPI PUSH2 0x30BB PUSH2 0x260B JUMP JUMPDEST JUMPDEST SWAP3 SWAP2 POP POP JUMP JUMPDEST PUSH1 0x0 PUSH1 0x40 DUP3 ADD SWAP1 POP PUSH2 0x30D7 PUSH1 0x0 DUP4 ADD DUP6 PUSH2 0x2278 JUMP JUMPDEST PUSH2 0x30E4 PUSH1 0x20 DUP4 ADD DUP5 PUSH2 0x2278 JUMP JUMPDEST SWAP4 SWAP3 POP POP POP JUMP INVALID MSTORE8 SSTORE MSTORE8 BASEFEE 0x49 GASPRICE GASPRICE 0x5F PUSH24 0x72697465436865636B706F696E743A20626C6F636B206E75 PUSH14 0x6265722065786365656473203332 KECCAK256 PUSH3 0x697473 LOG2 PUSH5 0x6970667358 0x22 SLT KECCAK256 0xB8 0x5D LT 0xD9 0x21 0xEF GAS 0xB2 BYTE STATICCALL SWAP8 MLOAD 0x2D PUSH9 0xD7CD7CDE3429E48F99 0x2B SWAP5 0xF9 BYTE DUP14 INVALID GAS DUP9 0xCA PUSH5 0x736F6C6343 STOP ADDMOD SGT STOP CALLER "
				},
				"gasEstimates": {
					"creation": {
						"codeDepositCost": "2526000",
						"executionCost": "infinite",
						"totalCost": "infinite"
					},
					"external": {
						"DELEGATION_TYPEHASH()": "395",
						"DOMAIN_TYPEHASH()": "419",
						"allowance(address,address)": "infinite",
						"approve(address,uint256)": "infinite",
						"balanceOf(address)": "2974",
						"checkpoints(address,uint32)": "infinite",
						"decimals()": "477",
						"decreaseAllowance(address,uint256)": "infinite",
						"delegate(address)": "infinite",
						"delegateBySig(address,uint256,uint256,uint8,bytes32,bytes32)": "infinite",
						"delegates(address)": "infinite",
						"getCurrentVotes(address)": "infinite",
						"getPriorVotes(address,uint256)": "infinite",
						"increaseAllowance(address,uint256)": "infinite",
						"mint(address,uint256)": "infinite",
						"name()": "infinite",
						"nonces(address)": "2881",
						"numCheckpoints(address)": "2956",
						"owner()": "2611",
						"renounceOwnership()": "30421",
						"symbol()": "infinite",
						"totalSupply()": "2505",
						"transfer(address,uint256)": "infinite",
						"transferFrom(address,address,uint256)": "infinite",
						"transferOwnership(address)": "30854"
					},
					"internal": {
						"_delegate(address,address)": "infinite",
						"_moveDelegates(address,address,uint256)": "infinite",
						"_writeCheckpoint(address,uint32,uint256,uint256)": "infinite",
						"getChainId()": "35",
						"safe32(uint256,string memory)": "infinite"
					}
				},
				"methodIdentifiers": {
					"DELEGATION_TYPEHASH()": "e7a324dc",
					"DOMAIN_TYPEHASH()": "20606b70",
					"allowance(address,address)": "dd62ed3e",
					"approve(address,uint256)": "095ea7b3",
					"balanceOf(address)": "70a08231",
					"checkpoints(address,uint32)": "f1127ed8",
					"decimals()": "313ce567",
					"decreaseAllowance(address,uint256)": "a457c2d7",
					"delegate(address)": "5c19a95c",
					"delegateBySig(address,uint256,uint256,uint8,bytes32,bytes32)": "c3cda520",
					"delegates(address)": "587cde1e",
					"getCurrentVotes(address)": "b4b5ea57",
					"getPriorVotes(address,uint256)": "782d6fe1",
					"increaseAllowance(address,uint256)": "39509351",
					"mint(address,uint256)": "40c10f19",
					"name()": "06fdde03",
					"nonces(address)": "7ecebe00",
					"numCheckpoints(address)": "6fcfff45",
					"owner()": "8da5cb5b",
					"renounceOwnership()": "715018a6",
					"symbol()": "95d89b41",
					"totalSupply()": "18160ddd",
					"transfer(address,uint256)": "a9059cbb",
					"transferFrom(address,address,uint256)": "23b872dd",
					"transferOwnership(address)": "f2fde38b"
				}
			},
			"storageLayout": {
				"storage": [
					{
						"astId": 128,
						"contract": "contracts/Zero2Hero_BNB/2_Token_Deployment/SushiToken.sol:SushiToken",
						"label": "_balances",
						"offset": 0,
						"slot": "0",
						"type": "t_mapping(t_address,t_uint256)"
					},
					{
						"astId": 134,
						"contract": "contracts/Zero2Hero_BNB/2_Token_Deployment/SushiToken.sol:SushiToken",
						"label": "_allowances",
						"offset": 0,
						"slot": "1",
						"type": "t_mapping(t_address,t_mapping(t_address,t_uint256))"
					},
					{
						"astId": 136,
						"contract": "contracts/Zero2Hero_BNB/2_Token_Deployment/SushiToken.sol:SushiToken",
						"label": "_totalSupply",
						"offset": 0,
						"slot": "2",
						"type": "t_uint256"
					},
					{
						"astId": 138,
						"contract": "contracts/Zero2Hero_BNB/2_Token_Deployment/SushiToken.sol:SushiToken",
						"label": "_name",
						"offset": 0,
						"slot": "3",
						"type": "t_string_storage"
					},
					{
						"astId": 140,
						"contract": "contracts/Zero2Hero_BNB/2_Token_Deployment/SushiToken.sol:SushiToken",
						"label": "_symbol",
						"offset": 0,
						"slot": "4",
						"type": "t_string_storage"
					},
					{
						"astId": 7,
						"contract": "contracts/Zero2Hero_BNB/2_Token_Deployment/SushiToken.sol:SushiToken",
						"label": "_owner",
						"offset": 0,
						"slot": "5",
						"type": "t_address"
					},
					{
						"astId": 866,
						"contract": "contracts/Zero2Hero_BNB/2_Token_Deployment/SushiToken.sol:SushiToken",
						"label": "_delegates",
						"offset": 0,
						"slot": "6",
						"type": "t_mapping(t_address,t_address)"
					},
					{
						"astId": 879,
						"contract": "contracts/Zero2Hero_BNB/2_Token_Deployment/SushiToken.sol:SushiToken",
						"label": "checkpoints",
						"offset": 0,
						"slot": "7",
						"type": "t_mapping(t_address,t_mapping(t_uint32,t_struct(Checkpoint)871_storage))"
					},
					{
						"astId": 884,
						"contract": "contracts/Zero2Hero_BNB/2_Token_Deployment/SushiToken.sol:SushiToken",
						"label": "numCheckpoints",
						"offset": 0,
						"slot": "8",
						"type": "t_mapping(t_address,t_uint32)"
					},
					{
						"astId": 901,
						"contract": "contracts/Zero2Hero_BNB/2_Token_Deployment/SushiToken.sol:SushiToken",
						"label": "nonces",
						"offset": 0,
						"slot": "9",
						"type": "t_mapping(t_address,t_uint256)"
					}
				],
				"types": {
					"t_address": {
						"encoding": "inplace",
						"label": "address",
						"numberOfBytes": "20"
					},
					"t_mapping(t_address,t_address)": {
						"encoding": "mapping",
						"key": "t_address",
						"label": "mapping(address => address)",
						"numberOfBytes": "32",
						"value": "t_address"
					},
					"t_mapping(t_address,t_mapping(t_address,t_uint256))": {
						"encoding": "mapping",
						"key": "t_address",
						"label": "mapping(address => mapping(address => uint256))",
						"numberOfBytes": "32",
						"value": "t_mapping(t_address,t_uint256)"
					},
					"t_mapping(t_address,t_mapping(t_uint32,t_struct(Checkpoint)871_storage))": {
						"encoding": "mapping",
						"key": "t_address",
						"label": "mapping(address => mapping(uint32 => struct SushiToken.Checkpoint))",
						"numberOfBytes": "32",
						"value": "t_mapping(t_uint32,t_struct(Checkpoint)871_storage)"
					},
					"t_mapping(t_address,t_uint256)": {
						"encoding": "mapping",
						"key": "t_address",
						"label": "mapping(address => uint256)",
						"numberOfBytes": "32",
						"value": "t_uint256"
					},
					"t_mapping(t_address,t_uint32)": {
						"encoding": "mapping",
						"key": "t_address",
						"label": "mapping(address => uint32)",
						"numberOfBytes": "32",
						"value": "t_uint32"
					},
					"t_mapping(t_uint32,t_struct(Checkpoint)871_storage)": {
						"encoding": "mapping",
						"key": "t_uint32",
						"label": "mapping(uint32 => struct SushiToken.Checkpoint)",
						"numberOfBytes": "32",
						"value": "t_struct(Checkpoint)871_storage"
					},
					"t_string_storage": {
						"encoding": "bytes",
						"label": "string",
						"numberOfBytes": "32"
					},
					"t_struct(Checkpoint)871_storage": {
						"encoding": "inplace",
						"label": "struct SushiToken.Checkpoint",
						"members": [
							{
								"astId": 868,
								"contract": "contracts/Zero2Hero_BNB/2_Token_Deployment/SushiToken.sol:SushiToken",
								"label": "fromBlock",
								"offset": 0,
								"slot": "0",
								"type": "t_uint32"
							},
							{
								"astId": 870,
								"contract": "contracts/Zero2Hero_BNB/2_Token_Deployment/SushiToken.sol:SushiToken",
								"label": "votes",
								"offset": 0,
								"slot": "1",
								"type": "t_uint256"
							}
						],
						"numberOfBytes": "64"
					},
					"t_uint256": {
						"encoding": "inplace",
						"label": "uint256",
						"numberOfBytes": "32"
					},
					"t_uint32": {
						"encoding": "inplace",
						"label": "uint32",
						"numberOfBytes": "4"
					}
				}
			},
			"userdoc": {
				"events": {
					"DelegateChanged(address,address,address)": {
						"notice": "An event thats emitted when an account changes its delegate"
					},
					"DelegateVotesChanged(address,uint256,uint256)": {
						"notice": "An event thats emitted when a delegate account's vote balance changes"
					}
				},
				"kind": "user",
				"methods": {
					"DELEGATION_TYPEHASH()": {
						"notice": "The EIP-712 typehash for the delegation struct used by the contract"
					},
					"DOMAIN_TYPEHASH()": {
						"notice": "The EIP-712 typehash for the contract's domain"
					},
					"checkpoints(address,uint32)": {
						"notice": "A record of votes checkpoints for each account, by index"
					},
					"delegate(address)": {
						"notice": "Delegate votes from `msg.sender` to `delegatee`"
					},
					"delegateBySig(address,uint256,uint256,uint8,bytes32,bytes32)": {
						"notice": "Delegates votes from signatory to `delegatee`"
					},
					"delegates(address)": {
						"notice": "Delegate votes from `msg.sender` to `delegatee`"
					},
					"getCurrentVotes(address)": {
						"notice": "Gets the current votes balance for `account`"
					},
					"getPriorVotes(address,uint256)": {
						"notice": "Determine the prior number of votes for an account as of a block number"
					},
					"mint(address,uint256)": {
						"notice": "Creates `_amount` token to `_to`. Must only be called by the owner (MasterChef)."
					},
					"nonces(address)": {
						"notice": "A record of states for signing / validating signatures"
					},
					"numCheckpoints(address)": {
						"notice": "The number of checkpoints for each account"
					}
				},
				"version": 1
			}
		}
	}
}