{
	"contracts/Zero2Hero_BNB/2_Token_Deployment/ERC20_test.sol_flattened.sol": {
		"Ownable": {
			"abi": [
				{
					"inputs": [],
					"stateMutability": "nonpayable",
					"type": "constructor"
				},
				{
					"anonymous": false,
					"inputs": [
						{
							"indexed": true,
							"internalType": "address",
							"name": "previousOwner",
							"type": "address"
						},
						{
							"indexed": true,
							"internalType": "address",
							"name": "newOwner",
							"type": "address"
						}
					],
					"name": "OwnershipTransferred",
					"type": "event"
				},
				{
					"inputs": [],
					"name": "owner",
					"outputs": [
						{
							"internalType": "address",
							"name": "",
							"type": "address"
						}
					],
					"stateMutability": "view",
					"type": "function"
				},
				{
					"inputs": [],
					"name": "renounceOwnership",
					"outputs": [],
					"stateMutability": "nonpayable",
					"type": "function"
				},
				{
					"inputs": [
						{
							"internalType": "address",
							"name": "newOwner",
							"type": "address"
						}
					],
					"name": "transferOwnership",
					"outputs": [],
					"stateMutability": "nonpayable",
					"type": "function"
				}
			],
			"devdoc": {
				"details": "Contract module which provides a basic access control mechanism, where there is an account (an owner) that can be granted exclusive access to specific functions. By default, the owner account will be the one that deploys the contract. This can later be changed with {transferOwnership}. This module is used through inheritance. It will make available the modifier `onlyOwner`, which can be applied to your functions to restrict their use to the owner.",
				"kind": "dev",
				"methods": {
					"constructor": {
						"details": "Initializes the contract setting the deployer as the initial owner."
					},
					"owner()": {
						"details": "Returns the address of the current owner."
					},
					"renounceOwnership()": {
						"details": "Leaves the contract without owner. It will not be possible to call `onlyOwner` functions anymore. Can only be called by the current owner. NOTE: Renouncing ownership will leave the contract without an owner, thereby removing any functionality that is only available to the owner."
					},
					"transferOwnership(address)": {
						"details": "Transfers ownership of the contract to a new account (`newOwner`). Can only be called by the current owner."
					}
				},
				"version": 1
			},
			"evm": {
				"assembly": "    /* \"contracts/Zero2Hero_BNB/2_Token_Deployment/ERC20_test.sol_flattened.sol\":9322:11020  contract Ownable is Context {... */\n  mstore(0x40, 0x80)\n    /* \"contracts/Zero2Hero_BNB/2_Token_Deployment/ERC20_test.sol_flattened.sol\":9559:9696  constructor ()  {... */\n  callvalue\n  dup1\n  iszero\n  tag_1\n  jumpi\n  0x00\n  dup1\n  revert\ntag_1:\n  pop\n    /* \"contracts/Zero2Hero_BNB/2_Token_Deployment/ERC20_test.sol_flattened.sol\":9581:9598  address msgSender */\n  0x00\n    /* \"contracts/Zero2Hero_BNB/2_Token_Deployment/ERC20_test.sol_flattened.sol\":9601:9613  _msgSender() */\n  tag_6\n    /* \"contracts/Zero2Hero_BNB/2_Token_Deployment/ERC20_test.sol_flattened.sol\":9601:9611  _msgSender */\n  shl(0x20, tag_7)\n    /* \"contracts/Zero2Hero_BNB/2_Token_Deployment/ERC20_test.sol_flattened.sol\":9601:9613  _msgSender() */\n  0x20\n  shr\n  jump\t// in\ntag_6:\n    /* \"contracts/Zero2Hero_BNB/2_Token_Deployment/ERC20_test.sol_flattened.sol\":9581:9613  address msgSender = _msgSender() */\n  swap1\n  pop\n    /* \"contracts/Zero2Hero_BNB/2_Token_Deployment/ERC20_test.sol_flattened.sol\":9628:9637  msgSender */\n  dup1\n    /* \"contracts/Zero2Hero_BNB/2_Token_Deployment/ERC20_test.sol_flattened.sol\":9619:9625  _owner */\n  0x00\n  dup1\n    /* \"contracts/Zero2Hero_BNB/2_Token_Deployment/ERC20_test.sol_flattened.sol\":9619:9637  _owner = msgSender */\n  0x0100\n  exp\n  dup2\n  sload\n  dup2\n  0xffffffffffffffffffffffffffffffffffffffff\n  mul\n  not\n  and\n  swap1\n  dup4\n  0xffffffffffffffffffffffffffffffffffffffff\n  and\n  mul\n  or\n  swap1\n  sstore\n  pop\n    /* \"contracts/Zero2Hero_BNB/2_Token_Deployment/ERC20_test.sol_flattened.sol\":9681:9690  msgSender */\n  dup1\n    /* \"contracts/Zero2Hero_BNB/2_Token_Deployment/ERC20_test.sol_flattened.sol\":9648:9691  OwnershipTransferred(address(0), msgSender) */\n  0xffffffffffffffffffffffffffffffffffffffff\n  and\n    /* \"contracts/Zero2Hero_BNB/2_Token_Deployment/ERC20_test.sol_flattened.sol\":9677:9678  0 */\n  0x00\n    /* \"contracts/Zero2Hero_BNB/2_Token_Deployment/ERC20_test.sol_flattened.sol\":9648:9691  OwnershipTransferred(address(0), msgSender) */\n  0xffffffffffffffffffffffffffffffffffffffff\n  and\n  0x8be0079c531659141344cd1fd0a4f28419497f9722a3daafe3b4186f6b6457e0\n  mload(0x40)\n  mload(0x40)\n  dup1\n  swap2\n  sub\n  swap1\n  log3\n    /* \"contracts/Zero2Hero_BNB/2_Token_Deployment/ERC20_test.sol_flattened.sol\":9575:9696  {... */\n  pop\n    /* \"contracts/Zero2Hero_BNB/2_Token_Deployment/ERC20_test.sol_flattened.sol\":9322:11020  contract Ownable is Context {... */\n  jump(tag_8)\n    /* \"contracts/Zero2Hero_BNB/2_Token_Deployment/ERC20_test.sol_flattened.sol\":3665:3747  function _msgSender() internal view returns (address) {... */\ntag_7:\n    /* \"contracts/Zero2Hero_BNB/2_Token_Deployment/ERC20_test.sol_flattened.sol\":3710:3717  address */\n  0x00\n    /* \"contracts/Zero2Hero_BNB/2_Token_Deployment/ERC20_test.sol_flattened.sol\":3732:3742  msg.sender */\n  caller\n    /* \"contracts/Zero2Hero_BNB/2_Token_Deployment/ERC20_test.sol_flattened.sol\":3725:3742  return msg.sender */\n  swap1\n  pop\n    /* \"contracts/Zero2Hero_BNB/2_Token_Deployment/ERC20_test.sol_flattened.sol\":3665:3747  function _msgSender() internal view returns (address) {... */\n  swap1\n  jump\t// out\n    /* \"contracts/Zero2Hero_BNB/2_Token_Deployment/ERC20_test.sol_flattened.sol\":9322:11020  contract Ownable is Context {... */\ntag_8:\n  dataSize(sub_0)\n  dup1\n  dataOffset(sub_0)\n  0x00\n  codecopy\n  0x00\n  return\nstop\n\nsub_0: assembly {\n        /* \"contracts/Zero2Hero_BNB/2_Token_Deployment/ERC20_test.sol_flattened.sol\":9322:11020  contract Ownable is Context {... */\n      mstore(0x40, 0x80)\n      callvalue\n      dup1\n      iszero\n      tag_1\n      jumpi\n      0x00\n      dup1\n      revert\n    tag_1:\n      pop\n      jumpi(tag_2, lt(calldatasize, 0x04))\n      shr(0xe0, calldataload(0x00))\n      dup1\n      0x715018a6\n      eq\n      tag_3\n      jumpi\n      dup1\n      0x8da5cb5b\n      eq\n      tag_4\n      jumpi\n      dup1\n      0xf2fde38b\n      eq\n      tag_5\n      jumpi\n    tag_2:\n      0x00\n      dup1\n      revert\n        /* \"contracts/Zero2Hero_BNB/2_Token_Deployment/ERC20_test.sol_flattened.sol\":10347:10474  function renounceOwnership() public onlyOwner {... */\n    tag_3:\n      tag_6\n      tag_7\n      jump\t// in\n    tag_6:\n      stop\n        /* \"contracts/Zero2Hero_BNB/2_Token_Deployment/ERC20_test.sol_flattened.sol\":9764:9835  function owner() public view returns (address) {... */\n    tag_4:\n      tag_8\n      tag_9\n      jump\t// in\n    tag_8:\n      mload(0x40)\n      tag_10\n      swap2\n      swap1\n      tag_11\n      jump\t// in\n    tag_10:\n      mload(0x40)\n      dup1\n      swap2\n      sub\n      swap1\n      return\n        /* \"contracts/Zero2Hero_BNB/2_Token_Deployment/ERC20_test.sol_flattened.sol\":10613:10714  function transferOwnership(address newOwner) public onlyOwner {... */\n    tag_5:\n      tag_12\n      0x04\n      dup1\n      calldatasize\n      sub\n      dup2\n      add\n      swap1\n      tag_13\n      swap2\n      swap1\n      tag_14\n      jump\t// in\n    tag_13:\n      tag_15\n      jump\t// in\n    tag_12:\n      stop\n        /* \"contracts/Zero2Hero_BNB/2_Token_Deployment/ERC20_test.sol_flattened.sol\":10347:10474  function renounceOwnership() public onlyOwner {... */\n    tag_7:\n        /* \"contracts/Zero2Hero_BNB/2_Token_Deployment/ERC20_test.sol_flattened.sol\":9960:9972  _msgSender() */\n      tag_17\n        /* \"contracts/Zero2Hero_BNB/2_Token_Deployment/ERC20_test.sol_flattened.sol\":9960:9970  _msgSender */\n      tag_18\n        /* \"contracts/Zero2Hero_BNB/2_Token_Deployment/ERC20_test.sol_flattened.sol\":9960:9972  _msgSender() */\n      jump\t// in\n    tag_17:\n        /* \"contracts/Zero2Hero_BNB/2_Token_Deployment/ERC20_test.sol_flattened.sol\":9950:9972  _owner == _msgSender() */\n      0xffffffffffffffffffffffffffffffffffffffff\n      and\n        /* \"contracts/Zero2Hero_BNB/2_Token_Deployment/ERC20_test.sol_flattened.sol\":9950:9956  _owner */\n      0x00\n      dup1\n      sload\n      swap1\n      0x0100\n      exp\n      swap1\n      div\n      0xffffffffffffffffffffffffffffffffffffffff\n      and\n        /* \"contracts/Zero2Hero_BNB/2_Token_Deployment/ERC20_test.sol_flattened.sol\":9950:9972  _owner == _msgSender() */\n      0xffffffffffffffffffffffffffffffffffffffff\n      and\n      eq\n        /* \"contracts/Zero2Hero_BNB/2_Token_Deployment/ERC20_test.sol_flattened.sol\":9942:10009  require(_owner == _msgSender(), \"Ownable: caller is not the owner\") */\n      tag_19\n      jumpi\n      mload(0x40)\n      0x08c379a000000000000000000000000000000000000000000000000000000000\n      dup2\n      mstore\n      0x04\n      add\n      tag_20\n      swap1\n      tag_21\n      jump\t// in\n    tag_20:\n      mload(0x40)\n      dup1\n      swap2\n      sub\n      swap1\n      revert\n    tag_19:\n        /* \"contracts/Zero2Hero_BNB/2_Token_Deployment/ERC20_test.sol_flattened.sol\":10441:10442  0 */\n      0x00\n        /* \"contracts/Zero2Hero_BNB/2_Token_Deployment/ERC20_test.sol_flattened.sol\":10404:10444  OwnershipTransferred(_owner, address(0)) */\n      0xffffffffffffffffffffffffffffffffffffffff\n      and\n        /* \"contracts/Zero2Hero_BNB/2_Token_Deployment/ERC20_test.sol_flattened.sol\":10425:10431  _owner */\n      0x00\n      dup1\n      sload\n      swap1\n      0x0100\n      exp\n      swap1\n      div\n      0xffffffffffffffffffffffffffffffffffffffff\n      and\n        /* \"contracts/Zero2Hero_BNB/2_Token_Deployment/ERC20_test.sol_flattened.sol\":10404:10444  OwnershipTransferred(_owner, address(0)) */\n      0xffffffffffffffffffffffffffffffffffffffff\n      and\n      0x8be0079c531659141344cd1fd0a4f28419497f9722a3daafe3b4186f6b6457e0\n      mload(0x40)\n      mload(0x40)\n      dup1\n      swap2\n      sub\n      swap1\n      log3\n        /* \"contracts/Zero2Hero_BNB/2_Token_Deployment/ERC20_test.sol_flattened.sol\":10467:10468  0 */\n      0x00\n        /* \"contracts/Zero2Hero_BNB/2_Token_Deployment/ERC20_test.sol_flattened.sol\":10450:10456  _owner */\n      dup1\n      0x00\n        /* \"contracts/Zero2Hero_BNB/2_Token_Deployment/ERC20_test.sol_flattened.sol\":10450:10469  _owner = address(0) */\n      0x0100\n      exp\n      dup2\n      sload\n      dup2\n      0xffffffffffffffffffffffffffffffffffffffff\n      mul\n      not\n      and\n      swap1\n      dup4\n      0xffffffffffffffffffffffffffffffffffffffff\n      and\n      mul\n      or\n      swap1\n      sstore\n      pop\n        /* \"contracts/Zero2Hero_BNB/2_Token_Deployment/ERC20_test.sol_flattened.sol\":10347:10474  function renounceOwnership() public onlyOwner {... */\n      jump\t// out\n        /* \"contracts/Zero2Hero_BNB/2_Token_Deployment/ERC20_test.sol_flattened.sol\":9764:9835  function owner() public view returns (address) {... */\n    tag_9:\n        /* \"contracts/Zero2Hero_BNB/2_Token_Deployment/ERC20_test.sol_flattened.sol\":9802:9809  address */\n      0x00\n        /* \"contracts/Zero2Hero_BNB/2_Token_Deployment/ERC20_test.sol_flattened.sol\":9824:9830  _owner */\n      dup1\n      0x00\n      swap1\n      sload\n      swap1\n      0x0100\n      exp\n      swap1\n      div\n      0xffffffffffffffffffffffffffffffffffffffff\n      and\n        /* \"contracts/Zero2Hero_BNB/2_Token_Deployment/ERC20_test.sol_flattened.sol\":9817:9830  return _owner */\n      swap1\n      pop\n        /* \"contracts/Zero2Hero_BNB/2_Token_Deployment/ERC20_test.sol_flattened.sol\":9764:9835  function owner() public view returns (address) {... */\n      swap1\n      jump\t// out\n        /* \"contracts/Zero2Hero_BNB/2_Token_Deployment/ERC20_test.sol_flattened.sol\":10613:10714  function transferOwnership(address newOwner) public onlyOwner {... */\n    tag_15:\n        /* \"contracts/Zero2Hero_BNB/2_Token_Deployment/ERC20_test.sol_flattened.sol\":9960:9972  _msgSender() */\n      tag_25\n        /* \"contracts/Zero2Hero_BNB/2_Token_Deployment/ERC20_test.sol_flattened.sol\":9960:9970  _msgSender */\n      tag_18\n        /* \"contracts/Zero2Hero_BNB/2_Token_Deployment/ERC20_test.sol_flattened.sol\":9960:9972  _msgSender() */\n      jump\t// in\n    tag_25:\n        /* \"contracts/Zero2Hero_BNB/2_Token_Deployment/ERC20_test.sol_flattened.sol\":9950:9972  _owner == _msgSender() */\n      0xffffffffffffffffffffffffffffffffffffffff\n      and\n        /* \"contracts/Zero2Hero_BNB/2_Token_Deployment/ERC20_test.sol_flattened.sol\":9950:9956  _owner */\n      0x00\n      dup1\n      sload\n      swap1\n      0x0100\n      exp\n      swap1\n      div\n      0xffffffffffffffffffffffffffffffffffffffff\n      and\n        /* \"contracts/Zero2Hero_BNB/2_Token_Deployment/ERC20_test.sol_flattened.sol\":9950:9972  _owner == _msgSender() */\n      0xffffffffffffffffffffffffffffffffffffffff\n      and\n      eq\n        /* \"contracts/Zero2Hero_BNB/2_Token_Deployment/ERC20_test.sol_flattened.sol\":9942:10009  require(_owner == _msgSender(), \"Ownable: caller is not the owner\") */\n      tag_26\n      jumpi\n      mload(0x40)\n      0x08c379a000000000000000000000000000000000000000000000000000000000\n      dup2\n      mstore\n      0x04\n      add\n      tag_27\n      swap1\n      tag_21\n      jump\t// in\n    tag_27:\n      mload(0x40)\n      dup1\n      swap2\n      sub\n      swap1\n      revert\n    tag_26:\n        /* \"contracts/Zero2Hero_BNB/2_Token_Deployment/ERC20_test.sol_flattened.sol\":10681:10709  _transferOwnership(newOwner) */\n      tag_29\n        /* \"contracts/Zero2Hero_BNB/2_Token_Deployment/ERC20_test.sol_flattened.sol\":10700:10708  newOwner */\n      dup2\n        /* \"contracts/Zero2Hero_BNB/2_Token_Deployment/ERC20_test.sol_flattened.sol\":10681:10699  _transferOwnership */\n      tag_30\n        /* \"contracts/Zero2Hero_BNB/2_Token_Deployment/ERC20_test.sol_flattened.sol\":10681:10709  _transferOwnership(newOwner) */\n      jump\t// in\n    tag_29:\n        /* \"contracts/Zero2Hero_BNB/2_Token_Deployment/ERC20_test.sol_flattened.sol\":10613:10714  function transferOwnership(address newOwner) public onlyOwner {... */\n      pop\n      jump\t// out\n        /* \"contracts/Zero2Hero_BNB/2_Token_Deployment/ERC20_test.sol_flattened.sol\":3665:3747  function _msgSender() internal view returns (address) {... */\n    tag_18:\n        /* \"contracts/Zero2Hero_BNB/2_Token_Deployment/ERC20_test.sol_flattened.sol\":3710:3717  address */\n      0x00\n        /* \"contracts/Zero2Hero_BNB/2_Token_Deployment/ERC20_test.sol_flattened.sol\":3732:3742  msg.sender */\n      caller\n        /* \"contracts/Zero2Hero_BNB/2_Token_Deployment/ERC20_test.sol_flattened.sol\":3725:3742  return msg.sender */\n      swap1\n      pop\n        /* \"contracts/Zero2Hero_BNB/2_Token_Deployment/ERC20_test.sol_flattened.sol\":3665:3747  function _msgSender() internal view returns (address) {... */\n      swap1\n      jump\t// out\n        /* \"contracts/Zero2Hero_BNB/2_Token_Deployment/ERC20_test.sol_flattened.sol\":10807:11018  function _transferOwnership(address newOwner) internal {... */\n    tag_30:\n        /* \"contracts/Zero2Hero_BNB/2_Token_Deployment/ERC20_test.sol_flattened.sol\":10896:10897  0 */\n      0x00\n        /* \"contracts/Zero2Hero_BNB/2_Token_Deployment/ERC20_test.sol_flattened.sol\":10876:10898  newOwner != address(0) */\n      0xffffffffffffffffffffffffffffffffffffffff\n      and\n        /* \"contracts/Zero2Hero_BNB/2_Token_Deployment/ERC20_test.sol_flattened.sol\":10876:10884  newOwner */\n      dup2\n        /* \"contracts/Zero2Hero_BNB/2_Token_Deployment/ERC20_test.sol_flattened.sol\":10876:10898  newOwner != address(0) */\n      0xffffffffffffffffffffffffffffffffffffffff\n      and\n      sub\n        /* \"contracts/Zero2Hero_BNB/2_Token_Deployment/ERC20_test.sol_flattened.sol\":10868:10941  require(newOwner != address(0), \"Ownable: new owner is the zero address\") */\n      tag_33\n      jumpi\n      mload(0x40)\n      0x08c379a000000000000000000000000000000000000000000000000000000000\n      dup2\n      mstore\n      0x04\n      add\n      tag_34\n      swap1\n      tag_35\n      jump\t// in\n    tag_34:\n      mload(0x40)\n      dup1\n      swap2\n      sub\n      swap1\n      revert\n    tag_33:\n        /* \"contracts/Zero2Hero_BNB/2_Token_Deployment/ERC20_test.sol_flattened.sol\":10981:10989  newOwner */\n      dup1\n        /* \"contracts/Zero2Hero_BNB/2_Token_Deployment/ERC20_test.sol_flattened.sol\":10952:10990  OwnershipTransferred(_owner, newOwner) */\n      0xffffffffffffffffffffffffffffffffffffffff\n      and\n        /* \"contracts/Zero2Hero_BNB/2_Token_Deployment/ERC20_test.sol_flattened.sol\":10973:10979  _owner */\n      0x00\n      dup1\n      sload\n      swap1\n      0x0100\n      exp\n      swap1\n      div\n      0xffffffffffffffffffffffffffffffffffffffff\n      and\n        /* \"contracts/Zero2Hero_BNB/2_Token_Deployment/ERC20_test.sol_flattened.sol\":10952:10990  OwnershipTransferred(_owner, newOwner) */\n      0xffffffffffffffffffffffffffffffffffffffff\n      and\n      0x8be0079c531659141344cd1fd0a4f28419497f9722a3daafe3b4186f6b6457e0\n      mload(0x40)\n      mload(0x40)\n      dup1\n      swap2\n      sub\n      swap1\n      log3\n        /* \"contracts/Zero2Hero_BNB/2_Token_Deployment/ERC20_test.sol_flattened.sol\":11005:11013  newOwner */\n      dup1\n        /* \"contracts/Zero2Hero_BNB/2_Token_Deployment/ERC20_test.sol_flattened.sol\":10996:11002  _owner */\n      0x00\n      dup1\n        /* \"contracts/Zero2Hero_BNB/2_Token_Deployment/ERC20_test.sol_flattened.sol\":10996:11013  _owner = newOwner */\n      0x0100\n      exp\n      dup2\n      sload\n      dup2\n      0xffffffffffffffffffffffffffffffffffffffff\n      mul\n      not\n      and\n      swap1\n      dup4\n      0xffffffffffffffffffffffffffffffffffffffff\n      and\n      mul\n      or\n      swap1\n      sstore\n      pop\n        /* \"contracts/Zero2Hero_BNB/2_Token_Deployment/ERC20_test.sol_flattened.sol\":10807:11018  function _transferOwnership(address newOwner) internal {... */\n      pop\n      jump\t// out\n        /* \"#utility.yul\":7:133   */\n    tag_36:\n        /* \"#utility.yul\":44:51   */\n      0x00\n        /* \"#utility.yul\":84:126   */\n      0xffffffffffffffffffffffffffffffffffffffff\n        /* \"#utility.yul\":77:82   */\n      dup3\n        /* \"#utility.yul\":73:127   */\n      and\n        /* \"#utility.yul\":62:127   */\n      swap1\n      pop\n        /* \"#utility.yul\":7:133   */\n      swap2\n      swap1\n      pop\n      jump\t// out\n        /* \"#utility.yul\":139:235   */\n    tag_37:\n        /* \"#utility.yul\":176:183   */\n      0x00\n        /* \"#utility.yul\":205:229   */\n      tag_52\n        /* \"#utility.yul\":223:228   */\n      dup3\n        /* \"#utility.yul\":205:229   */\n      tag_36\n      jump\t// in\n    tag_52:\n        /* \"#utility.yul\":194:229   */\n      swap1\n      pop\n        /* \"#utility.yul\":139:235   */\n      swap2\n      swap1\n      pop\n      jump\t// out\n        /* \"#utility.yul\":241:359   */\n    tag_38:\n        /* \"#utility.yul\":328:352   */\n      tag_54\n        /* \"#utility.yul\":346:351   */\n      dup2\n        /* \"#utility.yul\":328:352   */\n      tag_37\n      jump\t// in\n    tag_54:\n        /* \"#utility.yul\":323:326   */\n      dup3\n        /* \"#utility.yul\":316:353   */\n      mstore\n        /* \"#utility.yul\":241:359   */\n      pop\n      pop\n      jump\t// out\n        /* \"#utility.yul\":365:587   */\n    tag_11:\n        /* \"#utility.yul\":458:462   */\n      0x00\n        /* \"#utility.yul\":496:498   */\n      0x20\n        /* \"#utility.yul\":485:494   */\n      dup3\n        /* \"#utility.yul\":481:499   */\n      add\n        /* \"#utility.yul\":473:499   */\n      swap1\n      pop\n        /* \"#utility.yul\":509:580   */\n      tag_56\n        /* \"#utility.yul\":577:578   */\n      0x00\n        /* \"#utility.yul\":566:575   */\n      dup4\n        /* \"#utility.yul\":562:579   */\n      add\n        /* \"#utility.yul\":553:559   */\n      dup5\n        /* \"#utility.yul\":509:580   */\n      tag_38\n      jump\t// in\n    tag_56:\n        /* \"#utility.yul\":365:587   */\n      swap3\n      swap2\n      pop\n      pop\n      jump\t// out\n        /* \"#utility.yul\":674:791   */\n    tag_40:\n        /* \"#utility.yul\":783:784   */\n      0x00\n        /* \"#utility.yul\":780:781   */\n      dup1\n        /* \"#utility.yul\":773:785   */\n      revert\n        /* \"#utility.yul\":920:1042   */\n    tag_42:\n        /* \"#utility.yul\":993:1017   */\n      tag_61\n        /* \"#utility.yul\":1011:1016   */\n      dup2\n        /* \"#utility.yul\":993:1017   */\n      tag_37\n      jump\t// in\n    tag_61:\n        /* \"#utility.yul\":986:991   */\n      dup2\n        /* \"#utility.yul\":983:1018   */\n      eq\n        /* \"#utility.yul\":973:1036   */\n      tag_62\n      jumpi\n        /* \"#utility.yul\":1032:1033   */\n      0x00\n        /* \"#utility.yul\":1029:1030   */\n      dup1\n        /* \"#utility.yul\":1022:1034   */\n      revert\n        /* \"#utility.yul\":973:1036   */\n    tag_62:\n        /* \"#utility.yul\":920:1042   */\n      pop\n      jump\t// out\n        /* \"#utility.yul\":1048:1187   */\n    tag_43:\n        /* \"#utility.yul\":1094:1099   */\n      0x00\n        /* \"#utility.yul\":1132:1138   */\n      dup2\n        /* \"#utility.yul\":1119:1139   */\n      calldataload\n        /* \"#utility.yul\":1110:1139   */\n      swap1\n      pop\n        /* \"#utility.yul\":1148:1181   */\n      tag_64\n        /* \"#utility.yul\":1175:1180   */\n      dup2\n        /* \"#utility.yul\":1148:1181   */\n      tag_42\n      jump\t// in\n    tag_64:\n        /* \"#utility.yul\":1048:1187   */\n      swap3\n      swap2\n      pop\n      pop\n      jump\t// out\n        /* \"#utility.yul\":1193:1522   */\n    tag_14:\n        /* \"#utility.yul\":1252:1258   */\n      0x00\n        /* \"#utility.yul\":1301:1303   */\n      0x20\n        /* \"#utility.yul\":1289:1298   */\n      dup3\n        /* \"#utility.yul\":1280:1287   */\n      dup5\n        /* \"#utility.yul\":1276:1299   */\n      sub\n        /* \"#utility.yul\":1272:1304   */\n      slt\n        /* \"#utility.yul\":1269:1388   */\n      iszero\n      tag_66\n      jumpi\n        /* \"#utility.yul\":1307:1386   */\n      tag_67\n      tag_40\n      jump\t// in\n    tag_67:\n        /* \"#utility.yul\":1269:1388   */\n    tag_66:\n        /* \"#utility.yul\":1427:1428   */\n      0x00\n        /* \"#utility.yul\":1452:1505   */\n      tag_68\n        /* \"#utility.yul\":1497:1504   */\n      dup5\n        /* \"#utility.yul\":1488:1494   */\n      dup3\n        /* \"#utility.yul\":1477:1486   */\n      dup6\n        /* \"#utility.yul\":1473:1495   */\n      add\n        /* \"#utility.yul\":1452:1505   */\n      tag_43\n      jump\t// in\n    tag_68:\n        /* \"#utility.yul\":1442:1505   */\n      swap2\n      pop\n        /* \"#utility.yul\":1398:1515   */\n      pop\n        /* \"#utility.yul\":1193:1522   */\n      swap3\n      swap2\n      pop\n      pop\n      jump\t// out\n        /* \"#utility.yul\":1528:1697   */\n    tag_44:\n        /* \"#utility.yul\":1612:1623   */\n      0x00\n        /* \"#utility.yul\":1646:1652   */\n      dup3\n        /* \"#utility.yul\":1641:1644   */\n      dup3\n        /* \"#utility.yul\":1634:1653   */\n      mstore\n        /* \"#utility.yul\":1686:1690   */\n      0x20\n        /* \"#utility.yul\":1681:1684   */\n      dup3\n        /* \"#utility.yul\":1677:1691   */\n      add\n        /* \"#utility.yul\":1662:1691   */\n      swap1\n      pop\n        /* \"#utility.yul\":1528:1697   */\n      swap3\n      swap2\n      pop\n      pop\n      jump\t// out\n        /* \"#utility.yul\":1703:1885   */\n    tag_45:\n        /* \"#utility.yul\":1843:1877   */\n      0x4f776e61626c653a2063616c6c6572206973206e6f7420746865206f776e6572\n        /* \"#utility.yul\":1839:1840   */\n      0x00\n        /* \"#utility.yul\":1831:1837   */\n      dup3\n        /* \"#utility.yul\":1827:1841   */\n      add\n        /* \"#utility.yul\":1820:1878   */\n      mstore\n        /* \"#utility.yul\":1703:1885   */\n      pop\n      jump\t// out\n        /* \"#utility.yul\":1891:2257   */\n    tag_46:\n        /* \"#utility.yul\":2033:2036   */\n      0x00\n        /* \"#utility.yul\":2054:2121   */\n      tag_72\n        /* \"#utility.yul\":2118:2120   */\n      0x20\n        /* \"#utility.yul\":2113:2116   */\n      dup4\n        /* \"#utility.yul\":2054:2121   */\n      tag_44\n      jump\t// in\n    tag_72:\n        /* \"#utility.yul\":2047:2121   */\n      swap2\n      pop\n        /* \"#utility.yul\":2130:2223   */\n      tag_73\n        /* \"#utility.yul\":2219:2222   */\n      dup3\n        /* \"#utility.yul\":2130:2223   */\n      tag_45\n      jump\t// in\n    tag_73:\n        /* \"#utility.yul\":2248:2250   */\n      0x20\n        /* \"#utility.yul\":2243:2246   */\n      dup3\n        /* \"#utility.yul\":2239:2251   */\n      add\n        /* \"#utility.yul\":2232:2251   */\n      swap1\n      pop\n        /* \"#utility.yul\":1891:2257   */\n      swap2\n      swap1\n      pop\n      jump\t// out\n        /* \"#utility.yul\":2263:2682   */\n    tag_21:\n        /* \"#utility.yul\":2429:2433   */\n      0x00\n        /* \"#utility.yul\":2467:2469   */\n      0x20\n        /* \"#utility.yul\":2456:2465   */\n      dup3\n        /* \"#utility.yul\":2452:2470   */\n      add\n        /* \"#utility.yul\":2444:2470   */\n      swap1\n      pop\n        /* \"#utility.yul\":2516:2525   */\n      dup2\n        /* \"#utility.yul\":2510:2514   */\n      dup2\n        /* \"#utility.yul\":2506:2526   */\n      sub\n        /* \"#utility.yul\":2502:2503   */\n      0x00\n        /* \"#utility.yul\":2491:2500   */\n      dup4\n        /* \"#utility.yul\":2487:2504   */\n      add\n        /* \"#utility.yul\":2480:2527   */\n      mstore\n        /* \"#utility.yul\":2544:2675   */\n      tag_75\n        /* \"#utility.yul\":2670:2674   */\n      dup2\n        /* \"#utility.yul\":2544:2675   */\n      tag_46\n      jump\t// in\n    tag_75:\n        /* \"#utility.yul\":2536:2675   */\n      swap1\n      pop\n        /* \"#utility.yul\":2263:2682   */\n      swap2\n      swap1\n      pop\n      jump\t// out\n        /* \"#utility.yul\":2688:2913   */\n    tag_47:\n        /* \"#utility.yul\":2828:2862   */\n      0x4f776e61626c653a206e6577206f776e657220697320746865207a65726f2061\n        /* \"#utility.yul\":2824:2825   */\n      0x00\n        /* \"#utility.yul\":2816:2822   */\n      dup3\n        /* \"#utility.yul\":2812:2826   */\n      add\n        /* \"#utility.yul\":2805:2863   */\n      mstore\n        /* \"#utility.yul\":2897:2905   */\n      0x6464726573730000000000000000000000000000000000000000000000000000\n        /* \"#utility.yul\":2892:2894   */\n      0x20\n        /* \"#utility.yul\":2884:2890   */\n      dup3\n        /* \"#utility.yul\":2880:2895   */\n      add\n        /* \"#utility.yul\":2873:2906   */\n      mstore\n        /* \"#utility.yul\":2688:2913   */\n      pop\n      jump\t// out\n        /* \"#utility.yul\":2919:3285   */\n    tag_48:\n        /* \"#utility.yul\":3061:3064   */\n      0x00\n        /* \"#utility.yul\":3082:3149   */\n      tag_78\n        /* \"#utility.yul\":3146:3148   */\n      0x26\n        /* \"#utility.yul\":3141:3144   */\n      dup4\n        /* \"#utility.yul\":3082:3149   */\n      tag_44\n      jump\t// in\n    tag_78:\n        /* \"#utility.yul\":3075:3149   */\n      swap2\n      pop\n        /* \"#utility.yul\":3158:3251   */\n      tag_79\n        /* \"#utility.yul\":3247:3250   */\n      dup3\n        /* \"#utility.yul\":3158:3251   */\n      tag_47\n      jump\t// in\n    tag_79:\n        /* \"#utility.yul\":3276:3278   */\n      0x40\n        /* \"#utility.yul\":3271:3274   */\n      dup3\n        /* \"#utility.yul\":3267:3279   */\n      add\n        /* \"#utility.yul\":3260:3279   */\n      swap1\n      pop\n        /* \"#utility.yul\":2919:3285   */\n      swap2\n      swap1\n      pop\n      jump\t// out\n        /* \"#utility.yul\":3291:3710   */\n    tag_35:\n        /* \"#utility.yul\":3457:3461   */\n      0x00\n        /* \"#utility.yul\":3495:3497   */\n      0x20\n        /* \"#utility.yul\":3484:3493   */\n      dup3\n        /* \"#utility.yul\":3480:3498   */\n      add\n        /* \"#utility.yul\":3472:3498   */\n      swap1\n      pop\n        /* \"#utility.yul\":3544:3553   */\n      dup2\n        /* \"#utility.yul\":3538:3542   */\n      dup2\n        /* \"#utility.yul\":3534:3554   */\n      sub\n        /* \"#utility.yul\":3530:3531   */\n      0x00\n        /* \"#utility.yul\":3519:3528   */\n      dup4\n        /* \"#utility.yul\":3515:3532   */\n      add\n        /* \"#utility.yul\":3508:3555   */\n      mstore\n        /* \"#utility.yul\":3572:3703   */\n      tag_81\n        /* \"#utility.yul\":3698:3702   */\n      dup2\n        /* \"#utility.yul\":3572:3703   */\n      tag_48\n      jump\t// in\n    tag_81:\n        /* \"#utility.yul\":3564:3703   */\n      swap1\n      pop\n        /* \"#utility.yul\":3291:3710   */\n      swap2\n      swap1\n      pop\n      jump\t// out\n\n    auxdata: 0xa26469706673582212203af256150ed0a126100307c0febb1c56b3f7ef95330f19a65ced0175519656aa64736f6c63430008130033\n}\n",
				"bytecode": {
					"linkReferences": {},
					"object": "608060405234801561001057600080fd5b5060006100216100c460201b60201c565b9050806000806101000a81548173ffffffffffffffffffffffffffffffffffffffff021916908373ffffffffffffffffffffffffffffffffffffffff1602179055508073ffffffffffffffffffffffffffffffffffffffff16600073ffffffffffffffffffffffffffffffffffffffff167f8be0079c531659141344cd1fd0a4f28419497f9722a3daafe3b4186f6b6457e060405160405180910390a3506100cc565b600033905090565b6105da806100db6000396000f3fe608060405234801561001057600080fd5b50600436106100415760003560e01c8063715018a6146100465780638da5cb5b14610050578063f2fde38b1461006e575b600080fd5b61004e61008a565b005b6100586101dd565b604051610065919061041c565b60405180910390f35b61008860048036038101906100839190610468565b610206565b005b6100926102a7565b73ffffffffffffffffffffffffffffffffffffffff1660008054906101000a900473ffffffffffffffffffffffffffffffffffffffff1673ffffffffffffffffffffffffffffffffffffffff161461011f576040517f08c379a0000000000000000000000000000000000000000000000000000000008152600401610116906104f2565b60405180910390fd5b600073ffffffffffffffffffffffffffffffffffffffff1660008054906101000a900473ffffffffffffffffffffffffffffffffffffffff1673ffffffffffffffffffffffffffffffffffffffff167f8be0079c531659141344cd1fd0a4f28419497f9722a3daafe3b4186f6b6457e060405160405180910390a360008060006101000a81548173ffffffffffffffffffffffffffffffffffffffff021916908373ffffffffffffffffffffffffffffffffffffffff160217905550565b60008060009054906101000a900473ffffffffffffffffffffffffffffffffffffffff16905090565b61020e6102a7565b73ffffffffffffffffffffffffffffffffffffffff1660008054906101000a900473ffffffffffffffffffffffffffffffffffffffff1673ffffffffffffffffffffffffffffffffffffffff161461029b576040517f08c379a0000000000000000000000000000000000000000000000000000000008152600401610292906104f2565b60405180910390fd5b6102a4816102af565b50565b600033905090565b600073ffffffffffffffffffffffffffffffffffffffff168173ffffffffffffffffffffffffffffffffffffffff160361031e576040517f08c379a000000000000000000000000000000000000000000000000000000000815260040161031590610584565b60405180910390fd5b8073ffffffffffffffffffffffffffffffffffffffff1660008054906101000a900473ffffffffffffffffffffffffffffffffffffffff1673ffffffffffffffffffffffffffffffffffffffff167f8be0079c531659141344cd1fd0a4f28419497f9722a3daafe3b4186f6b6457e060405160405180910390a3806000806101000a81548173ffffffffffffffffffffffffffffffffffffffff021916908373ffffffffffffffffffffffffffffffffffffffff16021790555050565b600073ffffffffffffffffffffffffffffffffffffffff82169050919050565b6000610406826103db565b9050919050565b610416816103fb565b82525050565b6000602082019050610431600083018461040d565b92915050565b600080fd5b610445816103fb565b811461045057600080fd5b50565b6000813590506104628161043c565b92915050565b60006020828403121561047e5761047d610437565b5b600061048c84828501610453565b91505092915050565b600082825260208201905092915050565b7f4f776e61626c653a2063616c6c6572206973206e6f7420746865206f776e6572600082015250565b60006104dc602083610495565b91506104e7826104a6565b602082019050919050565b6000602082019050818103600083015261050b816104cf565b9050919050565b7f4f776e61626c653a206e6577206f776e657220697320746865207a65726f206160008201527f6464726573730000000000000000000000000000000000000000000000000000602082015250565b600061056e602683610495565b915061057982610512565b604082019050919050565b6000602082019050818103600083015261059d81610561565b905091905056fea26469706673582212203af256150ed0a126100307c0febb1c56b3f7ef95330f19a65ced0175519656aa64736f6c63430008130033",
					"opcodes": "PUSH1 0x80 PUSH1 0x40 MSTORE CALLVALUE DUP1 ISZERO PUSH2 0x10 JUMPI PUSH1 0x0 DUP1 REVERT JUMPDEST POP PUSH1 0x0 PUSH2 0x21 PUSH2 0xC4 PUSH1 0x20 SHL PUSH1 0x20 SHR JUMP JUMPDEST SWAP1 POP DUP1 PUSH1 0x0 DUP1 PUSH2 0x100 EXP DUP2 SLOAD DUP2 PUSH20 0xFFFFFFFFFFFFFFFFFFFFFFFFFFFFFFFFFFFFFFFF MUL NOT AND SWAP1 DUP4 PUSH20 0xFFFFFFFFFFFFFFFFFFFFFFFFFFFFFFFFFFFFFFFF AND MUL OR SWAP1 SSTORE POP DUP1 PUSH20 0xFFFFFFFFFFFFFFFFFFFFFFFFFFFFFFFFFFFFFFFF AND PUSH1 0x0 PUSH20 0xFFFFFFFFFFFFFFFFFFFFFFFFFFFFFFFFFFFFFFFF AND PUSH32 0x8BE0079C531659141344CD1FD0A4F28419497F9722A3DAAFE3B4186F6B6457E0 PUSH1 0x40 MLOAD PUSH1 0x40 MLOAD DUP1 SWAP2 SUB SWAP1 LOG3 POP PUSH2 0xCC JUMP JUMPDEST PUSH1 0x0 CALLER SWAP1 POP SWAP1 JUMP JUMPDEST PUSH2 0x5DA DUP1 PUSH2 0xDB PUSH1 0x0 CODECOPY PUSH1 0x0 RETURN INVALID PUSH1 0x80 PUSH1 0x40 MSTORE CALLVALUE DUP1 ISZERO PUSH2 0x10 JUMPI PUSH1 0x0 DUP1 REVERT JUMPDEST POP PUSH1 0x4 CALLDATASIZE LT PUSH2 0x41 JUMPI PUSH1 0x0 CALLDATALOAD PUSH1 0xE0 SHR DUP1 PUSH4 0x715018A6 EQ PUSH2 0x46 JUMPI DUP1 PUSH4 0x8DA5CB5B EQ PUSH2 0x50 JUMPI DUP1 PUSH4 0xF2FDE38B EQ PUSH2 0x6E JUMPI JUMPDEST PUSH1 0x0 DUP1 REVERT JUMPDEST PUSH2 0x4E PUSH2 0x8A JUMP JUMPDEST STOP JUMPDEST PUSH2 0x58 PUSH2 0x1DD JUMP JUMPDEST PUSH1 0x40 MLOAD PUSH2 0x65 SWAP2 SWAP1 PUSH2 0x41C JUMP JUMPDEST PUSH1 0x40 MLOAD DUP1 SWAP2 SUB SWAP1 RETURN JUMPDEST PUSH2 0x88 PUSH1 0x4 DUP1 CALLDATASIZE SUB DUP2 ADD SWAP1 PUSH2 0x83 SWAP2 SWAP1 PUSH2 0x468 JUMP JUMPDEST PUSH2 0x206 JUMP JUMPDEST STOP JUMPDEST PUSH2 0x92 PUSH2 0x2A7 JUMP JUMPDEST PUSH20 0xFFFFFFFFFFFFFFFFFFFFFFFFFFFFFFFFFFFFFFFF AND PUSH1 0x0 DUP1 SLOAD SWAP1 PUSH2 0x100 EXP SWAP1 DIV PUSH20 0xFFFFFFFFFFFFFFFFFFFFFFFFFFFFFFFFFFFFFFFF AND PUSH20 0xFFFFFFFFFFFFFFFFFFFFFFFFFFFFFFFFFFFFFFFF AND EQ PUSH2 0x11F JUMPI PUSH1 0x40 MLOAD PUSH32 0x8C379A000000000000000000000000000000000000000000000000000000000 DUP2 MSTORE PUSH1 0x4 ADD PUSH2 0x116 SWAP1 PUSH2 0x4F2 JUMP JUMPDEST PUSH1 0x40 MLOAD DUP1 SWAP2 SUB SWAP1 REVERT JUMPDEST PUSH1 0x0 PUSH20 0xFFFFFFFFFFFFFFFFFFFFFFFFFFFFFFFFFFFFFFFF AND PUSH1 0x0 DUP1 SLOAD SWAP1 PUSH2 0x100 EXP SWAP1 DIV PUSH20 0xFFFFFFFFFFFFFFFFFFFFFFFFFFFFFFFFFFFFFFFF AND PUSH20 0xFFFFFFFFFFFFFFFFFFFFFFFFFFFFFFFFFFFFFFFF AND PUSH32 0x8BE0079C531659141344CD1FD0A4F28419497F9722A3DAAFE3B4186F6B6457E0 PUSH1 0x40 MLOAD PUSH1 0x40 MLOAD DUP1 SWAP2 SUB SWAP1 LOG3 PUSH1 0x0 DUP1 PUSH1 0x0 PUSH2 0x100 EXP DUP2 SLOAD DUP2 PUSH20 0xFFFFFFFFFFFFFFFFFFFFFFFFFFFFFFFFFFFFFFFF MUL NOT AND SWAP1 DUP4 PUSH20 0xFFFFFFFFFFFFFFFFFFFFFFFFFFFFFFFFFFFFFFFF AND MUL OR SWAP1 SSTORE POP JUMP JUMPDEST PUSH1 0x0 DUP1 PUSH1 0x0 SWAP1 SLOAD SWAP1 PUSH2 0x100 EXP SWAP1 DIV PUSH20 0xFFFFFFFFFFFFFFFFFFFFFFFFFFFFFFFFFFFFFFFF AND SWAP1 POP SWAP1 JUMP JUMPDEST PUSH2 0x20E PUSH2 0x2A7 JUMP JUMPDEST PUSH20 0xFFFFFFFFFFFFFFFFFFFFFFFFFFFFFFFFFFFFFFFF AND PUSH1 0x0 DUP1 SLOAD SWAP1 PUSH2 0x100 EXP SWAP1 DIV PUSH20 0xFFFFFFFFFFFFFFFFFFFFFFFFFFFFFFFFFFFFFFFF AND PUSH20 0xFFFFFFFFFFFFFFFFFFFFFFFFFFFFFFFFFFFFFFFF AND EQ PUSH2 0x29B JUMPI PUSH1 0x40 MLOAD PUSH32 0x8C379A000000000000000000000000000000000000000000000000000000000 DUP2 MSTORE PUSH1 0x4 ADD PUSH2 0x292 SWAP1 PUSH2 0x4F2 JUMP JUMPDEST PUSH1 0x40 MLOAD DUP1 SWAP2 SUB SWAP1 REVERT JUMPDEST PUSH2 0x2A4 DUP2 PUSH2 0x2AF JUMP JUMPDEST POP JUMP JUMPDEST PUSH1 0x0 CALLER SWAP1 POP SWAP1 JUMP JUMPDEST PUSH1 0x0 PUSH20 0xFFFFFFFFFFFFFFFFFFFFFFFFFFFFFFFFFFFFFFFF AND DUP2 PUSH20 0xFFFFFFFFFFFFFFFFFFFFFFFFFFFFFFFFFFFFFFFF AND SUB PUSH2 0x31E JUMPI PUSH1 0x40 MLOAD PUSH32 0x8C379A000000000000000000000000000000000000000000000000000000000 DUP2 MSTORE PUSH1 0x4 ADD PUSH2 0x315 SWAP1 PUSH2 0x584 JUMP JUMPDEST PUSH1 0x40 MLOAD DUP1 SWAP2 SUB SWAP1 REVERT JUMPDEST DUP1 PUSH20 0xFFFFFFFFFFFFFFFFFFFFFFFFFFFFFFFFFFFFFFFF AND PUSH1 0x0 DUP1 SLOAD SWAP1 PUSH2 0x100 EXP SWAP1 DIV PUSH20 0xFFFFFFFFFFFFFFFFFFFFFFFFFFFFFFFFFFFFFFFF AND PUSH20 0xFFFFFFFFFFFFFFFFFFFFFFFFFFFFFFFFFFFFFFFF AND PUSH32 0x8BE0079C531659141344CD1FD0A4F28419497F9722A3DAAFE3B4186F6B6457E0 PUSH1 0x40 MLOAD PUSH1 0x40 MLOAD DUP1 SWAP2 SUB SWAP1 LOG3 DUP1 PUSH1 0x0 DUP1 PUSH2 0x100 EXP DUP2 SLOAD DUP2 PUSH20 0xFFFFFFFFFFFFFFFFFFFFFFFFFFFFFFFFFFFFFFFF MUL NOT AND SWAP1 DUP4 PUSH20 0xFFFFFFFFFFFFFFFFFFFFFFFFFFFFFFFFFFFFFFFF AND MUL OR SWAP1 SSTORE POP POP JUMP JUMPDEST PUSH1 0x0 PUSH20 0xFFFFFFFFFFFFFFFFFFFFFFFFFFFFFFFFFFFFFFFF DUP3 AND SWAP1 POP SWAP2 SWAP1 POP JUMP JUMPDEST PUSH1 0x0 PUSH2 0x406 DUP3 PUSH2 0x3DB JUMP JUMPDEST SWAP1 POP SWAP2 SWAP1 POP JUMP JUMPDEST PUSH2 0x416 DUP2 PUSH2 0x3FB JUMP JUMPDEST DUP3 MSTORE POP POP JUMP JUMPDEST PUSH1 0x0 PUSH1 0x20 DUP3 ADD SWAP1 POP PUSH2 0x431 PUSH1 0x0 DUP4 ADD DUP5 PUSH2 0x40D JUMP JUMPDEST SWAP3 SWAP2 POP POP JUMP JUMPDEST PUSH1 0x0 DUP1 REVERT JUMPDEST PUSH2 0x445 DUP2 PUSH2 0x3FB JUMP JUMPDEST DUP2 EQ PUSH2 0x450 JUMPI PUSH1 0x0 DUP1 REVERT JUMPDEST POP JUMP JUMPDEST PUSH1 0x0 DUP2 CALLDATALOAD SWAP1 POP PUSH2 0x462 DUP2 PUSH2 0x43C JUMP JUMPDEST SWAP3 SWAP2 POP POP JUMP JUMPDEST PUSH1 0x0 PUSH1 0x20 DUP3 DUP5 SUB SLT ISZERO PUSH2 0x47E JUMPI PUSH2 0x47D PUSH2 0x437 JUMP JUMPDEST JUMPDEST PUSH1 0x0 PUSH2 0x48C DUP5 DUP3 DUP6 ADD PUSH2 0x453 JUMP JUMPDEST SWAP2 POP POP SWAP3 SWAP2 POP POP JUMP JUMPDEST PUSH1 0x0 DUP3 DUP3 MSTORE PUSH1 0x20 DUP3 ADD SWAP1 POP SWAP3 SWAP2 POP POP JUMP JUMPDEST PUSH32 0x4F776E61626C653A2063616C6C6572206973206E6F7420746865206F776E6572 PUSH1 0x0 DUP3 ADD MSTORE POP JUMP JUMPDEST PUSH1 0x0 PUSH2 0x4DC PUSH1 0x20 DUP4 PUSH2 0x495 JUMP JUMPDEST SWAP2 POP PUSH2 0x4E7 DUP3 PUSH2 0x4A6 JUMP JUMPDEST PUSH1 0x20 DUP3 ADD SWAP1 POP SWAP2 SWAP1 POP JUMP JUMPDEST PUSH1 0x0 PUSH1 0x20 DUP3 ADD SWAP1 POP DUP2 DUP2 SUB PUSH1 0x0 DUP4 ADD MSTORE PUSH2 0x50B DUP2 PUSH2 0x4CF JUMP JUMPDEST SWAP1 POP SWAP2 SWAP1 POP JUMP JUMPDEST PUSH32 0x4F776E61626C653A206E6577206F776E657220697320746865207A65726F2061 PUSH1 0x0 DUP3 ADD MSTORE PUSH32 0x6464726573730000000000000000000000000000000000000000000000000000 PUSH1 0x20 DUP3 ADD MSTORE POP JUMP JUMPDEST PUSH1 0x0 PUSH2 0x56E PUSH1 0x26 DUP4 PUSH2 0x495 JUMP JUMPDEST SWAP2 POP PUSH2 0x579 DUP3 PUSH2 0x512 JUMP JUMPDEST PUSH1 0x40 DUP3 ADD SWAP1 POP SWAP2 SWAP1 POP JUMP JUMPDEST PUSH1 0x0 PUSH1 0x20 DUP3 ADD SWAP1 POP DUP2 DUP2 SUB PUSH1 0x0 DUP4 ADD MSTORE PUSH2 0x59D DUP2 PUSH2 0x561 JUMP JUMPDEST SWAP1 POP SWAP2 SWAP1 POP JUMP INVALID LOG2 PUSH5 0x6970667358 0x22 SLT KECCAK256 GASPRICE CALLCODE JUMP ISZERO 0xE 0xD0 LOG1 0x26 LT SUB SMOD 0xC0 INVALID 0xBB SHR JUMP 0xB3 0xF7 0xEF SWAP6 CALLER 0xF NOT 0xA6 0x5C 0xED ADD PUSH22 0x519656AA64736F6C6343000813003300000000000000 "
				},
				"gasEstimates": {
					"creation": {
						"codeDepositCost": "299600",
						"executionCost": "infinite",
						"totalCost": "infinite"
					},
					"external": {
						"owner()": "2522",
						"renounceOwnership()": "30269",
						"transferOwnership(address)": "30688"
					},
					"internal": {
						"_transferOwnership(address)": "infinite"
					}
				},
				"methodIdentifiers": {
					"owner()": "8da5cb5b",
					"renounceOwnership()": "715018a6",
					"transferOwnership(address)": "f2fde38b"
				}
			},
			"storageLayout": {
				"storage": [
					{
						"astId": 324,
						"contract": "contracts/Zero2Hero_BNB/2_Token_Deployment/ERC20_test.sol_flattened.sol:Ownable",
						"label": "_owner",
						"offset": 0,
						"slot": "0",
						"type": "t_address"
					}
				],
				"types": {
					"t_address": {
						"encoding": "inplace",
						"label": "address",
						"numberOfBytes": "20"
					}
				}
			},
			"userdoc": {
				"kind": "user",
				"methods": {},
				"version": 1
			}
		}
	}
}